{
  "_format": "hh-sol-artifact-1",
  "contractName": "lake",
  "sourceName": "contracts/lake.sol",
  "abi": [
    {
      "inputs": [
        {
          "internalType": "address",
          "name": "_profileContractAddress",
          "type": "address"
        }
      ],
      "stateMutability": "nonpayable",
      "type": "constructor"
    },
    {
      "anonymous": false,
      "inputs": [
        {
          "indexed": true,
          "internalType": "uint16",
          "name": "_postId",
          "type": "uint16"
        },
        {
          "indexed": true,
          "internalType": "uint16",
          "name": "_bidId",
          "type": "uint16"
        },
        {
          "indexed": true,
          "internalType": "bool",
          "name": "_accepted",
          "type": "bool"
        }
      ],
      "name": "bidEvent",
      "type": "event"
    },
    {
      "anonymous": false,
      "inputs": [
        {
          "indexed": true,
          "internalType": "uint16",
          "name": "_postId",
          "type": "uint16"
        },
        {
          "indexed": true,
          "internalType": "string",
          "name": "_category",
          "type": "string"
        }
      ],
      "name": "bucketEvent",
      "type": "event"
    },
    {
      "anonymous": false,
      "inputs": [
        {
          "indexed": true,
          "internalType": "uint16",
          "name": "_postId",
          "type": "uint16"
        },
        {
          "indexed": true,
          "internalType": "enum waterSource.dealStates",
          "name": "_dealState",
          "type": "uint8"
        }
      ],
      "name": "pendingEvent",
      "type": "event"
    },
    {
      "anonymous": false,
      "inputs": [
        {
          "indexed": true,
          "internalType": "uint16",
          "name": "_postId",
          "type": "uint16"
        },
        {
          "indexed": true,
          "internalType": "bool",
          "name": "_live",
          "type": "bool"
        }
      ],
      "name": "postEvent",
      "type": "event"
    },
    {
      "anonymous": false,
      "inputs": [
        {
          "indexed": true,
          "internalType": "uint16",
          "name": "_postId",
          "type": "uint16"
        }
      ],
      "name": "resetEvent",
      "type": "event"
    },
    {
      "inputs": [
        {
          "internalType": "uint16",
          "name": "_postId",
          "type": "uint16"
        },
        {
          "internalType": "uint16",
          "name": "_bidId",
          "type": "uint16"
        }
      ],
      "name": "acceptBid",
      "outputs": [],
      "stateMutability": "nonpayable",
      "type": "function"
    },
    {
      "inputs": [
        {
          "internalType": "uint16",
          "name": "_postId",
          "type": "uint16"
        },
        {
          "internalType": "string",
          "name": "_category",
          "type": "string"
        },
        {
          "internalType": "string",
          "name": "_value",
          "type": "string"
        }
      ],
      "name": "addToBucket",
      "outputs": [],
      "stateMutability": "nonpayable",
      "type": "function"
    },
    {
      "inputs": [
        {
          "internalType": "uint16",
          "name": "_postId",
          "type": "uint16"
        },
        {
          "internalType": "uint16",
          "name": "_bidderId",
          "type": "uint16"
        }
      ],
      "name": "bid",
      "outputs": [],
      "stateMutability": "payable",
      "type": "function"
    },
    {
      "inputs": [
        {
          "internalType": "uint16",
          "name": "",
          "type": "uint16"
        },
        {
          "internalType": "uint16",
          "name": "",
          "type": "uint16"
        }
      ],
      "name": "bids",
      "outputs": [
        {
          "internalType": "uint16",
          "name": "bidderId",
          "type": "uint16"
        },
        {
          "internalType": "address",
          "name": "bidderEOA",
          "type": "address"
        },
        {
          "internalType": "uint256",
          "name": "bidAmount",
          "type": "uint256"
        },
        {
          "internalType": "bool",
          "name": "accepted",
          "type": "bool"
        }
      ],
      "stateMutability": "view",
      "type": "function"
    },
    {
      "inputs": [
        {
          "internalType": "uint16",
          "name": "",
          "type": "uint16"
        },
        {
          "internalType": "uint256",
          "name": "",
          "type": "uint256"
        }
      ],
      "name": "bidsArray",
      "outputs": [
        {
          "internalType": "uint16",
          "name": "",
          "type": "uint16"
        }
      ],
      "stateMutability": "view",
      "type": "function"
    },
    {
      "inputs": [
        {
          "internalType": "uint16",
          "name": "_postId",
          "type": "uint16"
        },
        {
          "internalType": "string",
          "name": "_category",
          "type": "string"
        }
      ],
      "name": "checkBucket",
      "outputs": [
        {
          "internalType": "string",
          "name": "",
          "type": "string"
        }
      ],
      "stateMutability": "view",
      "type": "function"
    },
    {
      "inputs": [
        {
          "internalType": "uint16",
          "name": "_postId",
          "type": "uint16"
        },
        {
          "internalType": "uint16",
          "name": "_profileId",
          "type": "uint16"
        }
      ],
      "name": "closeDeal",
      "outputs": [],
      "stateMutability": "nonpayable",
      "type": "function"
    },
    {
      "inputs": [
        {
          "internalType": "uint16",
          "name": "",
          "type": "uint16"
        }
      ],
      "name": "collection",
      "outputs": [
        {
          "internalType": "string",
          "name": "postName",
          "type": "string"
        },
        {
          "internalType": "string",
          "name": "description",
          "type": "string"
        },
        {
          "internalType": "uint16",
          "name": "profileId",
          "type": "uint16"
        },
        {
          "internalType": "address",
          "name": "EOA",
          "type": "address"
        },
        {
          "internalType": "uint256",
          "name": "price",
          "type": "uint256"
        },
        {
          "components": [
            {
              "internalType": "uint64",
              "name": "x",
              "type": "uint64"
            },
            {
              "internalType": "uint64",
              "name": "y",
              "type": "uint64"
            }
          ],
          "internalType": "struct waterSource.Location",
          "name": "iX",
          "type": "tuple"
        },
        {
          "components": [
            {
              "internalType": "uint64",
              "name": "x",
              "type": "uint64"
            },
            {
              "internalType": "uint64",
              "name": "y",
              "type": "uint64"
            }
          ],
          "internalType": "struct waterSource.Location",
          "name": "fX",
          "type": "tuple"
        },
        {
          "internalType": "uint64",
          "name": "iT",
          "type": "uint64"
        },
        {
          "internalType": "uint64",
          "name": "fT",
          "type": "uint64"
        },
        {
          "internalType": "uint64",
          "name": "exp",
          "type": "uint64"
        },
        {
          "internalType": "bool",
          "name": "live",
          "type": "bool"
        },
        {
          "internalType": "uint16",
          "name": "winningBidId",
          "type": "uint16"
        }
      ],
      "stateMutability": "view",
      "type": "function"
    },
    {
      "inputs": [
        {
          "internalType": "uint16",
          "name": "_postId",
          "type": "uint16"
        },
        {
          "internalType": "string",
          "name": "_description",
          "type": "string"
        }
      ],
      "name": "editDescription",
      "outputs": [],
      "stateMutability": "nonpayable",
      "type": "function"
    },
    {
      "inputs": [
        {
          "internalType": "uint16",
          "name": "_postId",
          "type": "uint16"
        },
        {
          "internalType": "uint64",
          "name": "_exp",
          "type": "uint64"
        }
      ],
      "name": "editExpiryTime",
      "outputs": [],
      "stateMutability": "nonpayable",
      "type": "function"
    },
    {
      "inputs": [
        {
          "internalType": "uint16",
          "name": "_postId",
          "type": "uint16"
        },
        {
          "internalType": "uint64",
          "name": "_x",
          "type": "uint64"
        },
        {
          "internalType": "uint64",
          "name": "_y",
          "type": "uint64"
        }
      ],
      "name": "editFinalLocation",
      "outputs": [],
      "stateMutability": "nonpayable",
      "type": "function"
    },
    {
      "inputs": [
        {
          "internalType": "uint16",
          "name": "_postId",
          "type": "uint16"
        },
        {
          "internalType": "uint64",
          "name": "_fT",
          "type": "uint64"
        }
      ],
      "name": "editFinalTime",
      "outputs": [],
      "stateMutability": "nonpayable",
      "type": "function"
    },
    {
      "inputs": [
        {
          "internalType": "uint16",
          "name": "_postId",
          "type": "uint16"
        },
        {
          "internalType": "uint64",
          "name": "_x",
          "type": "uint64"
        },
        {
          "internalType": "uint64",
          "name": "_y",
          "type": "uint64"
        }
      ],
      "name": "editInitialLocation",
      "outputs": [],
      "stateMutability": "nonpayable",
      "type": "function"
    },
    {
      "inputs": [
        {
          "internalType": "uint16",
          "name": "_postId",
          "type": "uint16"
        },
        {
          "internalType": "uint64",
          "name": "_iT",
          "type": "uint64"
        }
      ],
      "name": "editInitialTime",
      "outputs": [],
      "stateMutability": "nonpayable",
      "type": "function"
    },
    {
      "inputs": [
        {
          "internalType": "uint16",
          "name": "_postId",
          "type": "uint16"
        }
      ],
      "name": "getFinalLocation",
      "outputs": [
        {
          "internalType": "uint64",
          "name": "",
          "type": "uint64"
        },
        {
          "internalType": "uint64",
          "name": "",
          "type": "uint64"
        }
      ],
      "stateMutability": "view",
      "type": "function"
    },
    {
      "inputs": [
        {
          "internalType": "uint16",
          "name": "_postId",
          "type": "uint16"
        }
      ],
      "name": "getInitialLocation",
      "outputs": [
        {
          "internalType": "uint64",
          "name": "",
          "type": "uint64"
        },
        {
          "internalType": "uint64",
          "name": "",
          "type": "uint64"
        }
      ],
      "stateMutability": "view",
      "type": "function"
    },
    {
      "inputs": [
        {
          "internalType": "string",
          "name": "_postName",
          "type": "string"
        },
        {
          "internalType": "uint16",
          "name": "_profileId",
          "type": "uint16"
        },
        {
          "internalType": "uint64",
          "name": "_iXx",
          "type": "uint64"
        },
        {
          "internalType": "uint64",
          "name": "_iXy",
          "type": "uint64"
        },
        {
          "internalType": "uint64",
          "name": "_fXx",
          "type": "uint64"
        },
        {
          "internalType": "uint64",
          "name": "_fXy",
          "type": "uint64"
        },
        {
          "internalType": "uint64",
          "name": "_exp",
          "type": "uint64"
        }
      ],
      "name": "initPost",
      "outputs": [],
      "stateMutability": "payable",
      "type": "function"
    },
    {
      "inputs": [
        {
          "internalType": "uint16",
          "name": "",
          "type": "uint16"
        }
      ],
      "name": "pendingDeals",
      "outputs": [
        {
          "internalType": "enum waterSource.dealStates",
          "name": "",
          "type": "uint8"
        }
      ],
      "stateMutability": "view",
      "type": "function"
    },
    {
      "inputs": [
        {
          "internalType": "uint16",
          "name": "_postId",
          "type": "uint16"
        }
      ],
      "name": "refundExpiredPost",
      "outputs": [],
      "stateMutability": "nonpayable",
      "type": "function"
    },
    {
      "inputs": [
        {
          "internalType": "address",
          "name": "_verifyTributaryAddress",
          "type": "address"
        }
      ],
      "name": "setVerifyTributaryAddress",
      "outputs": [],
      "stateMutability": "nonpayable",
      "type": "function"
    },
    {
      "inputs": [
        {
          "internalType": "uint16",
          "name": "_postId",
          "type": "uint16"
        }
      ],
      "name": "takeDownPost",
      "outputs": [],
      "stateMutability": "nonpayable",
      "type": "function"
    },
    {
      "inputs": [
        {
          "internalType": "uint16",
          "name": "_postId",
          "type": "uint16"
        }
      ],
      "name": "verifyOnOwnPost",
      "outputs": [],
      "stateMutability": "nonpayable",
      "type": "function"
    }
  ],
  "bytecode": "0x60806040526000600660146101000a81548161ffff021916908361ffff1602179055506000600660166101000a81548161ffff021916908361ffff1602179055503480156200004d57600080fd5b5060405162004a8638038062004a8683398181016040528101906200007391906200025f565b80806000806101000a81548173ffffffffffffffffffffffffffffffffffffffff021916908373ffffffffffffffffffffffffffffffffffffffff16021790555033600660006101000a81548173ffffffffffffffffffffffffffffffffffffffff021916908373ffffffffffffffffffffffffffffffffffffffff1602179055506000600160146101000a81548161ffff021916908361ffff16021790555060018060166101000a81548161ffff021916908361ffff16021790555050806000806101000a81548173ffffffffffffffffffffffffffffffffffffffff021916908373ffffffffffffffffffffffffffffffffffffffff16021790555033600660006101000a81548173ffffffffffffffffffffffffffffffffffffffff021916908373ffffffffffffffffffffffffffffffffffffffff1602179055506000600660146101000a81548161ffff021916908361ffff1602179055506001600660166101000a81548161ffff021916908361ffff1602179055505062000291565b600080fd5b600073ffffffffffffffffffffffffffffffffffffffff82169050919050565b60006200022782620001fa565b9050919050565b62000239816200021a565b81146200024557600080fd5b50565b60008151905062000259816200022e565b92915050565b600060208284031215620002785762000277620001f5565b5b6000620002888482850162000248565b91505092915050565b6147e580620002a16000396000f3fe6080604052600436106101355760003560e01c80638882aad1116100ab578063d72e5a0a1161006f578063d72e5a0a14610418578063e643c44a14610460578063e784698d14610489578063f0dcd9f5146104b2578063f4cebfdb146104f0578063fe6304b51461051957610135565b80638882aad11461030e578063a516f3dd1461034b578063aece6ac014610389578063b4ec4761146103b2578063c4c9280f146103ef57610135565b80633e3fd876116100fd5780633e3fd8761461021157806353e964c31461022d5780635c99a40a146102565780635cb675301461027f57806369c81d6e146102a857806383072fec146102e557610135565b8063105098d41461013a5780631ab742421461017a5780631fb9ce5e146101a35780632020e9ea146101cc578063355f0201146101e8575b600080fd5b34801561014657600080fd5b50610161600480360381019061015c91906132e8565b610542565b60405161017194939291906133ac565b60405180910390f35b34801561018657600080fd5b506101a1600480360381019061019c919061341d565b6105ba565b005b3480156101af57600080fd5b506101ca60048036038101906101c5919061348a565b610658565b005b6101e660048036038101906101e191906132e8565b6107d1565b005b3480156101f457600080fd5b5061020f600480360381019061020a9190613542565b610cdf565b005b61022b600480360381019061022691906135d7565b610df9565b005b34801561023957600080fd5b50610254600480360381019061024f9190613699565b61124a565b005b34801561026257600080fd5b5061027d600480360381019061027891906136c6565b611601565b005b34801561028b57600080fd5b506102a660048036038101906102a191906136c6565b61177a565b005b3480156102b457600080fd5b506102cf60048036038101906102ca9190613847565b6118b0565b6040516102dc9190613922565b60405180910390f35b3480156102f157600080fd5b5061030c6004803603810190610307919061348a565b61197d565b005b34801561031a57600080fd5b5061033560048036038101906103309190613699565b611af6565b60405161034291906139bb565b60405180910390f35b34801561035757600080fd5b50610372600480360381019061036d9190613699565b611b16565b6040516103809291906139e5565b60405180910390f35b34801561039557600080fd5b506103b060048036038101906103ab9190613699565b611bc4565b005b3480156103be57600080fd5b506103d960048036038101906103d49190613a3a565b611c9b565b6040516103e69190613a7a565b60405180910390f35b3480156103fb57600080fd5b5061041660048036038101906104119190613a95565b611ce2565b005b34801561042457600080fd5b5061043f600480360381019061043a9190613699565b611e02565b6040516104579c9b9a99989796959493929190613b33565b60405180910390f35b34801561046c57600080fd5b5061048760048036038101906104829190613699565b6120d3565b005b34801561049557600080fd5b506104b060048036038101906104ab91906132e8565b612232565b005b3480156104be57600080fd5b506104d960048036038101906104d49190613699565b6127f0565b6040516104e79291906139e5565b60405180910390f35b3480156104fc57600080fd5b50610517600480360381019061051291906136c6565b61289e565b005b34801561052557600080fd5b50610540600480360381019061053b91906132e8565b6129d4565b005b6003602052816000526040600020602052806000526040600020600091509150508060000160009054906101000a900461ffff16908060000160029054906101000a900473ffffffffffffffffffffffffffffffffffffffff16908060010154908060020160009054906101000a900460ff16905084565b600660009054906101000a900473ffffffffffffffffffffffffffffffffffffffff1673ffffffffffffffffffffffffffffffffffffffff163373ffffffffffffffffffffffffffffffffffffffff161461061457600080fd5b80600160006101000a81548173ffffffffffffffffffffffffffffffffffffffff021916908373ffffffffffffffffffffffffffffffffffffffff16021790555050565b61068e600260008561ffff1661ffff16815260200190815260200160002060020160009054906101000a900461ffff1633612baf565b6106cd576040517f08c379a00000000000000000000000000000000000000000000000000000000081526004016106c490613c6e565b60405180910390fd5b81600260008561ffff1661ffff16815260200190815260200160002060050160000160006101000a81548167ffffffffffffffff021916908367ffffffffffffffff16021790555080600260008561ffff1661ffff16815260200190815260200160002060050160000160086101000a81548167ffffffffffffffff021916908367ffffffffffffffff16021790555060026000600160149054906101000a900461ffff1661ffff1661ffff16815260200190815260200160002060060160189054906101000a900460ff1615158361ffff167f6d0bd97d07eb61a190d38333c6e99f378ac8fd474d475050319e2c02869849f360405160405180910390a3505050565b6107db8234612c56565b61081a576040517f08c379a000000000000000000000000000000000000000000000000000000000815260040161081190613d00565b60405180910390fd5b42600260008461ffff1661ffff16815260200190815260200160002060060160109054906101000a900467ffffffffffffffff1667ffffffffffffffff16101561086c576108678261124a565b610cdb565b60008060008054906101000a900473ffffffffffffffffffffffffffffffffffffffff1673ffffffffffffffffffffffffffffffffffffffff1663ec1b2d81846040518263ffffffff1660e01b81526004016108c89190613a7a565b600060405180830381865afa1580156108e5573d6000803e3d6000fd5b505050506040513d6000823e3d601f19601f8201168201806040525081019061090e9190613db5565b9050508092505060008054906101000a900473ffffffffffffffffffffffffffffffffffffffff1673ffffffffffffffffffffffffffffffffffffffff1663ec1b2d81600260008761ffff1661ffff16815260200190815260200160002060020160009054906101000a900461ffff166040518263ffffffff1660e01b815260040161099a9190613a7a565b600060405180830381865afa1580156109b7573d6000803e3d6000fd5b505050506040513d6000823e3d601f19601f820116820180604052508101906109e09190613db5565b905050809150508060018111156109fa576109f9613944565b5b826001811115610a0d57610a0c613944565b5b03610a4d576040517f08c379a0000000000000000000000000000000000000000000000000000000008152600401610a4490613eb2565b60405180910390fd5b6002600160168282829054906101000a900461ffff16610a6d9190613f01565b92506101000a81548161ffff021916908361ffff16021790555082600360008661ffff1661ffff1681526020019081526020016000206000600160169054906101000a900461ffff1661ffff1661ffff16815260200190815260200160002060000160006101000a81548161ffff021916908361ffff16021790555033600360008661ffff1661ffff1681526020019081526020016000206000600160169054906101000a900461ffff1661ffff1661ffff16815260200190815260200160002060000160026101000a81548173ffffffffffffffffffffffffffffffffffffffff021916908373ffffffffffffffffffffffffffffffffffffffff16021790555034600360008661ffff1661ffff1681526020019081526020016000206000600160169054906101000a900461ffff1661ffff1661ffff168152602001908152602001600020600101819055506000600360008661ffff1661ffff1681526020019081526020016000206000600160169054906101000a900461ffff1661ffff1661ffff16815260200190815260200160002060020160006101000a81548160ff021916908315150217905550600460008561ffff1661ffff168152602001908152602001600020600160169054906101000a900461ffff1690806001815401808255809150506001900390600052602060002090601091828204019190066002029091909190916101000a81548161ffff021916908361ffff16021790555060001515600160169054906101000a900461ffff1661ffff168561ffff167feede45e9c1e239f8a870054f11df3daf31f6062499de917694f038f5704bc66360405160405180910390a450505b5050565b610d15600260008761ffff1661ffff16815260200190815260200160002060020160009054906101000a900461ffff1633612baf565b610d54576040517f08c379a0000000000000000000000000000000000000000000000000000000008152600401610d4b90613c6e565b60405180910390fd5b8181600260008861ffff1661ffff1681526020019081526020016000206007018686604051610d84929190613f67565b90815260200160405180910390209182610d9f929190614197565b50610da985612c62565b8383604051610db9929190613f67565b60405180910390208561ffff167fbaf97478c80f25341499beee1b0593dd5c3d1590210255e24f231e3226fb22f860405160405180910390a35050505050565b610e038633612baf565b610e42576040517f08c379a0000000000000000000000000000000000000000000000000000000008152600401610e3990613c6e565b60405180910390fd5b428167ffffffffffffffff1611610e8e576040517f08c379a0000000000000000000000000000000000000000000000000000000008152600401610e85906142d9565b60405180910390fd5b6002600160148282829054906101000a900461ffff16610eae9190613f01565b92506101000a81548161ffff021916908361ffff1602179055503360026000600160149054906101000a900461ffff1661ffff1661ffff16815260200190815260200160002060020160026101000a81548173ffffffffffffffffffffffffffffffffffffffff021916908373ffffffffffffffffffffffffffffffffffffffff1602179055503460026000600160149054906101000a900461ffff1661ffff1661ffff16815260200190815260200160002060030181905550878760026000600160149054906101000a900461ffff1661ffff1661ffff1681526020019081526020016000206000019182610fa5929190614197565b508560026000600160149054906101000a900461ffff1661ffff1661ffff16815260200190815260200160002060020160006101000a81548161ffff021916908361ffff16021790555060405180604001604052808667ffffffffffffffff1681526020018567ffffffffffffffff1681525060026000600160149054906101000a900461ffff1661ffff1661ffff16815260200190815260200160002060040160008201518160000160006101000a81548167ffffffffffffffff021916908367ffffffffffffffff16021790555060208201518160000160086101000a81548167ffffffffffffffff021916908367ffffffffffffffff16021790555090505060405180604001604052808467ffffffffffffffff1681526020018367ffffffffffffffff1681525060026000600160149054906101000a900461ffff1661ffff1661ffff16815260200190815260200160002060050160008201518160000160006101000a81548167ffffffffffffffff021916908367ffffffffffffffff16021790555060208201518160000160086101000a81548167ffffffffffffffff021916908367ffffffffffffffff1602179055509050508060026000600160149054906101000a900461ffff1661ffff1661ffff16815260200190815260200160002060060160106101000a81548167ffffffffffffffff021916908367ffffffffffffffff160217905550600160026000600160149054906101000a900461ffff1661ffff1661ffff16815260200190815260200160002060060160186101000a81548160ff02191690831515021790555060011515600160149054906101000a900461ffff1661ffff167f6d0bd97d07eb61a190d38333c6e99f378ac8fd474d475050319e2c02869849f360405160405180910390a35050505050505050565b600660009054906101000a900473ffffffffffffffffffffffffffffffffffffffff1673ffffffffffffffffffffffffffffffffffffffff163373ffffffffffffffffffffffffffffffffffffffff16148061130f5750600260008261ffff1661ffff16815260200190815260200160002060020160029054906101000a900473ffffffffffffffffffffffffffffffffffffffff1673ffffffffffffffffffffffffffffffffffffffff163373ffffffffffffffffffffffffffffffffffffffff16145b8061134557503073ffffffffffffffffffffffffffffffffffffffff163373ffffffffffffffffffffffffffffffffffffffff16145b611384576040517f08c379a000000000000000000000000000000000000000000000000000000000815260040161137b9061436b565b60405180910390fd5b42600260008361ffff1661ffff16815260200190815260200160002060060160109054906101000a900467ffffffffffffffff1667ffffffffffffffff1611611402576040517f08c379a00000000000000000000000000000000000000000000000000000000081526004016113f9906143d7565b60405180910390fd5b61140b816120d3565b600260008261ffff1661ffff16815260200190815260200160002060020160029054906101000a900473ffffffffffffffffffffffffffffffffffffffff1673ffffffffffffffffffffffffffffffffffffffff16600260008361ffff1661ffff168152602001908152602001600020505060005b600460008361ffff1661ffff168152602001908152602001600020805490508110156115fd57600360008361ffff1661ffff1681526020019081526020016000206000600460008561ffff1661ffff16815260200190815260200160002083815481106114f0576114ef6143f7565b5b90600052602060002090601091828204019190066002029054906101000a900461ffff1661ffff1661ffff16815260200190815260200160002060000160029054906101000a900473ffffffffffffffffffffffffffffffffffffffff1673ffffffffffffffffffffffffffffffffffffffff16600360008461ffff1661ffff1681526020019081526020016000206000600460008661ffff1661ffff16815260200190815260200160002084815481106115ae576115ad6143f7565b5b90600052602060002090601091828204019190066002029054906101000a900461ffff1661ffff1661ffff168152602001908152602001600020505080806115f590614426565b915050611480565b5050565b611637600260008461ffff1661ffff16815260200190815260200160002060020160009054906101000a900461ffff1633612baf565b611676576040517f08c379a000000000000000000000000000000000000000000000000000000000815260040161166d90613c6e565b60405180910390fd5b428167ffffffffffffffff16116116c2576040517f08c379a00000000000000000000000000000000000000000000000000000000081526004016116b9906142d9565b60405180910390fd5b80600260008461ffff1661ffff16815260200190815260200160002060060160106101000a81548167ffffffffffffffff021916908367ffffffffffffffff16021790555060026000600160149054906101000a900461ffff1661ffff1661ffff16815260200190815260200160002060060160189054906101000a900460ff1615158261ffff167f6d0bd97d07eb61a190d38333c6e99f378ac8fd474d475050319e2c02869849f360405160405180910390a35050565b6117b0600260008461ffff1661ffff16815260200190815260200160002060020160009054906101000a900461ffff1633612baf565b6117ef576040517f08c379a00000000000000000000000000000000000000000000000000000000081526004016117e690613c6e565b60405180910390fd5b80600260008461ffff1661ffff16815260200190815260200160002060060160086101000a81548167ffffffffffffffff021916908367ffffffffffffffff16021790555061183d82612c62565b60026000600160149054906101000a900461ffff1661ffff1661ffff16815260200190815260200160002060060160189054906101000a900460ff1615158261ffff167f6d0bd97d07eb61a190d38333c6e99f378ac8fd474d475050319e2c02869849f360405160405180910390a35050565b6060600260008461ffff1661ffff168152602001908152602001600020600701826040516118de919061449f565b908152602001604051809103902080546118f790613fba565b80601f016020809104026020016040519081016040528092919081815260200182805461192390613fba565b80156119705780601f1061194557610100808354040283529160200191611970565b820191906000526020600020905b81548152906001019060200180831161195357829003601f168201915b5050505050905092915050565b6119b3600260008561ffff1661ffff16815260200190815260200160002060020160009054906101000a900461ffff1633612baf565b6119f2576040517f08c379a00000000000000000000000000000000000000000000000000000000081526004016119e990613c6e565b60405180910390fd5b81600260008561ffff1661ffff16815260200190815260200160002060040160000160006101000a81548167ffffffffffffffff021916908367ffffffffffffffff16021790555080600260008561ffff1661ffff16815260200190815260200160002060040160000160086101000a81548167ffffffffffffffff021916908367ffffffffffffffff16021790555060026000600160149054906101000a900461ffff1661ffff1661ffff16815260200190815260200160002060060160189054906101000a900460ff1615158361ffff167f6d0bd97d07eb61a190d38333c6e99f378ac8fd474d475050319e2c02869849f360405160405180910390a3505050565b60056020528060005260406000206000915054906101000a900460ff1681565b600080611b21613227565b600260008561ffff1661ffff1681526020019081526020016000206004016040518060400160405290816000820160009054906101000a900467ffffffffffffffff1667ffffffffffffffff1667ffffffffffffffff1681526020016000820160089054906101000a900467ffffffffffffffff1667ffffffffffffffff1667ffffffffffffffff16815250509050806000015181602001519250925050915091565b600160009054906101000a900473ffffffffffffffffffffffffffffffffffffffff1673ffffffffffffffffffffffffffffffffffffffff163373ffffffffffffffffffffffffffffffffffffffff1614611c54576040517f08c379a0000000000000000000000000000000000000000000000000000000008152600401611c4b9061454e565b60405180910390fd5b6001600560008361ffff1661ffff16815260200190815260200160002060006101000a81548160ff02191690836004811115611c9357611c92613944565b5b021790555050565b60046020528160005260406000208181548110611cb757600080fd5b9060005260206000209060109182820401919006600202915091509054906101000a900461ffff1681565b611d18600260008561ffff1661ffff16815260200190815260200160002060020160009054906101000a900461ffff1633612baf565b611d57576040517f08c379a0000000000000000000000000000000000000000000000000000000008152600401611d4e90613c6e565b60405180910390fd5b8181600260008661ffff1661ffff1681526020019081526020016000206001019182611d84929190614197565b50611d8e83612c62565b60026000600160149054906101000a900461ffff1661ffff1661ffff16815260200190815260200160002060060160189054906101000a900460ff1615158361ffff167f6d0bd97d07eb61a190d38333c6e99f378ac8fd474d475050319e2c02869849f360405160405180910390a3505050565b6002602052806000526040600020600091509050806000018054611e2590613fba565b80601f0160208091040260200160405190810160405280929190818152602001828054611e5190613fba565b8015611e9e5780601f10611e7357610100808354040283529160200191611e9e565b820191906000526020600020905b815481529060010190602001808311611e8157829003601f168201915b505050505090806001018054611eb390613fba565b80601f0160208091040260200160405190810160405280929190818152602001828054611edf90613fba565b8015611f2c5780601f10611f0157610100808354040283529160200191611f2c565b820191906000526020600020905b815481529060010190602001808311611f0f57829003601f168201915b5050505050908060020160009054906101000a900461ffff16908060020160029054906101000a900473ffffffffffffffffffffffffffffffffffffffff1690806003015490806004016040518060400160405290816000820160009054906101000a900467ffffffffffffffff1667ffffffffffffffff1667ffffffffffffffff1681526020016000820160089054906101000a900467ffffffffffffffff1667ffffffffffffffff1667ffffffffffffffff168152505090806005016040518060400160405290816000820160009054906101000a900467ffffffffffffffff1667ffffffffffffffff1667ffffffffffffffff1681526020016000820160089054906101000a900467ffffffffffffffff1667ffffffffffffffff1667ffffffffffffffff1681525050908060060160009054906101000a900467ffffffffffffffff16908060060160089054906101000a900467ffffffffffffffff16908060060160109054906101000a900467ffffffffffffffff16908060060160189054906101000a900460ff16908060080160009054906101000a900461ffff1690508c565b612109600260008361ffff1661ffff16815260200190815260200160002060020160009054906101000a900461ffff1633612baf565b612148576040517f08c379a000000000000000000000000000000000000000000000000000000000815260040161213f90613c6e565b60405180910390fd5b6000600260008361ffff1661ffff16815260200190815260200160002060060160186101000a81548160ff02191690831515021790555061218881612c62565b600260008261ffff1661ffff16815260200190815260200160002060020160029054906101000a900473ffffffffffffffffffffffffffffffffffffffff1673ffffffffffffffffffffffffffffffffffffffff16600260008361ffff1661ffff1681526020019081526020016000205050600015158161ffff167f6d0bd97d07eb61a190d38333c6e99f378ac8fd474d475050319e2c02869849f360405160405180910390a350565b61223c8282612f1d565b61227b576040517f08c379a0000000000000000000000000000000000000000000000000000000008152600401612272906145e0565b60405180910390fd5b6000600481111561228f5761228e613944565b5b600560008461ffff1661ffff16815260200190815260200160002060009054906101000a900460ff1660048111156122ca576122c9613944565b5b0361230a576040517f08c379a000000000000000000000000000000000000000000000000000000000815260040161230190614672565b60405180910390fd5b60008060009054906101000a900473ffffffffffffffffffffffffffffffffffffffff1673ffffffffffffffffffffffffffffffffffffffff1663ec1b2d81836040518263ffffffff1660e01b81526004016123669190613a7a565b600060405180830381865afa158015612383573d6000803e3d6000fd5b505050506040513d6000823e3d601f19601f820116820180604052508101906123ac9190613db5565b90505080915050600160048111156123c7576123c6613944565b5b600560008561ffff1661ffff16815260200190815260200160002060009054906101000a900460ff16600481111561240257612401613944565b5b036124f2576000600181111561241b5761241a613944565b5b81600181111561242e5761242d613944565b5b0361247c576002600560008561ffff1661ffff16815260200190815260200160002060006101000a81548160ff0219169083600481111561247257612471613944565b5b02179055506124ed565b60018081111561248f5761248e613944565b5b8160018111156124a2576124a1613944565b5b036124ec576003600560008561ffff1661ffff16815260200190815260200160002060006101000a81548160ff021916908360048111156124e6576124e5613944565b5b02179055505b5b61277f565b6002600481111561250657612505613944565b5b600560008561ffff1661ffff16815260200190815260200160002060009054906101000a900460ff16600481111561254157612540613944565b5b036126055760018081111561255957612558613944565b5b81600181111561256c5761256b613944565b5b036125c3576004600560008561ffff1661ffff16815260200190815260200160002060006101000a81548160ff021916908360048111156125b0576125af613944565b5b02179055506125be83612ff7565b612600565b600060018111156125d7576125d6613944565b5b8160018111156125ea576125e9613944565b5b036125ff5760006125fe576125fd614692565b5b5b5b61277e565b6003600481111561261957612618613944565b5b600560008561ffff1661ffff16815260200190815260200160002060009054906101000a900460ff16600481111561265457612653613944565b5b03612718576000600181111561266d5761266c613944565b5b8160018111156126805761267f613944565b5b036126d7576004600560008561ffff1661ffff16815260200190815260200160002060006101000a81548160ff021916908360048111156126c4576126c3613944565b5b02179055506126d283612ff7565b612713565b6001808111156126ea576126e9613944565b5b8160018111156126fd576126fc613944565b5b0361271257600061271157612710614692565b5b5b5b61277d565b6003600481111561272c5761272b613944565b5b600560008561ffff1661ffff16815260200190815260200160002060009054906101000a900460ff16600481111561276757612766613944565b5b0361277c57600061277b5761277a614692565b5b5b5b5b5b600560008461ffff1661ffff16815260200190815260200160002060009054906101000a900460ff1660048111156127ba576127b9613944565b5b8361ffff167f5ce3ac421a0bdf2e262549c1d24776c81b7379f66ca3a670af65d222a39cb1c860405160405180910390a3505050565b6000806127fb613227565b600260008561ffff1661ffff1681526020019081526020016000206005016040518060400160405290816000820160009054906101000a900467ffffffffffffffff1667ffffffffffffffff1667ffffffffffffffff1681526020016000820160089054906101000a900467ffffffffffffffff1667ffffffffffffffff1667ffffffffffffffff16815250509050806000015181602001519250925050915091565b6128d4600260008461ffff1661ffff16815260200190815260200160002060020160009054906101000a900461ffff1633612baf565b612913576040517f08c379a000000000000000000000000000000000000000000000000000000000815260040161290a90613c6e565b60405180910390fd5b80600260008461ffff1661ffff16815260200190815260200160002060060160006101000a81548167ffffffffffffffff021916908367ffffffffffffffff16021790555061296182612c62565b60026000600160149054906101000a900461ffff1661ffff1661ffff16815260200190815260200160002060060160189054906101000a900460ff1615158261ffff167f6d0bd97d07eb61a190d38333c6e99f378ac8fd474d475050319e2c02869849f360405160405180910390a35050565b612a0a600260008461ffff1661ffff16815260200190815260200160002060020160009054906101000a900461ffff1633612baf565b612a49576040517f08c379a0000000000000000000000000000000000000000000000000000000008152600401612a4090613c6e565b60405180910390fd5b612a5282612ffa565b612a91576040517f08c379a0000000000000000000000000000000000000000000000000000000008152600401612a889061470d565b60405180910390fd5b612a9a826120d3565b6001600360008461ffff1661ffff16815260200190815260200160002060008361ffff1661ffff16815260200190815260200160002060020160006101000a81548160ff0219169083151502179055506000600560008461ffff1661ffff16815260200190815260200160002060006101000a81548160ff02191690836004811115612b2957612b28613944565b5b021790555080600260008461ffff1661ffff16815260200190815260200160002060080160006101000a81548161ffff021916908361ffff160217905550612b718282613042565b600115158161ffff168361ffff167feede45e9c1e239f8a870054f11df3daf31f6062499de917694f038f5704bc66360405160405180910390a45050565b60008060009054906101000a900473ffffffffffffffffffffffffffffffffffffffff1673ffffffffffffffffffffffffffffffffffffffff1663d17264f084846040518363ffffffff1660e01b8152600401612c0d92919061472d565b602060405180830381865afa158015612c2a573d6000803e3d6000fd5b505050506040513d601f19601f82011682018060405250810190612c4e9190614782565b905092915050565b60006001905092915050565b60005b600460008361ffff1661ffff16815260200190815260200160002080549050811015612ec157600360008361ffff1661ffff1681526020019081526020016000206000600460008561ffff1661ffff1681526020019081526020016000208381548110612cd557612cd46143f7565b5b90600052602060002090601091828204019190066002029054906101000a900461ffff1661ffff1661ffff16815260200190815260200160002060000160029054906101000a900473ffffffffffffffffffffffffffffffffffffffff1673ffffffffffffffffffffffffffffffffffffffff16600360008461ffff1661ffff1681526020019081526020016000206000600460008661ffff1661ffff1681526020019081526020016000208481548110612d9357612d926143f7565b5b90600052602060002090601091828204019190066002029054906101000a900461ffff1661ffff1661ffff1681526020019081526020016000205050600360008361ffff1661ffff1681526020019081526020016000206000600460008561ffff1661ffff1681526020019081526020016000208381548110612e1957612e186143f7565b5b90600052602060002090601091828204019190066002029054906101000a900461ffff1661ffff1661ffff168152602001908152602001600020600080820160006101000a81549061ffff02191690556000820160026101000a81549073ffffffffffffffffffffffffffffffffffffffff021916905560018201600090556002820160006101000a81549060ff021916905550508080612eb990614426565b915050612c65565b50600460008261ffff1661ffff1681526020019081526020016000206000612ee99190613255565b8061ffff167f372e3aa608ee95995abbce35189c94770e047df9a345e82c46cfd79918d0951860405160405180910390a250565b60008161ffff16600260008561ffff1661ffff16815260200190815260200160002060020160009054906101000a900461ffff1661ffff1603612f635760019050612ff1565b8161ffff16600360008561ffff1661ffff1681526020019081526020016000206000600260008761ffff1661ffff16815260200190815260200160002060080160009054906101000a900461ffff1661ffff1661ffff16815260200190815260200160002060000160009054906101000a900461ffff1661ffff1603612fec5760019050612ff1565b600090505b92915050565b50565b6000600260008361ffff1661ffff16815260200190815260200160002060060160109054906101000a900467ffffffffffffffff1667ffffffffffffffff1642109050919050565b60005b600460008461ffff1661ffff16815260200190815260200160002080549050811015613222578161ffff16600460008561ffff1661ffff168152602001908152602001600020828154811061309d5761309c6143f7565b5b90600052602060002090601091828204019190066002029054906101000a900461ffff1661ffff161461320f57600360008461ffff1661ffff1681526020019081526020016000206000600460008661ffff1661ffff1681526020019081526020016000208381548110613114576131136143f7565b5b90600052602060002090601091828204019190066002029054906101000a900461ffff1661ffff1661ffff16815260200190815260200160002060000160029054906101000a900473ffffffffffffffffffffffffffffffffffffffff1673ffffffffffffffffffffffffffffffffffffffff16600360008561ffff1661ffff1681526020019081526020016000206000600460008761ffff1661ffff16815260200190815260200160002084815481106131d2576131d16143f7565b5b90600052602060002090601091828204019190066002029054906101000a900461ffff1661ffff1661ffff16815260200190815260200160002050505b808061321a90614426565b915050613045565b505050565b6040518060400160405280600067ffffffffffffffff168152602001600067ffffffffffffffff1681525090565b50805460008255600f01601090049060005260206000209081019061327a919061327d565b50565b5b8082111561329657600081600090555060010161327e565b5090565b6000604051905090565b600080fd5b600080fd5b600061ffff82169050919050565b6132c5816132ae565b81146132d057600080fd5b50565b6000813590506132e2816132bc565b92915050565b600080604083850312156132ff576132fe6132a4565b5b600061330d858286016132d3565b925050602061331e858286016132d3565b9150509250929050565b613331816132ae565b82525050565b600073ffffffffffffffffffffffffffffffffffffffff82169050919050565b600061336282613337565b9050919050565b61337281613357565b82525050565b6000819050919050565b61338b81613378565b82525050565b60008115159050919050565b6133a681613391565b82525050565b60006080820190506133c16000830187613328565b6133ce6020830186613369565b6133db6040830185613382565b6133e8606083018461339d565b95945050505050565b6133fa81613357565b811461340557600080fd5b50565b600081359050613417816133f1565b92915050565b600060208284031215613433576134326132a4565b5b600061344184828501613408565b91505092915050565b600067ffffffffffffffff82169050919050565b6134678161344a565b811461347257600080fd5b50565b6000813590506134848161345e565b92915050565b6000806000606084860312156134a3576134a26132a4565b5b60006134b1868287016132d3565b93505060206134c286828701613475565b92505060406134d386828701613475565b9150509250925092565b600080fd5b600080fd5b600080fd5b60008083601f840112613502576135016134dd565b5b8235905067ffffffffffffffff81111561351f5761351e6134e2565b5b60208301915083600182028301111561353b5761353a6134e7565b5b9250929050565b60008060008060006060868803121561355e5761355d6132a4565b5b600061356c888289016132d3565b955050602086013567ffffffffffffffff81111561358d5761358c6132a9565b5b613599888289016134ec565b9450945050604086013567ffffffffffffffff8111156135bc576135bb6132a9565b5b6135c8888289016134ec565b92509250509295509295909350565b60008060008060008060008060e0898b0312156135f7576135f66132a4565b5b600089013567ffffffffffffffff811115613615576136146132a9565b5b6136218b828c016134ec565b985098505060206136348b828c016132d3565b96505060406136458b828c01613475565b95505060606136568b828c01613475565b94505060806136678b828c01613475565b93505060a06136788b828c01613475565b92505060c06136898b828c01613475565b9150509295985092959890939650565b6000602082840312156136af576136ae6132a4565b5b60006136bd848285016132d3565b91505092915050565b600080604083850312156136dd576136dc6132a4565b5b60006136eb858286016132d3565b92505060206136fc85828601613475565b9150509250929050565b600080fd5b6000601f19601f8301169050919050565b7f4e487b7100000000000000000000000000000000000000000000000000000000600052604160045260246000fd5b6137548261370b565b810181811067ffffffffffffffff821117156137735761377261371c565b5b80604052505050565b600061378661329a565b9050613792828261374b565b919050565b600067ffffffffffffffff8211156137b2576137b161371c565b5b6137bb8261370b565b9050602081019050919050565b82818337600083830152505050565b60006137ea6137e584613797565b61377c565b90508281526020810184848401111561380657613805613706565b5b6138118482856137c8565b509392505050565b600082601f83011261382e5761382d6134dd565b5b813561383e8482602086016137d7565b91505092915050565b6000806040838503121561385e5761385d6132a4565b5b600061386c858286016132d3565b925050602083013567ffffffffffffffff81111561388d5761388c6132a9565b5b61389985828601613819565b9150509250929050565b600081519050919050565b600082825260208201905092915050565b60005b838110156138dd5780820151818401526020810190506138c2565b60008484015250505050565b60006138f4826138a3565b6138fe81856138ae565b935061390e8185602086016138bf565b6139178161370b565b840191505092915050565b6000602082019050818103600083015261393c81846138e9565b905092915050565b7f4e487b7100000000000000000000000000000000000000000000000000000000600052602160045260246000fd5b6005811061398457613983613944565b5b50565b600081905061399582613973565b919050565b60006139a582613987565b9050919050565b6139b58161399a565b82525050565b60006020820190506139d060008301846139ac565b92915050565b6139df8161344a565b82525050565b60006040820190506139fa60008301856139d6565b613a0760208301846139d6565b9392505050565b613a1781613378565b8114613a2257600080fd5b50565b600081359050613a3481613a0e565b92915050565b60008060408385031215613a5157613a506132a4565b5b6000613a5f858286016132d3565b9250506020613a7085828601613a25565b9150509250929050565b6000602082019050613a8f6000830184613328565b92915050565b600080600060408486031215613aae57613aad6132a4565b5b6000613abc868287016132d3565b935050602084013567ffffffffffffffff811115613add57613adc6132a9565b5b613ae9868287016134ec565b92509250509250925092565b613afe8161344a565b82525050565b604082016000820151613b1a6000850182613af5565b506020820151613b2d6020850182613af5565b50505050565b60006101c0820190508181036000830152613b4e818f6138e9565b90508181036020830152613b62818e6138e9565b9050613b71604083018d613328565b613b7e606083018c613369565b613b8b608083018b613382565b613b9860a083018a613b04565b613ba560e0830189613b04565b613bb36101208301886139d6565b613bc16101408301876139d6565b613bcf6101608301866139d6565b613bdd61018083018561339d565b613beb6101a0830184613328565b9d9c50505050505050505050505050565b7f4572726f723a20454f41206973206e6f74206173736f6369617465642077697460008201527f6820746869732075736572000000000000000000000000000000000000000000602082015250565b6000613c58602b836138ae565b9150613c6382613bfc565b604082019050919050565b60006020820190508181036000830152613c8781613c4b565b9050919050565b7f446f6573206e6f74206d65657420637269746572696120666f7220647574636860008201527f2f656e676c697368206269640000000000000000000000000000000000000000602082015250565b6000613cea602c836138ae565b9150613cf582613c8e565b604082019050919050565b60006020820190508181036000830152613d1981613cdd565b9050919050565b60028110613d2d57600080fd5b50565b600081519050613d3f81613d20565b92915050565b6000613d58613d5384613797565b61377c565b905082815260208101848484011115613d7457613d73613706565b5b613d7f8482856138bf565b509392505050565b600082601f830112613d9c57613d9b6134dd565b5b8151613dac848260208601613d45565b91505092915050565b600080600060608486031215613dce57613dcd6132a4565b5b6000613ddc86828701613d30565b935050602084015167ffffffffffffffff811115613dfd57613dfc6132a9565b5b613e0986828701613d87565b925050604084015167ffffffffffffffff811115613e2a57613e296132a9565b5b613e3686828701613d87565b9150509250925092565b7f4572726f723a206e6f7420616c6c6f77656420746f20626964206f6e20706f7360008201527f74206f662073616d652077617465722074797065000000000000000000000000602082015250565b6000613e9c6034836138ae565b9150613ea782613e40565b604082019050919050565b60006020820190508181036000830152613ecb81613e8f565b9050919050565b7f4e487b7100000000000000000000000000000000000000000000000000000000600052601160045260246000fd5b6000613f0c826132ae565b9150613f17836132ae565b9250828201905061ffff811115613f3157613f30613ed2565b5b92915050565b600081905092915050565b6000613f4e8385613f37565b9350613f5b8385846137c8565b82840190509392505050565b6000613f74828486613f42565b91508190509392505050565b600082905092915050565b7f4e487b7100000000000000000000000000000000000000000000000000000000600052602260045260246000fd5b60006002820490506001821680613fd257607f821691505b602082108103613fe557613fe4613f8b565b5b50919050565b60008190508160005260206000209050919050565b60006020601f8301049050919050565b600082821b905092915050565b60006008830261404d7fffffffffffffffffffffffffffffffffffffffffffffffffffffffffffffffff82614010565b6140578683614010565b95508019841693508086168417925050509392505050565b6000819050919050565b600061409461408f61408a84613378565b61406f565b613378565b9050919050565b6000819050919050565b6140ae83614079565b6140c26140ba8261409b565b84845461401d565b825550505050565b600090565b6140d76140ca565b6140e28184846140a5565b505050565b5b81811015614106576140fb6000826140cf565b6001810190506140e8565b5050565b601f82111561414b5761411c81613feb565b61412584614000565b81016020851015614134578190505b61414861414085614000565b8301826140e7565b50505b505050565b600082821c905092915050565b600061416e60001984600802614150565b1980831691505092915050565b6000614187838361415d565b9150826002028217905092915050565b6141a18383613f80565b67ffffffffffffffff8111156141ba576141b961371c565b5b6141c48254613fba565b6141cf82828561410a565b6000601f8311600181146141fe57600084156141ec578287013590505b6141f6858261417b565b86555061425e565b601f19841661420c86613feb565b60005b828110156142345784890135825560018201915060208501945060208101905061420f565b86831015614251578489013561424d601f89168261415d565b8355505b6001600288020188555050505b50505050505050565b7f4572726f723a206578706972792074696d6520697320696e207468652070617360008201527f7400000000000000000000000000000000000000000000000000000000000000602082015250565b60006142c36021836138ae565b91506142ce82614267565b604082019050919050565b600060208201905081810360008301526142f2816142b6565b9050919050565b7f536d61727420436f6e7472616374204572726f723a206e6f7420617574686f7260008201527f6973656420746f20726566756e642066726f6d207468697320706f7374000000602082015250565b6000614355603d836138ae565b9150614360826142f9565b604082019050919050565b6000602082019050818103600083015261438481614348565b9050919050565b7f54686520706f737420686173206e6f7420657870697265640000000000000000600082015250565b60006143c16018836138ae565b91506143cc8261438b565b602082019050919050565b600060208201905081810360008301526143f0816143b4565b9050919050565b7f4e487b7100000000000000000000000000000000000000000000000000000000600052603260045260246000fd5b600061443182613378565b91507fffffffffffffffffffffffffffffffffffffffffffffffffffffffffffffffff820361446357614462613ed2565b5b600182019050919050565b6000614479826138a3565b6144838185613f37565b93506144938185602086016138bf565b80840191505092915050565b60006144ab828461446e565b915081905092915050565b7f4572726f723a20746869732066756e6374696f6e2063616e206f6e6c7920626560008201527f207472696767657265642062792074686520766572696679696e6720636f6e7460208201527f7261637400000000000000000000000000000000000000000000000000000000604082015250565b60006145386044836138ae565b9150614543826144b6565b606082019050919050565b600060208201905081810360008301526145678161452b565b9050919050565b7f4572726f723a2070726f66696c654964206e6f74206173736f6369617465642060008201527f776974682074686973206465616c000000000000000000000000000000000000602082015250565b60006145ca602e836138ae565b91506145d58261456e565b604082019050919050565b600060208201905081810360008301526145f9816145bd565b9050919050565b7f4572726f723a206465616c206e6565647320746f20626520766572696669656460008201527f206265666f72652069742063616e20626520636c6f7365640000000000000000602082015250565b600061465c6038836138ae565b915061466782614600565b604082019050919050565b6000602082019050818103600083015261468b8161464f565b9050919050565b7f4e487b7100000000000000000000000000000000000000000000000000000000600052600160045260246000fd5b7f4572726f723a20706f7374206861732065787069726564000000000000000000600082015250565b60006146f76017836138ae565b9150614702826146c1565b602082019050919050565b60006020820190508181036000830152614726816146ea565b9050919050565b60006040820190506147426000830185613328565b61474f6020830184613369565b9392505050565b61475f81613391565b811461476a57600080fd5b50565b60008151905061477c81614756565b92915050565b600060208284031215614798576147976132a4565b5b60006147a68482850161476d565b9150509291505056fea2646970667358221220e447840d19cafd56fec6fd0c7b907c1ad61825332df462be2fc4f0890457d62c64736f6c63430008120033",
  "linkReferences": {},
  "deployedLinkReferences": {}
}