{
  "contractName": "lake",
  "abi": [
    {
      "inputs": [
        {
          "internalType": "address",
          "name": "_profileContractAddress",
          "type": "address"
        }
      ],
      "stateMutability": "nonpayable",
      "type": "constructor"
    },
    {
      "anonymous": false,
      "inputs": [
        {
          "indexed": true,
          "internalType": "uint16",
          "name": "_postId",
          "type": "uint16"
        },
        {
          "indexed": true,
          "internalType": "uint16",
          "name": "_bidId",
          "type": "uint16"
        },
        {
          "indexed": true,
          "internalType": "bool",
          "name": "_accepted",
          "type": "bool"
        }
      ],
      "name": "bidEvent",
      "type": "event"
    },
    {
      "anonymous": false,
      "inputs": [
        {
          "indexed": true,
          "internalType": "uint16",
          "name": "_postId",
          "type": "uint16"
        },
        {
          "indexed": true,
          "internalType": "string",
          "name": "_category",
          "type": "string"
        }
      ],
      "name": "bucketEvent",
      "type": "event"
    },
    {
      "anonymous": false,
      "inputs": [
        {
          "indexed": true,
          "internalType": "uint16",
          "name": "_postId",
          "type": "uint16"
        },
        {
          "indexed": true,
          "internalType": "bool",
          "name": "_live",
          "type": "bool"
        }
      ],
      "name": "postEvent",
      "type": "event"
    },
    {
      "anonymous": false,
      "inputs": [
        {
          "indexed": true,
          "internalType": "uint16",
          "name": "_postId",
          "type": "uint16"
        }
      ],
      "name": "resetEvent",
      "type": "event"
    },
    {
      "inputs": [
        {
          "internalType": "uint16",
          "name": "_postId",
          "type": "uint16"
        },
        {
          "internalType": "uint16",
          "name": "_bidId",
          "type": "uint16"
        }
      ],
      "name": "acceptBid",
      "outputs": [],
      "stateMutability": "nonpayable",
      "type": "function"
    },
    {
      "inputs": [
        {
          "internalType": "uint16",
          "name": "_postId",
          "type": "uint16"
        },
        {
          "internalType": "uint16",
          "name": "_fT",
          "type": "uint16"
        }
      ],
      "name": "addFinalTime",
      "outputs": [],
      "stateMutability": "nonpayable",
      "type": "function"
    },
    {
      "inputs": [
        {
          "internalType": "uint16",
          "name": "_postId",
          "type": "uint16"
        },
        {
          "internalType": "uint16",
          "name": "_iT",
          "type": "uint16"
        }
      ],
      "name": "addInitialTime",
      "outputs": [],
      "stateMutability": "nonpayable",
      "type": "function"
    },
    {
      "inputs": [
        {
          "internalType": "uint16",
          "name": "_postId",
          "type": "uint16"
        },
        {
          "internalType": "string",
          "name": "_category",
          "type": "string"
        },
        {
          "internalType": "string",
          "name": "_value",
          "type": "string"
        }
      ],
      "name": "addToBucket",
      "outputs": [],
      "stateMutability": "nonpayable",
      "type": "function"
    },
    {
      "inputs": [
        {
          "internalType": "uint16",
          "name": "_postId",
          "type": "uint16"
        },
        {
          "internalType": "uint16",
          "name": "_bidderId",
          "type": "uint16"
        }
      ],
      "name": "bid",
      "outputs": [],
      "stateMutability": "payable",
      "type": "function"
    },
    {
      "inputs": [
        {
          "internalType": "uint16",
          "name": "",
          "type": "uint16"
        },
        {
          "internalType": "uint16",
          "name": "",
          "type": "uint16"
        }
      ],
      "name": "bids",
      "outputs": [
        {
          "internalType": "uint16",
          "name": "bidderId",
          "type": "uint16"
        },
        {
          "internalType": "address",
          "name": "bidderEOA",
          "type": "address"
        },
        {
          "internalType": "uint256",
          "name": "bidAmount",
          "type": "uint256"
        },
        {
          "internalType": "bool",
          "name": "accepted",
          "type": "bool"
        }
      ],
      "stateMutability": "view",
      "type": "function"
    },
    {
      "inputs": [
        {
          "internalType": "uint16",
          "name": "",
          "type": "uint16"
        },
        {
          "internalType": "uint256",
          "name": "",
          "type": "uint256"
        }
      ],
      "name": "bidsArray",
      "outputs": [
        {
          "internalType": "uint16",
          "name": "",
          "type": "uint16"
        }
      ],
      "stateMutability": "view",
      "type": "function"
    },
    {
      "inputs": [
        {
          "internalType": "uint16",
          "name": "_postId",
          "type": "uint16"
        },
        {
          "internalType": "string",
          "name": "_category",
          "type": "string"
        }
      ],
      "name": "checkBucket",
      "outputs": [
        {
          "internalType": "string",
          "name": "",
          "type": "string"
        }
      ],
      "stateMutability": "view",
      "type": "function"
    },
    {
      "inputs": [
        {
          "internalType": "uint16",
          "name": "_postId",
          "type": "uint16"
        },
        {
          "internalType": "uint16",
          "name": "_profileId",
          "type": "uint16"
        }
      ],
      "name": "closeDeal",
      "outputs": [],
      "stateMutability": "nonpayable",
      "type": "function"
    },
    {
      "inputs": [
        {
          "internalType": "uint16",
          "name": "",
          "type": "uint16"
        }
      ],
      "name": "collection",
      "outputs": [
        {
          "internalType": "string",
          "name": "postName",
          "type": "string"
        },
        {
          "internalType": "uint16",
          "name": "profileId",
          "type": "uint16"
        },
        {
          "internalType": "address",
          "name": "EOA",
          "type": "address"
        },
        {
          "internalType": "uint256",
          "name": "price",
          "type": "uint256"
        },
        {
          "components": [
            {
              "internalType": "uint16",
              "name": "x",
              "type": "uint16"
            },
            {
              "internalType": "uint16",
              "name": "y",
              "type": "uint16"
            }
          ],
          "internalType": "struct waterSource.Location",
          "name": "iX",
          "type": "tuple"
        },
        {
          "components": [
            {
              "internalType": "uint16",
              "name": "x",
              "type": "uint16"
            },
            {
              "internalType": "uint16",
              "name": "y",
              "type": "uint16"
            }
          ],
          "internalType": "struct waterSource.Location",
          "name": "fX",
          "type": "tuple"
        },
        {
          "internalType": "uint16",
          "name": "iT",
          "type": "uint16"
        },
        {
          "internalType": "uint16",
          "name": "fT",
          "type": "uint16"
        },
        {
          "internalType": "uint16",
          "name": "exp",
          "type": "uint16"
        },
        {
          "internalType": "bool",
          "name": "live",
          "type": "bool"
        },
        {
          "internalType": "uint16",
          "name": "winningBidId",
          "type": "uint16"
        }
      ],
      "stateMutability": "view",
      "type": "function"
    },
    {
      "inputs": [
        {
          "internalType": "uint16",
          "name": "_postId",
          "type": "uint16"
        },
        {
          "internalType": "uint16",
          "name": "_exp",
          "type": "uint16"
        }
      ],
      "name": "editExpiryTime",
      "outputs": [],
      "stateMutability": "nonpayable",
      "type": "function"
    },
    {
      "inputs": [
        {
          "internalType": "uint16",
          "name": "_postId",
          "type": "uint16"
        },
        {
          "internalType": "uint16",
          "name": "_x",
          "type": "uint16"
        },
        {
          "internalType": "uint16",
          "name": "_y",
          "type": "uint16"
        }
      ],
      "name": "editFinalLocation",
      "outputs": [],
      "stateMutability": "nonpayable",
      "type": "function"
    },
    {
      "inputs": [
        {
          "internalType": "uint16",
          "name": "_postId",
          "type": "uint16"
        },
        {
          "internalType": "uint16",
          "name": "_fT",
          "type": "uint16"
        }
      ],
      "name": "editFinalTime",
      "outputs": [],
      "stateMutability": "nonpayable",
      "type": "function"
    },
    {
      "inputs": [
        {
          "internalType": "uint16",
          "name": "_postId",
          "type": "uint16"
        },
        {
          "internalType": "uint16",
          "name": "_x",
          "type": "uint16"
        },
        {
          "internalType": "uint16",
          "name": "_y",
          "type": "uint16"
        }
      ],
      "name": "editInitialLocation",
      "outputs": [],
      "stateMutability": "nonpayable",
      "type": "function"
    },
    {
      "inputs": [
        {
          "internalType": "uint16",
          "name": "_postId",
          "type": "uint16"
        },
        {
          "internalType": "uint16",
          "name": "_iT",
          "type": "uint16"
        }
      ],
      "name": "editInitialTime",
      "outputs": [],
      "stateMutability": "nonpayable",
      "type": "function"
    },
    {
      "inputs": [
        {
          "internalType": "uint16",
          "name": "_postId",
          "type": "uint16"
        }
      ],
      "name": "getFinalLocation",
      "outputs": [
        {
          "internalType": "uint16",
          "name": "",
          "type": "uint16"
        },
        {
          "internalType": "uint16",
          "name": "",
          "type": "uint16"
        }
      ],
      "stateMutability": "view",
      "type": "function"
    },
    {
      "inputs": [
        {
          "internalType": "uint16",
          "name": "_postId",
          "type": "uint16"
        }
      ],
      "name": "getInitialLocation",
      "outputs": [
        {
          "internalType": "uint16",
          "name": "",
          "type": "uint16"
        },
        {
          "internalType": "uint16",
          "name": "",
          "type": "uint16"
        }
      ],
      "stateMutability": "view",
      "type": "function"
    },
    {
      "inputs": [
        {
          "internalType": "string",
          "name": "_postName",
          "type": "string"
        },
        {
          "internalType": "uint16",
          "name": "_profileId",
          "type": "uint16"
        },
        {
          "internalType": "uint16",
          "name": "_iXx",
          "type": "uint16"
        },
        {
          "internalType": "uint16",
          "name": "_iXy",
          "type": "uint16"
        },
        {
          "internalType": "uint16",
          "name": "_fXx",
          "type": "uint16"
        },
        {
          "internalType": "uint16",
          "name": "_fXy",
          "type": "uint16"
        },
        {
          "internalType": "uint16",
          "name": "_exp",
          "type": "uint16"
        }
      ],
      "name": "initPost",
      "outputs": [],
      "stateMutability": "payable",
      "type": "function"
    },
    {
      "inputs": [
        {
          "internalType": "uint16",
          "name": "",
          "type": "uint16"
        }
      ],
      "name": "pendingDeals",
      "outputs": [
        {
          "internalType": "enum waterSource.dealStates",
          "name": "",
          "type": "uint8"
        }
      ],
      "stateMutability": "view",
      "type": "function"
    },
    {
      "inputs": [
        {
          "internalType": "uint16",
          "name": "_postId",
          "type": "uint16"
        }
      ],
      "name": "refund",
      "outputs": [],
      "stateMutability": "view",
      "type": "function"
    },
    {
      "inputs": [
        {
          "internalType": "uint16",
          "name": "_postId",
          "type": "uint16"
        }
      ],
      "name": "takeDownPost",
      "outputs": [],
      "stateMutability": "nonpayable",
      "type": "function"
    }
  ],
  "bytecode": "0x608060405260008060146101000a81548161ffff021916908361ffff16021790555060008060166101000a81548161ffff021916908361ffff1602179055503480156200004b57600080fd5b506040516200432a3803806200432a833981810160405281019062000071919062000165565b80806000806101000a81548173ffffffffffffffffffffffffffffffffffffffff021916908373ffffffffffffffffffffffffffffffffffffffff16021790555033600560006101000a81548173ffffffffffffffffffffffffffffffffffffffff021916908373ffffffffffffffffffffffffffffffffffffffff160217905550505062000197565b600080fd5b600073ffffffffffffffffffffffffffffffffffffffff82169050919050565b60006200012d8262000100565b9050919050565b6200013f8162000120565b81146200014b57600080fd5b50565b6000815190506200015f8162000134565b92915050565b6000602082840312156200017e576200017d620000fb565b5b60006200018e848285016200014e565b91505092915050565b61418380620001a76000396000f3fe60806040526004361061012a5760003560e01c806370ea99fe116100ab578063c19a6e8b1161006f578063c19a6e8b146103e4578063d72e5a0a1461040d578063e643c44a14610454578063e784698d1461047d578063f0dcd9f5146104a6578063fe6304b5146104e45761012a565b806370ea99fe146102e75780638882aad1146103035780638eb50f3414610340578063a516f3dd14610369578063b4ec4761146103a75761012a565b80632f4c72b6116100f25780632f4c72b614610206578063355f02011461022f57806344f03aad1461025857806368253e431461028157806369c81d6e146102aa5761012a565b806304f5df041461012f5780630802d10514610158578063105098d4146101815780631d42265f146101c15780632020e9ea146101ea575b600080fd5b34801561013b57600080fd5b5061015660048036038101906101519190612ef9565b61050d565b005b34801561016457600080fd5b5061017f600480360381019061017a9190612f4c565b61066d565b005b34801561018d57600080fd5b506101a860048036038101906101a39190612f79565b610a0f565b6040516101b8949392919061303d565b60405180910390f35b3480156101cd57600080fd5b506101e860048036038101906101e39190612ef9565b610a87565b005b61020460048036038101906101ff9190612f79565b610be7565b005b34801561021257600080fd5b5061022d60048036038101906102289190612f79565b61109e565b005b34801561023b57600080fd5b50610256600480360381019061025191906130e7565b6111be565b005b34801561026457600080fd5b5061027f600480360381019061027a9190612f79565b6112d8565b005b34801561028d57600080fd5b506102a860048036038101906102a39190612f79565b6113f8565b005b3480156102b657600080fd5b506102d160048036038101906102cc91906132bd565b611521565b6040516102de9190613398565b60405180910390f35b61030160048036038101906102fc91906133ba565b6115ee565b005b34801561030f57600080fd5b5061032a60048036038101906103259190612f4c565b6119dc565b60405161033791906134f3565b60405180910390f35b34801561034c57600080fd5b5061036760048036038101906103629190612f79565b6119fc565b005b34801561037557600080fd5b50610390600480360381019061038b9190612f4c565b611b25565b60405161039e92919061350e565b60405180910390f35b3480156103b357600080fd5b506103ce60048036038101906103c99190613563565b611baf565b6040516103db91906135a3565b60405180910390f35b3480156103f057600080fd5b5061040b60048036038101906104069190612f79565b611bf6565b005b34801561041957600080fd5b50610434600480360381019061042f9190612f4c565b611d5c565b60405161044b9b9a999897969594939291906135fc565b60405180910390f35b34801561046057600080fd5b5061047b60048036038101906104769190612f4c565b611f45565b005b34801561048957600080fd5b506104a4600480360381019061049f9190612f79565b6120a4565b005b3480156104b257600080fd5b506104cd60048036038101906104c89190612f4c565b612567565b6040516104db92919061350e565b60405180910390f35b3480156104f057600080fd5b5061050b60048036038101906105069190612f79565b6125f1565b005b610543600160008561ffff1661ffff16815260200190815260200160002060010160009054906101000a900461ffff16336127cc565b610582576040517f08c379a000000000000000000000000000000000000000000000000000000000815260040161057990613722565b60405180910390fd5b81600160008561ffff1661ffff16815260200190815260200160002060040160000160006101000a81548161ffff021916908361ffff16021790555080600160008561ffff1661ffff16815260200190815260200160002060040160000160026101000a81548161ffff021916908361ffff160217905550600160008060149054906101000a900461ffff1661ffff1661ffff16815260200190815260200160002060050160069054906101000a900460ff1615158361ffff167f6d0bd97d07eb61a190d38333c6e99f378ac8fd474d475050319e2c02869849f360405160405180910390a3505050565b600560009054906101000a900473ffffffffffffffffffffffffffffffffffffffff1673ffffffffffffffffffffffffffffffffffffffff163373ffffffffffffffffffffffffffffffffffffffff1614806107325750600160008261ffff1661ffff16815260200190815260200160002060010160029054906101000a900473ffffffffffffffffffffffffffffffffffffffff1673ffffffffffffffffffffffffffffffffffffffff163373ffffffffffffffffffffffffffffffffffffffff16145b8061076857503073ffffffffffffffffffffffffffffffffffffffff163373ffffffffffffffffffffffffffffffffffffffff16145b6107a7576040517f08c379a000000000000000000000000000000000000000000000000000000000815260040161079e906137b4565b60405180910390fd5b42600160008361ffff1661ffff16815260200190815260200160002060050160049054906101000a900461ffff1661ffff1611610819576040517f08c379a000000000000000000000000000000000000000000000000000000000815260040161081090613820565b60405180910390fd5b600160008261ffff1661ffff16815260200190815260200160002060010160029054906101000a900473ffffffffffffffffffffffffffffffffffffffff1673ffffffffffffffffffffffffffffffffffffffff16600160008361ffff1661ffff168152602001908152602001600020505060005b600360008361ffff1661ffff16815260200190815260200160002080549050811015610a0b57600260008361ffff1661ffff1681526020019081526020016000206000600360008561ffff1661ffff16815260200190815260200160002083815481106108fe576108fd613840565b5b90600052602060002090601091828204019190066002029054906101000a900461ffff1661ffff1661ffff16815260200190815260200160002060000160029054906101000a900473ffffffffffffffffffffffffffffffffffffffff1673ffffffffffffffffffffffffffffffffffffffff16600260008461ffff1661ffff1681526020019081526020016000206000600360008661ffff1661ffff16815260200190815260200160002084815481106109bc576109bb613840565b5b90600052602060002090601091828204019190066002029054906101000a900461ffff1661ffff1661ffff16815260200190815260200160002050508080610a039061389e565b91505061088e565b5050565b6002602052816000526040600020602052806000526040600020600091509150508060000160009054906101000a900461ffff16908060000160029054906101000a900473ffffffffffffffffffffffffffffffffffffffff16908060010154908060020160009054906101000a900460ff16905084565b610abd600160008561ffff1661ffff16815260200190815260200160002060010160009054906101000a900461ffff16336127cc565b610afc576040517f08c379a0000000000000000000000000000000000000000000000000000000008152600401610af390613722565b60405180910390fd5b81600160008561ffff1661ffff16815260200190815260200160002060030160000160006101000a81548161ffff021916908361ffff16021790555080600160008561ffff1661ffff16815260200190815260200160002060030160000160026101000a81548161ffff021916908361ffff160217905550600160008060149054906101000a900461ffff1661ffff1661ffff16815260200190815260200160002060050160069054906101000a900460ff1615158361ffff167f6d0bd97d07eb61a190d38333c6e99f378ac8fd474d475050319e2c02869849f360405160405180910390a3505050565b610bf18234612873565b610c30576040517f08c379a0000000000000000000000000000000000000000000000000000000008152600401610c2790613958565b60405180910390fd5b60008060008054906101000a900473ffffffffffffffffffffffffffffffffffffffff1673ffffffffffffffffffffffffffffffffffffffff1663ec1b2d81846040518263ffffffff1660e01b8152600401610c8c91906135a3565b600060405180830381865afa158015610ca9573d6000803e3d6000fd5b505050506040513d6000823e3d601f19601f82011682018060405250810190610cd29190613a0d565b9050508092505060008054906101000a900473ffffffffffffffffffffffffffffffffffffffff1673ffffffffffffffffffffffffffffffffffffffff1663ec1b2d81600160008761ffff1661ffff16815260200190815260200160002060010160009054906101000a900461ffff166040518263ffffffff1660e01b8152600401610d5e91906135a3565b600060405180830381865afa158015610d7b573d6000803e3d6000fd5b505050506040513d6000823e3d601f19601f82011682018060405250810190610da49190613a0d565b90505080915050806001811115610dbe57610dbd61347c565b5b826001811115610dd157610dd061347c565b5b03610e11576040517f08c379a0000000000000000000000000000000000000000000000000000000008152600401610e0890613b0a565b60405180910390fd5b6001600060168282829054906101000a900461ffff16610e319190613b2a565b92506101000a81548161ffff021916908361ffff16021790555082600260008661ffff1661ffff16815260200190815260200160002060008060169054906101000a900461ffff1661ffff1661ffff16815260200190815260200160002060000160006101000a81548161ffff021916908361ffff16021790555033600260008661ffff1661ffff16815260200190815260200160002060008060169054906101000a900461ffff1661ffff1661ffff16815260200190815260200160002060000160026101000a81548173ffffffffffffffffffffffffffffffffffffffff021916908373ffffffffffffffffffffffffffffffffffffffff16021790555034600260008661ffff1661ffff16815260200190815260200160002060008060169054906101000a900461ffff1661ffff1661ffff168152602001908152602001600020600101819055506000600260008661ffff1661ffff16815260200190815260200160002060008060169054906101000a900461ffff1661ffff1661ffff16815260200190815260200160002060020160006101000a81548160ff021916908315150217905550600360008561ffff1661ffff168152602001908152602001600020600060169054906101000a900461ffff1690806001815401808255809150506001900390600052602060002090601091828204019190066002029091909190916101000a81548161ffff021916908361ffff16021790555060001515600060169054906101000a900461ffff1661ffff168561ffff167feede45e9c1e239f8a870054f11df3daf31f6062499de917694f038f5704bc66360405160405180910390a450505050565b6110d4600160008461ffff1661ffff16815260200190815260200160002060010160009054906101000a900461ffff16336127cc565b611113576040517f08c379a000000000000000000000000000000000000000000000000000000000815260040161110a90613722565b60405180910390fd5b80600160008461ffff1661ffff16815260200190815260200160002060050160006101000a81548161ffff021916908361ffff160217905550600160008060149054906101000a900461ffff1661ffff1661ffff16815260200190815260200160002060050160069054906101000a900460ff1615158261ffff167f6d0bd97d07eb61a190d38333c6e99f378ac8fd474d475050319e2c02869849f360405160405180910390a35050565b6111f4600160008761ffff1661ffff16815260200190815260200160002060010160009054906101000a900461ffff16336127cc565b611233576040517f08c379a000000000000000000000000000000000000000000000000000000000815260040161122a90613722565b60405180910390fd5b8181600160008861ffff1661ffff1681526020019081526020016000206006018686604051611263929190613b90565b9081526020016040518091039020918261127e929190613dc0565b506112888561287f565b8383604051611298929190613b90565b60405180910390208561ffff167fbaf97478c80f25341499beee1b0593dd5c3d1590210255e24f231e3226fb22f860405160405180910390a35050505050565b61130e600160008461ffff1661ffff16815260200190815260200160002060010160009054906101000a900461ffff16336127cc565b61134d576040517f08c379a000000000000000000000000000000000000000000000000000000000815260040161134490613722565b60405180910390fd5b80600160008461ffff1661ffff16815260200190815260200160002060050160026101000a81548161ffff021916908361ffff160217905550600160008060149054906101000a900461ffff1661ffff1661ffff16815260200190815260200160002060050160069054906101000a900460ff1615158261ffff167f6d0bd97d07eb61a190d38333c6e99f378ac8fd474d475050319e2c02869849f360405160405180910390a35050565b61142e600160008461ffff1661ffff16815260200190815260200160002060010160009054906101000a900461ffff16336127cc565b61146d576040517f08c379a000000000000000000000000000000000000000000000000000000000815260040161146490613722565b60405180910390fd5b80600160008461ffff1661ffff16815260200190815260200160002060050160026101000a81548161ffff021916908361ffff1602179055506114af8261287f565b600160008060149054906101000a900461ffff1661ffff1661ffff16815260200190815260200160002060050160069054906101000a900460ff1615158261ffff167f6d0bd97d07eb61a190d38333c6e99f378ac8fd474d475050319e2c02869849f360405160405180910390a35050565b6060600160008461ffff1661ffff1681526020019081526020016000206006018260405161154f9190613ec1565b9081526020016040518091039020805461156890613be3565b80601f016020809104026020016040519081016040528092919081815260200182805461159490613be3565b80156115e15780601f106115b6576101008083540402835291602001916115e1565b820191906000526020600020905b8154815290600101906020018083116115c457829003601f168201915b5050505050905092915050565b6115f886336127cc565b611637576040517f08c379a000000000000000000000000000000000000000000000000000000000815260040161162e90613722565b60405180910390fd5b428161ffff161161167d576040517f08c379a000000000000000000000000000000000000000000000000000000000815260040161167490613f4a565b60405180910390fd5b6001600060148282829054906101000a900461ffff1661169d9190613b2a565b92506101000a81548161ffff021916908361ffff16021790555033600160008060149054906101000a900461ffff1661ffff1661ffff16815260200190815260200160002060010160026101000a81548173ffffffffffffffffffffffffffffffffffffffff021916908373ffffffffffffffffffffffffffffffffffffffff16021790555034600160008060149054906101000a900461ffff1661ffff1661ffff168152602001908152602001600020600201819055508787600160008060149054906101000a900461ffff1661ffff1661ffff1681526020019081526020016000206000019182611791929190613dc0565b5085600160008060149054906101000a900461ffff1661ffff1661ffff16815260200190815260200160002060010160006101000a81548161ffff021916908361ffff16021790555060405180604001604052808661ffff1681526020018561ffff16815250600160008060149054906101000a900461ffff1661ffff1661ffff16815260200190815260200160002060030160008201518160000160006101000a81548161ffff021916908361ffff16021790555060208201518160000160026101000a81548161ffff021916908361ffff16021790555090505060405180604001604052808461ffff1681526020018361ffff16815250600160008060149054906101000a900461ffff1661ffff1661ffff16815260200190815260200160002060040160008201518160000160006101000a81548161ffff021916908361ffff16021790555060208201518160000160026101000a81548161ffff021916908361ffff16021790555090505080600160008060149054906101000a900461ffff1661ffff1661ffff16815260200190815260200160002060050160046101000a81548161ffff021916908361ffff16021790555060018060008060149054906101000a900461ffff1661ffff1661ffff16815260200190815260200160002060050160066101000a81548160ff02191690831515021790555060011515600060149054906101000a900461ffff1661ffff167f6d0bd97d07eb61a190d38333c6e99f378ac8fd474d475050319e2c02869849f360405160405180910390a35050505050505050565b60046020528060005260406000206000915054906101000a900460ff1681565b611a32600160008461ffff1661ffff16815260200190815260200160002060010160009054906101000a900461ffff16336127cc565b611a71576040517f08c379a0000000000000000000000000000000000000000000000000000000008152600401611a6890613722565b60405180910390fd5b80600160008461ffff1661ffff16815260200190815260200160002060050160006101000a81548161ffff021916908361ffff160217905550611ab38261287f565b600160008060149054906101000a900461ffff1661ffff1661ffff16815260200190815260200160002060050160069054906101000a900460ff1615158261ffff167f6d0bd97d07eb61a190d38333c6e99f378ac8fd474d475050319e2c02869849f360405160405180910390a35050565b600080611b30612e44565b600160008561ffff1661ffff1681526020019081526020016000206003016040518060400160405290816000820160009054906101000a900461ffff1661ffff1661ffff1681526020016000820160029054906101000a900461ffff1661ffff1661ffff16815250509050806000015181602001519250925050915091565b60036020528160005260406000208181548110611bcb57600080fd5b9060005260206000209060109182820401919006600202915091509054906101000a900461ffff1681565b611c2c600160008461ffff1661ffff16815260200190815260200160002060010160009054906101000a900461ffff16336127cc565b611c6b576040517f08c379a0000000000000000000000000000000000000000000000000000000008152600401611c6290613722565b60405180910390fd5b428161ffff1611611cb1576040517f08c379a0000000000000000000000000000000000000000000000000000000008152600401611ca890613f4a565b60405180910390fd5b80600160008461ffff1661ffff16815260200190815260200160002060050160046101000a81548161ffff021916908361ffff160217905550600160008060149054906101000a900461ffff1661ffff1661ffff16815260200190815260200160002060050160069054906101000a900460ff1615158261ffff167f6d0bd97d07eb61a190d38333c6e99f378ac8fd474d475050319e2c02869849f360405160405180910390a35050565b6001602052806000526040600020600091509050806000018054611d7f90613be3565b80601f0160208091040260200160405190810160405280929190818152602001828054611dab90613be3565b8015611df85780601f10611dcd57610100808354040283529160200191611df8565b820191906000526020600020905b815481529060010190602001808311611ddb57829003601f168201915b5050505050908060010160009054906101000a900461ffff16908060010160029054906101000a900473ffffffffffffffffffffffffffffffffffffffff1690806002015490806003016040518060400160405290816000820160009054906101000a900461ffff1661ffff1661ffff1681526020016000820160029054906101000a900461ffff1661ffff1661ffff168152505090806004016040518060400160405290816000820160009054906101000a900461ffff1661ffff1661ffff1681526020016000820160029054906101000a900461ffff1661ffff1661ffff1681525050908060050160009054906101000a900461ffff16908060050160029054906101000a900461ffff16908060050160049054906101000a900461ffff16908060050160069054906101000a900460ff16908060070160009054906101000a900461ffff1690508b565b611f7b600160008361ffff1661ffff16815260200190815260200160002060010160009054906101000a900461ffff16336127cc565b611fba576040517f08c379a0000000000000000000000000000000000000000000000000000000008152600401611fb190613722565b60405180910390fd5b6000600160008361ffff1661ffff16815260200190815260200160002060050160066101000a81548160ff021916908315150217905550611ffa8161287f565b600160008261ffff1661ffff16815260200190815260200160002060010160029054906101000a900473ffffffffffffffffffffffffffffffffffffffff1673ffffffffffffffffffffffffffffffffffffffff16600160008361ffff1661ffff1681526020019081526020016000205050600015158161ffff167f6d0bd97d07eb61a190d38333c6e99f378ac8fd474d475050319e2c02869849f360405160405180910390a350565b6120ae8282612b3a565b6120ed576040517f08c379a00000000000000000000000000000000000000000000000000000000081526004016120e490613fdc565b60405180910390fd5b60008060009054906101000a900473ffffffffffffffffffffffffffffffffffffffff1673ffffffffffffffffffffffffffffffffffffffff1663ec1b2d81836040518263ffffffff1660e01b815260040161214991906135a3565b600060405180830381865afa158015612166573d6000803e3d6000fd5b505050506040513d6000823e3d601f19601f8201168201806040525081019061218f9190613a0d565b90505080915050600060038111156121aa576121a961347c565b5b600460008561ffff1661ffff16815260200190815260200160002060009054906101000a900460ff1660038111156121e5576121e461347c565b5b036122d557600060018111156121fe576121fd61347c565b5b8160018111156122115761221061347c565b5b0361225f576001600460008561ffff1661ffff16815260200190815260200160002060006101000a81548160ff021916908360038111156122555761225461347c565b5b02179055506122d0565b6001808111156122725761227161347c565b5b8160018111156122855761228461347c565b5b036122cf576002600460008561ffff1661ffff16815260200190815260200160002060006101000a81548160ff021916908360038111156122c9576122c861347c565b5b02179055505b5b612562565b600160038111156122e9576122e861347c565b5b600460008561ffff1661ffff16815260200190815260200160002060009054906101000a900460ff1660038111156123245761232361347c565b5b036123e85760018081111561233c5761233b61347c565b5b81600181111561234f5761234e61347c565b5b036123a6576003600460008561ffff1661ffff16815260200190815260200160002060006101000a81548160ff021916908360038111156123935761239261347c565b5b02179055506123a183612c14565b6123e3565b600060018111156123ba576123b961347c565b5b8160018111156123cd576123cc61347c565b5b036123e25760006123e1576123e0613ffc565b5b5b5b612561565b600260038111156123fc576123fb61347c565b5b600460008561ffff1661ffff16815260200190815260200160002060009054906101000a900460ff1660038111156124375761243661347c565b5b036124fb57600060018111156124505761244f61347c565b5b8160018111156124635761246261347c565b5b036124ba576003600460008561ffff1661ffff16815260200190815260200160002060006101000a81548160ff021916908360038111156124a7576124a661347c565b5b02179055506124b583612c14565b6124f6565b6001808111156124cd576124cc61347c565b5b8160018111156124e0576124df61347c565b5b036124f55760006124f4576124f3613ffc565b5b5b5b612560565b6002600381111561250f5761250e61347c565b5b600460008561ffff1661ffff16815260200190815260200160002060009054906101000a900460ff16600381111561254a5761254961347c565b5b0361255f57600061255e5761255d613ffc565b5b5b5b5b5b505050565b600080612572612e44565b600160008561ffff1661ffff1681526020019081526020016000206004016040518060400160405290816000820160009054906101000a900461ffff1661ffff1661ffff1681526020016000820160029054906101000a900461ffff1661ffff1661ffff16815250509050806000015181602001519250925050915091565b612627600160008461ffff1661ffff16815260200190815260200160002060010160009054906101000a900461ffff16336127cc565b612666576040517f08c379a000000000000000000000000000000000000000000000000000000000815260040161265d90613722565b60405180910390fd5b61266f82612c17565b6126ae576040517f08c379a00000000000000000000000000000000000000000000000000000000081526004016126a590614077565b60405180910390fd5b6126b782611f45565b6001600260008461ffff1661ffff16815260200190815260200160002060008361ffff1661ffff16815260200190815260200160002060020160006101000a81548160ff0219169083151502179055506000600460008461ffff1661ffff16815260200190815260200160002060006101000a81548160ff021916908360038111156127465761274561347c565b5b021790555080600160008461ffff1661ffff16815260200190815260200160002060070160006101000a81548161ffff021916908361ffff16021790555061278e8282612c53565b600115158161ffff168361ffff167feede45e9c1e239f8a870054f11df3daf31f6062499de917694f038f5704bc66360405160405180910390a45050565b60008060009054906101000a900473ffffffffffffffffffffffffffffffffffffffff1673ffffffffffffffffffffffffffffffffffffffff1663d17264f084846040518363ffffffff1660e01b815260040161282a929190614097565b602060405180830381865afa158015612847573d6000803e3d6000fd5b505050506040513d601f19601f8201168201806040525081019061286b91906140ec565b905092915050565b60006001905092915050565b60005b600360008361ffff1661ffff16815260200190815260200160002080549050811015612ade57600260008361ffff1661ffff1681526020019081526020016000206000600360008561ffff1661ffff16815260200190815260200160002083815481106128f2576128f1613840565b5b90600052602060002090601091828204019190066002029054906101000a900461ffff1661ffff1661ffff16815260200190815260200160002060000160029054906101000a900473ffffffffffffffffffffffffffffffffffffffff1673ffffffffffffffffffffffffffffffffffffffff16600260008461ffff1661ffff1681526020019081526020016000206000600360008661ffff1661ffff16815260200190815260200160002084815481106129b0576129af613840565b5b90600052602060002090601091828204019190066002029054906101000a900461ffff1661ffff1661ffff1681526020019081526020016000205050600260008361ffff1661ffff1681526020019081526020016000206000600360008561ffff1661ffff1681526020019081526020016000208381548110612a3657612a35613840565b5b90600052602060002090601091828204019190066002029054906101000a900461ffff1661ffff1661ffff168152602001908152602001600020600080820160006101000a81549061ffff02191690556000820160026101000a81549073ffffffffffffffffffffffffffffffffffffffff021916905560018201600090556002820160006101000a81549060ff021916905550508080612ad69061389e565b915050612882565b50600360008261ffff1661ffff1681526020019081526020016000206000612b069190612e66565b8061ffff167f372e3aa608ee95995abbce35189c94770e047df9a345e82c46cfd79918d0951860405160405180910390a250565b60008161ffff16600160008561ffff1661ffff16815260200190815260200160002060010160009054906101000a900461ffff1661ffff1603612b805760019050612c0e565b8161ffff16600260008561ffff1661ffff1681526020019081526020016000206000600160008761ffff1661ffff16815260200190815260200160002060070160009054906101000a900461ffff1661ffff1661ffff16815260200190815260200160002060000160009054906101000a900461ffff1661ffff1603612c095760019050612c0e565b600090505b92915050565b50565b6000600160008361ffff1661ffff16815260200190815260200160002060050160049054906101000a900461ffff1661ffff1642109050919050565b60005b6001600360008561ffff1661ffff16815260200190815260200160002080549050612c819190614119565b811015612e3f578161ffff16600360008561ffff1661ffff1681526020019081526020016000208281548110612cba57612cb9613840565b5b90600052602060002090601091828204019190066002029054906101000a900461ffff1661ffff1614612e2c57600260008461ffff1661ffff1681526020019081526020016000206000600360008661ffff1661ffff1681526020019081526020016000208381548110612d3157612d30613840565b5b90600052602060002090601091828204019190066002029054906101000a900461ffff1661ffff1661ffff16815260200190815260200160002060000160029054906101000a900473ffffffffffffffffffffffffffffffffffffffff1673ffffffffffffffffffffffffffffffffffffffff16600260008561ffff1661ffff1681526020019081526020016000206000600360008761ffff1661ffff1681526020019081526020016000208481548110612def57612dee613840565b5b90600052602060002090601091828204019190066002029054906101000a900461ffff1661ffff1661ffff16815260200190815260200160002050505b8080612e379061389e565b915050612c56565b505050565b6040518060400160405280600061ffff168152602001600061ffff1681525090565b50805460008255600f016010900490600052602060002090810190612e8b9190612e8e565b50565b5b80821115612ea7576000816000905550600101612e8f565b5090565b6000604051905090565b600080fd5b600080fd5b600061ffff82169050919050565b612ed681612ebf565b8114612ee157600080fd5b50565b600081359050612ef381612ecd565b92915050565b600080600060608486031215612f1257612f11612eb5565b5b6000612f2086828701612ee4565b9350506020612f3186828701612ee4565b9250506040612f4286828701612ee4565b9150509250925092565b600060208284031215612f6257612f61612eb5565b5b6000612f7084828501612ee4565b91505092915050565b60008060408385031215612f9057612f8f612eb5565b5b6000612f9e85828601612ee4565b9250506020612faf85828601612ee4565b9150509250929050565b612fc281612ebf565b82525050565b600073ffffffffffffffffffffffffffffffffffffffff82169050919050565b6000612ff382612fc8565b9050919050565b61300381612fe8565b82525050565b6000819050919050565b61301c81613009565b82525050565b60008115159050919050565b61303781613022565b82525050565b60006080820190506130526000830187612fb9565b61305f6020830186612ffa565b61306c6040830185613013565b613079606083018461302e565b95945050505050565b600080fd5b600080fd5b600080fd5b60008083601f8401126130a7576130a6613082565b5b8235905067ffffffffffffffff8111156130c4576130c3613087565b5b6020830191508360018202830111156130e0576130df61308c565b5b9250929050565b60008060008060006060868803121561310357613102612eb5565b5b600061311188828901612ee4565b955050602086013567ffffffffffffffff81111561313257613131612eba565b5b61313e88828901613091565b9450945050604086013567ffffffffffffffff81111561316157613160612eba565b5b61316d88828901613091565b92509250509295509295909350565b600080fd5b6000601f19601f8301169050919050565b7f4e487b7100000000000000000000000000000000000000000000000000000000600052604160045260246000fd5b6131ca82613181565b810181811067ffffffffffffffff821117156131e9576131e8613192565b5b80604052505050565b60006131fc612eab565b905061320882826131c1565b919050565b600067ffffffffffffffff82111561322857613227613192565b5b61323182613181565b9050602081019050919050565b82818337600083830152505050565b600061326061325b8461320d565b6131f2565b90508281526020810184848401111561327c5761327b61317c565b5b61328784828561323e565b509392505050565b600082601f8301126132a4576132a3613082565b5b81356132b484826020860161324d565b91505092915050565b600080604083850312156132d4576132d3612eb5565b5b60006132e285828601612ee4565b925050602083013567ffffffffffffffff81111561330357613302612eba565b5b61330f8582860161328f565b9150509250929050565b600081519050919050565b600082825260208201905092915050565b60005b83811015613353578082015181840152602081019050613338565b60008484015250505050565b600061336a82613319565b6133748185613324565b9350613384818560208601613335565b61338d81613181565b840191505092915050565b600060208201905081810360008301526133b2818461335f565b905092915050565b60008060008060008060008060e0898b0312156133da576133d9612eb5565b5b600089013567ffffffffffffffff8111156133f8576133f7612eba565b5b6134048b828c01613091565b985098505060206134178b828c01612ee4565b96505060406134288b828c01612ee4565b95505060606134398b828c01612ee4565b945050608061344a8b828c01612ee4565b93505060a061345b8b828c01612ee4565b92505060c061346c8b828c01612ee4565b9150509295985092959890939650565b7f4e487b7100000000000000000000000000000000000000000000000000000000600052602160045260246000fd5b600481106134bc576134bb61347c565b5b50565b60008190506134cd826134ab565b919050565b60006134dd826134bf565b9050919050565b6134ed816134d2565b82525050565b600060208201905061350860008301846134e4565b92915050565b60006040820190506135236000830185612fb9565b6135306020830184612fb9565b9392505050565b61354081613009565b811461354b57600080fd5b50565b60008135905061355d81613537565b92915050565b6000806040838503121561357a57613579612eb5565b5b600061358885828601612ee4565b92505060206135998582860161354e565b9150509250929050565b60006020820190506135b86000830184612fb9565b92915050565b6135c781612ebf565b82525050565b6040820160008201516135e360008501826135be565b5060208201516135f660208501826135be565b50505050565b60006101a0820190508181036000830152613617818e61335f565b9050613626602083018d612fb9565b613633604083018c612ffa565b613640606083018b613013565b61364d608083018a6135cd565b61365a60c08301896135cd565b613668610100830188612fb9565b613676610120830187612fb9565b613684610140830186612fb9565b61369261016083018561302e565b6136a0610180830184612fb9565b9c9b505050505050505050505050565b7f4572726f723a20454f41206973206e6f74206173736f6369617465642077697460008201527f6820746869732075736572000000000000000000000000000000000000000000602082015250565b600061370c602b83613324565b9150613717826136b0565b604082019050919050565b6000602082019050818103600083015261373b816136ff565b9050919050565b7f536d61727420436f6e7472616374204572726f723a206e6f7420617574686f7260008201527f6973656420746f20726566756e642066726f6d207468697320706f7374000000602082015250565b600061379e603d83613324565b91506137a982613742565b604082019050919050565b600060208201905081810360008301526137cd81613791565b9050919050565b7f54686520706f737420686173206e6f7420657870697265640000000000000000600082015250565b600061380a601883613324565b9150613815826137d4565b602082019050919050565b60006020820190508181036000830152613839816137fd565b9050919050565b7f4e487b7100000000000000000000000000000000000000000000000000000000600052603260045260246000fd5b7f4e487b7100000000000000000000000000000000000000000000000000000000600052601160045260246000fd5b60006138a982613009565b91507fffffffffffffffffffffffffffffffffffffffffffffffffffffffffffffffff82036138db576138da61386f565b5b600182019050919050565b7f446f6573206e6f74206d65657420637269746572696120666f7220647574636860008201527f2f656e676c697368206269640000000000000000000000000000000000000000602082015250565b6000613942602c83613324565b915061394d826138e6565b604082019050919050565b6000602082019050818103600083015261397181613935565b9050919050565b6002811061398557600080fd5b50565b60008151905061399781613978565b92915050565b60006139b06139ab8461320d565b6131f2565b9050828152602081018484840111156139cc576139cb61317c565b5b6139d7848285613335565b509392505050565b600082601f8301126139f4576139f3613082565b5b8151613a0484826020860161399d565b91505092915050565b600080600060608486031215613a2657613a25612eb5565b5b6000613a3486828701613988565b935050602084015167ffffffffffffffff811115613a5557613a54612eba565b5b613a61868287016139df565b925050604084015167ffffffffffffffff811115613a8257613a81612eba565b5b613a8e868287016139df565b9150509250925092565b7f4572726f723a206e6f7420616c6c6f77656420746f20626964206f6e20706f7360008201527f74206f662073616d652077617465722074797065000000000000000000000000602082015250565b6000613af4603483613324565b9150613aff82613a98565b604082019050919050565b60006020820190508181036000830152613b2381613ae7565b9050919050565b6000613b3582612ebf565b9150613b4083612ebf565b9250828201905061ffff811115613b5a57613b5961386f565b5b92915050565b600081905092915050565b6000613b778385613b60565b9350613b8483858461323e565b82840190509392505050565b6000613b9d828486613b6b565b91508190509392505050565b600082905092915050565b7f4e487b7100000000000000000000000000000000000000000000000000000000600052602260045260246000fd5b60006002820490506001821680613bfb57607f821691505b602082108103613c0e57613c0d613bb4565b5b50919050565b60008190508160005260206000209050919050565b60006020601f8301049050919050565b600082821b905092915050565b600060088302613c767fffffffffffffffffffffffffffffffffffffffffffffffffffffffffffffffff82613c39565b613c808683613c39565b95508019841693508086168417925050509392505050565b6000819050919050565b6000613cbd613cb8613cb384613009565b613c98565b613009565b9050919050565b6000819050919050565b613cd783613ca2565b613ceb613ce382613cc4565b848454613c46565b825550505050565b600090565b613d00613cf3565b613d0b818484613cce565b505050565b5b81811015613d2f57613d24600082613cf8565b600181019050613d11565b5050565b601f821115613d7457613d4581613c14565b613d4e84613c29565b81016020851015613d5d578190505b613d71613d6985613c29565b830182613d10565b50505b505050565b600082821c905092915050565b6000613d9760001984600802613d79565b1980831691505092915050565b6000613db08383613d86565b9150826002028217905092915050565b613dca8383613ba9565b67ffffffffffffffff811115613de357613de2613192565b5b613ded8254613be3565b613df8828285613d33565b6000601f831160018114613e275760008415613e15578287013590505b613e1f8582613da4565b865550613e87565b601f198416613e3586613c14565b60005b82811015613e5d57848901358255600182019150602085019450602081019050613e38565b86831015613e7a5784890135613e76601f891682613d86565b8355505b6001600288020188555050505b50505050505050565b6000613e9b82613319565b613ea58185613b60565b9350613eb5818560208601613335565b80840191505092915050565b6000613ecd8284613e90565b915081905092915050565b7f4572726f723a206578706972792074696d6520697320696e207468652070617360008201527f7400000000000000000000000000000000000000000000000000000000000000602082015250565b6000613f34602183613324565b9150613f3f82613ed8565b604082019050919050565b60006020820190508181036000830152613f6381613f27565b9050919050565b7f4572726f723a2070726f66696c654964206e6f74206173736f6369617465642060008201527f776974682074686973206465616c000000000000000000000000000000000000602082015250565b6000613fc6602e83613324565b9150613fd182613f6a565b604082019050919050565b60006020820190508181036000830152613ff581613fb9565b9050919050565b7f4e487b7100000000000000000000000000000000000000000000000000000000600052600160045260246000fd5b7f4572726f723a20706f7374206861732065787069726564000000000000000000600082015250565b6000614061601783613324565b915061406c8261402b565b602082019050919050565b6000602082019050818103600083015261409081614054565b9050919050565b60006040820190506140ac6000830185612fb9565b6140b96020830184612ffa565b9392505050565b6140c981613022565b81146140d457600080fd5b50565b6000815190506140e6816140c0565b92915050565b60006020828403121561410257614101612eb5565b5b6000614110848285016140d7565b91505092915050565b600061412482613009565b915061412f83613009565b92508282039050818111156141475761414661386f565b5b9291505056fea2646970667358221220d57ade2afadd4c2d551759657f614965a1520efd151fd06aaecfeca20e89da9164736f6c63430008120033",
  "immutableReferences": {},
  "source": "pragma solidity ^0.8.18;\r\n\r\nimport \"./waterSource.sol\";\r\n// import \"./profile.sol\";\r\n\r\n\r\ncontract lake is waterSource{\r\n\r\n    constructor(address _profileContractAddress) waterSource(_profileContractAddress) {}\r\n\r\n    function bidReqs(uint16 _postId,uint _bidAmount) internal view override returns(bool){\r\n        return (_bidAmount < collection[_postId].price);\r\n    }\r\n        \r\n    function payout(uint16 _postId) internal override {\r\n        collection[_postId].EOA.call{value:bids[_postId][collection[_postId].winningBidId].bidAmount}(\"\");\r\n        bids[_postId][collection[_postId].winningBidId].bidderEOA.call{value:collection[_postId].price}(\"\");\r\n    }\r\n\r\n}",
  "sourcePath": "C:\\Users\\rishi\\Documents\\RaedaLogistics\\RaedaPlatform\\raeda\\core\\smart_contracts\\contracts\\polygon\\lake.sol",
  "compiler": {
    "name": "solc",
    "version": "0.8.18+commit.87f61d96.Emscripten.clang"
  },
  "schemaVersion": "3.4.12",
  "updatedAt": "2023-03-01T05:47:55.255Z",
  "devdoc": {
    "kind": "dev",
    "methods": {},
    "version": 1
  },
  "userdoc": {
    "kind": "user",
    "methods": {},
    "version": 1
  },
  "db": {
    "callBytecode": {
      "id": "0x829f283db66475deff1cb517256b2de38218b8af168806397165f20b450ebf12"
    },
    "createBytecode": {
      "id": "0x3a407fa0c440b019a24cf608df6df14e2b14dffbf1476ef880da13df46501b2f"
    },
    "contract": {
      "id": "0x6e245f6a7ecb7008cea323f838bf2adf9a2d5e42fbbb89ef9d7553c3d06e7269"
    }
  }
}