{
  "_format": "hh-sol-artifact-1",
  "contractName": "lake",
  "sourceName": "contracts/lake.sol",
  "abi": [
    {
      "inputs": [
        {
          "internalType": "address",
          "name": "_profileContractAddress",
          "type": "address"
        }
      ],
      "stateMutability": "nonpayable",
      "type": "constructor"
    },
    {
      "anonymous": false,
      "inputs": [
        {
          "indexed": true,
          "internalType": "uint16",
          "name": "_postId",
          "type": "uint16"
        },
        {
          "indexed": true,
          "internalType": "uint16",
          "name": "_bidId",
          "type": "uint16"
        },
        {
          "indexed": true,
          "internalType": "bool",
          "name": "_accepted",
          "type": "bool"
        }
      ],
      "name": "bidEvent",
      "type": "event"
    },
    {
      "anonymous": false,
      "inputs": [
        {
          "indexed": true,
          "internalType": "uint16",
          "name": "_postId",
          "type": "uint16"
        },
        {
          "indexed": true,
          "internalType": "string",
          "name": "_category",
          "type": "string"
        }
      ],
      "name": "bucketEvent",
      "type": "event"
    },
    {
      "anonymous": false,
      "inputs": [
        {
          "indexed": true,
          "internalType": "uint16",
          "name": "_postId",
          "type": "uint16"
        },
        {
          "indexed": true,
          "internalType": "enum waterSource.dealStates",
          "name": "_dealState",
          "type": "uint8"
        }
      ],
      "name": "pendingEvent",
      "type": "event"
    },
    {
      "anonymous": false,
      "inputs": [
        {
          "indexed": true,
          "internalType": "uint16",
          "name": "_postId",
          "type": "uint16"
        },
        {
          "indexed": true,
          "internalType": "bool",
          "name": "_live",
          "type": "bool"
        }
      ],
      "name": "postEvent",
      "type": "event"
    },
    {
      "anonymous": false,
      "inputs": [
        {
          "indexed": true,
          "internalType": "uint16",
          "name": "_postId",
          "type": "uint16"
        }
      ],
      "name": "resetEvent",
      "type": "event"
    },
    {
      "inputs": [
        {
          "internalType": "uint16",
          "name": "_postId",
          "type": "uint16"
        },
        {
          "internalType": "uint16",
          "name": "_bidId",
          "type": "uint16"
        }
      ],
      "name": "acceptBid",
      "outputs": [],
      "stateMutability": "nonpayable",
      "type": "function"
    },
    {
      "inputs": [
        {
          "internalType": "uint16",
          "name": "_postId",
          "type": "uint16"
        },
        {
          "internalType": "string",
          "name": "_category",
          "type": "string"
        },
        {
          "internalType": "string",
          "name": "_value",
          "type": "string"
        }
      ],
      "name": "addToBucket",
      "outputs": [],
      "stateMutability": "nonpayable",
      "type": "function"
    },
    {
      "inputs": [
        {
          "internalType": "uint16",
          "name": "_postId",
          "type": "uint16"
        },
        {
          "internalType": "uint16",
          "name": "_bidderId",
          "type": "uint16"
        }
      ],
      "name": "bid",
      "outputs": [],
      "stateMutability": "payable",
      "type": "function"
    },
    {
      "inputs": [
        {
          "internalType": "uint16",
          "name": "",
          "type": "uint16"
        },
        {
          "internalType": "uint16",
          "name": "",
          "type": "uint16"
        }
      ],
      "name": "bids",
      "outputs": [
        {
          "internalType": "uint16",
          "name": "bidderId",
          "type": "uint16"
        },
        {
          "internalType": "address",
          "name": "bidderEOA",
          "type": "address"
        },
        {
          "internalType": "uint256",
          "name": "bidAmount",
          "type": "uint256"
        },
        {
          "internalType": "bool",
          "name": "accepted",
          "type": "bool"
        }
      ],
      "stateMutability": "view",
      "type": "function"
    },
    {
      "inputs": [
        {
          "internalType": "uint16",
          "name": "",
          "type": "uint16"
        },
        {
          "internalType": "uint256",
          "name": "",
          "type": "uint256"
        }
      ],
      "name": "bidsArray",
      "outputs": [
        {
          "internalType": "uint16",
          "name": "",
          "type": "uint16"
        }
      ],
      "stateMutability": "view",
      "type": "function"
    },
    {
      "inputs": [
        {
          "internalType": "uint16",
          "name": "_postId",
          "type": "uint16"
        },
        {
          "internalType": "string",
          "name": "_category",
          "type": "string"
        }
      ],
      "name": "checkBucket",
      "outputs": [
        {
          "internalType": "string",
          "name": "",
          "type": "string"
        }
      ],
      "stateMutability": "view",
      "type": "function"
    },
    {
      "inputs": [
        {
          "internalType": "uint16",
          "name": "_postId",
          "type": "uint16"
        },
        {
          "internalType": "uint16",
          "name": "_profileId",
          "type": "uint16"
        }
      ],
      "name": "closeDeal",
      "outputs": [],
      "stateMutability": "nonpayable",
      "type": "function"
    },
    {
      "inputs": [
        {
          "internalType": "uint16",
          "name": "",
          "type": "uint16"
        }
      ],
      "name": "collection",
      "outputs": [
        {
          "internalType": "string",
          "name": "postName",
          "type": "string"
        },
        {
          "internalType": "string",
          "name": "description",
          "type": "string"
        },
        {
          "internalType": "uint16",
          "name": "profileId",
          "type": "uint16"
        },
        {
          "internalType": "address",
          "name": "EOA",
          "type": "address"
        },
        {
          "internalType": "uint256",
          "name": "price",
          "type": "uint256"
        },
        {
          "components": [
            {
              "internalType": "uint64",
              "name": "x",
              "type": "uint64"
            },
            {
              "internalType": "uint64",
              "name": "y",
              "type": "uint64"
            }
          ],
          "internalType": "struct waterSource.Location",
          "name": "iX",
          "type": "tuple"
        },
        {
          "components": [
            {
              "internalType": "uint64",
              "name": "x",
              "type": "uint64"
            },
            {
              "internalType": "uint64",
              "name": "y",
              "type": "uint64"
            }
          ],
          "internalType": "struct waterSource.Location",
          "name": "fX",
          "type": "tuple"
        },
        {
          "internalType": "uint64",
          "name": "iT",
          "type": "uint64"
        },
        {
          "internalType": "uint64",
          "name": "fT",
          "type": "uint64"
        },
        {
          "internalType": "uint64",
          "name": "exp",
          "type": "uint64"
        },
        {
          "internalType": "bool",
          "name": "live",
          "type": "bool"
        },
        {
          "internalType": "uint16",
          "name": "winningBidId",
          "type": "uint16"
        }
      ],
      "stateMutability": "view",
      "type": "function"
    },
    {
      "inputs": [
        {
          "internalType": "uint16",
          "name": "_postId",
          "type": "uint16"
        },
        {
          "internalType": "string",
          "name": "_description",
          "type": "string"
        }
      ],
      "name": "editDescription",
      "outputs": [],
      "stateMutability": "nonpayable",
      "type": "function"
    },
    {
      "inputs": [
        {
          "internalType": "uint16",
          "name": "_postId",
          "type": "uint16"
        },
        {
          "internalType": "uint64",
          "name": "_exp",
          "type": "uint64"
        }
      ],
      "name": "editExpiryTime",
      "outputs": [],
      "stateMutability": "nonpayable",
      "type": "function"
    },
    {
      "inputs": [
        {
          "internalType": "uint16",
          "name": "_postId",
          "type": "uint16"
        },
        {
          "internalType": "uint64",
          "name": "_x",
          "type": "uint64"
        },
        {
          "internalType": "uint64",
          "name": "_y",
          "type": "uint64"
        }
      ],
      "name": "editFinalLocation",
      "outputs": [],
      "stateMutability": "nonpayable",
      "type": "function"
    },
    {
      "inputs": [
        {
          "internalType": "uint16",
          "name": "_postId",
          "type": "uint16"
        },
        {
          "internalType": "uint64",
          "name": "_fT",
          "type": "uint64"
        }
      ],
      "name": "editFinalTime",
      "outputs": [],
      "stateMutability": "nonpayable",
      "type": "function"
    },
    {
      "inputs": [
        {
          "internalType": "uint16",
          "name": "_postId",
          "type": "uint16"
        },
        {
          "internalType": "uint64",
          "name": "_x",
          "type": "uint64"
        },
        {
          "internalType": "uint64",
          "name": "_y",
          "type": "uint64"
        }
      ],
      "name": "editInitialLocation",
      "outputs": [],
      "stateMutability": "nonpayable",
      "type": "function"
    },
    {
      "inputs": [
        {
          "internalType": "uint16",
          "name": "_postId",
          "type": "uint16"
        },
        {
          "internalType": "uint64",
          "name": "_iT",
          "type": "uint64"
        }
      ],
      "name": "editInitialTime",
      "outputs": [],
      "stateMutability": "nonpayable",
      "type": "function"
    },
    {
      "inputs": [
        {
          "internalType": "uint16",
          "name": "_postId",
          "type": "uint16"
        }
      ],
      "name": "getFinalLocation",
      "outputs": [
        {
          "internalType": "uint64",
          "name": "",
          "type": "uint64"
        },
        {
          "internalType": "uint64",
          "name": "",
          "type": "uint64"
        }
      ],
      "stateMutability": "view",
      "type": "function"
    },
    {
      "inputs": [
        {
          "internalType": "uint16",
          "name": "_postId",
          "type": "uint16"
        }
      ],
      "name": "getInitialLocation",
      "outputs": [
        {
          "internalType": "uint64",
          "name": "",
          "type": "uint64"
        },
        {
          "internalType": "uint64",
          "name": "",
          "type": "uint64"
        }
      ],
      "stateMutability": "view",
      "type": "function"
    },
    {
      "inputs": [
        {
          "internalType": "string",
          "name": "_postName",
          "type": "string"
        },
        {
          "internalType": "uint16",
          "name": "_profileId",
          "type": "uint16"
        },
        {
          "internalType": "uint64",
          "name": "_iXx",
          "type": "uint64"
        },
        {
          "internalType": "uint64",
          "name": "_iXy",
          "type": "uint64"
        },
        {
          "internalType": "uint64",
          "name": "_fXx",
          "type": "uint64"
        },
        {
          "internalType": "uint64",
          "name": "_fXy",
          "type": "uint64"
        },
        {
          "internalType": "uint64",
          "name": "_exp",
          "type": "uint64"
        }
      ],
      "name": "initPost",
      "outputs": [],
      "stateMutability": "payable",
      "type": "function"
    },
    {
      "inputs": [
        {
          "internalType": "uint16",
          "name": "",
          "type": "uint16"
        }
      ],
      "name": "pendingDeals",
      "outputs": [
        {
          "internalType": "enum waterSource.dealStates",
          "name": "",
          "type": "uint8"
        }
      ],
      "stateMutability": "view",
      "type": "function"
    },
    {
      "inputs": [
        {
          "internalType": "uint16",
          "name": "_postId",
          "type": "uint16"
        }
      ],
      "name": "refundExpiredPost",
      "outputs": [],
      "stateMutability": "nonpayable",
      "type": "function"
    },
    {
      "inputs": [
        {
          "internalType": "address",
          "name": "_verifyTributaryAddress",
          "type": "address"
        }
      ],
      "name": "setVerifyTributaryAddress",
      "outputs": [],
      "stateMutability": "nonpayable",
      "type": "function"
    },
    {
      "inputs": [
        {
          "internalType": "uint16",
          "name": "_postId",
          "type": "uint16"
        }
      ],
      "name": "takeDownPost",
      "outputs": [],
      "stateMutability": "nonpayable",
      "type": "function"
    },
    {
      "inputs": [
        {
          "internalType": "uint16",
          "name": "_postId",
          "type": "uint16"
        }
      ],
      "name": "verifyOnOwnPost",
      "outputs": [],
      "stateMutability": "nonpayable",
      "type": "function"
    }
  ],
  "bytecode": "0x60806040526000600160146101000a81548161ffff021916908361ffff1602179055506000600160166101000a81548161ffff021916908361ffff1602179055503480156200004d57600080fd5b506040516200498d3803806200498d833981810160405281019062000073919062000167565b80806000806101000a81548173ffffffffffffffffffffffffffffffffffffffff021916908373ffffffffffffffffffffffffffffffffffffffff16021790555033600660006101000a81548173ffffffffffffffffffffffffffffffffffffffff021916908373ffffffffffffffffffffffffffffffffffffffff160217905550505062000199565b600080fd5b600073ffffffffffffffffffffffffffffffffffffffff82169050919050565b60006200012f8262000102565b9050919050565b620001418162000122565b81146200014d57600080fd5b50565b600081519050620001618162000136565b92915050565b60006020828403121562000180576200017f620000fd565b5b6000620001908482850162000150565b91505092915050565b6147e480620001a96000396000f3fe6080604052600436106101355760003560e01c80638882aad1116100ab578063d72e5a0a1161006f578063d72e5a0a14610418578063e643c44a14610460578063e784698d14610489578063f0dcd9f5146104b2578063f4cebfdb146104f0578063fe6304b51461051957610135565b80638882aad11461030e578063a516f3dd1461034b578063aece6ac014610389578063b4ec4761146103b2578063c4c9280f146103ef57610135565b80633e3fd876116100fd5780633e3fd8761461021157806353e964c31461022d5780635c99a40a146102565780635cb675301461027f57806369c81d6e146102a857806383072fec146102e557610135565b8063105098d41461013a5780631ab742421461017a5780631fb9ce5e146101a35780632020e9ea146101cc578063355f0201146101e8575b600080fd5b34801561014657600080fd5b50610161600480360381019061015c91906132e7565b610542565b60405161017194939291906133ab565b60405180910390f35b34801561018657600080fd5b506101a1600480360381019061019c919061341c565b6105ba565b005b3480156101af57600080fd5b506101ca60048036038101906101c59190613489565b610658565b005b6101e660048036038101906101e191906132e7565b6107d1565b005b3480156101f457600080fd5b5061020f600480360381019061020a9190613541565b610cde565b005b61022b600480360381019061022691906135d6565b610df8565b005b34801561023957600080fd5b50610254600480360381019061024f9190613698565b611249565b005b34801561026257600080fd5b5061027d600480360381019061027891906136c5565b611600565b005b34801561028b57600080fd5b506102a660048036038101906102a191906136c5565b611779565b005b3480156102b457600080fd5b506102cf60048036038101906102ca9190613846565b6118af565b6040516102dc9190613921565b60405180910390f35b3480156102f157600080fd5b5061030c60048036038101906103079190613489565b61197c565b005b34801561031a57600080fd5b5061033560048036038101906103309190613698565b611af5565b60405161034291906139ba565b60405180910390f35b34801561035757600080fd5b50610372600480360381019061036d9190613698565b611b15565b6040516103809291906139e4565b60405180910390f35b34801561039557600080fd5b506103b060048036038101906103ab9190613698565b611bc3565b005b3480156103be57600080fd5b506103d960048036038101906103d49190613a39565b611c9a565b6040516103e69190613a79565b60405180910390f35b3480156103fb57600080fd5b5061041660048036038101906104119190613a94565b611ce1565b005b34801561042457600080fd5b5061043f600480360381019061043a9190613698565b611e01565b6040516104579c9b9a99989796959493929190613b32565b60405180910390f35b34801561046c57600080fd5b5061048760048036038101906104829190613698565b6120d2565b005b34801561049557600080fd5b506104b060048036038101906104ab91906132e7565b612231565b005b3480156104be57600080fd5b506104d960048036038101906104d49190613698565b6127ef565b6040516104e79291906139e4565b60405180910390f35b3480156104fc57600080fd5b50610517600480360381019061051291906136c5565b61289d565b005b34801561052557600080fd5b50610540600480360381019061053b91906132e7565b6129d3565b005b6003602052816000526040600020602052806000526040600020600091509150508060000160009054906101000a900461ffff16908060000160029054906101000a900473ffffffffffffffffffffffffffffffffffffffff16908060010154908060020160009054906101000a900460ff16905084565b600660009054906101000a900473ffffffffffffffffffffffffffffffffffffffff1673ffffffffffffffffffffffffffffffffffffffff163373ffffffffffffffffffffffffffffffffffffffff161461061457600080fd5b80600160006101000a81548173ffffffffffffffffffffffffffffffffffffffff021916908373ffffffffffffffffffffffffffffffffffffffff16021790555050565b61068e600260008561ffff1661ffff16815260200190815260200160002060020160009054906101000a900461ffff1633612bae565b6106cd576040517f08c379a00000000000000000000000000000000000000000000000000000000081526004016106c490613c6d565b60405180910390fd5b81600260008561ffff1661ffff16815260200190815260200160002060050160000160006101000a81548167ffffffffffffffff021916908367ffffffffffffffff16021790555080600260008561ffff1661ffff16815260200190815260200160002060050160000160086101000a81548167ffffffffffffffff021916908367ffffffffffffffff16021790555060026000600160149054906101000a900461ffff1661ffff1661ffff16815260200190815260200160002060060160189054906101000a900460ff1615158361ffff167f6d0bd97d07eb61a190d38333c6e99f378ac8fd474d475050319e2c02869849f360405160405180910390a3505050565b6107db8234612c55565b61081a576040517f08c379a000000000000000000000000000000000000000000000000000000000815260040161081190613cff565b60405180910390fd5b42600260008461ffff1661ffff16815260200190815260200160002060060160109054906101000a900467ffffffffffffffff1667ffffffffffffffff16111561086c5761086782611249565b610cda565b60008060008054906101000a900473ffffffffffffffffffffffffffffffffffffffff1673ffffffffffffffffffffffffffffffffffffffff1663ec1b2d81846040518263ffffffff1660e01b81526004016108c89190613a79565b600060405180830381865afa1580156108e5573d6000803e3d6000fd5b505050506040513d6000823e3d601f19601f8201168201806040525081019061090e9190613db4565b9050508092505060008054906101000a900473ffffffffffffffffffffffffffffffffffffffff1673ffffffffffffffffffffffffffffffffffffffff1663ec1b2d81600260008761ffff1661ffff16815260200190815260200160002060020160009054906101000a900461ffff166040518263ffffffff1660e01b815260040161099a9190613a79565b600060405180830381865afa1580156109b7573d6000803e3d6000fd5b505050506040513d6000823e3d601f19601f820116820180604052508101906109e09190613db4565b905050809150508060018111156109fa576109f9613943565b5b826001811115610a0d57610a0c613943565b5b03610a4d576040517f08c379a0000000000000000000000000000000000000000000000000000000008152600401610a4490613eb1565b60405180910390fd5b60018060168282829054906101000a900461ffff16610a6c9190613f00565b92506101000a81548161ffff021916908361ffff16021790555082600360008661ffff1661ffff1681526020019081526020016000206000600160169054906101000a900461ffff1661ffff1661ffff16815260200190815260200160002060000160006101000a81548161ffff021916908361ffff16021790555033600360008661ffff1661ffff1681526020019081526020016000206000600160169054906101000a900461ffff1661ffff1661ffff16815260200190815260200160002060000160026101000a81548173ffffffffffffffffffffffffffffffffffffffff021916908373ffffffffffffffffffffffffffffffffffffffff16021790555034600360008661ffff1661ffff1681526020019081526020016000206000600160169054906101000a900461ffff1661ffff1661ffff168152602001908152602001600020600101819055506000600360008661ffff1661ffff1681526020019081526020016000206000600160169054906101000a900461ffff1661ffff1661ffff16815260200190815260200160002060020160006101000a81548160ff021916908315150217905550600460008561ffff1661ffff168152602001908152602001600020600160169054906101000a900461ffff1690806001815401808255809150506001900390600052602060002090601091828204019190066002029091909190916101000a81548161ffff021916908361ffff16021790555060001515600160169054906101000a900461ffff1661ffff168561ffff167feede45e9c1e239f8a870054f11df3daf31f6062499de917694f038f5704bc66360405160405180910390a450505b5050565b610d14600260008761ffff1661ffff16815260200190815260200160002060020160009054906101000a900461ffff1633612bae565b610d53576040517f08c379a0000000000000000000000000000000000000000000000000000000008152600401610d4a90613c6d565b60405180910390fd5b8181600260008861ffff1661ffff1681526020019081526020016000206007018686604051610d83929190613f66565b90815260200160405180910390209182610d9e929190614196565b50610da885612c61565b8383604051610db8929190613f66565b60405180910390208561ffff167fbaf97478c80f25341499beee1b0593dd5c3d1590210255e24f231e3226fb22f860405160405180910390a35050505050565b610e028633612bae565b610e41576040517f08c379a0000000000000000000000000000000000000000000000000000000008152600401610e3890613c6d565b60405180910390fd5b428167ffffffffffffffff1611610e8d576040517f08c379a0000000000000000000000000000000000000000000000000000000008152600401610e84906142d8565b60405180910390fd5b6002600160148282829054906101000a900461ffff16610ead9190613f00565b92506101000a81548161ffff021916908361ffff1602179055503360026000600160149054906101000a900461ffff1661ffff1661ffff16815260200190815260200160002060020160026101000a81548173ffffffffffffffffffffffffffffffffffffffff021916908373ffffffffffffffffffffffffffffffffffffffff1602179055503460026000600160149054906101000a900461ffff1661ffff1661ffff16815260200190815260200160002060030181905550878760026000600160149054906101000a900461ffff1661ffff1661ffff1681526020019081526020016000206000019182610fa4929190614196565b508560026000600160149054906101000a900461ffff1661ffff1661ffff16815260200190815260200160002060020160006101000a81548161ffff021916908361ffff16021790555060405180604001604052808667ffffffffffffffff1681526020018567ffffffffffffffff1681525060026000600160149054906101000a900461ffff1661ffff1661ffff16815260200190815260200160002060040160008201518160000160006101000a81548167ffffffffffffffff021916908367ffffffffffffffff16021790555060208201518160000160086101000a81548167ffffffffffffffff021916908367ffffffffffffffff16021790555090505060405180604001604052808467ffffffffffffffff1681526020018367ffffffffffffffff1681525060026000600160149054906101000a900461ffff1661ffff1661ffff16815260200190815260200160002060050160008201518160000160006101000a81548167ffffffffffffffff021916908367ffffffffffffffff16021790555060208201518160000160086101000a81548167ffffffffffffffff021916908367ffffffffffffffff1602179055509050508060026000600160149054906101000a900461ffff1661ffff1661ffff16815260200190815260200160002060060160106101000a81548167ffffffffffffffff021916908367ffffffffffffffff160217905550600160026000600160149054906101000a900461ffff1661ffff1661ffff16815260200190815260200160002060060160186101000a81548160ff02191690831515021790555060011515600160149054906101000a900461ffff1661ffff167f6d0bd97d07eb61a190d38333c6e99f378ac8fd474d475050319e2c02869849f360405160405180910390a35050505050505050565b600660009054906101000a900473ffffffffffffffffffffffffffffffffffffffff1673ffffffffffffffffffffffffffffffffffffffff163373ffffffffffffffffffffffffffffffffffffffff16148061130e5750600260008261ffff1661ffff16815260200190815260200160002060020160029054906101000a900473ffffffffffffffffffffffffffffffffffffffff1673ffffffffffffffffffffffffffffffffffffffff163373ffffffffffffffffffffffffffffffffffffffff16145b8061134457503073ffffffffffffffffffffffffffffffffffffffff163373ffffffffffffffffffffffffffffffffffffffff16145b611383576040517f08c379a000000000000000000000000000000000000000000000000000000000815260040161137a9061436a565b60405180910390fd5b42600260008361ffff1661ffff16815260200190815260200160002060060160109054906101000a900467ffffffffffffffff1667ffffffffffffffff1611611401576040517f08c379a00000000000000000000000000000000000000000000000000000000081526004016113f8906143d6565b60405180910390fd5b61140a816120d2565b600260008261ffff1661ffff16815260200190815260200160002060020160029054906101000a900473ffffffffffffffffffffffffffffffffffffffff1673ffffffffffffffffffffffffffffffffffffffff16600260008361ffff1661ffff168152602001908152602001600020505060005b600460008361ffff1661ffff168152602001908152602001600020805490508110156115fc57600360008361ffff1661ffff1681526020019081526020016000206000600460008561ffff1661ffff16815260200190815260200160002083815481106114ef576114ee6143f6565b5b90600052602060002090601091828204019190066002029054906101000a900461ffff1661ffff1661ffff16815260200190815260200160002060000160029054906101000a900473ffffffffffffffffffffffffffffffffffffffff1673ffffffffffffffffffffffffffffffffffffffff16600360008461ffff1661ffff1681526020019081526020016000206000600460008661ffff1661ffff16815260200190815260200160002084815481106115ad576115ac6143f6565b5b90600052602060002090601091828204019190066002029054906101000a900461ffff1661ffff1661ffff168152602001908152602001600020505080806115f490614425565b91505061147f565b5050565b611636600260008461ffff1661ffff16815260200190815260200160002060020160009054906101000a900461ffff1633612bae565b611675576040517f08c379a000000000000000000000000000000000000000000000000000000000815260040161166c90613c6d565b60405180910390fd5b428167ffffffffffffffff16116116c1576040517f08c379a00000000000000000000000000000000000000000000000000000000081526004016116b8906142d8565b60405180910390fd5b80600260008461ffff1661ffff16815260200190815260200160002060060160106101000a81548167ffffffffffffffff021916908367ffffffffffffffff16021790555060026000600160149054906101000a900461ffff1661ffff1661ffff16815260200190815260200160002060060160189054906101000a900460ff1615158261ffff167f6d0bd97d07eb61a190d38333c6e99f378ac8fd474d475050319e2c02869849f360405160405180910390a35050565b6117af600260008461ffff1661ffff16815260200190815260200160002060020160009054906101000a900461ffff1633612bae565b6117ee576040517f08c379a00000000000000000000000000000000000000000000000000000000081526004016117e590613c6d565b60405180910390fd5b80600260008461ffff1661ffff16815260200190815260200160002060060160086101000a81548167ffffffffffffffff021916908367ffffffffffffffff16021790555061183c82612c61565b60026000600160149054906101000a900461ffff1661ffff1661ffff16815260200190815260200160002060060160189054906101000a900460ff1615158261ffff167f6d0bd97d07eb61a190d38333c6e99f378ac8fd474d475050319e2c02869849f360405160405180910390a35050565b6060600260008461ffff1661ffff168152602001908152602001600020600701826040516118dd919061449e565b908152602001604051809103902080546118f690613fb9565b80601f016020809104026020016040519081016040528092919081815260200182805461192290613fb9565b801561196f5780601f106119445761010080835404028352916020019161196f565b820191906000526020600020905b81548152906001019060200180831161195257829003601f168201915b5050505050905092915050565b6119b2600260008561ffff1661ffff16815260200190815260200160002060020160009054906101000a900461ffff1633612bae565b6119f1576040517f08c379a00000000000000000000000000000000000000000000000000000000081526004016119e890613c6d565b60405180910390fd5b81600260008561ffff1661ffff16815260200190815260200160002060040160000160006101000a81548167ffffffffffffffff021916908367ffffffffffffffff16021790555080600260008561ffff1661ffff16815260200190815260200160002060040160000160086101000a81548167ffffffffffffffff021916908367ffffffffffffffff16021790555060026000600160149054906101000a900461ffff1661ffff1661ffff16815260200190815260200160002060060160189054906101000a900460ff1615158361ffff167f6d0bd97d07eb61a190d38333c6e99f378ac8fd474d475050319e2c02869849f360405160405180910390a3505050565b60056020528060005260406000206000915054906101000a900460ff1681565b600080611b20613226565b600260008561ffff1661ffff1681526020019081526020016000206004016040518060400160405290816000820160009054906101000a900467ffffffffffffffff1667ffffffffffffffff1667ffffffffffffffff1681526020016000820160089054906101000a900467ffffffffffffffff1667ffffffffffffffff1667ffffffffffffffff16815250509050806000015181602001519250925050915091565b600160009054906101000a900473ffffffffffffffffffffffffffffffffffffffff1673ffffffffffffffffffffffffffffffffffffffff163373ffffffffffffffffffffffffffffffffffffffff1614611c53576040517f08c379a0000000000000000000000000000000000000000000000000000000008152600401611c4a9061454d565b60405180910390fd5b6001600560008361ffff1661ffff16815260200190815260200160002060006101000a81548160ff02191690836004811115611c9257611c91613943565b5b021790555050565b60046020528160005260406000208181548110611cb657600080fd5b9060005260206000209060109182820401919006600202915091509054906101000a900461ffff1681565b611d17600260008561ffff1661ffff16815260200190815260200160002060020160009054906101000a900461ffff1633612bae565b611d56576040517f08c379a0000000000000000000000000000000000000000000000000000000008152600401611d4d90613c6d565b60405180910390fd5b8181600260008661ffff1661ffff1681526020019081526020016000206001019182611d83929190614196565b50611d8d83612c61565b60026000600160149054906101000a900461ffff1661ffff1661ffff16815260200190815260200160002060060160189054906101000a900460ff1615158361ffff167f6d0bd97d07eb61a190d38333c6e99f378ac8fd474d475050319e2c02869849f360405160405180910390a3505050565b6002602052806000526040600020600091509050806000018054611e2490613fb9565b80601f0160208091040260200160405190810160405280929190818152602001828054611e5090613fb9565b8015611e9d5780601f10611e7257610100808354040283529160200191611e9d565b820191906000526020600020905b815481529060010190602001808311611e8057829003601f168201915b505050505090806001018054611eb290613fb9565b80601f0160208091040260200160405190810160405280929190818152602001828054611ede90613fb9565b8015611f2b5780601f10611f0057610100808354040283529160200191611f2b565b820191906000526020600020905b815481529060010190602001808311611f0e57829003601f168201915b5050505050908060020160009054906101000a900461ffff16908060020160029054906101000a900473ffffffffffffffffffffffffffffffffffffffff1690806003015490806004016040518060400160405290816000820160009054906101000a900467ffffffffffffffff1667ffffffffffffffff1667ffffffffffffffff1681526020016000820160089054906101000a900467ffffffffffffffff1667ffffffffffffffff1667ffffffffffffffff168152505090806005016040518060400160405290816000820160009054906101000a900467ffffffffffffffff1667ffffffffffffffff1667ffffffffffffffff1681526020016000820160089054906101000a900467ffffffffffffffff1667ffffffffffffffff1667ffffffffffffffff1681525050908060060160009054906101000a900467ffffffffffffffff16908060060160089054906101000a900467ffffffffffffffff16908060060160109054906101000a900467ffffffffffffffff16908060060160189054906101000a900460ff16908060080160009054906101000a900461ffff1690508c565b612108600260008361ffff1661ffff16815260200190815260200160002060020160009054906101000a900461ffff1633612bae565b612147576040517f08c379a000000000000000000000000000000000000000000000000000000000815260040161213e90613c6d565b60405180910390fd5b6000600260008361ffff1661ffff16815260200190815260200160002060060160186101000a81548160ff02191690831515021790555061218781612c61565b600260008261ffff1661ffff16815260200190815260200160002060020160029054906101000a900473ffffffffffffffffffffffffffffffffffffffff1673ffffffffffffffffffffffffffffffffffffffff16600260008361ffff1661ffff1681526020019081526020016000205050600015158161ffff167f6d0bd97d07eb61a190d38333c6e99f378ac8fd474d475050319e2c02869849f360405160405180910390a350565b61223b8282612f1c565b61227a576040517f08c379a0000000000000000000000000000000000000000000000000000000008152600401612271906145df565b60405180910390fd5b6000600481111561228e5761228d613943565b5b600560008461ffff1661ffff16815260200190815260200160002060009054906101000a900460ff1660048111156122c9576122c8613943565b5b03612309576040517f08c379a000000000000000000000000000000000000000000000000000000000815260040161230090614671565b60405180910390fd5b60008060009054906101000a900473ffffffffffffffffffffffffffffffffffffffff1673ffffffffffffffffffffffffffffffffffffffff1663ec1b2d81836040518263ffffffff1660e01b81526004016123659190613a79565b600060405180830381865afa158015612382573d6000803e3d6000fd5b505050506040513d6000823e3d601f19601f820116820180604052508101906123ab9190613db4565b90505080915050600160048111156123c6576123c5613943565b5b600560008561ffff1661ffff16815260200190815260200160002060009054906101000a900460ff16600481111561240157612400613943565b5b036124f1576000600181111561241a57612419613943565b5b81600181111561242d5761242c613943565b5b0361247b576002600560008561ffff1661ffff16815260200190815260200160002060006101000a81548160ff0219169083600481111561247157612470613943565b5b02179055506124ec565b60018081111561248e5761248d613943565b5b8160018111156124a1576124a0613943565b5b036124eb576003600560008561ffff1661ffff16815260200190815260200160002060006101000a81548160ff021916908360048111156124e5576124e4613943565b5b02179055505b5b61277e565b6002600481111561250557612504613943565b5b600560008561ffff1661ffff16815260200190815260200160002060009054906101000a900460ff1660048111156125405761253f613943565b5b036126045760018081111561255857612557613943565b5b81600181111561256b5761256a613943565b5b036125c2576004600560008561ffff1661ffff16815260200190815260200160002060006101000a81548160ff021916908360048111156125af576125ae613943565b5b02179055506125bd83612ff6565b6125ff565b600060018111156125d6576125d5613943565b5b8160018111156125e9576125e8613943565b5b036125fe5760006125fd576125fc614691565b5b5b5b61277d565b6003600481111561261857612617613943565b5b600560008561ffff1661ffff16815260200190815260200160002060009054906101000a900460ff16600481111561265357612652613943565b5b03612717576000600181111561266c5761266b613943565b5b81600181111561267f5761267e613943565b5b036126d6576004600560008561ffff1661ffff16815260200190815260200160002060006101000a81548160ff021916908360048111156126c3576126c2613943565b5b02179055506126d183612ff6565b612712565b6001808111156126e9576126e8613943565b5b8160018111156126fc576126fb613943565b5b036127115760006127105761270f614691565b5b5b5b61277c565b6003600481111561272b5761272a613943565b5b600560008561ffff1661ffff16815260200190815260200160002060009054906101000a900460ff16600481111561276657612765613943565b5b0361277b57600061277a57612779614691565b5b5b5b5b5b600560008461ffff1661ffff16815260200190815260200160002060009054906101000a900460ff1660048111156127b9576127b8613943565b5b8361ffff167f5ce3ac421a0bdf2e262549c1d24776c81b7379f66ca3a670af65d222a39cb1c860405160405180910390a3505050565b6000806127fa613226565b600260008561ffff1661ffff1681526020019081526020016000206005016040518060400160405290816000820160009054906101000a900467ffffffffffffffff1667ffffffffffffffff1667ffffffffffffffff1681526020016000820160089054906101000a900467ffffffffffffffff1667ffffffffffffffff1667ffffffffffffffff16815250509050806000015181602001519250925050915091565b6128d3600260008461ffff1661ffff16815260200190815260200160002060020160009054906101000a900461ffff1633612bae565b612912576040517f08c379a000000000000000000000000000000000000000000000000000000000815260040161290990613c6d565b60405180910390fd5b80600260008461ffff1661ffff16815260200190815260200160002060060160006101000a81548167ffffffffffffffff021916908367ffffffffffffffff16021790555061296082612c61565b60026000600160149054906101000a900461ffff1661ffff1661ffff16815260200190815260200160002060060160189054906101000a900460ff1615158261ffff167f6d0bd97d07eb61a190d38333c6e99f378ac8fd474d475050319e2c02869849f360405160405180910390a35050565b612a09600260008461ffff1661ffff16815260200190815260200160002060020160009054906101000a900461ffff1633612bae565b612a48576040517f08c379a0000000000000000000000000000000000000000000000000000000008152600401612a3f90613c6d565b60405180910390fd5b612a5182612ff9565b612a90576040517f08c379a0000000000000000000000000000000000000000000000000000000008152600401612a879061470c565b60405180910390fd5b612a99826120d2565b6001600360008461ffff1661ffff16815260200190815260200160002060008361ffff1661ffff16815260200190815260200160002060020160006101000a81548160ff0219169083151502179055506000600560008461ffff1661ffff16815260200190815260200160002060006101000a81548160ff02191690836004811115612b2857612b27613943565b5b021790555080600260008461ffff1661ffff16815260200190815260200160002060080160006101000a81548161ffff021916908361ffff160217905550612b708282613041565b600115158161ffff168361ffff167feede45e9c1e239f8a870054f11df3daf31f6062499de917694f038f5704bc66360405160405180910390a45050565b60008060009054906101000a900473ffffffffffffffffffffffffffffffffffffffff1673ffffffffffffffffffffffffffffffffffffffff1663d17264f084846040518363ffffffff1660e01b8152600401612c0c92919061472c565b602060405180830381865afa158015612c29573d6000803e3d6000fd5b505050506040513d601f19601f82011682018060405250810190612c4d9190614781565b905092915050565b60006001905092915050565b60005b600460008361ffff1661ffff16815260200190815260200160002080549050811015612ec057600360008361ffff1661ffff1681526020019081526020016000206000600460008561ffff1661ffff1681526020019081526020016000208381548110612cd457612cd36143f6565b5b90600052602060002090601091828204019190066002029054906101000a900461ffff1661ffff1661ffff16815260200190815260200160002060000160029054906101000a900473ffffffffffffffffffffffffffffffffffffffff1673ffffffffffffffffffffffffffffffffffffffff16600360008461ffff1661ffff1681526020019081526020016000206000600460008661ffff1661ffff1681526020019081526020016000208481548110612d9257612d916143f6565b5b90600052602060002090601091828204019190066002029054906101000a900461ffff1661ffff1661ffff1681526020019081526020016000205050600360008361ffff1661ffff1681526020019081526020016000206000600460008561ffff1661ffff1681526020019081526020016000208381548110612e1857612e176143f6565b5b90600052602060002090601091828204019190066002029054906101000a900461ffff1661ffff1661ffff168152602001908152602001600020600080820160006101000a81549061ffff02191690556000820160026101000a81549073ffffffffffffffffffffffffffffffffffffffff021916905560018201600090556002820160006101000a81549060ff021916905550508080612eb890614425565b915050612c64565b50600460008261ffff1661ffff1681526020019081526020016000206000612ee89190613254565b8061ffff167f372e3aa608ee95995abbce35189c94770e047df9a345e82c46cfd79918d0951860405160405180910390a250565b60008161ffff16600260008561ffff1661ffff16815260200190815260200160002060020160009054906101000a900461ffff1661ffff1603612f625760019050612ff0565b8161ffff16600360008561ffff1661ffff1681526020019081526020016000206000600260008761ffff1661ffff16815260200190815260200160002060080160009054906101000a900461ffff1661ffff1661ffff16815260200190815260200160002060000160009054906101000a900461ffff1661ffff1603612feb5760019050612ff0565b600090505b92915050565b50565b6000600260008361ffff1661ffff16815260200190815260200160002060060160109054906101000a900467ffffffffffffffff1667ffffffffffffffff1642109050919050565b60005b600460008461ffff1661ffff16815260200190815260200160002080549050811015613221578161ffff16600460008561ffff1661ffff168152602001908152602001600020828154811061309c5761309b6143f6565b5b90600052602060002090601091828204019190066002029054906101000a900461ffff1661ffff161461320e57600360008461ffff1661ffff1681526020019081526020016000206000600460008661ffff1661ffff1681526020019081526020016000208381548110613113576131126143f6565b5b90600052602060002090601091828204019190066002029054906101000a900461ffff1661ffff1661ffff16815260200190815260200160002060000160029054906101000a900473ffffffffffffffffffffffffffffffffffffffff1673ffffffffffffffffffffffffffffffffffffffff16600360008561ffff1661ffff1681526020019081526020016000206000600460008761ffff1661ffff16815260200190815260200160002084815481106131d1576131d06143f6565b5b90600052602060002090601091828204019190066002029054906101000a900461ffff1661ffff1661ffff16815260200190815260200160002050505b808061321990614425565b915050613044565b505050565b6040518060400160405280600067ffffffffffffffff168152602001600067ffffffffffffffff1681525090565b50805460008255600f016010900490600052602060002090810190613279919061327c565b50565b5b8082111561329557600081600090555060010161327d565b5090565b6000604051905090565b600080fd5b600080fd5b600061ffff82169050919050565b6132c4816132ad565b81146132cf57600080fd5b50565b6000813590506132e1816132bb565b92915050565b600080604083850312156132fe576132fd6132a3565b5b600061330c858286016132d2565b925050602061331d858286016132d2565b9150509250929050565b613330816132ad565b82525050565b600073ffffffffffffffffffffffffffffffffffffffff82169050919050565b600061336182613336565b9050919050565b61337181613356565b82525050565b6000819050919050565b61338a81613377565b82525050565b60008115159050919050565b6133a581613390565b82525050565b60006080820190506133c06000830187613327565b6133cd6020830186613368565b6133da6040830185613381565b6133e7606083018461339c565b95945050505050565b6133f981613356565b811461340457600080fd5b50565b600081359050613416816133f0565b92915050565b600060208284031215613432576134316132a3565b5b600061344084828501613407565b91505092915050565b600067ffffffffffffffff82169050919050565b61346681613449565b811461347157600080fd5b50565b6000813590506134838161345d565b92915050565b6000806000606084860312156134a2576134a16132a3565b5b60006134b0868287016132d2565b93505060206134c186828701613474565b92505060406134d286828701613474565b9150509250925092565b600080fd5b600080fd5b600080fd5b60008083601f840112613501576135006134dc565b5b8235905067ffffffffffffffff81111561351e5761351d6134e1565b5b60208301915083600182028301111561353a576135396134e6565b5b9250929050565b60008060008060006060868803121561355d5761355c6132a3565b5b600061356b888289016132d2565b955050602086013567ffffffffffffffff81111561358c5761358b6132a8565b5b613598888289016134eb565b9450945050604086013567ffffffffffffffff8111156135bb576135ba6132a8565b5b6135c7888289016134eb565b92509250509295509295909350565b60008060008060008060008060e0898b0312156135f6576135f56132a3565b5b600089013567ffffffffffffffff811115613614576136136132a8565b5b6136208b828c016134eb565b985098505060206136338b828c016132d2565b96505060406136448b828c01613474565b95505060606136558b828c01613474565b94505060806136668b828c01613474565b93505060a06136778b828c01613474565b92505060c06136888b828c01613474565b9150509295985092959890939650565b6000602082840312156136ae576136ad6132a3565b5b60006136bc848285016132d2565b91505092915050565b600080604083850312156136dc576136db6132a3565b5b60006136ea858286016132d2565b92505060206136fb85828601613474565b9150509250929050565b600080fd5b6000601f19601f8301169050919050565b7f4e487b7100000000000000000000000000000000000000000000000000000000600052604160045260246000fd5b6137538261370a565b810181811067ffffffffffffffff821117156137725761377161371b565b5b80604052505050565b6000613785613299565b9050613791828261374a565b919050565b600067ffffffffffffffff8211156137b1576137b061371b565b5b6137ba8261370a565b9050602081019050919050565b82818337600083830152505050565b60006137e96137e484613796565b61377b565b90508281526020810184848401111561380557613804613705565b5b6138108482856137c7565b509392505050565b600082601f83011261382d5761382c6134dc565b5b813561383d8482602086016137d6565b91505092915050565b6000806040838503121561385d5761385c6132a3565b5b600061386b858286016132d2565b925050602083013567ffffffffffffffff81111561388c5761388b6132a8565b5b61389885828601613818565b9150509250929050565b600081519050919050565b600082825260208201905092915050565b60005b838110156138dc5780820151818401526020810190506138c1565b60008484015250505050565b60006138f3826138a2565b6138fd81856138ad565b935061390d8185602086016138be565b6139168161370a565b840191505092915050565b6000602082019050818103600083015261393b81846138e8565b905092915050565b7f4e487b7100000000000000000000000000000000000000000000000000000000600052602160045260246000fd5b6005811061398357613982613943565b5b50565b600081905061399482613972565b919050565b60006139a482613986565b9050919050565b6139b481613999565b82525050565b60006020820190506139cf60008301846139ab565b92915050565b6139de81613449565b82525050565b60006040820190506139f960008301856139d5565b613a0660208301846139d5565b9392505050565b613a1681613377565b8114613a2157600080fd5b50565b600081359050613a3381613a0d565b92915050565b60008060408385031215613a5057613a4f6132a3565b5b6000613a5e858286016132d2565b9250506020613a6f85828601613a24565b9150509250929050565b6000602082019050613a8e6000830184613327565b92915050565b600080600060408486031215613aad57613aac6132a3565b5b6000613abb868287016132d2565b935050602084013567ffffffffffffffff811115613adc57613adb6132a8565b5b613ae8868287016134eb565b92509250509250925092565b613afd81613449565b82525050565b604082016000820151613b196000850182613af4565b506020820151613b2c6020850182613af4565b50505050565b60006101c0820190508181036000830152613b4d818f6138e8565b90508181036020830152613b61818e6138e8565b9050613b70604083018d613327565b613b7d606083018c613368565b613b8a608083018b613381565b613b9760a083018a613b03565b613ba460e0830189613b03565b613bb26101208301886139d5565b613bc06101408301876139d5565b613bce6101608301866139d5565b613bdc61018083018561339c565b613bea6101a0830184613327565b9d9c50505050505050505050505050565b7f4572726f723a20454f41206973206e6f74206173736f6369617465642077697460008201527f6820746869732075736572000000000000000000000000000000000000000000602082015250565b6000613c57602b836138ad565b9150613c6282613bfb565b604082019050919050565b60006020820190508181036000830152613c8681613c4a565b9050919050565b7f446f6573206e6f74206d65657420637269746572696120666f7220647574636860008201527f2f656e676c697368206269640000000000000000000000000000000000000000602082015250565b6000613ce9602c836138ad565b9150613cf482613c8d565b604082019050919050565b60006020820190508181036000830152613d1881613cdc565b9050919050565b60028110613d2c57600080fd5b50565b600081519050613d3e81613d1f565b92915050565b6000613d57613d5284613796565b61377b565b905082815260208101848484011115613d7357613d72613705565b5b613d7e8482856138be565b509392505050565b600082601f830112613d9b57613d9a6134dc565b5b8151613dab848260208601613d44565b91505092915050565b600080600060608486031215613dcd57613dcc6132a3565b5b6000613ddb86828701613d2f565b935050602084015167ffffffffffffffff811115613dfc57613dfb6132a8565b5b613e0886828701613d86565b925050604084015167ffffffffffffffff811115613e2957613e286132a8565b5b613e3586828701613d86565b9150509250925092565b7f4572726f723a206e6f7420616c6c6f77656420746f20626964206f6e20706f7360008201527f74206f662073616d652077617465722074797065000000000000000000000000602082015250565b6000613e9b6034836138ad565b9150613ea682613e3f565b604082019050919050565b60006020820190508181036000830152613eca81613e8e565b9050919050565b7f4e487b7100000000000000000000000000000000000000000000000000000000600052601160045260246000fd5b6000613f0b826132ad565b9150613f16836132ad565b9250828201905061ffff811115613f3057613f2f613ed1565b5b92915050565b600081905092915050565b6000613f4d8385613f36565b9350613f5a8385846137c7565b82840190509392505050565b6000613f73828486613f41565b91508190509392505050565b600082905092915050565b7f4e487b7100000000000000000000000000000000000000000000000000000000600052602260045260246000fd5b60006002820490506001821680613fd157607f821691505b602082108103613fe457613fe3613f8a565b5b50919050565b60008190508160005260206000209050919050565b60006020601f8301049050919050565b600082821b905092915050565b60006008830261404c7fffffffffffffffffffffffffffffffffffffffffffffffffffffffffffffffff8261400f565b614056868361400f565b95508019841693508086168417925050509392505050565b6000819050919050565b600061409361408e61408984613377565b61406e565b613377565b9050919050565b6000819050919050565b6140ad83614078565b6140c16140b98261409a565b84845461401c565b825550505050565b600090565b6140d66140c9565b6140e18184846140a4565b505050565b5b81811015614105576140fa6000826140ce565b6001810190506140e7565b5050565b601f82111561414a5761411b81613fea565b61412484613fff565b81016020851015614133578190505b61414761413f85613fff565b8301826140e6565b50505b505050565b600082821c905092915050565b600061416d6000198460080261414f565b1980831691505092915050565b6000614186838361415c565b9150826002028217905092915050565b6141a08383613f7f565b67ffffffffffffffff8111156141b9576141b861371b565b5b6141c38254613fb9565b6141ce828285614109565b6000601f8311600181146141fd57600084156141eb578287013590505b6141f5858261417a565b86555061425d565b601f19841661420b86613fea565b60005b828110156142335784890135825560018201915060208501945060208101905061420e565b86831015614250578489013561424c601f89168261415c565b8355505b6001600288020188555050505b50505050505050565b7f4572726f723a206578706972792074696d6520697320696e207468652070617360008201527f7400000000000000000000000000000000000000000000000000000000000000602082015250565b60006142c26021836138ad565b91506142cd82614266565b604082019050919050565b600060208201905081810360008301526142f1816142b5565b9050919050565b7f536d61727420436f6e7472616374204572726f723a206e6f7420617574686f7260008201527f6973656420746f20726566756e642066726f6d207468697320706f7374000000602082015250565b6000614354603d836138ad565b915061435f826142f8565b604082019050919050565b6000602082019050818103600083015261438381614347565b9050919050565b7f54686520706f737420686173206e6f7420657870697265640000000000000000600082015250565b60006143c06018836138ad565b91506143cb8261438a565b602082019050919050565b600060208201905081810360008301526143ef816143b3565b9050919050565b7f4e487b7100000000000000000000000000000000000000000000000000000000600052603260045260246000fd5b600061443082613377565b91507fffffffffffffffffffffffffffffffffffffffffffffffffffffffffffffffff820361446257614461613ed1565b5b600182019050919050565b6000614478826138a2565b6144828185613f36565b93506144928185602086016138be565b80840191505092915050565b60006144aa828461446d565b915081905092915050565b7f4572726f723a20746869732066756e6374696f6e2063616e206f6e6c7920626560008201527f207472696767657265642062792074686520766572696679696e6720636f6e7460208201527f7261637400000000000000000000000000000000000000000000000000000000604082015250565b60006145376044836138ad565b9150614542826144b5565b606082019050919050565b600060208201905081810360008301526145668161452a565b9050919050565b7f4572726f723a2070726f66696c654964206e6f74206173736f6369617465642060008201527f776974682074686973206465616c000000000000000000000000000000000000602082015250565b60006145c9602e836138ad565b91506145d48261456d565b604082019050919050565b600060208201905081810360008301526145f8816145bc565b9050919050565b7f4572726f723a206465616c206e6565647320746f20626520766572696669656460008201527f206265666f72652069742063616e20626520636c6f7365640000000000000000602082015250565b600061465b6038836138ad565b9150614666826145ff565b604082019050919050565b6000602082019050818103600083015261468a8161464e565b9050919050565b7f4e487b7100000000000000000000000000000000000000000000000000000000600052600160045260246000fd5b7f4572726f723a20706f7374206861732065787069726564000000000000000000600082015250565b60006146f66017836138ad565b9150614701826146c0565b602082019050919050565b60006020820190508181036000830152614725816146e9565b9050919050565b60006040820190506147416000830185613327565b61474e6020830184613368565b9392505050565b61475e81613390565b811461476957600080fd5b50565b60008151905061477b81614755565b92915050565b600060208284031215614797576147966132a3565b5b60006147a58482850161476c565b9150509291505056fea264697066735822122088b2e0587de67711d0b527ca1eaa5d5c3c95812c15470d3800b18a7253d3dfad64736f6c63430008120033",
  "linkReferences": {},
  "deployedLinkReferences": {}
}