{
  "contractName": "lake",
  "abi": [
    {
      "inputs": [
        {
          "internalType": "address",
          "name": "_profileContractAddress",
          "type": "address"
        }
      ],
      "stateMutability": "nonpayable",
      "type": "constructor"
    },
    {
      "anonymous": false,
      "inputs": [
        {
          "indexed": true,
          "internalType": "uint16",
          "name": "_postId",
          "type": "uint16"
        },
        {
          "indexed": true,
          "internalType": "uint16",
          "name": "_bidId",
          "type": "uint16"
        },
        {
          "indexed": true,
          "internalType": "bool",
          "name": "_accepted",
          "type": "bool"
        }
      ],
      "name": "bidEvent",
      "type": "event"
    },
    {
      "anonymous": false,
      "inputs": [
        {
          "indexed": true,
          "internalType": "uint16",
          "name": "_postId",
          "type": "uint16"
        },
        {
          "indexed": true,
          "internalType": "string",
          "name": "_category",
          "type": "string"
        }
      ],
      "name": "bucketEvent",
      "type": "event"
    },
    {
      "anonymous": false,
      "inputs": [
        {
          "indexed": true,
          "internalType": "uint16",
          "name": "_postId",
          "type": "uint16"
        },
        {
          "indexed": true,
          "internalType": "enum waterSource.dealStates",
          "name": "_dealState",
          "type": "uint8"
        }
      ],
      "name": "pendingEvent",
      "type": "event"
    },
    {
      "anonymous": false,
      "inputs": [
        {
          "indexed": true,
          "internalType": "uint16",
          "name": "_postId",
          "type": "uint16"
        },
        {
          "indexed": true,
          "internalType": "bool",
          "name": "_live",
          "type": "bool"
        }
      ],
      "name": "postEvent",
      "type": "event"
    },
    {
      "anonymous": false,
      "inputs": [
        {
          "indexed": true,
          "internalType": "uint16",
          "name": "_postId",
          "type": "uint16"
        }
      ],
      "name": "resetEvent",
      "type": "event"
    },
    {
      "inputs": [
        {
          "internalType": "uint16",
          "name": "_postId",
          "type": "uint16"
        },
        {
          "internalType": "uint16",
          "name": "_bidId",
          "type": "uint16"
        }
      ],
      "name": "acceptBid",
      "outputs": [],
      "stateMutability": "nonpayable",
      "type": "function"
    },
    {
      "inputs": [
        {
          "internalType": "uint16",
          "name": "_postId",
          "type": "uint16"
        },
        {
          "internalType": "uint16",
          "name": "_fT",
          "type": "uint16"
        }
      ],
      "name": "addFinalTime",
      "outputs": [],
      "stateMutability": "nonpayable",
      "type": "function"
    },
    {
      "inputs": [
        {
          "internalType": "uint16",
          "name": "_postId",
          "type": "uint16"
        },
        {
          "internalType": "uint16",
          "name": "_iT",
          "type": "uint16"
        }
      ],
      "name": "addInitialTime",
      "outputs": [],
      "stateMutability": "nonpayable",
      "type": "function"
    },
    {
      "inputs": [
        {
          "internalType": "uint16",
          "name": "_postId",
          "type": "uint16"
        },
        {
          "internalType": "string",
          "name": "_category",
          "type": "string"
        },
        {
          "internalType": "string",
          "name": "_value",
          "type": "string"
        }
      ],
      "name": "addToBucket",
      "outputs": [],
      "stateMutability": "nonpayable",
      "type": "function"
    },
    {
      "inputs": [
        {
          "internalType": "uint16",
          "name": "_postId",
          "type": "uint16"
        },
        {
          "internalType": "uint16",
          "name": "_bidderId",
          "type": "uint16"
        }
      ],
      "name": "bid",
      "outputs": [],
      "stateMutability": "payable",
      "type": "function",
      "payable": true
    },
    {
      "inputs": [
        {
          "internalType": "uint16",
          "name": "",
          "type": "uint16"
        },
        {
          "internalType": "uint16",
          "name": "",
          "type": "uint16"
        }
      ],
      "name": "bids",
      "outputs": [
        {
          "internalType": "uint16",
          "name": "bidderId",
          "type": "uint16"
        },
        {
          "internalType": "address",
          "name": "bidderEOA",
          "type": "address"
        },
        {
          "internalType": "uint256",
          "name": "bidAmount",
          "type": "uint256"
        },
        {
          "internalType": "bool",
          "name": "accepted",
          "type": "bool"
        }
      ],
      "stateMutability": "view",
      "type": "function",
      "constant": true
    },
    {
      "inputs": [
        {
          "internalType": "uint16",
          "name": "",
          "type": "uint16"
        },
        {
          "internalType": "uint256",
          "name": "",
          "type": "uint256"
        }
      ],
      "name": "bidsArray",
      "outputs": [
        {
          "internalType": "uint16",
          "name": "",
          "type": "uint16"
        }
      ],
      "stateMutability": "view",
      "type": "function",
      "constant": true
    },
    {
      "inputs": [
        {
          "internalType": "uint16",
          "name": "_postId",
          "type": "uint16"
        },
        {
          "internalType": "string",
          "name": "_category",
          "type": "string"
        }
      ],
      "name": "checkBucket",
      "outputs": [
        {
          "internalType": "string",
          "name": "",
          "type": "string"
        }
      ],
      "stateMutability": "view",
      "type": "function",
      "constant": true
    },
    {
      "inputs": [
        {
          "internalType": "uint16",
          "name": "_postId",
          "type": "uint16"
        },
        {
          "internalType": "uint16",
          "name": "_profileId",
          "type": "uint16"
        }
      ],
      "name": "closeDeal",
      "outputs": [],
      "stateMutability": "nonpayable",
      "type": "function"
    },
    {
      "inputs": [
        {
          "internalType": "uint16",
          "name": "",
          "type": "uint16"
        }
      ],
      "name": "collection",
      "outputs": [
        {
          "internalType": "string",
          "name": "postName",
          "type": "string"
        },
        {
          "internalType": "string",
          "name": "description",
          "type": "string"
        },
        {
          "internalType": "uint16",
          "name": "profileId",
          "type": "uint16"
        },
        {
          "internalType": "address",
          "name": "EOA",
          "type": "address"
        },
        {
          "internalType": "uint256",
          "name": "price",
          "type": "uint256"
        },
        {
          "components": [
            {
              "internalType": "uint64",
              "name": "x",
              "type": "uint64"
            },
            {
              "internalType": "uint64",
              "name": "y",
              "type": "uint64"
            }
          ],
          "internalType": "struct waterSource.Location",
          "name": "iX",
          "type": "tuple"
        },
        {
          "components": [
            {
              "internalType": "uint64",
              "name": "x",
              "type": "uint64"
            },
            {
              "internalType": "uint64",
              "name": "y",
              "type": "uint64"
            }
          ],
          "internalType": "struct waterSource.Location",
          "name": "fX",
          "type": "tuple"
        },
        {
          "internalType": "uint16",
          "name": "iT",
          "type": "uint16"
        },
        {
          "internalType": "uint16",
          "name": "fT",
          "type": "uint16"
        },
        {
          "internalType": "uint64",
          "name": "exp",
          "type": "uint64"
        },
        {
          "internalType": "bool",
          "name": "live",
          "type": "bool"
        },
        {
          "internalType": "uint16",
          "name": "winningBidId",
          "type": "uint16"
        }
      ],
      "stateMutability": "view",
      "type": "function",
      "constant": true
    },
    {
      "inputs": [
        {
          "internalType": "uint16",
          "name": "_postId",
          "type": "uint16"
        },
        {
          "internalType": "string",
          "name": "_description",
          "type": "string"
        }
      ],
      "name": "editDescription",
      "outputs": [],
      "stateMutability": "nonpayable",
      "type": "function"
    },
    {
      "inputs": [
        {
          "internalType": "uint16",
          "name": "_postId",
          "type": "uint16"
        },
        {
          "internalType": "uint64",
          "name": "_exp",
          "type": "uint64"
        }
      ],
      "name": "editExpiryTime",
      "outputs": [],
      "stateMutability": "nonpayable",
      "type": "function"
    },
    {
      "inputs": [
        {
          "internalType": "uint16",
          "name": "_postId",
          "type": "uint16"
        },
        {
          "internalType": "uint64",
          "name": "_x",
          "type": "uint64"
        },
        {
          "internalType": "uint64",
          "name": "_y",
          "type": "uint64"
        }
      ],
      "name": "editFinalLocation",
      "outputs": [],
      "stateMutability": "nonpayable",
      "type": "function"
    },
    {
      "inputs": [
        {
          "internalType": "uint16",
          "name": "_postId",
          "type": "uint16"
        },
        {
          "internalType": "uint16",
          "name": "_fT",
          "type": "uint16"
        }
      ],
      "name": "editFinalTime",
      "outputs": [],
      "stateMutability": "nonpayable",
      "type": "function"
    },
    {
      "inputs": [
        {
          "internalType": "uint16",
          "name": "_postId",
          "type": "uint16"
        },
        {
          "internalType": "uint64",
          "name": "_x",
          "type": "uint64"
        },
        {
          "internalType": "uint64",
          "name": "_y",
          "type": "uint64"
        }
      ],
      "name": "editInitialLocation",
      "outputs": [],
      "stateMutability": "nonpayable",
      "type": "function"
    },
    {
      "inputs": [
        {
          "internalType": "uint16",
          "name": "_postId",
          "type": "uint16"
        },
        {
          "internalType": "uint16",
          "name": "_iT",
          "type": "uint16"
        }
      ],
      "name": "editInitialTime",
      "outputs": [],
      "stateMutability": "nonpayable",
      "type": "function"
    },
    {
      "inputs": [
        {
          "internalType": "uint16",
          "name": "_postId",
          "type": "uint16"
        }
      ],
      "name": "getFinalLocation",
      "outputs": [
        {
          "internalType": "uint64",
          "name": "",
          "type": "uint64"
        },
        {
          "internalType": "uint64",
          "name": "",
          "type": "uint64"
        }
      ],
      "stateMutability": "view",
      "type": "function",
      "constant": true
    },
    {
      "inputs": [
        {
          "internalType": "uint16",
          "name": "_postId",
          "type": "uint16"
        }
      ],
      "name": "getInitialLocation",
      "outputs": [
        {
          "internalType": "uint64",
          "name": "",
          "type": "uint64"
        },
        {
          "internalType": "uint64",
          "name": "",
          "type": "uint64"
        }
      ],
      "stateMutability": "view",
      "type": "function",
      "constant": true
    },
    {
      "inputs": [
        {
          "internalType": "string",
          "name": "_postName",
          "type": "string"
        },
        {
          "internalType": "uint16",
          "name": "_profileId",
          "type": "uint16"
        },
        {
          "internalType": "uint64",
          "name": "_iXx",
          "type": "uint64"
        },
        {
          "internalType": "uint64",
          "name": "_iXy",
          "type": "uint64"
        },
        {
          "internalType": "uint64",
          "name": "_fXx",
          "type": "uint64"
        },
        {
          "internalType": "uint64",
          "name": "_fXy",
          "type": "uint64"
        },
        {
          "internalType": "uint64",
          "name": "_exp",
          "type": "uint64"
        }
      ],
      "name": "initPost",
      "outputs": [],
      "stateMutability": "payable",
      "type": "function",
      "payable": true
    },
    {
      "inputs": [
        {
          "internalType": "uint16",
          "name": "",
          "type": "uint16"
        }
      ],
      "name": "pendingDeals",
      "outputs": [
        {
          "internalType": "enum waterSource.dealStates",
          "name": "",
          "type": "uint8"
        }
      ],
      "stateMutability": "view",
      "type": "function",
      "constant": true
    },
    {
      "inputs": [
        {
          "internalType": "uint16",
          "name": "_postId",
          "type": "uint16"
        }
      ],
      "name": "refundExpiredPost",
      "outputs": [],
      "stateMutability": "view",
      "type": "function",
      "constant": true
    },
    {
      "inputs": [
        {
          "internalType": "uint16",
          "name": "_postId",
          "type": "uint16"
        }
      ],
      "name": "takeDownPost",
      "outputs": [],
      "stateMutability": "nonpayable",
      "type": "function"
    }
  ],
  "bytecode": "0x608060405260008060146101000a81548161ffff021916908361ffff16021790555060008060166101000a81548161ffff021916908361ffff1602179055503480156200004b57600080fd5b50604051620047d2380380620047d2833981810160405281019062000071919062000165565b80806000806101000a81548173ffffffffffffffffffffffffffffffffffffffff021916908373ffffffffffffffffffffffffffffffffffffffff16021790555033600560006101000a81548173ffffffffffffffffffffffffffffffffffffffff021916908373ffffffffffffffffffffffffffffffffffffffff160217905550505062000197565b600080fd5b600073ffffffffffffffffffffffffffffffffffffffff82169050919050565b60006200012d8262000100565b9050919050565b6200013f8162000120565b81146200014b57600080fd5b50565b6000815190506200015f8162000134565b92915050565b6000602082840312156200017e576200017d620000fb565b5b60006200018e848285016200014e565b91505092915050565b61462b80620001a76000396000f3fe6080604052600436106101355760003560e01c806383072fec116100ab578063c4c9280f1161006f578063c4c9280f14610418578063d72e5a0a14610441578063e643c44a14610489578063e784698d146104b2578063f0dcd9f5146104db578063fe6304b51461051957610135565b806383072fec1461030e5780638882aad1146103375780638eb50f3414610374578063a516f3dd1461039d578063b4ec4761146103db57610135565b80633e3fd876116100fd5780633e3fd8761461021157806344f03aad1461022d57806353e964c3146102565780635c99a40a1461027f57806368253e43146102a857806369c81d6e146102d157610135565b8063105098d41461013a5780631fb9ce5e1461017a5780632020e9ea146101a35780632f4c72b6146101bf578063355f0201146101e8575b600080fd5b34801561014657600080fd5b50610161600480360381019061015c919061329d565b610542565b6040516101719493929190613361565b60405180910390f35b34801561018657600080fd5b506101a1600480360381019061019c91906133e6565b6105ba565b005b6101bd60048036038101906101b8919061329d565b610732565b005b3480156101cb57600080fd5b506101e660048036038101906101e1919061329d565b610be9565b005b3480156101f457600080fd5b5061020f600480360381019061020a919061349e565b610d09565b005b61022b60048036038101906102269190613533565b610e23565b005b34801561023957600080fd5b50610254600480360381019061024f919061329d565b61126b565b005b34801561026257600080fd5b5061027d600480360381019061027891906135f5565b61138b565b005b34801561028b57600080fd5b506102a660048036038101906102a19190613622565b611739565b005b3480156102b457600080fd5b506102cf60048036038101906102ca919061329d565b6118b1565b005b3480156102dd57600080fd5b506102f860048036038101906102f391906137a3565b6119da565b604051610305919061387e565b60405180910390f35b34801561031a57600080fd5b50610335600480360381019061033091906133e6565b611aa7565b005b34801561034357600080fd5b5061035e600480360381019061035991906135f5565b611c1f565b60405161036b9190613917565b60405180910390f35b34801561038057600080fd5b5061039b6004803603810190610396919061329d565b611c3f565b005b3480156103a957600080fd5b506103c460048036038101906103bf91906135f5565b611d68565b6040516103d2929190613941565b60405180910390f35b3480156103e757600080fd5b5061040260048036038101906103fd9190613996565b611e16565b60405161040f91906139d6565b60405180910390f35b34801561042457600080fd5b5061043f600480360381019061043a91906139f1565b611e5d565b005b34801561044d57600080fd5b50610468600480360381019061046391906135f5565b611f7c565b6040516104809c9b9a99989796959493929190613a8f565b60405180910390f35b34801561049557600080fd5b506104b060048036038101906104ab91906135f5565b612241565b005b3480156104be57600080fd5b506104d960048036038101906104d4919061329d565b6123a0565b005b3480156104e757600080fd5b5061050260048036038101906104fd91906135f5565b6128cf565b604051610510929190613941565b60405180910390f35b34801561052557600080fd5b50610540600480360381019061053b919061329d565b61297d565b005b6002602052816000526040600020602052806000526040600020600091509150508060000160009054906101000a900461ffff16908060000160029054906101000a900473ffffffffffffffffffffffffffffffffffffffff16908060010154908060020160009054906101000a900460ff16905084565b6105f0600160008561ffff1661ffff16815260200190815260200160002060020160009054906101000a900461ffff1633612b58565b61062f576040517f08c379a000000000000000000000000000000000000000000000000000000000815260040161062690613bca565b60405180910390fd5b81600160008561ffff1661ffff16815260200190815260200160002060050160000160006101000a81548167ffffffffffffffff021916908367ffffffffffffffff16021790555080600160008561ffff1661ffff16815260200190815260200160002060050160000160086101000a81548167ffffffffffffffff021916908367ffffffffffffffff160217905550600160008060149054906101000a900461ffff1661ffff1661ffff168152602001908152602001600020600601600c9054906101000a900460ff1615158361ffff167f6d0bd97d07eb61a190d38333c6e99f378ac8fd474d475050319e2c02869849f360405160405180910390a3505050565b61073c8234612bff565b61077b576040517f08c379a000000000000000000000000000000000000000000000000000000000815260040161077290613c5c565b60405180910390fd5b60008060008054906101000a900473ffffffffffffffffffffffffffffffffffffffff1673ffffffffffffffffffffffffffffffffffffffff1663ec1b2d81846040518263ffffffff1660e01b81526004016107d791906139d6565b600060405180830381865afa1580156107f4573d6000803e3d6000fd5b505050506040513d6000823e3d601f19601f8201168201806040525081019061081d9190613d11565b9050508092505060008054906101000a900473ffffffffffffffffffffffffffffffffffffffff1673ffffffffffffffffffffffffffffffffffffffff1663ec1b2d81600160008761ffff1661ffff16815260200190815260200160002060020160009054906101000a900461ffff166040518263ffffffff1660e01b81526004016108a991906139d6565b600060405180830381865afa1580156108c6573d6000803e3d6000fd5b505050506040513d6000823e3d601f19601f820116820180604052508101906108ef9190613d11565b90505080915050806001811115610909576109086138a0565b5b82600181111561091c5761091b6138a0565b5b0361095c576040517f08c379a000000000000000000000000000000000000000000000000000000000815260040161095390613e0e565b60405180910390fd5b6001600060168282829054906101000a900461ffff1661097c9190613e5d565b92506101000a81548161ffff021916908361ffff16021790555082600260008661ffff1661ffff16815260200190815260200160002060008060169054906101000a900461ffff1661ffff1661ffff16815260200190815260200160002060000160006101000a81548161ffff021916908361ffff16021790555033600260008661ffff1661ffff16815260200190815260200160002060008060169054906101000a900461ffff1661ffff1661ffff16815260200190815260200160002060000160026101000a81548173ffffffffffffffffffffffffffffffffffffffff021916908373ffffffffffffffffffffffffffffffffffffffff16021790555034600260008661ffff1661ffff16815260200190815260200160002060008060169054906101000a900461ffff1661ffff1661ffff168152602001908152602001600020600101819055506000600260008661ffff1661ffff16815260200190815260200160002060008060169054906101000a900461ffff1661ffff1661ffff16815260200190815260200160002060020160006101000a81548160ff021916908315150217905550600360008561ffff1661ffff168152602001908152602001600020600060169054906101000a900461ffff1690806001815401808255809150506001900390600052602060002090601091828204019190066002029091909190916101000a81548161ffff021916908361ffff16021790555060001515600060169054906101000a900461ffff1661ffff168561ffff167feede45e9c1e239f8a870054f11df3daf31f6062499de917694f038f5704bc66360405160405180910390a450505050565b610c1f600160008461ffff1661ffff16815260200190815260200160002060020160009054906101000a900461ffff1633612b58565b610c5e576040517f08c379a0000000000000000000000000000000000000000000000000000000008152600401610c5590613bca565b60405180910390fd5b80600160008461ffff1661ffff16815260200190815260200160002060060160006101000a81548161ffff021916908361ffff160217905550600160008060149054906101000a900461ffff1661ffff1661ffff168152602001908152602001600020600601600c9054906101000a900460ff1615158261ffff167f6d0bd97d07eb61a190d38333c6e99f378ac8fd474d475050319e2c02869849f360405160405180910390a35050565b610d3f600160008761ffff1661ffff16815260200190815260200160002060020160009054906101000a900461ffff1633612b58565b610d7e576040517f08c379a0000000000000000000000000000000000000000000000000000000008152600401610d7590613bca565b60405180910390fd5b8181600160008861ffff1661ffff1681526020019081526020016000206007018686604051610dae929190613ec3565b90815260200160405180910390209182610dc99291906140f3565b50610dd385612c0b565b8383604051610de3929190613ec3565b60405180910390208561ffff167fbaf97478c80f25341499beee1b0593dd5c3d1590210255e24f231e3226fb22f860405160405180910390a35050505050565b610e2d8633612b58565b610e6c576040517f08c379a0000000000000000000000000000000000000000000000000000000008152600401610e6390613bca565b60405180910390fd5b428167ffffffffffffffff1611610eb8576040517f08c379a0000000000000000000000000000000000000000000000000000000008152600401610eaf90614235565b60405180910390fd5b6001600060148282829054906101000a900461ffff16610ed89190613e5d565b92506101000a81548161ffff021916908361ffff16021790555033600160008060149054906101000a900461ffff1661ffff1661ffff16815260200190815260200160002060020160026101000a81548173ffffffffffffffffffffffffffffffffffffffff021916908373ffffffffffffffffffffffffffffffffffffffff16021790555034600160008060149054906101000a900461ffff1661ffff1661ffff168152602001908152602001600020600301819055508787600160008060149054906101000a900461ffff1661ffff1661ffff1681526020019081526020016000206000019182610fcc9291906140f3565b5085600160008060149054906101000a900461ffff1661ffff1661ffff16815260200190815260200160002060020160006101000a81548161ffff021916908361ffff16021790555060405180604001604052808667ffffffffffffffff1681526020018567ffffffffffffffff16815250600160008060149054906101000a900461ffff1661ffff1661ffff16815260200190815260200160002060040160008201518160000160006101000a81548167ffffffffffffffff021916908367ffffffffffffffff16021790555060208201518160000160086101000a81548167ffffffffffffffff021916908367ffffffffffffffff16021790555090505060405180604001604052808467ffffffffffffffff1681526020018367ffffffffffffffff16815250600160008060149054906101000a900461ffff1661ffff1661ffff16815260200190815260200160002060050160008201518160000160006101000a81548167ffffffffffffffff021916908367ffffffffffffffff16021790555060208201518160000160086101000a81548167ffffffffffffffff021916908367ffffffffffffffff16021790555090505080600160008060149054906101000a900461ffff1661ffff1661ffff16815260200190815260200160002060060160046101000a81548167ffffffffffffffff021916908367ffffffffffffffff16021790555060018060008060149054906101000a900461ffff1661ffff1661ffff168152602001908152602001600020600601600c6101000a81548160ff02191690831515021790555060011515600060149054906101000a900461ffff1661ffff167f6d0bd97d07eb61a190d38333c6e99f378ac8fd474d475050319e2c02869849f360405160405180910390a35050505050505050565b6112a1600160008461ffff1661ffff16815260200190815260200160002060020160009054906101000a900461ffff1633612b58565b6112e0576040517f08c379a00000000000000000000000000000000000000000000000000000000081526004016112d790613bca565b60405180910390fd5b80600160008461ffff1661ffff16815260200190815260200160002060060160026101000a81548161ffff021916908361ffff160217905550600160008060149054906101000a900461ffff1661ffff1661ffff168152602001908152602001600020600601600c9054906101000a900460ff1615158261ffff167f6d0bd97d07eb61a190d38333c6e99f378ac8fd474d475050319e2c02869849f360405160405180910390a35050565b600560009054906101000a900473ffffffffffffffffffffffffffffffffffffffff1673ffffffffffffffffffffffffffffffffffffffff163373ffffffffffffffffffffffffffffffffffffffff1614806114505750600160008261ffff1661ffff16815260200190815260200160002060020160029054906101000a900473ffffffffffffffffffffffffffffffffffffffff1673ffffffffffffffffffffffffffffffffffffffff163373ffffffffffffffffffffffffffffffffffffffff16145b8061148657503073ffffffffffffffffffffffffffffffffffffffff163373ffffffffffffffffffffffffffffffffffffffff16145b6114c5576040517f08c379a00000000000000000000000000000000000000000000000000000000081526004016114bc906142c7565b60405180910390fd5b42600160008361ffff1661ffff16815260200190815260200160002060060160049054906101000a900467ffffffffffffffff1667ffffffffffffffff1611611543576040517f08c379a000000000000000000000000000000000000000000000000000000000815260040161153a90614333565b60405180910390fd5b600160008261ffff1661ffff16815260200190815260200160002060020160029054906101000a900473ffffffffffffffffffffffffffffffffffffffff1673ffffffffffffffffffffffffffffffffffffffff16600160008361ffff1661ffff168152602001908152602001600020505060005b600360008361ffff1661ffff1681526020019081526020016000208054905081101561173557600260008361ffff1661ffff1681526020019081526020016000206000600360008561ffff1661ffff168152602001908152602001600020838154811061162857611627614353565b5b90600052602060002090601091828204019190066002029054906101000a900461ffff1661ffff1661ffff16815260200190815260200160002060000160029054906101000a900473ffffffffffffffffffffffffffffffffffffffff1673ffffffffffffffffffffffffffffffffffffffff16600260008461ffff1661ffff1681526020019081526020016000206000600360008661ffff1661ffff16815260200190815260200160002084815481106116e6576116e5614353565b5b90600052602060002090601091828204019190066002029054906101000a900461ffff1661ffff1661ffff1681526020019081526020016000205050808061172d90614382565b9150506115b8565b5050565b61176f600160008461ffff1661ffff16815260200190815260200160002060020160009054906101000a900461ffff1633612b58565b6117ae576040517f08c379a00000000000000000000000000000000000000000000000000000000081526004016117a590613bca565b60405180910390fd5b428167ffffffffffffffff16116117fa576040517f08c379a00000000000000000000000000000000000000000000000000000000081526004016117f190614235565b60405180910390fd5b80600160008461ffff1661ffff16815260200190815260200160002060060160046101000a81548167ffffffffffffffff021916908367ffffffffffffffff160217905550600160008060149054906101000a900461ffff1661ffff1661ffff168152602001908152602001600020600601600c9054906101000a900460ff1615158261ffff167f6d0bd97d07eb61a190d38333c6e99f378ac8fd474d475050319e2c02869849f360405160405180910390a35050565b6118e7600160008461ffff1661ffff16815260200190815260200160002060020160009054906101000a900461ffff1633612b58565b611926576040517f08c379a000000000000000000000000000000000000000000000000000000000815260040161191d90613bca565b60405180910390fd5b80600160008461ffff1661ffff16815260200190815260200160002060060160026101000a81548161ffff021916908361ffff16021790555061196882612c0b565b600160008060149054906101000a900461ffff1661ffff1661ffff168152602001908152602001600020600601600c9054906101000a900460ff1615158261ffff167f6d0bd97d07eb61a190d38333c6e99f378ac8fd474d475050319e2c02869849f360405160405180910390a35050565b6060600160008461ffff1661ffff16815260200190815260200160002060070182604051611a0891906143fb565b90815260200160405180910390208054611a2190613f16565b80601f0160208091040260200160405190810160405280929190818152602001828054611a4d90613f16565b8015611a9a5780601f10611a6f57610100808354040283529160200191611a9a565b820191906000526020600020905b815481529060010190602001808311611a7d57829003601f168201915b5050505050905092915050565b611add600160008561ffff1661ffff16815260200190815260200160002060020160009054906101000a900461ffff1633612b58565b611b1c576040517f08c379a0000000000000000000000000000000000000000000000000000000008152600401611b1390613bca565b60405180910390fd5b81600160008561ffff1661ffff16815260200190815260200160002060040160000160006101000a81548167ffffffffffffffff021916908367ffffffffffffffff16021790555080600160008561ffff1661ffff16815260200190815260200160002060040160000160086101000a81548167ffffffffffffffff021916908367ffffffffffffffff160217905550600160008060149054906101000a900461ffff1661ffff1661ffff168152602001908152602001600020600601600c9054906101000a900460ff1615158361ffff167f6d0bd97d07eb61a190d38333c6e99f378ac8fd474d475050319e2c02869849f360405160405180910390a3505050565b60046020528060005260406000206000915054906101000a900460ff1681565b611c75600160008461ffff1661ffff16815260200190815260200160002060020160009054906101000a900461ffff1633612b58565b611cb4576040517f08c379a0000000000000000000000000000000000000000000000000000000008152600401611cab90613bca565b60405180910390fd5b80600160008461ffff1661ffff16815260200190815260200160002060060160006101000a81548161ffff021916908361ffff160217905550611cf682612c0b565b600160008060149054906101000a900461ffff1661ffff1661ffff168152602001908152602001600020600601600c9054906101000a900460ff1615158261ffff167f6d0bd97d07eb61a190d38333c6e99f378ac8fd474d475050319e2c02869849f360405160405180910390a35050565b600080611d736131dc565b600160008561ffff1661ffff1681526020019081526020016000206004016040518060400160405290816000820160009054906101000a900467ffffffffffffffff1667ffffffffffffffff1667ffffffffffffffff1681526020016000820160089054906101000a900467ffffffffffffffff1667ffffffffffffffff1667ffffffffffffffff16815250509050806000015181602001519250925050915091565b60036020528160005260406000208181548110611e3257600080fd5b9060005260206000209060109182820401919006600202915091509054906101000a900461ffff1681565b611e93600160008561ffff1661ffff16815260200190815260200160002060020160009054906101000a900461ffff1633612b58565b611ed2576040517f08c379a0000000000000000000000000000000000000000000000000000000008152600401611ec990613bca565b60405180910390fd5b8181600160008661ffff1661ffff1681526020019081526020016000206001019182611eff9291906140f3565b50611f0983612c0b565b600160008060149054906101000a900461ffff1661ffff1661ffff168152602001908152602001600020600601600c9054906101000a900460ff1615158361ffff167f6d0bd97d07eb61a190d38333c6e99f378ac8fd474d475050319e2c02869849f360405160405180910390a3505050565b6001602052806000526040600020600091509050806000018054611f9f90613f16565b80601f0160208091040260200160405190810160405280929190818152602001828054611fcb90613f16565b80156120185780601f10611fed57610100808354040283529160200191612018565b820191906000526020600020905b815481529060010190602001808311611ffb57829003601f168201915b50505050509080600101805461202d90613f16565b80601f016020809104026020016040519081016040528092919081815260200182805461205990613f16565b80156120a65780601f1061207b576101008083540402835291602001916120a6565b820191906000526020600020905b81548152906001019060200180831161208957829003601f168201915b5050505050908060020160009054906101000a900461ffff16908060020160029054906101000a900473ffffffffffffffffffffffffffffffffffffffff1690806003015490806004016040518060400160405290816000820160009054906101000a900467ffffffffffffffff1667ffffffffffffffff1667ffffffffffffffff1681526020016000820160089054906101000a900467ffffffffffffffff1667ffffffffffffffff1667ffffffffffffffff168152505090806005016040518060400160405290816000820160009054906101000a900467ffffffffffffffff1667ffffffffffffffff1667ffffffffffffffff1681526020016000820160089054906101000a900467ffffffffffffffff1667ffffffffffffffff1667ffffffffffffffff1681525050908060060160009054906101000a900461ffff16908060060160029054906101000a900461ffff16908060060160049054906101000a900467ffffffffffffffff169080600601600c9054906101000a900460ff16908060080160009054906101000a900461ffff1690508c565b612277600160008361ffff1661ffff16815260200190815260200160002060020160009054906101000a900461ffff1633612b58565b6122b6576040517f08c379a00000000000000000000000000000000000000000000000000000000081526004016122ad90613bca565b60405180910390fd5b6000600160008361ffff1661ffff168152602001908152602001600020600601600c6101000a81548160ff0219169083151502179055506122f681612c0b565b600160008261ffff1661ffff16815260200190815260200160002060020160029054906101000a900473ffffffffffffffffffffffffffffffffffffffff1673ffffffffffffffffffffffffffffffffffffffff16600160008361ffff1661ffff1681526020019081526020016000205050600015158161ffff167f6d0bd97d07eb61a190d38333c6e99f378ac8fd474d475050319e2c02869849f360405160405180910390a350565b6123aa8282612ec6565b6123e9576040517f08c379a00000000000000000000000000000000000000000000000000000000081526004016123e090614484565b60405180910390fd5b60008060009054906101000a900473ffffffffffffffffffffffffffffffffffffffff1673ffffffffffffffffffffffffffffffffffffffff1663ec1b2d81836040518263ffffffff1660e01b815260040161244591906139d6565b600060405180830381865afa158015612462573d6000803e3d6000fd5b505050506040513d6000823e3d601f19601f8201168201806040525081019061248b9190613d11565b90505080915050600060038111156124a6576124a56138a0565b5b600460008561ffff1661ffff16815260200190815260200160002060009054906101000a900460ff1660038111156124e1576124e06138a0565b5b036125d157600060018111156124fa576124f96138a0565b5b81600181111561250d5761250c6138a0565b5b0361255b576001600460008561ffff1661ffff16815260200190815260200160002060006101000a81548160ff02191690836003811115612551576125506138a0565b5b02179055506125cc565b60018081111561256e5761256d6138a0565b5b816001811115612581576125806138a0565b5b036125cb576002600460008561ffff1661ffff16815260200190815260200160002060006101000a81548160ff021916908360038111156125c5576125c46138a0565b5b02179055505b5b61285e565b600160038111156125e5576125e46138a0565b5b600460008561ffff1661ffff16815260200190815260200160002060009054906101000a900460ff1660038111156126205761261f6138a0565b5b036126e457600180811115612638576126376138a0565b5b81600181111561264b5761264a6138a0565b5b036126a2576003600460008561ffff1661ffff16815260200190815260200160002060006101000a81548160ff0219169083600381111561268f5761268e6138a0565b5b021790555061269d83612fa0565b6126df565b600060018111156126b6576126b56138a0565b5b8160018111156126c9576126c86138a0565b5b036126de5760006126dd576126dc6144a4565b5b5b5b61285d565b600260038111156126f8576126f76138a0565b5b600460008561ffff1661ffff16815260200190815260200160002060009054906101000a900460ff166003811115612733576127326138a0565b5b036127f7576000600181111561274c5761274b6138a0565b5b81600181111561275f5761275e6138a0565b5b036127b6576003600460008561ffff1661ffff16815260200190815260200160002060006101000a81548160ff021916908360038111156127a3576127a26138a0565b5b02179055506127b183612fa0565b6127f2565b6001808111156127c9576127c86138a0565b5b8160018111156127dc576127db6138a0565b5b036127f15760006127f0576127ef6144a4565b5b5b5b61285c565b6002600381111561280b5761280a6138a0565b5b600460008561ffff1661ffff16815260200190815260200160002060009054906101000a900460ff166003811115612846576128456138a0565b5b0361285b57600061285a576128596144a4565b5b5b5b5b5b600460008461ffff1661ffff16815260200190815260200160002060009054906101000a900460ff166003811115612899576128986138a0565b5b8361ffff167f5ce3ac421a0bdf2e262549c1d24776c81b7379f66ca3a670af65d222a39cb1c860405160405180910390a3505050565b6000806128da6131dc565b600160008561ffff1661ffff1681526020019081526020016000206005016040518060400160405290816000820160009054906101000a900467ffffffffffffffff1667ffffffffffffffff1667ffffffffffffffff1681526020016000820160089054906101000a900467ffffffffffffffff1667ffffffffffffffff1667ffffffffffffffff16815250509050806000015181602001519250925050915091565b6129b3600160008461ffff1661ffff16815260200190815260200160002060020160009054906101000a900461ffff1633612b58565b6129f2576040517f08c379a00000000000000000000000000000000000000000000000000000000081526004016129e990613bca565b60405180910390fd5b6129fb82612fa3565b612a3a576040517f08c379a0000000000000000000000000000000000000000000000000000000008152600401612a319061451f565b60405180910390fd5b612a4382612241565b6001600260008461ffff1661ffff16815260200190815260200160002060008361ffff1661ffff16815260200190815260200160002060020160006101000a81548160ff0219169083151502179055506000600460008461ffff1661ffff16815260200190815260200160002060006101000a81548160ff02191690836003811115612ad257612ad16138a0565b5b021790555080600160008461ffff1661ffff16815260200190815260200160002060080160006101000a81548161ffff021916908361ffff160217905550612b1a8282612feb565b600115158161ffff168361ffff167feede45e9c1e239f8a870054f11df3daf31f6062499de917694f038f5704bc66360405160405180910390a45050565b60008060009054906101000a900473ffffffffffffffffffffffffffffffffffffffff1673ffffffffffffffffffffffffffffffffffffffff1663d17264f084846040518363ffffffff1660e01b8152600401612bb692919061453f565b602060405180830381865afa158015612bd3573d6000803e3d6000fd5b505050506040513d601f19601f82011682018060405250810190612bf79190614594565b905092915050565b60006001905092915050565b60005b600360008361ffff1661ffff16815260200190815260200160002080549050811015612e6a57600260008361ffff1661ffff1681526020019081526020016000206000600360008561ffff1661ffff1681526020019081526020016000208381548110612c7e57612c7d614353565b5b90600052602060002090601091828204019190066002029054906101000a900461ffff1661ffff1661ffff16815260200190815260200160002060000160029054906101000a900473ffffffffffffffffffffffffffffffffffffffff1673ffffffffffffffffffffffffffffffffffffffff16600260008461ffff1661ffff1681526020019081526020016000206000600360008661ffff1661ffff1681526020019081526020016000208481548110612d3c57612d3b614353565b5b90600052602060002090601091828204019190066002029054906101000a900461ffff1661ffff1661ffff1681526020019081526020016000205050600260008361ffff1661ffff1681526020019081526020016000206000600360008561ffff1661ffff1681526020019081526020016000208381548110612dc257612dc1614353565b5b90600052602060002090601091828204019190066002029054906101000a900461ffff1661ffff1661ffff168152602001908152602001600020600080820160006101000a81549061ffff02191690556000820160026101000a81549073ffffffffffffffffffffffffffffffffffffffff021916905560018201600090556002820160006101000a81549060ff021916905550508080612e6290614382565b915050612c0e565b50600360008261ffff1661ffff1681526020019081526020016000206000612e92919061320a565b8061ffff167f372e3aa608ee95995abbce35189c94770e047df9a345e82c46cfd79918d0951860405160405180910390a250565b60008161ffff16600160008561ffff1661ffff16815260200190815260200160002060020160009054906101000a900461ffff1661ffff1603612f0c5760019050612f9a565b8161ffff16600260008561ffff1661ffff1681526020019081526020016000206000600160008761ffff1661ffff16815260200190815260200160002060080160009054906101000a900461ffff1661ffff1661ffff16815260200190815260200160002060000160009054906101000a900461ffff1661ffff1603612f955760019050612f9a565b600090505b92915050565b50565b6000600160008361ffff1661ffff16815260200190815260200160002060060160049054906101000a900467ffffffffffffffff1667ffffffffffffffff1642109050919050565b60005b6001600360008561ffff1661ffff1681526020019081526020016000208054905061301991906145c1565b8110156131d7578161ffff16600360008561ffff1661ffff168152602001908152602001600020828154811061305257613051614353565b5b90600052602060002090601091828204019190066002029054906101000a900461ffff1661ffff16146131c457600260008461ffff1661ffff1681526020019081526020016000206000600360008661ffff1661ffff16815260200190815260200160002083815481106130c9576130c8614353565b5b90600052602060002090601091828204019190066002029054906101000a900461ffff1661ffff1661ffff16815260200190815260200160002060000160029054906101000a900473ffffffffffffffffffffffffffffffffffffffff1673ffffffffffffffffffffffffffffffffffffffff16600260008561ffff1661ffff1681526020019081526020016000206000600360008761ffff1661ffff168152602001908152602001600020848154811061318757613186614353565b5b90600052602060002090601091828204019190066002029054906101000a900461ffff1661ffff1661ffff16815260200190815260200160002050505b80806131cf90614382565b915050612fee565b505050565b6040518060400160405280600067ffffffffffffffff168152602001600067ffffffffffffffff1681525090565b50805460008255600f01601090049060005260206000209081019061322f9190613232565b50565b5b8082111561324b576000816000905550600101613233565b5090565b6000604051905090565b600080fd5b600080fd5b600061ffff82169050919050565b61327a81613263565b811461328557600080fd5b50565b60008135905061329781613271565b92915050565b600080604083850312156132b4576132b3613259565b5b60006132c285828601613288565b92505060206132d385828601613288565b9150509250929050565b6132e681613263565b82525050565b600073ffffffffffffffffffffffffffffffffffffffff82169050919050565b6000613317826132ec565b9050919050565b6133278161330c565b82525050565b6000819050919050565b6133408161332d565b82525050565b60008115159050919050565b61335b81613346565b82525050565b600060808201905061337660008301876132dd565b613383602083018661331e565b6133906040830185613337565b61339d6060830184613352565b95945050505050565b600067ffffffffffffffff82169050919050565b6133c3816133a6565b81146133ce57600080fd5b50565b6000813590506133e0816133ba565b92915050565b6000806000606084860312156133ff576133fe613259565b5b600061340d86828701613288565b935050602061341e868287016133d1565b925050604061342f868287016133d1565b9150509250925092565b600080fd5b600080fd5b600080fd5b60008083601f84011261345e5761345d613439565b5b8235905067ffffffffffffffff81111561347b5761347a61343e565b5b60208301915083600182028301111561349757613496613443565b5b9250929050565b6000806000806000606086880312156134ba576134b9613259565b5b60006134c888828901613288565b955050602086013567ffffffffffffffff8111156134e9576134e861325e565b5b6134f588828901613448565b9450945050604086013567ffffffffffffffff8111156135185761351761325e565b5b61352488828901613448565b92509250509295509295909350565b60008060008060008060008060e0898b03121561355357613552613259565b5b600089013567ffffffffffffffff8111156135715761357061325e565b5b61357d8b828c01613448565b985098505060206135908b828c01613288565b96505060406135a18b828c016133d1565b95505060606135b28b828c016133d1565b94505060806135c38b828c016133d1565b93505060a06135d48b828c016133d1565b92505060c06135e58b828c016133d1565b9150509295985092959890939650565b60006020828403121561360b5761360a613259565b5b600061361984828501613288565b91505092915050565b6000806040838503121561363957613638613259565b5b600061364785828601613288565b9250506020613658858286016133d1565b9150509250929050565b600080fd5b6000601f19601f8301169050919050565b7f4e487b7100000000000000000000000000000000000000000000000000000000600052604160045260246000fd5b6136b082613667565b810181811067ffffffffffffffff821117156136cf576136ce613678565b5b80604052505050565b60006136e261324f565b90506136ee82826136a7565b919050565b600067ffffffffffffffff82111561370e5761370d613678565b5b61371782613667565b9050602081019050919050565b82818337600083830152505050565b6000613746613741846136f3565b6136d8565b90508281526020810184848401111561376257613761613662565b5b61376d848285613724565b509392505050565b600082601f83011261378a57613789613439565b5b813561379a848260208601613733565b91505092915050565b600080604083850312156137ba576137b9613259565b5b60006137c885828601613288565b925050602083013567ffffffffffffffff8111156137e9576137e861325e565b5b6137f585828601613775565b9150509250929050565b600081519050919050565b600082825260208201905092915050565b60005b8381101561383957808201518184015260208101905061381e565b60008484015250505050565b6000613850826137ff565b61385a818561380a565b935061386a81856020860161381b565b61387381613667565b840191505092915050565b600060208201905081810360008301526138988184613845565b905092915050565b7f4e487b7100000000000000000000000000000000000000000000000000000000600052602160045260246000fd5b600481106138e0576138df6138a0565b5b50565b60008190506138f1826138cf565b919050565b6000613901826138e3565b9050919050565b613911816138f6565b82525050565b600060208201905061392c6000830184613908565b92915050565b61393b816133a6565b82525050565b60006040820190506139566000830185613932565b6139636020830184613932565b9392505050565b6139738161332d565b811461397e57600080fd5b50565b6000813590506139908161396a565b92915050565b600080604083850312156139ad576139ac613259565b5b60006139bb85828601613288565b92505060206139cc85828601613981565b9150509250929050565b60006020820190506139eb60008301846132dd565b92915050565b600080600060408486031215613a0a57613a09613259565b5b6000613a1886828701613288565b935050602084013567ffffffffffffffff811115613a3957613a3861325e565b5b613a4586828701613448565b92509250509250925092565b613a5a816133a6565b82525050565b604082016000820151613a766000850182613a51565b506020820151613a896020850182613a51565b50505050565b60006101c0820190508181036000830152613aaa818f613845565b90508181036020830152613abe818e613845565b9050613acd604083018d6132dd565b613ada606083018c61331e565b613ae7608083018b613337565b613af460a083018a613a60565b613b0160e0830189613a60565b613b0f6101208301886132dd565b613b1d6101408301876132dd565b613b2b610160830186613932565b613b39610180830185613352565b613b476101a08301846132dd565b9d9c50505050505050505050505050565b7f4572726f723a20454f41206973206e6f74206173736f6369617465642077697460008201527f6820746869732075736572000000000000000000000000000000000000000000602082015250565b6000613bb4602b8361380a565b9150613bbf82613b58565b604082019050919050565b60006020820190508181036000830152613be381613ba7565b9050919050565b7f446f6573206e6f74206d65657420637269746572696120666f7220647574636860008201527f2f656e676c697368206269640000000000000000000000000000000000000000602082015250565b6000613c46602c8361380a565b9150613c5182613bea565b604082019050919050565b60006020820190508181036000830152613c7581613c39565b9050919050565b60028110613c8957600080fd5b50565b600081519050613c9b81613c7c565b92915050565b6000613cb4613caf846136f3565b6136d8565b905082815260208101848484011115613cd057613ccf613662565b5b613cdb84828561381b565b509392505050565b600082601f830112613cf857613cf7613439565b5b8151613d08848260208601613ca1565b91505092915050565b600080600060608486031215613d2a57613d29613259565b5b6000613d3886828701613c8c565b935050602084015167ffffffffffffffff811115613d5957613d5861325e565b5b613d6586828701613ce3565b925050604084015167ffffffffffffffff811115613d8657613d8561325e565b5b613d9286828701613ce3565b9150509250925092565b7f4572726f723a206e6f7420616c6c6f77656420746f20626964206f6e20706f7360008201527f74206f662073616d652077617465722074797065000000000000000000000000602082015250565b6000613df860348361380a565b9150613e0382613d9c565b604082019050919050565b60006020820190508181036000830152613e2781613deb565b9050919050565b7f4e487b7100000000000000000000000000000000000000000000000000000000600052601160045260246000fd5b6000613e6882613263565b9150613e7383613263565b9250828201905061ffff811115613e8d57613e8c613e2e565b5b92915050565b600081905092915050565b6000613eaa8385613e93565b9350613eb7838584613724565b82840190509392505050565b6000613ed0828486613e9e565b91508190509392505050565b600082905092915050565b7f4e487b7100000000000000000000000000000000000000000000000000000000600052602260045260246000fd5b60006002820490506001821680613f2e57607f821691505b602082108103613f4157613f40613ee7565b5b50919050565b60008190508160005260206000209050919050565b60006020601f8301049050919050565b600082821b905092915050565b600060088302613fa97fffffffffffffffffffffffffffffffffffffffffffffffffffffffffffffffff82613f6c565b613fb38683613f6c565b95508019841693508086168417925050509392505050565b6000819050919050565b6000613ff0613feb613fe68461332d565b613fcb565b61332d565b9050919050565b6000819050919050565b61400a83613fd5565b61401e61401682613ff7565b848454613f79565b825550505050565b600090565b614033614026565b61403e818484614001565b505050565b5b818110156140625761405760008261402b565b600181019050614044565b5050565b601f8211156140a75761407881613f47565b61408184613f5c565b81016020851015614090578190505b6140a461409c85613f5c565b830182614043565b50505b505050565b600082821c905092915050565b60006140ca600019846008026140ac565b1980831691505092915050565b60006140e383836140b9565b9150826002028217905092915050565b6140fd8383613edc565b67ffffffffffffffff81111561411657614115613678565b5b6141208254613f16565b61412b828285614066565b6000601f83116001811461415a5760008415614148578287013590505b61415285826140d7565b8655506141ba565b601f19841661416886613f47565b60005b828110156141905784890135825560018201915060208501945060208101905061416b565b868310156141ad57848901356141a9601f8916826140b9565b8355505b6001600288020188555050505b50505050505050565b7f4572726f723a206578706972792074696d6520697320696e207468652070617360008201527f7400000000000000000000000000000000000000000000000000000000000000602082015250565b600061421f60218361380a565b915061422a826141c3565b604082019050919050565b6000602082019050818103600083015261424e81614212565b9050919050565b7f536d61727420436f6e7472616374204572726f723a206e6f7420617574686f7260008201527f6973656420746f20726566756e642066726f6d207468697320706f7374000000602082015250565b60006142b1603d8361380a565b91506142bc82614255565b604082019050919050565b600060208201905081810360008301526142e0816142a4565b9050919050565b7f54686520706f737420686173206e6f7420657870697265640000000000000000600082015250565b600061431d60188361380a565b9150614328826142e7565b602082019050919050565b6000602082019050818103600083015261434c81614310565b9050919050565b7f4e487b7100000000000000000000000000000000000000000000000000000000600052603260045260246000fd5b600061438d8261332d565b91507fffffffffffffffffffffffffffffffffffffffffffffffffffffffffffffffff82036143bf576143be613e2e565b5b600182019050919050565b60006143d5826137ff565b6143df8185613e93565b93506143ef81856020860161381b565b80840191505092915050565b600061440782846143ca565b915081905092915050565b7f4572726f723a2070726f66696c654964206e6f74206173736f6369617465642060008201527f776974682074686973206465616c000000000000000000000000000000000000602082015250565b600061446e602e8361380a565b915061447982614412565b604082019050919050565b6000602082019050818103600083015261449d81614461565b9050919050565b7f4e487b7100000000000000000000000000000000000000000000000000000000600052600160045260246000fd5b7f4572726f723a20706f7374206861732065787069726564000000000000000000600082015250565b600061450960178361380a565b9150614514826144d3565b602082019050919050565b60006020820190508181036000830152614538816144fc565b9050919050565b600060408201905061455460008301856132dd565b614561602083018461331e565b9392505050565b61457181613346565b811461457c57600080fd5b50565b60008151905061458e81614568565b92915050565b6000602082840312156145aa576145a9613259565b5b60006145b88482850161457f565b91505092915050565b60006145cc8261332d565b91506145d78361332d565b92508282039050818111156145ef576145ee613e2e565b5b9291505056fea26469706673582212207ad2882902aafb40ab7057d41574dce9481ace227438856c29aea2a6d76eb50764736f6c63430008120033",
  "immutableReferences": {},
  "source": "pragma solidity ^0.8.18;\r\n\r\nimport \"./waterSource.sol\";\r\n// import \"./profile.sol\";\r\n\r\n\r\ncontract lake is waterSource{\r\n\r\n    constructor(address _profileContractAddress) waterSource(_profileContractAddress) {}\r\n\r\n    function bidReqs(uint16 _postId,uint _bidAmount) internal view override returns(bool){\r\n        return (_bidAmount < collection[_postId].price);\r\n    }\r\n        \r\n    function payout(uint16 _postId) internal override {\r\n        collection[_postId].EOA.call{value:bids[_postId][collection[_postId].winningBidId].bidAmount}(\"\");\r\n        bids[_postId][collection[_postId].winningBidId].bidderEOA.call{value:collection[_postId].price}(\"\");\r\n    }\r\n\r\n}",
  "sourcePath": "C:\\Users\\rishi\\Documents\\RaedaLogistics\\RaedaPlatform\\raeda\\core\\smart_contracts\\contracts\\polygon\\lake.sol",
  "compiler": {
    "name": "solc",
    "version": "0.8.18+commit.87f61d96.Emscripten.clang"
  },
  "schemaVersion": "3.4.12",
  "updatedAt": "2023-03-02T15:48:51.812Z",
  "networkType": "ethereum",
  "devdoc": {
    "kind": "dev",
    "methods": {},
    "version": 1
  },
  "userdoc": {
    "kind": "user",
    "methods": {},
    "version": 1
  },
  "db": {
    "callBytecode": {
      "id": "0x683249326df42d0acbb9f26baaaeaade50777ea763bdd1c2f689f0398ca4622b"
    },
    "createBytecode": {
      "id": "0xc6e8fcbd3583b04d23d185f188105d2d30964d7a028fab6565c110cd5a4747fe"
    },
    "contract": {
      "id": "0xbb5be698439133a6d1c7c433a8f09e6f3ce875d62352b9f2669ccea7f8f43146"
    }
  }
}