{
  "contractName": "profile",
  "abi": [
    {
      "anonymous": false,
      "inputs": [
        {
          "indexed": true,
          "internalType": "uint32",
          "name": "_userId",
          "type": "uint32"
        },
        {
          "indexed": true,
          "internalType": "enum waterTypes",
          "name": "_waterType",
          "type": "uint8"
        },
        {
          "indexed": false,
          "internalType": "string",
          "name": "_userName",
          "type": "string"
        },
        {
          "indexed": false,
          "internalType": "string",
          "name": "_summary",
          "type": "string"
        }
      ],
      "name": "profileEvent",
      "type": "event"
    },
    {
      "inputs": [
        {
          "internalType": "uint32",
          "name": "",
          "type": "uint32"
        }
      ],
      "name": "profiles",
      "outputs": [
        {
          "internalType": "enum waterTypes",
          "name": "waterType",
          "type": "uint8"
        },
        {
          "internalType": "string",
          "name": "userName",
          "type": "string"
        },
        {
          "internalType": "string",
          "name": "summary",
          "type": "string"
        }
      ],
      "stateMutability": "view",
      "type": "function",
      "constant": true
    },
    {
      "inputs": [
        {
          "internalType": "enum waterTypes",
          "name": "_waterType",
          "type": "uint8"
        },
        {
          "internalType": "string",
          "name": "_userName",
          "type": "string"
        },
        {
          "internalType": "string",
          "name": "_summary",
          "type": "string"
        }
      ],
      "name": "addProfile",
      "outputs": [],
      "stateMutability": "nonpayable",
      "type": "function"
    },
    {
      "inputs": [
        {
          "internalType": "uint32",
          "name": "_userId",
          "type": "uint32"
        },
        {
          "internalType": "address",
          "name": "_newEOA",
          "type": "address"
        }
      ],
      "name": "addEOA",
      "outputs": [],
      "stateMutability": "nonpayable",
      "type": "function"
    },
    {
      "inputs": [
        {
          "internalType": "uint32",
          "name": "_userId",
          "type": "uint32"
        },
        {
          "internalType": "address",
          "name": "_EOA",
          "type": "address"
        }
      ],
      "name": "checkEOA",
      "outputs": [
        {
          "internalType": "bool",
          "name": "",
          "type": "bool"
        }
      ],
      "stateMutability": "view",
      "type": "function",
      "constant": true
    }
  ],
  "bytecode": "0x608060405260008060006101000a81548163ffffffff021916908363ffffffff16021790555034801561003157600080fd5b50610d96806100416000396000f3fe608060405234801561001057600080fd5b506004361061004c5760003560e01c8063186966921461005157806354b7c0b01461006d5780638e0d76e21461009d578063b50a1851146100cf575b600080fd5b61006b60048036038101906100669190610654565b6100eb565b005b61008760048036038101906100829190610654565b6101dc565b60405161009491906106af565b60405180910390f35b6100b760048036038101906100b291906106ca565b610253565b6040516100c6939291906107fe565b60405180910390f35b6100e960048036038101906100e491906108cd565b61039a565b005b600160008363ffffffff1663ffffffff16815260200190815260200160002060020160003373ffffffffffffffffffffffffffffffffffffffff1673ffffffffffffffffffffffffffffffffffffffff16815260200190815260200160002060009054906101000a900460ff1661016157600080fd5b60018060008463ffffffff1663ffffffff16815260200190815260200160002060020160008373ffffffffffffffffffffffffffffffffffffffff1673ffffffffffffffffffffffffffffffffffffffff16815260200190815260200160002060006101000a81548160ff0219169083151502179055505050565b6000600160008463ffffffff1663ffffffff16815260200190815260200160002060020160008373ffffffffffffffffffffffffffffffffffffffff1673ffffffffffffffffffffffffffffffffffffffff16815260200190815260200160002060009054906101000a900460ff16905092915050565b60016020528060005260406000206000915090508060000160009054906101000a900460ff169080600101805461028990610991565b80601f01602080910402602001604051908101604052809291908181526020018280546102b590610991565b80156103025780601f106102d757610100808354040283529160200191610302565b820191906000526020600020905b8154815290600101906020018083116102e557829003601f168201915b50505050509080600301805461031790610991565b80601f016020809104026020016040519081016040528092919081815260200182805461034390610991565b80156103905780601f1061036557610100808354040283529160200191610390565b820191906000526020600020905b81548152906001019060200180831161037357829003601f168201915b5050505050905083565b60016000808282829054906101000a900463ffffffff166103bb91906109f1565b92506101000a81548163ffffffff021916908363ffffffff16021790555084600160008060009054906101000a900463ffffffff1663ffffffff1663ffffffff16815260200190815260200160002060000160006101000a81548160ff0219169083600181111561042f5761042e6106f7565b5b02179055508383600160008060009054906101000a900463ffffffff1663ffffffff1663ffffffff1681526020019081526020016000206001019182610476929190610c19565b5060018060008060009054906101000a900463ffffffff1663ffffffff1663ffffffff16815260200190815260200160002060020160003373ffffffffffffffffffffffffffffffffffffffff1673ffffffffffffffffffffffffffffffffffffffff16815260200190815260200160002060006101000a81548160ff0219169083151502179055508181600160008060009054906101000a900463ffffffff1663ffffffff1663ffffffff1681526020019081526020016000206003019182610541929190610c19565b50846001811115610555576105546106f7565b5b60008054906101000a900463ffffffff1663ffffffff167feaaebe0a074fbbbefe6d2fb48f551c7c327c07a639f82d343331382f5181e922868686866040516105a19493929190610d25565b60405180910390a35050505050565b600080fd5b600080fd5b600063ffffffff82169050919050565b6105d3816105ba565b81146105de57600080fd5b50565b6000813590506105f0816105ca565b92915050565b600073ffffffffffffffffffffffffffffffffffffffff82169050919050565b6000610621826105f6565b9050919050565b61063181610616565b811461063c57600080fd5b50565b60008135905061064e81610628565b92915050565b6000806040838503121561066b5761066a6105b0565b5b6000610679858286016105e1565b925050602061068a8582860161063f565b9150509250929050565b60008115159050919050565b6106a981610694565b82525050565b60006020820190506106c460008301846106a0565b92915050565b6000602082840312156106e0576106df6105b0565b5b60006106ee848285016105e1565b91505092915050565b7f4e487b7100000000000000000000000000000000000000000000000000000000600052602160045260246000fd5b60028110610737576107366106f7565b5b50565b600081905061074882610726565b919050565b60006107588261073a565b9050919050565b6107688161074d565b82525050565b600081519050919050565b600082825260208201905092915050565b60005b838110156107a857808201518184015260208101905061078d565b60008484015250505050565b6000601f19601f8301169050919050565b60006107d08261076e565b6107da8185610779565b93506107ea81856020860161078a565b6107f3816107b4565b840191505092915050565b6000606082019050610813600083018661075f565b818103602083015261082581856107c5565b9050818103604083015261083981846107c5565b9050949350505050565b6002811061085057600080fd5b50565b60008135905061086281610843565b92915050565b600080fd5b600080fd5b600080fd5b60008083601f84011261088d5761088c610868565b5b8235905067ffffffffffffffff8111156108aa576108a961086d565b5b6020830191508360018202830111156108c6576108c5610872565b5b9250929050565b6000806000806000606086880312156108e9576108e86105b0565b5b60006108f788828901610853565b955050602086013567ffffffffffffffff811115610918576109176105b5565b5b61092488828901610877565b9450945050604086013567ffffffffffffffff811115610947576109466105b5565b5b61095388828901610877565b92509250509295509295909350565b7f4e487b7100000000000000000000000000000000000000000000000000000000600052602260045260246000fd5b600060028204905060018216806109a957607f821691505b6020821081036109bc576109bb610962565b5b50919050565b7f4e487b7100000000000000000000000000000000000000000000000000000000600052601160045260246000fd5b60006109fc826105ba565b9150610a07836105ba565b9250828201905063ffffffff811115610a2357610a226109c2565b5b92915050565b600082905092915050565b7f4e487b7100000000000000000000000000000000000000000000000000000000600052604160045260246000fd5b60008190508160005260206000209050919050565b60006020601f8301049050919050565b600082821b905092915050565b600060088302610ac57fffffffffffffffffffffffffffffffffffffffffffffffffffffffffffffffff82610a88565b610acf8683610a88565b95508019841693508086168417925050509392505050565b6000819050919050565b6000819050919050565b6000610b16610b11610b0c84610ae7565b610af1565b610ae7565b9050919050565b6000819050919050565b610b3083610afb565b610b44610b3c82610b1d565b848454610a95565b825550505050565b600090565b610b59610b4c565b610b64818484610b27565b505050565b5b81811015610b8857610b7d600082610b51565b600181019050610b6a565b5050565b601f821115610bcd57610b9e81610a63565b610ba784610a78565b81016020851015610bb6578190505b610bca610bc285610a78565b830182610b69565b50505b505050565b600082821c905092915050565b6000610bf060001984600802610bd2565b1980831691505092915050565b6000610c098383610bdf565b9150826002028217905092915050565b610c238383610a29565b67ffffffffffffffff811115610c3c57610c3b610a34565b5b610c468254610991565b610c51828285610b8c565b6000601f831160018114610c805760008415610c6e578287013590505b610c788582610bfd565b865550610ce0565b601f198416610c8e86610a63565b60005b82811015610cb657848901358255600182019150602085019450602081019050610c91565b86831015610cd35784890135610ccf601f891682610bdf565b8355505b6001600288020188555050505b50505050505050565b82818337600083830152505050565b6000610d048385610779565b9350610d11838584610ce9565b610d1a836107b4565b840190509392505050565b60006040820190508181036000830152610d40818688610cf8565b90508181036020830152610d55818486610cf8565b90509594505050505056fea2646970667358221220ba6036c7512b5b8fbc4e2bd66305c8bfb8cfe8d8933e966468da360ee4e8602964736f6c63430008120033",
  "immutableReferences": {},
  "source": "pragma solidity ^0.8.18;\r\n\r\nenum waterTypes {LAKE,RIVER}\r\n\r\n\r\ncontract profile {\r\n\r\n    uint32 private userIdCount = 0;\r\n\r\n\r\n    //Profile contains: id,name,EOAs,brief summary, lake/river\r\n    struct Profile {\r\n        // uint32 _userId;\r\n        waterTypes waterType;\r\n        string userName;\r\n        mapping(address => bool) EOAs;\r\n        string summary;         \r\n    }\r\n\r\n    mapping(uint32 => Profile) public profiles;\r\n    event profileEvent(uint32 indexed _userId, waterTypes indexed _waterType, string _userName, string _summary);\r\n\r\n//check parameter of function with enum\r\n    function addProfile(waterTypes _waterType,string calldata _userName, string calldata _summary) external{\r\n        userIdCount +=1;\r\n        profiles[userIdCount].waterType = _waterType;\r\n        profiles[userIdCount].userName = _userName;\r\n        profiles[userIdCount].EOAs[msg.sender]=true;\r\n        profiles[userIdCount].summary = _summary;\r\n        emit profileEvent(userIdCount,_waterType,_userName,_summary);\r\n    }\r\n\r\n    function addEOA(uint32 _userId, address _newEOA) external {\r\n        require(profiles[_userId].EOAs[msg.sender]);\r\n        profiles[_userId].EOAs[_newEOA]=true;\r\n    }\r\n\r\n    function checkEOA(uint32 _userId, address _EOA) public view returns(bool){\r\n        return profiles[_userId].EOAs[_EOA];\r\n    }\r\n\r\n\r\n}",
  "sourcePath": "C:\\Users\\rishi\\Documents\\RaedaLogistics\\RaedaPlatform\\raeda\\core\\smart_contracts\\contracts\\polygon\\profile.sol",
  "compiler": {
    "name": "solc",
    "version": "0.8.18+commit.87f61d96.Emscripten.clang"
  },
  "schemaVersion": "3.4.12",
  "updatedAt": "2023-02-27T18:54:28.767Z",
  "networkType": "ethereum",
  "devdoc": {
    "kind": "dev",
    "methods": {},
    "version": 1
  },
  "userdoc": {
    "kind": "user",
    "methods": {},
    "version": 1
  },
  "db": {
    "callBytecode": {
      "id": "0xf595c5d44e0c260757b1ab3d4bb67fb5f00fa4046769531c521d48ae892cbee0"
    },
    "createBytecode": {
      "id": "0x0e535e188c25a232b4486d94c8921d5d75566f955bb813e0f2b8cd5e09875cd4"
    },
    "contract": {
      "id": "0xff3e69a1086cee9ba357941b368c010cc19ed0b676db6ea6a6f9e8a6cf31c3f9"
    }
  }
}