{
  "contractName": "profile",
  "abi": [
    {
      "anonymous": false,
      "inputs": [
        {
          "indexed": true,
          "internalType": "uint16",
          "name": "_userId",
          "type": "uint16"
        },
        {
          "indexed": true,
          "internalType": "address",
          "name": "",
          "type": "address"
        }
      ],
      "name": "addressEvent",
      "type": "event"
    },
    {
      "anonymous": false,
      "inputs": [
        {
          "indexed": true,
          "internalType": "uint16",
          "name": "_userId",
          "type": "uint16"
        }
      ],
      "name": "profileEvent",
      "type": "event"
    },
    {
      "inputs": [
        {
          "internalType": "string",
          "name": "",
          "type": "string"
        }
      ],
      "name": "profileNames",
      "outputs": [
        {
          "internalType": "bool",
          "name": "",
          "type": "bool"
        }
      ],
      "stateMutability": "view",
      "type": "function",
      "constant": true
    },
    {
      "inputs": [
        {
          "internalType": "uint16",
          "name": "",
          "type": "uint16"
        }
      ],
      "name": "profiles",
      "outputs": [
        {
          "internalType": "enum waterTypes",
          "name": "waterType",
          "type": "uint8"
        },
        {
          "internalType": "string",
          "name": "profileName",
          "type": "string"
        },
        {
          "internalType": "string",
          "name": "description",
          "type": "string"
        }
      ],
      "stateMutability": "view",
      "type": "function",
      "constant": true
    },
    {
      "inputs": [
        {
          "internalType": "enum waterTypes",
          "name": "_waterType",
          "type": "uint8"
        },
        {
          "internalType": "string",
          "name": "_profileName",
          "type": "string"
        },
        {
          "internalType": "string",
          "name": "_description",
          "type": "string"
        }
      ],
      "name": "createProfile",
      "outputs": [],
      "stateMutability": "nonpayable",
      "type": "function"
    },
    {
      "inputs": [
        {
          "internalType": "uint16",
          "name": "_userId",
          "type": "uint16"
        },
        {
          "internalType": "address",
          "name": "_newEOA",
          "type": "address"
        }
      ],
      "name": "addEOA",
      "outputs": [],
      "stateMutability": "nonpayable",
      "type": "function"
    },
    {
      "inputs": [
        {
          "internalType": "uint16",
          "name": "_userId",
          "type": "uint16"
        },
        {
          "internalType": "address",
          "name": "_EOA",
          "type": "address"
        }
      ],
      "name": "checkEOA",
      "outputs": [
        {
          "internalType": "bool",
          "name": "",
          "type": "bool"
        }
      ],
      "stateMutability": "view",
      "type": "function",
      "constant": true
    }
  ],
  "bytecode": "0x608060405260008060006101000a81548161ffff021916908361ffff16021790555034801561002d57600080fd5b506110888061003d6000396000f3fe608060405234801561001057600080fd5b50600436106100575760003560e01c8063c6c983551461005c578063d17264f014610078578063e36cfd24146100a8578063e373290d146100d8578063ec1b2d81146100f4575b600080fd5b610076600480360381019061007191906107b2565b610126565b005b610092600480360381019061008d91906108df565b6103f3565b60405161009f919061093a565b60405180910390f35b6100c260048036038101906100bd9190610a96565b610466565b6040516100cf919061093a565b60405180910390f35b6100f260048036038101906100ed91906108df565b61049c565b005b61010e60048036038101906101099190610adf565b6105cd565b60405161011d93929190610c02565b60405180910390f35b60028484604051610138929190610c77565b908152602001604051809103902060009054906101000a900460ff1615610194576040517f08c379a000000000000000000000000000000000000000000000000000000000815260040161018b90610cdc565b60405180910390fd5b60016000808282829054906101000a900461ffff166101b39190610d2b565b92506101000a81548161ffff021916908361ffff16021790555084600160008060009054906101000a900461ffff1661ffff1661ffff16815260200190815260200160002060000160006101000a81548160ff0219169083600181111561021d5761021c610b0c565b5b02179055508383600160008060009054906101000a900461ffff1661ffff1661ffff168152602001908152602001600020600101918261025e929190610f82565b5060018060008060009054906101000a900461ffff1661ffff1661ffff16815260200190815260200160002060020160003373ffffffffffffffffffffffffffffffffffffffff1673ffffffffffffffffffffffffffffffffffffffff16815260200190815260200160002060006101000a81548160ff0219169083151502179055508181600160008060009054906101000a900461ffff1661ffff1661ffff168152602001908152602001600020600301918261031d929190610f82565b50600160028585604051610332929190610c77565b908152602001604051809103902060006101000a81548160ff02191690831515021790555060008054906101000a900461ffff1661ffff167ffe6e6f6d88ab7e0a1f768be0cf14d5a5cdab779c1935b93efeb2ccef78121ed360405160405180910390a23373ffffffffffffffffffffffffffffffffffffffff1660008054906101000a900461ffff1661ffff167f98880382aef40afb0ef3c0fc9a77ba2cdadc7dfad4c7da430e12af8d9565fff860405160405180910390a35050505050565b6000600160008461ffff1661ffff16815260200190815260200160002060020160008373ffffffffffffffffffffffffffffffffffffffff1673ffffffffffffffffffffffffffffffffffffffff16815260200190815260200160002060009054906101000a900460ff16905092915050565b6002818051602081018201805184825260208301602085012081835280955050505050506000915054906101000a900460ff1681565b600160008361ffff1661ffff16815260200190815260200160002060020160003373ffffffffffffffffffffffffffffffffffffffff1673ffffffffffffffffffffffffffffffffffffffff16815260200190815260200160002060009054906101000a900460ff1661050e57600080fd5b60018060008461ffff1661ffff16815260200190815260200160002060020160008373ffffffffffffffffffffffffffffffffffffffff1673ffffffffffffffffffffffffffffffffffffffff16815260200190815260200160002060006101000a81548160ff0219169083151502179055508073ffffffffffffffffffffffffffffffffffffffff168261ffff167f98880382aef40afb0ef3c0fc9a77ba2cdadc7dfad4c7da430e12af8d9565fff860405160405180910390a35050565b60016020528060005260406000206000915090508060000160009054906101000a900460ff169080600101805461060390610d9b565b80601f016020809104026020016040519081016040528092919081815260200182805461062f90610d9b565b801561067c5780601f106106515761010080835404028352916020019161067c565b820191906000526020600020905b81548152906001019060200180831161065f57829003601f168201915b50505050509080600301805461069190610d9b565b80601f01602080910402602001604051908101604052809291908181526020018280546106bd90610d9b565b801561070a5780601f106106df5761010080835404028352916020019161070a565b820191906000526020600020905b8154815290600101906020018083116106ed57829003601f168201915b5050505050905083565b6000604051905090565b600080fd5b600080fd5b6002811061073557600080fd5b50565b60008135905061074781610728565b92915050565b600080fd5b600080fd5b600080fd5b60008083601f8401126107725761077161074d565b5b8235905067ffffffffffffffff81111561078f5761078e610752565b5b6020830191508360018202830111156107ab576107aa610757565b5b9250929050565b6000806000806000606086880312156107ce576107cd61071e565b5b60006107dc88828901610738565b955050602086013567ffffffffffffffff8111156107fd576107fc610723565b5b6108098882890161075c565b9450945050604086013567ffffffffffffffff81111561082c5761082b610723565b5b6108388882890161075c565b92509250509295509295909350565b600061ffff82169050919050565b61085e81610847565b811461086957600080fd5b50565b60008135905061087b81610855565b92915050565b600073ffffffffffffffffffffffffffffffffffffffff82169050919050565b60006108ac82610881565b9050919050565b6108bc816108a1565b81146108c757600080fd5b50565b6000813590506108d9816108b3565b92915050565b600080604083850312156108f6576108f561071e565b5b60006109048582860161086c565b9250506020610915858286016108ca565b9150509250929050565b60008115159050919050565b6109348161091f565b82525050565b600060208201905061094f600083018461092b565b92915050565b600080fd5b6000601f19601f8301169050919050565b7f4e487b7100000000000000000000000000000000000000000000000000000000600052604160045260246000fd5b6109a38261095a565b810181811067ffffffffffffffff821117156109c2576109c161096b565b5b80604052505050565b60006109d5610714565b90506109e1828261099a565b919050565b600067ffffffffffffffff821115610a0157610a0061096b565b5b610a0a8261095a565b9050602081019050919050565b82818337600083830152505050565b6000610a39610a34846109e6565b6109cb565b905082815260208101848484011115610a5557610a54610955565b5b610a60848285610a17565b509392505050565b600082601f830112610a7d57610a7c61074d565b5b8135610a8d848260208601610a26565b91505092915050565b600060208284031215610aac57610aab61071e565b5b600082013567ffffffffffffffff811115610aca57610ac9610723565b5b610ad684828501610a68565b91505092915050565b600060208284031215610af557610af461071e565b5b6000610b038482850161086c565b91505092915050565b7f4e487b7100000000000000000000000000000000000000000000000000000000600052602160045260246000fd5b60028110610b4c57610b4b610b0c565b5b50565b6000819050610b5d82610b3b565b919050565b6000610b6d82610b4f565b9050919050565b610b7d81610b62565b82525050565b600081519050919050565b600082825260208201905092915050565b60005b83811015610bbd578082015181840152602081019050610ba2565b60008484015250505050565b6000610bd482610b83565b610bde8185610b8e565b9350610bee818560208601610b9f565b610bf78161095a565b840191505092915050565b6000606082019050610c176000830186610b74565b8181036020830152610c298185610bc9565b90508181036040830152610c3d8184610bc9565b9050949350505050565b600081905092915050565b6000610c5e8385610c47565b9350610c6b838584610a17565b82840190509392505050565b6000610c84828486610c52565b91508190509392505050565b7f546869732070726f66696c65206e616d6520686173206265656e2074616b656e600082015250565b6000610cc6602083610b8e565b9150610cd182610c90565b602082019050919050565b60006020820190508181036000830152610cf581610cb9565b9050919050565b7f4e487b7100000000000000000000000000000000000000000000000000000000600052601160045260246000fd5b6000610d3682610847565b9150610d4183610847565b9250828201905061ffff811115610d5b57610d5a610cfc565b5b92915050565b600082905092915050565b7f4e487b7100000000000000000000000000000000000000000000000000000000600052602260045260246000fd5b60006002820490506001821680610db357607f821691505b602082108103610dc657610dc5610d6c565b5b50919050565b60008190508160005260206000209050919050565b60006020601f8301049050919050565b600082821b905092915050565b600060088302610e2e7fffffffffffffffffffffffffffffffffffffffffffffffffffffffffffffffff82610df1565b610e388683610df1565b95508019841693508086168417925050509392505050565b6000819050919050565b6000819050919050565b6000610e7f610e7a610e7584610e50565b610e5a565b610e50565b9050919050565b6000819050919050565b610e9983610e64565b610ead610ea582610e86565b848454610dfe565b825550505050565b600090565b610ec2610eb5565b610ecd818484610e90565b505050565b5b81811015610ef157610ee6600082610eba565b600181019050610ed3565b5050565b601f821115610f3657610f0781610dcc565b610f1084610de1565b81016020851015610f1f578190505b610f33610f2b85610de1565b830182610ed2565b50505b505050565b600082821c905092915050565b6000610f5960001984600802610f3b565b1980831691505092915050565b6000610f728383610f48565b9150826002028217905092915050565b610f8c8383610d61565b67ffffffffffffffff811115610fa557610fa461096b565b5b610faf8254610d9b565b610fba828285610ef5565b6000601f831160018114610fe95760008415610fd7578287013590505b610fe18582610f66565b865550611049565b601f198416610ff786610dcc565b60005b8281101561101f57848901358255600182019150602085019450602081019050610ffa565b8683101561103c5784890135611038601f891682610f48565b8355505b6001600288020188555050505b5050505050505056fea2646970667358221220d24712bd37c0e5693badf0ebbec14d116de690e89c8a3dfb68fe1731bd87e4b364736f6c63430008120033",
  "immutableReferences": {},
  "source": "pragma solidity ^0.8.18;\r\n\r\nenum waterTypes {LAKE,RIVER}\r\n\r\n\r\ncontract profile {\r\n\r\n    uint16 private userIdCount = 0;\r\n\r\n\r\n    //Profile contains: id,name,EOAs,brief description, lake/river\r\n    struct Profile {\r\n        // uint16 _userId;\r\n        waterTypes waterType;\r\n        string profileName;\r\n        mapping(address => bool) EOAs;\r\n        string description;         \r\n    }\r\n\r\n    mapping(uint16 => Profile) public profiles;\r\n    event profileEvent(uint16 indexed _userId);\r\n    event addressEvent(uint16 indexed _userId, address indexed );\r\n    mapping(string=>bool) public profileNames;\r\n\r\n//check parameter of function with enum\r\n    function createProfile(waterTypes _waterType,string calldata _profileName, string calldata _description) external{\r\n        require(!profileNames[_profileName],\"This profile name has been taken\");\r\n        userIdCount +=1;\r\n        profiles[userIdCount].waterType = _waterType;\r\n        profiles[userIdCount].profileName = _profileName;\r\n        profiles[userIdCount].EOAs[msg.sender]=true;\r\n        profiles[userIdCount].description = _description;\r\n        profileNames[_profileName]=true;\r\n        emit profileEvent(userIdCount);\r\n        emit addressEvent(userIdCount, msg.sender);\r\n    }\r\n\r\n    function addEOA(uint16 _userId, address _newEOA) external {\r\n        require(profiles[_userId].EOAs[msg.sender]);\r\n        profiles[_userId].EOAs[_newEOA]=true;\r\n        emit addressEvent(_userId, _newEOA);\r\n    }\r\n\r\n    function checkEOA(uint16 _userId, address _EOA) public view returns(bool){\r\n        return profiles[_userId].EOAs[_EOA];\r\n    }\r\n\r\n\r\n}",
  "sourcePath": "C:\\Users\\rishi\\Documents\\RaedaLogistics\\RaedaPlatform\\raeda\\core\\smart_contracts\\contracts\\polygon\\profile.sol",
  "compiler": {
    "name": "solc",
    "version": "0.8.18+commit.87f61d96.Emscripten.clang"
  },
  "schemaVersion": "3.4.12",
  "updatedAt": "2023-03-02T15:48:51.773Z",
  "networkType": "ethereum",
  "devdoc": {
    "kind": "dev",
    "methods": {},
    "version": 1
  },
  "userdoc": {
    "kind": "user",
    "methods": {},
    "version": 1
  },
  "db": {
    "callBytecode": {
      "id": "0x75fafaf970ad564ecf8f8b16bd76070d1d3333dc75bb1e860f80e3d212773b4c"
    },
    "createBytecode": {
      "id": "0xdcbccb401b47defc1f4591db061a4091382a3497c576082c8aa5aa9babbf95fa"
    },
    "contract": {
      "id": "0x53e5907332598503168e96ce633c6d47b7f6999608a1bfcc3e74866698909952"
    }
  }
}