{
  "_format": "hh-sol-artifact-1",
  "contractName": "river",
  "sourceName": "contracts/river.sol",
  "abi": [
    {
      "inputs": [
        {
          "internalType": "address",
          "name": "_profileContractAddress",
          "type": "address"
        },
        {
          "internalType": "uint16",
          "name": "_initialPostId",
          "type": "uint16"
        },
        {
          "internalType": "uint16",
          "name": "_initialBidId",
          "type": "uint16"
        }
      ],
      "stateMutability": "nonpayable",
      "type": "constructor"
    },
    {
      "anonymous": false,
      "inputs": [
        {
          "indexed": true,
          "internalType": "uint16",
          "name": "_postId",
          "type": "uint16"
        },
        {
          "indexed": true,
          "internalType": "uint16",
          "name": "_bidId",
          "type": "uint16"
        }
      ],
      "name": "bidEvent",
      "type": "event"
    },
    {
      "anonymous": false,
      "inputs": [
        {
          "indexed": true,
          "internalType": "uint16",
          "name": "_postId",
          "type": "uint16"
        },
        {
          "indexed": true,
          "internalType": "string",
          "name": "_category",
          "type": "string"
        }
      ],
      "name": "bucketEvent",
      "type": "event"
    },
    {
      "anonymous": false,
      "inputs": [
        {
          "indexed": true,
          "internalType": "uint16",
          "name": "_postId",
          "type": "uint16"
        },
        {
          "indexed": true,
          "internalType": "enum waterSource.post_states",
          "name": "_postState",
          "type": "uint8"
        }
      ],
      "name": "postEvent",
      "type": "event"
    },
    {
      "anonymous": false,
      "inputs": [
        {
          "indexed": true,
          "internalType": "uint16",
          "name": "_postId",
          "type": "uint16"
        }
      ],
      "name": "resetEvent",
      "type": "event"
    },
    {
      "inputs": [
        {
          "internalType": "uint16",
          "name": "_postId",
          "type": "uint16"
        },
        {
          "internalType": "uint16",
          "name": "_bidId",
          "type": "uint16"
        }
      ],
      "name": "acceptBid",
      "outputs": [],
      "stateMutability": "nonpayable",
      "type": "function"
    },
    {
      "inputs": [
        {
          "internalType": "uint16",
          "name": "_postId",
          "type": "uint16"
        },
        {
          "internalType": "string",
          "name": "_category",
          "type": "string"
        },
        {
          "internalType": "string",
          "name": "_value",
          "type": "string"
        }
      ],
      "name": "addToBucket",
      "outputs": [],
      "stateMutability": "nonpayable",
      "type": "function"
    },
    {
      "inputs": [
        {
          "internalType": "uint16",
          "name": "_postId",
          "type": "uint16"
        },
        {
          "internalType": "uint16",
          "name": "_bidderId",
          "type": "uint16"
        }
      ],
      "name": "bid",
      "outputs": [],
      "stateMutability": "payable",
      "type": "function"
    },
    {
      "inputs": [
        {
          "internalType": "uint16",
          "name": "",
          "type": "uint16"
        },
        {
          "internalType": "uint16",
          "name": "",
          "type": "uint16"
        }
      ],
      "name": "bids",
      "outputs": [
        {
          "internalType": "uint16",
          "name": "bidderId",
          "type": "uint16"
        },
        {
          "internalType": "address",
          "name": "bidderEOA",
          "type": "address"
        },
        {
          "internalType": "uint256",
          "name": "bidAmount",
          "type": "uint256"
        }
      ],
      "stateMutability": "view",
      "type": "function"
    },
    {
      "inputs": [
        {
          "internalType": "uint16",
          "name": "",
          "type": "uint16"
        },
        {
          "internalType": "uint256",
          "name": "",
          "type": "uint256"
        }
      ],
      "name": "bidsArray",
      "outputs": [
        {
          "internalType": "uint16",
          "name": "",
          "type": "uint16"
        }
      ],
      "stateMutability": "view",
      "type": "function"
    },
    {
      "inputs": [
        {
          "internalType": "uint16",
          "name": "_postId",
          "type": "uint16"
        },
        {
          "internalType": "string",
          "name": "_category",
          "type": "string"
        }
      ],
      "name": "checkBucket",
      "outputs": [
        {
          "internalType": "string",
          "name": "",
          "type": "string"
        }
      ],
      "stateMutability": "view",
      "type": "function"
    },
    {
      "inputs": [
        {
          "internalType": "uint16",
          "name": "_postId",
          "type": "uint16"
        },
        {
          "internalType": "uint16",
          "name": "_profileId",
          "type": "uint16"
        }
      ],
      "name": "closeDeal",
      "outputs": [],
      "stateMutability": "payable",
      "type": "function"
    },
    {
      "inputs": [
        {
          "internalType": "uint16",
          "name": "",
          "type": "uint16"
        }
      ],
      "name": "collection",
      "outputs": [
        {
          "internalType": "string",
          "name": "postName",
          "type": "string"
        },
        {
          "internalType": "string",
          "name": "description",
          "type": "string"
        },
        {
          "internalType": "uint16",
          "name": "profileId",
          "type": "uint16"
        },
        {
          "internalType": "address",
          "name": "EOA",
          "type": "address"
        },
        {
          "internalType": "uint256",
          "name": "price",
          "type": "uint256"
        },
        {
          "components": [
            {
              "internalType": "uint64",
              "name": "x",
              "type": "uint64"
            },
            {
              "internalType": "uint64",
              "name": "y",
              "type": "uint64"
            }
          ],
          "internalType": "struct waterSource.Location",
          "name": "iX",
          "type": "tuple"
        },
        {
          "components": [
            {
              "internalType": "uint64",
              "name": "x",
              "type": "uint64"
            },
            {
              "internalType": "uint64",
              "name": "y",
              "type": "uint64"
            }
          ],
          "internalType": "struct waterSource.Location",
          "name": "fX",
          "type": "tuple"
        },
        {
          "internalType": "uint64",
          "name": "iT",
          "type": "uint64"
        },
        {
          "internalType": "uint64",
          "name": "fT",
          "type": "uint64"
        },
        {
          "internalType": "uint64",
          "name": "exp",
          "type": "uint64"
        },
        {
          "internalType": "uint16",
          "name": "winningBidId",
          "type": "uint16"
        },
        {
          "internalType": "enum waterSource.post_states",
          "name": "postState",
          "type": "uint8"
        }
      ],
      "stateMutability": "view",
      "type": "function"
    },
    {
      "inputs": [
        {
          "internalType": "uint16",
          "name": "_postId",
          "type": "uint16"
        },
        {
          "internalType": "string",
          "name": "_description",
          "type": "string"
        }
      ],
      "name": "editDescription",
      "outputs": [],
      "stateMutability": "nonpayable",
      "type": "function"
    },
    {
      "inputs": [
        {
          "internalType": "uint16",
          "name": "_postId",
          "type": "uint16"
        },
        {
          "internalType": "uint64",
          "name": "_exp",
          "type": "uint64"
        }
      ],
      "name": "editExpiryTime",
      "outputs": [],
      "stateMutability": "nonpayable",
      "type": "function"
    },
    {
      "inputs": [
        {
          "internalType": "uint16",
          "name": "_postId",
          "type": "uint16"
        },
        {
          "internalType": "uint64",
          "name": "_x",
          "type": "uint64"
        },
        {
          "internalType": "uint64",
          "name": "_y",
          "type": "uint64"
        }
      ],
      "name": "editFinalLocation",
      "outputs": [],
      "stateMutability": "nonpayable",
      "type": "function"
    },
    {
      "inputs": [
        {
          "internalType": "uint16",
          "name": "_postId",
          "type": "uint16"
        },
        {
          "internalType": "uint64",
          "name": "_fT",
          "type": "uint64"
        }
      ],
      "name": "editFinalTime",
      "outputs": [],
      "stateMutability": "nonpayable",
      "type": "function"
    },
    {
      "inputs": [
        {
          "internalType": "uint16",
          "name": "_postId",
          "type": "uint16"
        },
        {
          "internalType": "uint64",
          "name": "_x",
          "type": "uint64"
        },
        {
          "internalType": "uint64",
          "name": "_y",
          "type": "uint64"
        }
      ],
      "name": "editInitialLocation",
      "outputs": [],
      "stateMutability": "nonpayable",
      "type": "function"
    },
    {
      "inputs": [
        {
          "internalType": "uint16",
          "name": "_postId",
          "type": "uint16"
        },
        {
          "internalType": "uint64",
          "name": "_iT",
          "type": "uint64"
        }
      ],
      "name": "editInitialTime",
      "outputs": [],
      "stateMutability": "nonpayable",
      "type": "function"
    },
    {
      "inputs": [
        {
          "internalType": "uint16",
          "name": "_postId",
          "type": "uint16"
        }
      ],
      "name": "getFinalLocation",
      "outputs": [
        {
          "internalType": "uint64",
          "name": "",
          "type": "uint64"
        },
        {
          "internalType": "uint64",
          "name": "",
          "type": "uint64"
        }
      ],
      "stateMutability": "view",
      "type": "function"
    },
    {
      "inputs": [
        {
          "internalType": "uint16",
          "name": "_postId",
          "type": "uint16"
        }
      ],
      "name": "getInitialLocation",
      "outputs": [
        {
          "internalType": "uint64",
          "name": "",
          "type": "uint64"
        },
        {
          "internalType": "uint64",
          "name": "",
          "type": "uint64"
        }
      ],
      "stateMutability": "view",
      "type": "function"
    },
    {
      "inputs": [
        {
          "internalType": "string",
          "name": "_postName",
          "type": "string"
        },
        {
          "internalType": "uint16",
          "name": "_profileId",
          "type": "uint16"
        },
        {
          "internalType": "uint64",
          "name": "_iXx",
          "type": "uint64"
        },
        {
          "internalType": "uint64",
          "name": "_iXy",
          "type": "uint64"
        },
        {
          "internalType": "uint64",
          "name": "_fXx",
          "type": "uint64"
        },
        {
          "internalType": "uint64",
          "name": "_fXy",
          "type": "uint64"
        },
        {
          "internalType": "uint64",
          "name": "_exp",
          "type": "uint64"
        }
      ],
      "name": "initPost",
      "outputs": [],
      "stateMutability": "payable",
      "type": "function"
    },
    {
      "inputs": [
        {
          "internalType": "uint16",
          "name": "_postId",
          "type": "uint16"
        }
      ],
      "name": "refundExpiredPost",
      "outputs": [],
      "stateMutability": "nonpayable",
      "type": "function"
    },
    {
      "inputs": [
        {
          "internalType": "uint16",
          "name": "_postId",
          "type": "uint16"
        }
      ],
      "name": "takeDownPost",
      "outputs": [],
      "stateMutability": "nonpayable",
      "type": "function"
    }
  ],
  "bytecode": "0x60806040523480156200001157600080fd5b5060405162004a4638038062004a468339818101604052810190620000379190620001aa565b828282826000806101000a81548173ffffffffffffffffffffffffffffffffffffffff021916908373ffffffffffffffffffffffffffffffffffffffff16021790555033600460006101000a81548173ffffffffffffffffffffffffffffffffffffffff021916908373ffffffffffffffffffffffffffffffffffffffff16021790555081600060146101000a81548161ffff021916908361ffff16021790555080600060166101000a81548161ffff021916908361ffff16021790555050505050505062000206565b600080fd5b600073ffffffffffffffffffffffffffffffffffffffff82169050919050565b6000620001338262000106565b9050919050565b620001458162000126565b81146200015157600080fd5b50565b60008151905062000165816200013a565b92915050565b600061ffff82169050919050565b62000184816200016b565b81146200019057600080fd5b50565b600081519050620001a48162000179565b92915050565b600080600060608486031215620001c657620001c562000101565b5b6000620001d68682870162000154565b9350506020620001e98682870162000193565b9250506040620001fc8682870162000193565b9150509250925092565b61483080620002166000396000f3fe6080604052600436106101145760003560e01c806383072fec116100a0578063e643c44a11610064578063e643c44a146103af578063e784698d146103d8578063f0dcd9f5146103f4578063f4cebfdb14610432578063fe6304b51461045b57610114565b806383072fec1461029a578063a516f3dd146102c3578063b4ec476114610301578063c4c9280f1461033e578063d72e5a0a1461036757610114565b80633e3fd876116100e75780633e3fd876146101c657806353e964c3146101e25780635c99a40a1461020b5780635cb675301461023457806369c81d6e1461025d57610114565b8063105098d4146101195780631fb9ce5e146101585780632020e9ea14610181578063355f02011461019d575b600080fd5b34801561012557600080fd5b50610140600480360381019061013b91906133b3565b610484565b60405161014f9392919061345c565b60405180910390f35b34801561016457600080fd5b5061017f600480360381019061017a91906134d3565b6104e9565b005b61019b600480360381019061019691906133b3565b61066b565b005b3480156101a957600080fd5b506101c460048036038101906101bf919061358b565b610b66565b005b6101e060048036038101906101db9190613620565b610c80565b005b3480156101ee57600080fd5b50610209600480360381019061020491906136e2565b6110e9565b005b34801561021757600080fd5b50610232600480360381019061022d919061370f565b6115b4565b005b34801561024057600080fd5b5061025b6004803603810190610256919061370f565b611736565b005b34801561026957600080fd5b50610284600480360381019061027f9190613890565b61186c565b604051610291919061396b565b60405180910390f35b3480156102a657600080fd5b506102c160048036038101906102bc91906134d3565b611939565b005b3480156102cf57600080fd5b506102ea60048036038101906102e591906136e2565b611abb565b6040516102f892919061399c565b60405180910390f35b34801561030d57600080fd5b50610328600480360381019061032391906139f1565b611b69565b6040516103359190613a31565b60405180910390f35b34801561034a57600080fd5b5061036560048036038101906103609190613a4c565b611bb0565b005b34801561037357600080fd5b5061038e600480360381019061038991906136e2565b611cd0565b6040516103a69c9b9a99989796959493929190613b61565b60405180910390f35b3480156103bb57600080fd5b506103d660048036038101906103d191906136e2565b611fa1565b005b6103f260048036038101906103ed91906133b3565b612212565b005b34801561040057600080fd5b5061041b600480360381019061041691906136e2565b61266f565b60405161042992919061399c565b60405180910390f35b34801561043e57600080fd5b506104596004803603810190610454919061370f565b61271d565b005b34801561046757600080fd5b50610482600480360381019061047d91906133b3565b612853565b005b6002602052816000526040600020602052806000526040600020600091509150508060000160009054906101000a900461ffff16908060000160029054906101000a900473ffffffffffffffffffffffffffffffffffffffff16908060010154905083565b61051f600160008561ffff1661ffff16815260200190815260200160002060020160009054906101000a900461ffff1633612a41565b61055e576040517f08c379a000000000000000000000000000000000000000000000000000000000815260040161055590613c9c565b60405180910390fd5b81600160008561ffff1661ffff16815260200190815260200160002060050160000160006101000a81548167ffffffffffffffff021916908367ffffffffffffffff16021790555080600160008561ffff1661ffff16815260200190815260200160002060050160000160086101000a81548167ffffffffffffffff021916908367ffffffffffffffff1602179055506105f783612ae8565b600160008461ffff1661ffff16815260200190815260200160002060080160029054906101000a900460ff16600581111561063557610634613aea565b5b8361ffff167f4cba5211a468d81edeacff737c5acf48620b406d7eeb30e8b24aacd05c4688c960405160405180910390a3505050565b6106758234612d8f565b6106b4576040517f08c379a00000000000000000000000000000000000000000000000000000000081526004016106ab90613d2e565b60405180910390fd5b600060058111156106c8576106c7613aea565b5b600160008461ffff1661ffff16815260200190815260200160002060080160029054906101000a900460ff16600581111561070657610705613aea565b5b14610746576040517f08c379a000000000000000000000000000000000000000000000000000000000815260040161073d90613d9a565b60405180910390fd5b60008060008054906101000a900473ffffffffffffffffffffffffffffffffffffffff1673ffffffffffffffffffffffffffffffffffffffff1663ec1b2d81846040518263ffffffff1660e01b81526004016107a29190613a31565b600060405180830381865afa1580156107bf573d6000803e3d6000fd5b505050506040513d6000823e3d601f19601f820116820180604052508101906107e89190613e4f565b9050508092505060008054906101000a900473ffffffffffffffffffffffffffffffffffffffff1673ffffffffffffffffffffffffffffffffffffffff1663ec1b2d81600160008761ffff1661ffff16815260200190815260200160002060020160009054906101000a900461ffff166040518263ffffffff1660e01b81526004016108749190613a31565b600060405180830381865afa158015610891573d6000803e3d6000fd5b505050506040513d6000823e3d601f19601f820116820180604052508101906108ba9190613e4f565b905050809150508060018111156108d4576108d3613aea565b5b8260018111156108e7576108e6613aea565b5b03610927576040517f08c379a000000000000000000000000000000000000000000000000000000000815260040161091e90613f4c565b60405180910390fd5b600061093285612dba565b90508015610b5f576002600060168282829054906101000a900461ffff1661095a9190613f9b565b92506101000a81548161ffff021916908361ffff16021790555083600260008761ffff1661ffff16815260200190815260200160002060008060169054906101000a900461ffff1661ffff1661ffff16815260200190815260200160002060000160006101000a81548161ffff021916908361ffff16021790555033600260008761ffff1661ffff16815260200190815260200160002060008060169054906101000a900461ffff1661ffff1661ffff16815260200190815260200160002060000160026101000a81548173ffffffffffffffffffffffffffffffffffffffff021916908373ffffffffffffffffffffffffffffffffffffffff16021790555034600260008761ffff1661ffff16815260200190815260200160002060008060169054906101000a900461ffff1661ffff1661ffff16815260200190815260200160002060010181905550600360008661ffff1661ffff168152602001908152602001600020600060169054906101000a900461ffff1690806001815401808255809150506001900390600052602060002090601091828204019190066002029091909190916101000a81548161ffff021916908361ffff160217905550600060169054906101000a900461ffff1661ffff168561ffff167f5dba469212af68dbc77876e2e9197950b8cca4fe13cc3ef7cc1b420f47d8c37c60405160405180910390a35b5050505050565b610b9c600160008761ffff1661ffff16815260200190815260200160002060020160009054906101000a900461ffff1633612a41565b610bdb576040517f08c379a0000000000000000000000000000000000000000000000000000000008152600401610bd290613c9c565b60405180910390fd5b8181600160008861ffff1661ffff1681526020019081526020016000206007018686604051610c0b929190614001565b90815260200160405180910390209182610c26929190614231565b50610c3085612ae8565b8383604051610c40929190614001565b60405180910390208561ffff167fbaf97478c80f25341499beee1b0593dd5c3d1590210255e24f231e3226fb22f860405160405180910390a35050505050565b610c8a8633612a41565b610cc9576040517f08c379a0000000000000000000000000000000000000000000000000000000008152600401610cc090613c9c565b60405180910390fd5b428167ffffffffffffffff1611610d15576040517f08c379a0000000000000000000000000000000000000000000000000000000008152600401610d0c90614373565b60405180910390fd5b6002600060148282829054906101000a900461ffff16610d359190613f9b565b92506101000a81548161ffff021916908361ffff16021790555033600160008060149054906101000a900461ffff1661ffff1661ffff16815260200190815260200160002060020160026101000a81548173ffffffffffffffffffffffffffffffffffffffff021916908373ffffffffffffffffffffffffffffffffffffffff16021790555034600160008060149054906101000a900461ffff1661ffff1661ffff168152602001908152602001600020600301819055508787600160008060149054906101000a900461ffff1661ffff1661ffff1681526020019081526020016000206000019182610e29929190614231565b5085600160008060149054906101000a900461ffff1661ffff1661ffff16815260200190815260200160002060020160006101000a81548161ffff021916908361ffff16021790555060405180604001604052808667ffffffffffffffff1681526020018567ffffffffffffffff16815250600160008060149054906101000a900461ffff1661ffff1661ffff16815260200190815260200160002060040160008201518160000160006101000a81548167ffffffffffffffff021916908367ffffffffffffffff16021790555060208201518160000160086101000a81548167ffffffffffffffff021916908367ffffffffffffffff16021790555090505060405180604001604052808467ffffffffffffffff1681526020018367ffffffffffffffff16815250600160008060149054906101000a900461ffff1661ffff1661ffff16815260200190815260200160002060050160008201518160000160006101000a81548167ffffffffffffffff021916908367ffffffffffffffff16021790555060208201518160000160086101000a81548167ffffffffffffffff021916908367ffffffffffffffff16021790555090505080600160008060149054906101000a900461ffff1661ffff1661ffff16815260200190815260200160002060060160106101000a81548167ffffffffffffffff021916908367ffffffffffffffff1602179055506000600160008060149054906101000a900461ffff1661ffff1661ffff16815260200190815260200160002060080160026101000a81548160ff0219169083600581111561108557611084613aea565b5b02179055506000600581111561109e5761109d613aea565b5b600060149054906101000a900461ffff1661ffff167f4cba5211a468d81edeacff737c5acf48620b406d7eeb30e8b24aacd05c4688c960405160405180910390a35050505050505050565b600460009054906101000a900473ffffffffffffffffffffffffffffffffffffffff1673ffffffffffffffffffffffffffffffffffffffff163373ffffffffffffffffffffffffffffffffffffffff1614806111ae5750600160008261ffff1661ffff16815260200190815260200160002060020160029054906101000a900473ffffffffffffffffffffffffffffffffffffffff1673ffffffffffffffffffffffffffffffffffffffff163373ffffffffffffffffffffffffffffffffffffffff16145b806111e457503073ffffffffffffffffffffffffffffffffffffffff163373ffffffffffffffffffffffffffffffffffffffff16145b611223576040517f08c379a000000000000000000000000000000000000000000000000000000000815260040161121a90614405565b60405180910390fd5b42600160008361ffff1661ffff16815260200190815260200160002060060160109054906101000a900467ffffffffffffffff1667ffffffffffffffff16116112a1576040517f08c379a000000000000000000000000000000000000000000000000000000000815260040161129890614471565b60405180910390fd5b600060058111156112b5576112b4613aea565b5b600160008361ffff1661ffff16815260200190815260200160002060080160029054906101000a900460ff1660058111156112f3576112f2613aea565b5b14611333576040517f08c379a000000000000000000000000000000000000000000000000000000000815260040161132a906144dd565b60405180910390fd5b600160008261ffff1661ffff16815260200190815260200160002060020160029054906101000a900473ffffffffffffffffffffffffffffffffffffffff1673ffffffffffffffffffffffffffffffffffffffff16600160008361ffff1661ffff168152602001908152602001600020505060005b600360008361ffff1661ffff1681526020019081526020016000208054905081101561152557600260008361ffff1661ffff1681526020019081526020016000206000600360008561ffff1661ffff1681526020019081526020016000208381548110611418576114176144fd565b5b90600052602060002090601091828204019190066002029054906101000a900461ffff1661ffff1661ffff16815260200190815260200160002060000160029054906101000a900473ffffffffffffffffffffffffffffffffffffffff1673ffffffffffffffffffffffffffffffffffffffff16600260008461ffff1661ffff1681526020019081526020016000206000600360008661ffff1661ffff16815260200190815260200160002084815481106114d6576114d56144fd565b5b90600052602060002090601091828204019190066002029054906101000a900461ffff1661ffff1661ffff1681526020019081526020016000205050808061151d9061452c565b9150506113a8565b506005600160008361ffff1661ffff16815260200190815260200160002060080160026101000a81548160ff0219169083600581111561156857611567613aea565b5b02179055506005808111156115805761157f613aea565b5b8161ffff167f4cba5211a468d81edeacff737c5acf48620b406d7eeb30e8b24aacd05c4688c960405160405180910390a350565b6115ea600160008461ffff1661ffff16815260200190815260200160002060020160009054906101000a900461ffff1633612a41565b611629576040517f08c379a000000000000000000000000000000000000000000000000000000000815260040161162090613c9c565b60405180910390fd5b428167ffffffffffffffff1611611675576040517f08c379a000000000000000000000000000000000000000000000000000000000815260040161166c90614373565b60405180910390fd5b80600160008461ffff1661ffff16815260200190815260200160002060060160106101000a81548167ffffffffffffffff021916908367ffffffffffffffff1602179055506116c382612ae8565b600160008361ffff1661ffff16815260200190815260200160002060080160029054906101000a900460ff16600581111561170157611700613aea565b5b8261ffff167f4cba5211a468d81edeacff737c5acf48620b406d7eeb30e8b24aacd05c4688c960405160405180910390a35050565b61176c600160008461ffff1661ffff16815260200190815260200160002060020160009054906101000a900461ffff1633612a41565b6117ab576040517f08c379a00000000000000000000000000000000000000000000000000000000081526004016117a290613c9c565b60405180910390fd5b80600160008461ffff1661ffff16815260200190815260200160002060060160086101000a81548167ffffffffffffffff021916908367ffffffffffffffff1602179055506117f982612ae8565b600160008361ffff1661ffff16815260200190815260200160002060080160029054906101000a900460ff16600581111561183757611836613aea565b5b8261ffff167f4cba5211a468d81edeacff737c5acf48620b406d7eeb30e8b24aacd05c4688c960405160405180910390a35050565b6060600160008461ffff1661ffff1681526020019081526020016000206007018260405161189a91906145a5565b908152602001604051809103902080546118b390614054565b80601f01602080910402602001604051908101604052809291908181526020018280546118df90614054565b801561192c5780601f106119015761010080835404028352916020019161192c565b820191906000526020600020905b81548152906001019060200180831161190f57829003601f168201915b5050505050905092915050565b61196f600160008561ffff1661ffff16815260200190815260200160002060020160009054906101000a900461ffff1633612a41565b6119ae576040517f08c379a00000000000000000000000000000000000000000000000000000000081526004016119a590613c9c565b60405180910390fd5b81600160008561ffff1661ffff16815260200190815260200160002060040160000160006101000a81548167ffffffffffffffff021916908367ffffffffffffffff16021790555080600160008561ffff1661ffff16815260200190815260200160002060040160000160086101000a81548167ffffffffffffffff021916908367ffffffffffffffff160217905550611a4783612ae8565b600160008461ffff1661ffff16815260200190815260200160002060080160029054906101000a900460ff166005811115611a8557611a84613aea565b5b8361ffff167f4cba5211a468d81edeacff737c5acf48620b406d7eeb30e8b24aacd05c4688c960405160405180910390a3505050565b600080611ac66132f2565b600160008561ffff1661ffff1681526020019081526020016000206004016040518060400160405290816000820160009054906101000a900467ffffffffffffffff1667ffffffffffffffff1667ffffffffffffffff1681526020016000820160089054906101000a900467ffffffffffffffff1667ffffffffffffffff1667ffffffffffffffff16815250509050806000015181602001519250925050915091565b60036020528160005260406000208181548110611b8557600080fd5b9060005260206000209060109182820401919006600202915091509054906101000a900461ffff1681565b611be6600160008561ffff1661ffff16815260200190815260200160002060020160009054906101000a900461ffff1633612a41565b611c25576040517f08c379a0000000000000000000000000000000000000000000000000000000008152600401611c1c90613c9c565b60405180910390fd5b8181600160008661ffff1661ffff1681526020019081526020016000206001019182611c52929190614231565b50611c5c83612ae8565b600160008461ffff1661ffff16815260200190815260200160002060080160029054906101000a900460ff166005811115611c9a57611c99613aea565b5b8361ffff167f4cba5211a468d81edeacff737c5acf48620b406d7eeb30e8b24aacd05c4688c960405160405180910390a3505050565b6001602052806000526040600020600091509050806000018054611cf390614054565b80601f0160208091040260200160405190810160405280929190818152602001828054611d1f90614054565b8015611d6c5780601f10611d4157610100808354040283529160200191611d6c565b820191906000526020600020905b815481529060010190602001808311611d4f57829003601f168201915b505050505090806001018054611d8190614054565b80601f0160208091040260200160405190810160405280929190818152602001828054611dad90614054565b8015611dfa5780601f10611dcf57610100808354040283529160200191611dfa565b820191906000526020600020905b815481529060010190602001808311611ddd57829003601f168201915b5050505050908060020160009054906101000a900461ffff16908060020160029054906101000a900473ffffffffffffffffffffffffffffffffffffffff1690806003015490806004016040518060400160405290816000820160009054906101000a900467ffffffffffffffff1667ffffffffffffffff1667ffffffffffffffff1681526020016000820160089054906101000a900467ffffffffffffffff1667ffffffffffffffff1667ffffffffffffffff168152505090806005016040518060400160405290816000820160009054906101000a900467ffffffffffffffff1667ffffffffffffffff1667ffffffffffffffff1681526020016000820160089054906101000a900467ffffffffffffffff1667ffffffffffffffff1667ffffffffffffffff1681525050908060060160009054906101000a900467ffffffffffffffff16908060060160089054906101000a900467ffffffffffffffff16908060060160109054906101000a900467ffffffffffffffff16908060080160009054906101000a900461ffff16908060080160029054906101000a900460ff1690508c565b611fd7600160008361ffff1661ffff16815260200190815260200160002060020160009054906101000a900461ffff1633612a41565b8061200d57503073ffffffffffffffffffffffffffffffffffffffff163373ffffffffffffffffffffffffffffffffffffffff16145b61204c576040517f08c379a000000000000000000000000000000000000000000000000000000000815260040161204390613c9c565b60405180910390fd5b600060058111156120605761205f613aea565b5b600160008361ffff1661ffff16815260200190815260200160002060080160029054906101000a900460ff16600581111561209e5761209d613aea565b5b146120de576040517f08c379a00000000000000000000000000000000000000000000000000000000081526004016120d590614608565b60405180910390fd5b6005600160008361ffff1661ffff16815260200190815260200160002060080160026101000a81548160ff021916908360058111156121205761211f613aea565b5b021790555061212e81612ae8565b600160008261ffff1661ffff16815260200190815260200160002060020160029054906101000a900473ffffffffffffffffffffffffffffffffffffffff1673ffffffffffffffffffffffffffffffffffffffff16600160008361ffff1661ffff1681526020019081526020016000205050600160008261ffff1661ffff16815260200190815260200160002060080160029054906101000a900460ff1660058111156121de576121dd613aea565b5b8161ffff167f4cba5211a468d81edeacff737c5acf48620b406d7eeb30e8b24aacd05c4688c960405160405180910390a350565b61221c8282612e1c565b61225b576040517f08c379a00000000000000000000000000000000000000000000000000000000081526004016122529061469a565b60405180910390fd5b60008060009054906101000a900473ffffffffffffffffffffffffffffffffffffffff1673ffffffffffffffffffffffffffffffffffffffff1663ec1b2d81836040518263ffffffff1660e01b81526004016122b79190613a31565b600060405180830381865afa1580156122d4573d6000803e3d6000fd5b505050506040513d6000823e3d601f19601f820116820180604052508101906122fd9190613e4f565b905050809150506001600581111561231857612317613aea565b5b600160008561ffff1661ffff16815260200190815260200160002060080160029054906101000a900460ff16600581111561235657612355613aea565b5b0361244c576000600181111561236f5761236e613aea565b5b81600181111561238257612381613aea565b5b036123d3576003600160008561ffff1661ffff16815260200190815260200160002060080160026101000a81548160ff021916908360058111156123c9576123c8613aea565b5b0217905550612447565b6001808111156123e6576123e5613aea565b5b8160018111156123f9576123f8613aea565b5b03612446576004600160008561ffff1661ffff16815260200190815260200160002060080160026101000a81548160ff021916908360058111156124405761243f613aea565b5b02179055505b5b6125fb565b600360058111156124605761245f613aea565b5b600160008561ffff1661ffff16815260200190815260200160002060080160029054906101000a900460ff16600581111561249e5761249d613aea565b5b03612524576001808111156124b6576124b5613aea565b5b8160018111156124c9576124c8613aea565b5b0361251f576005600160008561ffff1661ffff16815260200190815260200160002060080160026101000a81548160ff021916908360058111156125105761250f613aea565b5b021790555061251e83612ef6565b5b6125fa565b6004600581111561253857612537613aea565b5b600160008561ffff1661ffff16815260200190815260200160002060080160029054906101000a900460ff16600581111561257657612575613aea565b5b036125f9576000600181111561258f5761258e613aea565b5b8160018111156125a2576125a1613aea565b5b036125f8576005600160008561ffff1661ffff16815260200190815260200160002060080160026101000a81548160ff021916908360058111156125e9576125e8613aea565b5b02179055506125f783612ef6565b5b5b5b5b600160008461ffff1661ffff16815260200190815260200160002060080160029054906101000a900460ff16600581111561263957612638613aea565b5b8361ffff167f4cba5211a468d81edeacff737c5acf48620b406d7eeb30e8b24aacd05c4688c960405160405180910390a3505050565b60008061267a6132f2565b600160008561ffff1661ffff1681526020019081526020016000206005016040518060400160405290816000820160009054906101000a900467ffffffffffffffff1667ffffffffffffffff1667ffffffffffffffff1681526020016000820160089054906101000a900467ffffffffffffffff1667ffffffffffffffff1667ffffffffffffffff16815250509050806000015181602001519250925050915091565b612753600160008461ffff1661ffff16815260200190815260200160002060020160009054906101000a900461ffff1633612a41565b612792576040517f08c379a000000000000000000000000000000000000000000000000000000000815260040161278990613c9c565b60405180910390fd5b80600160008461ffff1661ffff16815260200190815260200160002060060160006101000a81548167ffffffffffffffff021916908367ffffffffffffffff1602179055506127e082612ae8565b600160008361ffff1661ffff16815260200190815260200160002060080160029054906101000a900460ff16600581111561281e5761281d613aea565b5b8261ffff167f4cba5211a468d81edeacff737c5acf48620b406d7eeb30e8b24aacd05c4688c960405160405180910390a35050565b6000600581111561286757612866613aea565b5b600160008461ffff1661ffff16815260200190815260200160002060080160029054906101000a900460ff1660058111156128a5576128a4613aea565b5b146128e5576040517f08c379a00000000000000000000000000000000000000000000000000000000081526004016128dc90614706565b60405180910390fd5b61291b600160008461ffff1661ffff16815260200190815260200160002060020160009054906101000a900461ffff1633612a41565b61295a576040517f08c379a000000000000000000000000000000000000000000000000000000000815260040161295190613c9c565b60405180910390fd5b600061296583612dba565b905080156129f75781600160008561ffff1661ffff16815260200190815260200160002060080160006101000a81548161ffff021916908361ffff16021790555060018060008561ffff1661ffff16815260200190815260200160002060080160026101000a81548160ff021916908360058111156129e7576129e6613aea565b5b02179055506129f6838361310d565b5b60016005811115612a0b57612a0a613aea565b5b8361ffff167f4cba5211a468d81edeacff737c5acf48620b406d7eeb30e8b24aacd05c4688c960405160405180910390a3505050565b60008060009054906101000a900473ffffffffffffffffffffffffffffffffffffffff1673ffffffffffffffffffffffffffffffffffffffff1663d17264f084846040518363ffffffff1660e01b8152600401612a9f929190614726565b602060405180830381865afa158015612abc573d6000803e3d6000fd5b505050506040513d601f19601f82011682018060405250810190612ae09190614787565b905092915050565b60005b600360008361ffff1661ffff16815260200190815260200160002080549050811015612d3357600260008361ffff1661ffff1681526020019081526020016000206000600360008561ffff1661ffff1681526020019081526020016000208381548110612b5b57612b5a6144fd565b5b90600052602060002090601091828204019190066002029054906101000a900461ffff1661ffff1661ffff16815260200190815260200160002060000160029054906101000a900473ffffffffffffffffffffffffffffffffffffffff1673ffffffffffffffffffffffffffffffffffffffff16600260008461ffff1661ffff1681526020019081526020016000206000600360008661ffff1661ffff1681526020019081526020016000208481548110612c1957612c186144fd565b5b90600052602060002090601091828204019190066002029054906101000a900461ffff1661ffff1661ffff1681526020019081526020016000205050600260008361ffff1661ffff1681526020019081526020016000206000600360008561ffff1661ffff1681526020019081526020016000208381548110612c9f57612c9e6144fd565b5b90600052602060002090601091828204019190066002029054906101000a900461ffff1661ffff1661ffff168152602001908152602001600020600080820160006101000a81549061ffff02191690556000820160026101000a81549073ffffffffffffffffffffffffffffffffffffffff0219169055600182016000905550508080612d2b9061452c565b915050612aeb565b50600360008261ffff1661ffff1681526020019081526020016000206000612d5b9190613320565b8061ffff167f372e3aa608ee95995abbce35189c94770e047df9a345e82c46cfd79918d0951860405160405180910390a250565b6000600160008461ffff1661ffff168152602001908152602001600020600301548211905092915050565b6000600160008361ffff1661ffff16815260200190815260200160002060060160109054906101000a900467ffffffffffffffff1667ffffffffffffffff16421015612e095760019050612e17565b612e12826110e9565b600090505b919050565b60008161ffff16600160008561ffff1661ffff16815260200190815260200160002060020160009054906101000a900461ffff1661ffff1603612e625760019050612ef0565b8161ffff16600260008561ffff1661ffff1681526020019081526020016000206000600160008761ffff1661ffff16815260200190815260200160002060080160009054906101000a900461ffff1661ffff1661ffff16815260200190815260200160002060000160009054906101000a900461ffff1661ffff1603612eeb5760019050612ef0565b600090505b92915050565b600160008261ffff1661ffff16815260200190815260200160002060020160029054906101000a900473ffffffffffffffffffffffffffffffffffffffff1673ffffffffffffffffffffffffffffffffffffffff16600160008361ffff1661ffff16815260200190815260200160002060030154604051612f76906147e5565b60006040518083038185875af1925050503d8060008114612fb3576040519150601f19603f3d011682016040523d82523d6000602084013e612fb8565b606091505b505050600260008261ffff1661ffff1681526020019081526020016000206000600160008461ffff1661ffff16815260200190815260200160002060080160009054906101000a900461ffff1661ffff1661ffff16815260200190815260200160002060000160029054906101000a900473ffffffffffffffffffffffffffffffffffffffff1673ffffffffffffffffffffffffffffffffffffffff16600260008361ffff1661ffff1681526020019081526020016000206000600160008561ffff1661ffff16815260200190815260200160002060080160009054906101000a900461ffff1661ffff1661ffff168152602001908152602001600020600101546040516130c5906147e5565b60006040518083038185875af1925050503d8060008114613102576040519150601f19603f3d011682016040523d82523d6000602084013e613107565b606091505b50505050565b60005b600360008461ffff1661ffff168152602001908152602001600020805490508110156132ed578161ffff16600360008561ffff1661ffff1681526020019081526020016000208281548110613168576131676144fd565b5b90600052602060002090601091828204019190066002029054906101000a900461ffff1661ffff16146132da57600260008461ffff1661ffff1681526020019081526020016000206000600360008661ffff1661ffff16815260200190815260200160002083815481106131df576131de6144fd565b5b90600052602060002090601091828204019190066002029054906101000a900461ffff1661ffff1661ffff16815260200190815260200160002060000160029054906101000a900473ffffffffffffffffffffffffffffffffffffffff1673ffffffffffffffffffffffffffffffffffffffff16600260008561ffff1661ffff1681526020019081526020016000206000600360008761ffff1661ffff168152602001908152602001600020848154811061329d5761329c6144fd565b5b90600052602060002090601091828204019190066002029054906101000a900461ffff1661ffff1661ffff16815260200190815260200160002050505b80806132e59061452c565b915050613110565b505050565b6040518060400160405280600067ffffffffffffffff168152602001600067ffffffffffffffff1681525090565b50805460008255600f0160109004906000526020600020908101906133459190613348565b50565b5b80821115613361576000816000905550600101613349565b5090565b6000604051905090565b600080fd5b600080fd5b600061ffff82169050919050565b61339081613379565b811461339b57600080fd5b50565b6000813590506133ad81613387565b92915050565b600080604083850312156133ca576133c961336f565b5b60006133d88582860161339e565b92505060206133e98582860161339e565b9150509250929050565b6133fc81613379565b82525050565b600073ffffffffffffffffffffffffffffffffffffffff82169050919050565b600061342d82613402565b9050919050565b61343d81613422565b82525050565b6000819050919050565b61345681613443565b82525050565b600060608201905061347160008301866133f3565b61347e6020830185613434565b61348b604083018461344d565b949350505050565b600067ffffffffffffffff82169050919050565b6134b081613493565b81146134bb57600080fd5b50565b6000813590506134cd816134a7565b92915050565b6000806000606084860312156134ec576134eb61336f565b5b60006134fa8682870161339e565b935050602061350b868287016134be565b925050604061351c868287016134be565b9150509250925092565b600080fd5b600080fd5b600080fd5b60008083601f84011261354b5761354a613526565b5b8235905067ffffffffffffffff8111156135685761356761352b565b5b60208301915083600182028301111561358457613583613530565b5b9250929050565b6000806000806000606086880312156135a7576135a661336f565b5b60006135b58882890161339e565b955050602086013567ffffffffffffffff8111156135d6576135d5613374565b5b6135e288828901613535565b9450945050604086013567ffffffffffffffff81111561360557613604613374565b5b61361188828901613535565b92509250509295509295909350565b60008060008060008060008060e0898b0312156136405761363f61336f565b5b600089013567ffffffffffffffff81111561365e5761365d613374565b5b61366a8b828c01613535565b9850985050602061367d8b828c0161339e565b965050604061368e8b828c016134be565b955050606061369f8b828c016134be565b94505060806136b08b828c016134be565b93505060a06136c18b828c016134be565b92505060c06136d28b828c016134be565b9150509295985092959890939650565b6000602082840312156136f8576136f761336f565b5b60006137068482850161339e565b91505092915050565b600080604083850312156137265761372561336f565b5b60006137348582860161339e565b9250506020613745858286016134be565b9150509250929050565b600080fd5b6000601f19601f8301169050919050565b7f4e487b7100000000000000000000000000000000000000000000000000000000600052604160045260246000fd5b61379d82613754565b810181811067ffffffffffffffff821117156137bc576137bb613765565b5b80604052505050565b60006137cf613365565b90506137db8282613794565b919050565b600067ffffffffffffffff8211156137fb576137fa613765565b5b61380482613754565b9050602081019050919050565b82818337600083830152505050565b600061383361382e846137e0565b6137c5565b90508281526020810184848401111561384f5761384e61374f565b5b61385a848285613811565b509392505050565b600082601f83011261387757613876613526565b5b8135613887848260208601613820565b91505092915050565b600080604083850312156138a7576138a661336f565b5b60006138b58582860161339e565b925050602083013567ffffffffffffffff8111156138d6576138d5613374565b5b6138e285828601613862565b9150509250929050565b600081519050919050565b600082825260208201905092915050565b60005b8381101561392657808201518184015260208101905061390b565b60008484015250505050565b600061393d826138ec565b61394781856138f7565b9350613957818560208601613908565b61396081613754565b840191505092915050565b600060208201905081810360008301526139858184613932565b905092915050565b61399681613493565b82525050565b60006040820190506139b1600083018561398d565b6139be602083018461398d565b9392505050565b6139ce81613443565b81146139d957600080fd5b50565b6000813590506139eb816139c5565b92915050565b60008060408385031215613a0857613a0761336f565b5b6000613a168582860161339e565b9250506020613a27858286016139dc565b9150509250929050565b6000602082019050613a4660008301846133f3565b92915050565b600080600060408486031215613a6557613a6461336f565b5b6000613a738682870161339e565b935050602084013567ffffffffffffffff811115613a9457613a93613374565b5b613aa086828701613535565b92509250509250925092565b613ab581613493565b82525050565b604082016000820151613ad16000850182613aac565b506020820151613ae46020850182613aac565b50505050565b7f4e487b7100000000000000000000000000000000000000000000000000000000600052602160045260246000fd5b60068110613b2a57613b29613aea565b5b50565b6000819050613b3b82613b19565b919050565b6000613b4b82613b2d565b9050919050565b613b5b81613b40565b82525050565b60006101c0820190508181036000830152613b7c818f613932565b90508181036020830152613b90818e613932565b9050613b9f604083018d6133f3565b613bac606083018c613434565b613bb9608083018b61344d565b613bc660a083018a613abb565b613bd360e0830189613abb565b613be161012083018861398d565b613bef61014083018761398d565b613bfd61016083018661398d565b613c0b6101808301856133f3565b613c196101a0830184613b52565b9d9c50505050505050505050505050565b7f4572726f723a20454f41206973206e6f74206173736f6369617465642077697460008201527f6820746869732075736572000000000000000000000000000000000000000000602082015250565b6000613c86602b836138f7565b9150613c9182613c2a565b604082019050919050565b60006020820190508181036000830152613cb581613c79565b9050919050565b7f446f6573206e6f74206d65657420637269746572696120666f7220647574636860008201527f2f656e676c697368206269640000000000000000000000000000000000000000602082015250565b6000613d18602c836138f7565b9150613d2382613cbc565b604082019050919050565b60006020820190508181036000830152613d4781613d0b565b9050919050565b7f4572726f723a20706f7374206973206e6f74206c697665000000000000000000600082015250565b6000613d846017836138f7565b9150613d8f82613d4e565b602082019050919050565b60006020820190508181036000830152613db381613d77565b9050919050565b60028110613dc757600080fd5b50565b600081519050613dd981613dba565b92915050565b6000613df2613ded846137e0565b6137c5565b905082815260208101848484011115613e0e57613e0d61374f565b5b613e19848285613908565b509392505050565b600082601f830112613e3657613e35613526565b5b8151613e46848260208601613ddf565b91505092915050565b600080600060608486031215613e6857613e6761336f565b5b6000613e7686828701613dca565b935050602084015167ffffffffffffffff811115613e9757613e96613374565b5b613ea386828701613e21565b925050604084015167ffffffffffffffff811115613ec457613ec3613374565b5b613ed086828701613e21565b9150509250925092565b7f4572726f723a206e6f7420616c6c6f77656420746f20626964206f6e20706f7360008201527f74206f662073616d652077617465722074797065000000000000000000000000602082015250565b6000613f366034836138f7565b9150613f4182613eda565b604082019050919050565b60006020820190508181036000830152613f6581613f29565b9050919050565b7f4e487b7100000000000000000000000000000000000000000000000000000000600052601160045260246000fd5b6000613fa682613379565b9150613fb183613379565b9250828201905061ffff811115613fcb57613fca613f6c565b5b92915050565b600081905092915050565b6000613fe88385613fd1565b9350613ff5838584613811565b82840190509392505050565b600061400e828486613fdc565b91508190509392505050565b600082905092915050565b7f4e487b7100000000000000000000000000000000000000000000000000000000600052602260045260246000fd5b6000600282049050600182168061406c57607f821691505b60208210810361407f5761407e614025565b5b50919050565b60008190508160005260206000209050919050565b60006020601f8301049050919050565b600082821b905092915050565b6000600883026140e77fffffffffffffffffffffffffffffffffffffffffffffffffffffffffffffffff826140aa565b6140f186836140aa565b95508019841693508086168417925050509392505050565b6000819050919050565b600061412e61412961412484613443565b614109565b613443565b9050919050565b6000819050919050565b61414883614113565b61415c61415482614135565b8484546140b7565b825550505050565b600090565b614171614164565b61417c81848461413f565b505050565b5b818110156141a057614195600082614169565b600181019050614182565b5050565b601f8211156141e5576141b681614085565b6141bf8461409a565b810160208510156141ce578190505b6141e26141da8561409a565b830182614181565b50505b505050565b600082821c905092915050565b6000614208600019846008026141ea565b1980831691505092915050565b600061422183836141f7565b9150826002028217905092915050565b61423b838361401a565b67ffffffffffffffff81111561425457614253613765565b5b61425e8254614054565b6142698282856141a4565b6000601f8311600181146142985760008415614286578287013590505b6142908582614215565b8655506142f8565b601f1984166142a686614085565b60005b828110156142ce578489013582556001820191506020850194506020810190506142a9565b868310156142eb57848901356142e7601f8916826141f7565b8355505b6001600288020188555050505b50505050505050565b7f4572726f723a206578706972792074696d6520697320696e207468652070617360008201527f7400000000000000000000000000000000000000000000000000000000000000602082015250565b600061435d6021836138f7565b915061436882614301565b604082019050919050565b6000602082019050818103600083015261438c81614350565b9050919050565b7f536d61727420436f6e7472616374204572726f723a206e6f7420617574686f7260008201527f6973656420746f20726566756e642066726f6d207468697320706f7374000000602082015250565b60006143ef603d836138f7565b91506143fa82614393565b604082019050919050565b6000602082019050818103600083015261441e816143e2565b9050919050565b7f54686520706f737420686173206e6f7420657870697265640000000000000000600082015250565b600061445b6018836138f7565b915061446682614425565b602082019050919050565b6000602082019050818103600083015261448a8161444e565b9050919050565b7f5468697320706f7374206973206e6f206c6f6e676572206c6976650000000000600082015250565b60006144c7601b836138f7565b91506144d282614491565b602082019050919050565b600060208201905081810360008301526144f6816144ba565b9050919050565b7f4e487b7100000000000000000000000000000000000000000000000000000000600052603260045260246000fd5b600061453782613443565b91507fffffffffffffffffffffffffffffffffffffffffffffffffffffffffffffffff820361456957614568613f6c565b5b600182019050919050565b600061457f826138ec565b6145898185613fd1565b9350614599818560208601613908565b80840191505092915050565b60006145b18284614574565b915081905092915050565b7f4572726f723a2063616e6e6f742074616b6520646f776e20706f737400000000600082015250565b60006145f2601c836138f7565b91506145fd826145bc565b602082019050919050565b60006020820190508181036000830152614621816145e5565b9050919050565b7f4572726f723a2070726f66696c654964206e6f74206173736f6369617465642060008201527f776974682074686973206465616c000000000000000000000000000000000000602082015250565b6000614684602e836138f7565b915061468f82614628565b604082019050919050565b600060208201905081810360008301526146b381614677565b9050919050565b7f4572726f723a20706f7374206973206e6f206c6f6e676572206c697665000000600082015250565b60006146f0601d836138f7565b91506146fb826146ba565b602082019050919050565b6000602082019050818103600083015261471f816146e3565b9050919050565b600060408201905061473b60008301856133f3565b6147486020830184613434565b9392505050565b60008115159050919050565b6147648161474f565b811461476f57600080fd5b50565b6000815190506147818161475b565b92915050565b60006020828403121561479d5761479c61336f565b5b60006147ab84828501614772565b91505092915050565b600081905092915050565b50565b60006147cf6000836147b4565b91506147da826147bf565b600082019050919050565b60006147f0826147c2565b915081905091905056fea2646970667358221220a98c4b46f009e44fc8c026c24115356ead15a4b64cfaad5476ecf4cac0c042ac64736f6c63430008120033",
  "linkReferences": {},
  "deployedLinkReferences": {}
}