{
  "_format": "hh-sol-artifact-1",
  "contractName": "river",
  "sourceName": "contracts/river.sol",
  "abi": [
    {
      "inputs": [
        {
          "internalType": "address",
          "name": "_profileContractAddress",
          "type": "address"
        }
      ],
      "stateMutability": "nonpayable",
      "type": "constructor"
    },
    {
      "anonymous": false,
      "inputs": [
        {
          "indexed": true,
          "internalType": "uint16",
          "name": "_postId",
          "type": "uint16"
        },
        {
          "indexed": true,
          "internalType": "uint16",
          "name": "_bidId",
          "type": "uint16"
        },
        {
          "indexed": true,
          "internalType": "bool",
          "name": "_accepted",
          "type": "bool"
        }
      ],
      "name": "bidEvent",
      "type": "event"
    },
    {
      "anonymous": false,
      "inputs": [
        {
          "indexed": true,
          "internalType": "uint16",
          "name": "_postId",
          "type": "uint16"
        },
        {
          "indexed": true,
          "internalType": "string",
          "name": "_category",
          "type": "string"
        }
      ],
      "name": "bucketEvent",
      "type": "event"
    },
    {
      "anonymous": false,
      "inputs": [
        {
          "indexed": true,
          "internalType": "uint16",
          "name": "_postId",
          "type": "uint16"
        },
        {
          "indexed": true,
          "internalType": "enum waterSource.dealStates",
          "name": "_dealState",
          "type": "uint8"
        }
      ],
      "name": "pendingEvent",
      "type": "event"
    },
    {
      "anonymous": false,
      "inputs": [
        {
          "indexed": true,
          "internalType": "uint16",
          "name": "_postId",
          "type": "uint16"
        },
        {
          "indexed": true,
          "internalType": "bool",
          "name": "_live",
          "type": "bool"
        }
      ],
      "name": "postEvent",
      "type": "event"
    },
    {
      "anonymous": false,
      "inputs": [
        {
          "indexed": true,
          "internalType": "uint16",
          "name": "_postId",
          "type": "uint16"
        }
      ],
      "name": "resetEvent",
      "type": "event"
    },
    {
      "inputs": [
        {
          "internalType": "uint16",
          "name": "_postId",
          "type": "uint16"
        },
        {
          "internalType": "uint16",
          "name": "_bidId",
          "type": "uint16"
        }
      ],
      "name": "acceptBid",
      "outputs": [],
      "stateMutability": "nonpayable",
      "type": "function"
    },
    {
      "inputs": [
        {
          "internalType": "uint16",
          "name": "_postId",
          "type": "uint16"
        },
        {
          "internalType": "string",
          "name": "_category",
          "type": "string"
        },
        {
          "internalType": "string",
          "name": "_value",
          "type": "string"
        }
      ],
      "name": "addToBucket",
      "outputs": [],
      "stateMutability": "nonpayable",
      "type": "function"
    },
    {
      "inputs": [
        {
          "internalType": "uint16",
          "name": "_postId",
          "type": "uint16"
        },
        {
          "internalType": "uint16",
          "name": "_bidderId",
          "type": "uint16"
        }
      ],
      "name": "bid",
      "outputs": [],
      "stateMutability": "payable",
      "type": "function"
    },
    {
      "inputs": [
        {
          "internalType": "uint16",
          "name": "",
          "type": "uint16"
        },
        {
          "internalType": "uint16",
          "name": "",
          "type": "uint16"
        }
      ],
      "name": "bids",
      "outputs": [
        {
          "internalType": "uint16",
          "name": "bidderId",
          "type": "uint16"
        },
        {
          "internalType": "address",
          "name": "bidderEOA",
          "type": "address"
        },
        {
          "internalType": "uint256",
          "name": "bidAmount",
          "type": "uint256"
        },
        {
          "internalType": "bool",
          "name": "accepted",
          "type": "bool"
        }
      ],
      "stateMutability": "view",
      "type": "function"
    },
    {
      "inputs": [
        {
          "internalType": "uint16",
          "name": "",
          "type": "uint16"
        },
        {
          "internalType": "uint256",
          "name": "",
          "type": "uint256"
        }
      ],
      "name": "bidsArray",
      "outputs": [
        {
          "internalType": "uint16",
          "name": "",
          "type": "uint16"
        }
      ],
      "stateMutability": "view",
      "type": "function"
    },
    {
      "inputs": [
        {
          "internalType": "uint16",
          "name": "_postId",
          "type": "uint16"
        },
        {
          "internalType": "string",
          "name": "_category",
          "type": "string"
        }
      ],
      "name": "checkBucket",
      "outputs": [
        {
          "internalType": "string",
          "name": "",
          "type": "string"
        }
      ],
      "stateMutability": "view",
      "type": "function"
    },
    {
      "inputs": [
        {
          "internalType": "uint16",
          "name": "_postId",
          "type": "uint16"
        },
        {
          "internalType": "uint16",
          "name": "_profileId",
          "type": "uint16"
        }
      ],
      "name": "closeDeal",
      "outputs": [],
      "stateMutability": "nonpayable",
      "type": "function"
    },
    {
      "inputs": [
        {
          "internalType": "uint16",
          "name": "",
          "type": "uint16"
        }
      ],
      "name": "collection",
      "outputs": [
        {
          "internalType": "string",
          "name": "postName",
          "type": "string"
        },
        {
          "internalType": "string",
          "name": "description",
          "type": "string"
        },
        {
          "internalType": "uint16",
          "name": "profileId",
          "type": "uint16"
        },
        {
          "internalType": "address",
          "name": "EOA",
          "type": "address"
        },
        {
          "internalType": "uint256",
          "name": "price",
          "type": "uint256"
        },
        {
          "components": [
            {
              "internalType": "uint64",
              "name": "x",
              "type": "uint64"
            },
            {
              "internalType": "uint64",
              "name": "y",
              "type": "uint64"
            }
          ],
          "internalType": "struct waterSource.Location",
          "name": "iX",
          "type": "tuple"
        },
        {
          "components": [
            {
              "internalType": "uint64",
              "name": "x",
              "type": "uint64"
            },
            {
              "internalType": "uint64",
              "name": "y",
              "type": "uint64"
            }
          ],
          "internalType": "struct waterSource.Location",
          "name": "fX",
          "type": "tuple"
        },
        {
          "internalType": "uint64",
          "name": "iT",
          "type": "uint64"
        },
        {
          "internalType": "uint64",
          "name": "fT",
          "type": "uint64"
        },
        {
          "internalType": "uint64",
          "name": "exp",
          "type": "uint64"
        },
        {
          "internalType": "bool",
          "name": "live",
          "type": "bool"
        },
        {
          "internalType": "uint16",
          "name": "winningBidId",
          "type": "uint16"
        }
      ],
      "stateMutability": "view",
      "type": "function"
    },
    {
      "inputs": [
        {
          "internalType": "uint16",
          "name": "_postId",
          "type": "uint16"
        },
        {
          "internalType": "string",
          "name": "_description",
          "type": "string"
        }
      ],
      "name": "editDescription",
      "outputs": [],
      "stateMutability": "nonpayable",
      "type": "function"
    },
    {
      "inputs": [
        {
          "internalType": "uint16",
          "name": "_postId",
          "type": "uint16"
        },
        {
          "internalType": "uint64",
          "name": "_exp",
          "type": "uint64"
        }
      ],
      "name": "editExpiryTime",
      "outputs": [],
      "stateMutability": "nonpayable",
      "type": "function"
    },
    {
      "inputs": [
        {
          "internalType": "uint16",
          "name": "_postId",
          "type": "uint16"
        },
        {
          "internalType": "uint64",
          "name": "_x",
          "type": "uint64"
        },
        {
          "internalType": "uint64",
          "name": "_y",
          "type": "uint64"
        }
      ],
      "name": "editFinalLocation",
      "outputs": [],
      "stateMutability": "nonpayable",
      "type": "function"
    },
    {
      "inputs": [
        {
          "internalType": "uint16",
          "name": "_postId",
          "type": "uint16"
        },
        {
          "internalType": "uint64",
          "name": "_fT",
          "type": "uint64"
        }
      ],
      "name": "editFinalTime",
      "outputs": [],
      "stateMutability": "nonpayable",
      "type": "function"
    },
    {
      "inputs": [
        {
          "internalType": "uint16",
          "name": "_postId",
          "type": "uint16"
        },
        {
          "internalType": "uint64",
          "name": "_x",
          "type": "uint64"
        },
        {
          "internalType": "uint64",
          "name": "_y",
          "type": "uint64"
        }
      ],
      "name": "editInitialLocation",
      "outputs": [],
      "stateMutability": "nonpayable",
      "type": "function"
    },
    {
      "inputs": [
        {
          "internalType": "uint16",
          "name": "_postId",
          "type": "uint16"
        },
        {
          "internalType": "uint64",
          "name": "_iT",
          "type": "uint64"
        }
      ],
      "name": "editInitialTime",
      "outputs": [],
      "stateMutability": "nonpayable",
      "type": "function"
    },
    {
      "inputs": [
        {
          "internalType": "uint16",
          "name": "_postId",
          "type": "uint16"
        }
      ],
      "name": "getFinalLocation",
      "outputs": [
        {
          "internalType": "uint64",
          "name": "",
          "type": "uint64"
        },
        {
          "internalType": "uint64",
          "name": "",
          "type": "uint64"
        }
      ],
      "stateMutability": "view",
      "type": "function"
    },
    {
      "inputs": [
        {
          "internalType": "uint16",
          "name": "_postId",
          "type": "uint16"
        }
      ],
      "name": "getInitialLocation",
      "outputs": [
        {
          "internalType": "uint64",
          "name": "",
          "type": "uint64"
        },
        {
          "internalType": "uint64",
          "name": "",
          "type": "uint64"
        }
      ],
      "stateMutability": "view",
      "type": "function"
    },
    {
      "inputs": [
        {
          "internalType": "string",
          "name": "_postName",
          "type": "string"
        },
        {
          "internalType": "uint16",
          "name": "_profileId",
          "type": "uint16"
        },
        {
          "internalType": "uint64",
          "name": "_iXx",
          "type": "uint64"
        },
        {
          "internalType": "uint64",
          "name": "_iXy",
          "type": "uint64"
        },
        {
          "internalType": "uint64",
          "name": "_fXx",
          "type": "uint64"
        },
        {
          "internalType": "uint64",
          "name": "_fXy",
          "type": "uint64"
        },
        {
          "internalType": "uint64",
          "name": "_exp",
          "type": "uint64"
        }
      ],
      "name": "initPost",
      "outputs": [],
      "stateMutability": "payable",
      "type": "function"
    },
    {
      "inputs": [
        {
          "internalType": "uint16",
          "name": "",
          "type": "uint16"
        }
      ],
      "name": "pendingDeals",
      "outputs": [
        {
          "internalType": "enum waterSource.dealStates",
          "name": "",
          "type": "uint8"
        }
      ],
      "stateMutability": "view",
      "type": "function"
    },
    {
      "inputs": [
        {
          "internalType": "uint16",
          "name": "_postId",
          "type": "uint16"
        }
      ],
      "name": "refundExpiredPost",
      "outputs": [],
      "stateMutability": "nonpayable",
      "type": "function"
    },
    {
      "inputs": [
        {
          "internalType": "address",
          "name": "_verifyTributaryAddress",
          "type": "address"
        }
      ],
      "name": "setVerifyTributaryAddress",
      "outputs": [],
      "stateMutability": "nonpayable",
      "type": "function"
    },
    {
      "inputs": [
        {
          "internalType": "uint16",
          "name": "_postId",
          "type": "uint16"
        }
      ],
      "name": "takeDownPost",
      "outputs": [],
      "stateMutability": "nonpayable",
      "type": "function"
    },
    {
      "inputs": [
        {
          "internalType": "uint16",
          "name": "_postId",
          "type": "uint16"
        }
      ],
      "name": "verifyOnRiverPost",
      "outputs": [],
      "stateMutability": "nonpayable",
      "type": "function"
    }
  ],
  "bytecode": "0x60806040526000600160146101000a81548161ffff021916908361ffff1602179055506000600160166101000a81548161ffff021916908361ffff1602179055506001600660146101000a81548161ffff021916908361ffff1602179055503480156200006b57600080fd5b50604051620049f0380380620049f0833981810160405281019062000091919062000185565b80806000806101000a81548173ffffffffffffffffffffffffffffffffffffffff021916908373ffffffffffffffffffffffffffffffffffffffff16021790555033600660006101000a81548173ffffffffffffffffffffffffffffffffffffffff021916908373ffffffffffffffffffffffffffffffffffffffff1602179055505050620001b7565b600080fd5b600073ffffffffffffffffffffffffffffffffffffffff82169050919050565b60006200014d8262000120565b9050919050565b6200015f8162000140565b81146200016b57600080fd5b50565b6000815190506200017f8162000154565b92915050565b6000602082840312156200019e576200019d6200011b565b5b6000620001ae848285016200016e565b91505092915050565b61482980620001c76000396000f3fe6080604052600436106101355760003560e01c806383072fec116100ab578063d72e5a0a1161006f578063d72e5a0a14610418578063e643c44a14610460578063e784698d14610489578063f0dcd9f5146104b2578063f4cebfdb146104f0578063fe6304b51461051957610135565b806383072fec1461030e5780638882aad114610337578063a516f3dd14610374578063b4ec4761146103b2578063c4c9280f146103ef57610135565b80633e3fd876116100fd5780633e3fd8761461021157806353e964c31461022d5780635b31ec2e146102565780635c99a40a1461027f5780635cb67530146102a857806369c81d6e146102d157610135565b8063105098d41461013a5780631ab742421461017a5780631fb9ce5e146101a35780632020e9ea146101cc578063355f0201146101e8575b600080fd5b34801561014657600080fd5b50610161600480360381019061015c919061332c565b610542565b60405161017194939291906133f0565b60405180910390f35b34801561018657600080fd5b506101a1600480360381019061019c9190613461565b6105ba565b005b3480156101af57600080fd5b506101ca60048036038101906101c591906134ce565b610658565b005b6101e660048036038101906101e1919061332c565b6107d1565b005b3480156101f457600080fd5b5061020f600480360381019061020a9190613586565b610cde565b005b61022b6004803603810190610226919061361b565b610df8565b005b34801561023957600080fd5b50610254600480360381019061024f91906136dd565b611249565b005b34801561026257600080fd5b5061027d600480360381019061027891906136dd565b611600565b005b34801561028b57600080fd5b506102a660048036038101906102a1919061370a565b61171c565b005b3480156102b457600080fd5b506102cf60048036038101906102ca919061370a565b611895565b005b3480156102dd57600080fd5b506102f860048036038101906102f3919061388b565b6119cb565b6040516103059190613966565b60405180910390f35b34801561031a57600080fd5b50610335600480360381019061033091906134ce565b611a98565b005b34801561034357600080fd5b5061035e600480360381019061035991906136dd565b611c11565b60405161036b91906139ff565b60405180910390f35b34801561038057600080fd5b5061039b600480360381019061039691906136dd565b611c31565b6040516103a9929190613a29565b60405180910390f35b3480156103be57600080fd5b506103d960048036038101906103d49190613a7e565b611cdf565b6040516103e69190613abe565b60405180910390f35b3480156103fb57600080fd5b5061041660048036038101906104119190613ad9565b611d26565b005b34801561042457600080fd5b5061043f600480360381019061043a91906136dd565b611e46565b6040516104579c9b9a99989796959493929190613b77565b60405180910390f35b34801561046c57600080fd5b50610487600480360381019061048291906136dd565b612117565b005b34801561049557600080fd5b506104b060048036038101906104ab919061332c565b612276565b005b3480156104be57600080fd5b506104d960048036038101906104d491906136dd565b612834565b6040516104e7929190613a29565b60405180910390f35b3480156104fc57600080fd5b506105176004803603810190610512919061370a565b6128e2565b005b34801561052557600080fd5b50610540600480360381019061053b919061332c565b612a18565b005b6003602052816000526040600020602052806000526040600020600091509150508060000160009054906101000a900461ffff16908060000160029054906101000a900473ffffffffffffffffffffffffffffffffffffffff16908060010154908060020160009054906101000a900460ff16905084565b600660009054906101000a900473ffffffffffffffffffffffffffffffffffffffff1673ffffffffffffffffffffffffffffffffffffffff163373ffffffffffffffffffffffffffffffffffffffff161461061457600080fd5b80600160006101000a81548173ffffffffffffffffffffffffffffffffffffffff021916908373ffffffffffffffffffffffffffffffffffffffff16021790555050565b61068e600260008561ffff1661ffff16815260200190815260200160002060020160009054906101000a900461ffff1633612bf3565b6106cd576040517f08c379a00000000000000000000000000000000000000000000000000000000081526004016106c490613cb2565b60405180910390fd5b81600260008561ffff1661ffff16815260200190815260200160002060050160000160006101000a81548167ffffffffffffffff021916908367ffffffffffffffff16021790555080600260008561ffff1661ffff16815260200190815260200160002060050160000160086101000a81548167ffffffffffffffff021916908367ffffffffffffffff16021790555060026000600160149054906101000a900461ffff1661ffff1661ffff16815260200190815260200160002060060160189054906101000a900460ff1615158361ffff167f6d0bd97d07eb61a190d38333c6e99f378ac8fd474d475050319e2c02869849f360405160405180910390a3505050565b6107db8234612c9a565b61081a576040517f08c379a000000000000000000000000000000000000000000000000000000000815260040161081190613d44565b60405180910390fd5b42600260008461ffff1661ffff16815260200190815260200160002060060160109054906101000a900467ffffffffffffffff1667ffffffffffffffff16111561086c5761086782611249565b610cda565b60008060008054906101000a900473ffffffffffffffffffffffffffffffffffffffff1673ffffffffffffffffffffffffffffffffffffffff1663ec1b2d81846040518263ffffffff1660e01b81526004016108c89190613abe565b600060405180830381865afa1580156108e5573d6000803e3d6000fd5b505050506040513d6000823e3d601f19601f8201168201806040525081019061090e9190613df9565b9050508092505060008054906101000a900473ffffffffffffffffffffffffffffffffffffffff1673ffffffffffffffffffffffffffffffffffffffff1663ec1b2d81600260008761ffff1661ffff16815260200190815260200160002060020160009054906101000a900461ffff166040518263ffffffff1660e01b815260040161099a9190613abe565b600060405180830381865afa1580156109b7573d6000803e3d6000fd5b505050506040513d6000823e3d601f19601f820116820180604052508101906109e09190613df9565b905050809150508060018111156109fa576109f9613988565b5b826001811115610a0d57610a0c613988565b5b03610a4d576040517f08c379a0000000000000000000000000000000000000000000000000000000008152600401610a4490613ef6565b60405180910390fd5b60018060168282829054906101000a900461ffff16610a6c9190613f45565b92506101000a81548161ffff021916908361ffff16021790555082600360008661ffff1661ffff1681526020019081526020016000206000600160169054906101000a900461ffff1661ffff1661ffff16815260200190815260200160002060000160006101000a81548161ffff021916908361ffff16021790555033600360008661ffff1661ffff1681526020019081526020016000206000600160169054906101000a900461ffff1661ffff1661ffff16815260200190815260200160002060000160026101000a81548173ffffffffffffffffffffffffffffffffffffffff021916908373ffffffffffffffffffffffffffffffffffffffff16021790555034600360008661ffff1661ffff1681526020019081526020016000206000600160169054906101000a900461ffff1661ffff1661ffff168152602001908152602001600020600101819055506000600360008661ffff1661ffff1681526020019081526020016000206000600160169054906101000a900461ffff1661ffff1661ffff16815260200190815260200160002060020160006101000a81548160ff021916908315150217905550600460008561ffff1661ffff168152602001908152602001600020600160169054906101000a900461ffff1690806001815401808255809150506001900390600052602060002090601091828204019190066002029091909190916101000a81548161ffff021916908361ffff16021790555060001515600160169054906101000a900461ffff1661ffff168561ffff167feede45e9c1e239f8a870054f11df3daf31f6062499de917694f038f5704bc66360405160405180910390a450505b5050565b610d14600260008761ffff1661ffff16815260200190815260200160002060020160009054906101000a900461ffff1633612bf3565b610d53576040517f08c379a0000000000000000000000000000000000000000000000000000000008152600401610d4a90613cb2565b60405180910390fd5b8181600260008861ffff1661ffff1681526020019081526020016000206007018686604051610d83929190613fab565b90815260200160405180910390209182610d9e9291906141db565b50610da885612ca6565b8383604051610db8929190613fab565b60405180910390208561ffff167fbaf97478c80f25341499beee1b0593dd5c3d1590210255e24f231e3226fb22f860405160405180910390a35050505050565b610e028633612bf3565b610e41576040517f08c379a0000000000000000000000000000000000000000000000000000000008152600401610e3890613cb2565b60405180910390fd5b428167ffffffffffffffff1611610e8d576040517f08c379a0000000000000000000000000000000000000000000000000000000008152600401610e849061431d565b60405180910390fd5b6002600160148282829054906101000a900461ffff16610ead9190613f45565b92506101000a81548161ffff021916908361ffff1602179055503360026000600160149054906101000a900461ffff1661ffff1661ffff16815260200190815260200160002060020160026101000a81548173ffffffffffffffffffffffffffffffffffffffff021916908373ffffffffffffffffffffffffffffffffffffffff1602179055503460026000600160149054906101000a900461ffff1661ffff1661ffff16815260200190815260200160002060030181905550878760026000600160149054906101000a900461ffff1661ffff1661ffff1681526020019081526020016000206000019182610fa49291906141db565b508560026000600160149054906101000a900461ffff1661ffff1661ffff16815260200190815260200160002060020160006101000a81548161ffff021916908361ffff16021790555060405180604001604052808667ffffffffffffffff1681526020018567ffffffffffffffff1681525060026000600160149054906101000a900461ffff1661ffff1661ffff16815260200190815260200160002060040160008201518160000160006101000a81548167ffffffffffffffff021916908367ffffffffffffffff16021790555060208201518160000160086101000a81548167ffffffffffffffff021916908367ffffffffffffffff16021790555090505060405180604001604052808467ffffffffffffffff1681526020018367ffffffffffffffff1681525060026000600160149054906101000a900461ffff1661ffff1661ffff16815260200190815260200160002060050160008201518160000160006101000a81548167ffffffffffffffff021916908367ffffffffffffffff16021790555060208201518160000160086101000a81548167ffffffffffffffff021916908367ffffffffffffffff1602179055509050508060026000600160149054906101000a900461ffff1661ffff1661ffff16815260200190815260200160002060060160106101000a81548167ffffffffffffffff021916908367ffffffffffffffff160217905550600160026000600160149054906101000a900461ffff1661ffff1661ffff16815260200190815260200160002060060160186101000a81548160ff02191690831515021790555060011515600160149054906101000a900461ffff1661ffff167f6d0bd97d07eb61a190d38333c6e99f378ac8fd474d475050319e2c02869849f360405160405180910390a35050505050505050565b600660009054906101000a900473ffffffffffffffffffffffffffffffffffffffff1673ffffffffffffffffffffffffffffffffffffffff163373ffffffffffffffffffffffffffffffffffffffff16148061130e5750600260008261ffff1661ffff16815260200190815260200160002060020160029054906101000a900473ffffffffffffffffffffffffffffffffffffffff1673ffffffffffffffffffffffffffffffffffffffff163373ffffffffffffffffffffffffffffffffffffffff16145b8061134457503073ffffffffffffffffffffffffffffffffffffffff163373ffffffffffffffffffffffffffffffffffffffff16145b611383576040517f08c379a000000000000000000000000000000000000000000000000000000000815260040161137a906143af565b60405180910390fd5b42600260008361ffff1661ffff16815260200190815260200160002060060160109054906101000a900467ffffffffffffffff1667ffffffffffffffff1611611401576040517f08c379a00000000000000000000000000000000000000000000000000000000081526004016113f89061441b565b60405180910390fd5b61140a81612117565b600260008261ffff1661ffff16815260200190815260200160002060020160029054906101000a900473ffffffffffffffffffffffffffffffffffffffff1673ffffffffffffffffffffffffffffffffffffffff16600260008361ffff1661ffff168152602001908152602001600020505060005b600460008361ffff1661ffff168152602001908152602001600020805490508110156115fc57600360008361ffff1661ffff1681526020019081526020016000206000600460008561ffff1661ffff16815260200190815260200160002083815481106114ef576114ee61443b565b5b90600052602060002090601091828204019190066002029054906101000a900461ffff1661ffff1661ffff16815260200190815260200160002060000160029054906101000a900473ffffffffffffffffffffffffffffffffffffffff1673ffffffffffffffffffffffffffffffffffffffff16600360008461ffff1661ffff1681526020019081526020016000206000600460008661ffff1661ffff16815260200190815260200160002084815481106115ad576115ac61443b565b5b90600052602060002090601091828204019190066002029054906101000a900461ffff1661ffff1661ffff168152602001908152602001600020505080806115f49061446a565b91505061147f565b5050565b600160009054906101000a900473ffffffffffffffffffffffffffffffffffffffff1673ffffffffffffffffffffffffffffffffffffffff163373ffffffffffffffffffffffffffffffffffffffff1614611690576040517f08c379a00000000000000000000000000000000000000000000000000000000081526004016116879061454a565b60405180910390fd5b6001600560008361ffff1661ffff16815260200190815260200160002060006101000a81548160ff021916908360048111156116cf576116ce613988565b5b0217905550600160048111156116e8576116e7613988565b5b8161ffff167f5ce3ac421a0bdf2e262549c1d24776c81b7379f66ca3a670af65d222a39cb1c860405160405180910390a350565b611752600260008461ffff1661ffff16815260200190815260200160002060020160009054906101000a900461ffff1633612bf3565b611791576040517f08c379a000000000000000000000000000000000000000000000000000000000815260040161178890613cb2565b60405180910390fd5b428167ffffffffffffffff16116117dd576040517f08c379a00000000000000000000000000000000000000000000000000000000081526004016117d49061431d565b60405180910390fd5b80600260008461ffff1661ffff16815260200190815260200160002060060160106101000a81548167ffffffffffffffff021916908367ffffffffffffffff16021790555060026000600160149054906101000a900461ffff1661ffff1661ffff16815260200190815260200160002060060160189054906101000a900460ff1615158261ffff167f6d0bd97d07eb61a190d38333c6e99f378ac8fd474d475050319e2c02869849f360405160405180910390a35050565b6118cb600260008461ffff1661ffff16815260200190815260200160002060020160009054906101000a900461ffff1633612bf3565b61190a576040517f08c379a000000000000000000000000000000000000000000000000000000000815260040161190190613cb2565b60405180910390fd5b80600260008461ffff1661ffff16815260200190815260200160002060060160086101000a81548167ffffffffffffffff021916908367ffffffffffffffff16021790555061195882612ca6565b60026000600160149054906101000a900461ffff1661ffff1661ffff16815260200190815260200160002060060160189054906101000a900460ff1615158261ffff167f6d0bd97d07eb61a190d38333c6e99f378ac8fd474d475050319e2c02869849f360405160405180910390a35050565b6060600260008461ffff1661ffff168152602001908152602001600020600701826040516119f9919061459b565b90815260200160405180910390208054611a1290613ffe565b80601f0160208091040260200160405190810160405280929190818152602001828054611a3e90613ffe565b8015611a8b5780601f10611a6057610100808354040283529160200191611a8b565b820191906000526020600020905b815481529060010190602001808311611a6e57829003601f168201915b5050505050905092915050565b611ace600260008561ffff1661ffff16815260200190815260200160002060020160009054906101000a900461ffff1633612bf3565b611b0d576040517f08c379a0000000000000000000000000000000000000000000000000000000008152600401611b0490613cb2565b60405180910390fd5b81600260008561ffff1661ffff16815260200190815260200160002060040160000160006101000a81548167ffffffffffffffff021916908367ffffffffffffffff16021790555080600260008561ffff1661ffff16815260200190815260200160002060040160000160086101000a81548167ffffffffffffffff021916908367ffffffffffffffff16021790555060026000600160149054906101000a900461ffff1661ffff1661ffff16815260200190815260200160002060060160189054906101000a900460ff1615158361ffff167f6d0bd97d07eb61a190d38333c6e99f378ac8fd474d475050319e2c02869849f360405160405180910390a3505050565b60056020528060005260406000206000915054906101000a900460ff1681565b600080611c3c61326b565b600260008561ffff1661ffff1681526020019081526020016000206004016040518060400160405290816000820160009054906101000a900467ffffffffffffffff1667ffffffffffffffff1667ffffffffffffffff1681526020016000820160089054906101000a900467ffffffffffffffff1667ffffffffffffffff1667ffffffffffffffff16815250509050806000015181602001519250925050915091565b60046020528160005260406000208181548110611cfb57600080fd5b9060005260206000209060109182820401919006600202915091509054906101000a900461ffff1681565b611d5c600260008561ffff1661ffff16815260200190815260200160002060020160009054906101000a900461ffff1633612bf3565b611d9b576040517f08c379a0000000000000000000000000000000000000000000000000000000008152600401611d9290613cb2565b60405180910390fd5b8181600260008661ffff1661ffff1681526020019081526020016000206001019182611dc89291906141db565b50611dd283612ca6565b60026000600160149054906101000a900461ffff1661ffff1661ffff16815260200190815260200160002060060160189054906101000a900460ff1615158361ffff167f6d0bd97d07eb61a190d38333c6e99f378ac8fd474d475050319e2c02869849f360405160405180910390a3505050565b6002602052806000526040600020600091509050806000018054611e6990613ffe565b80601f0160208091040260200160405190810160405280929190818152602001828054611e9590613ffe565b8015611ee25780601f10611eb757610100808354040283529160200191611ee2565b820191906000526020600020905b815481529060010190602001808311611ec557829003601f168201915b505050505090806001018054611ef790613ffe565b80601f0160208091040260200160405190810160405280929190818152602001828054611f2390613ffe565b8015611f705780601f10611f4557610100808354040283529160200191611f70565b820191906000526020600020905b815481529060010190602001808311611f5357829003601f168201915b5050505050908060020160009054906101000a900461ffff16908060020160029054906101000a900473ffffffffffffffffffffffffffffffffffffffff1690806003015490806004016040518060400160405290816000820160009054906101000a900467ffffffffffffffff1667ffffffffffffffff1667ffffffffffffffff1681526020016000820160089054906101000a900467ffffffffffffffff1667ffffffffffffffff1667ffffffffffffffff168152505090806005016040518060400160405290816000820160009054906101000a900467ffffffffffffffff1667ffffffffffffffff1667ffffffffffffffff1681526020016000820160089054906101000a900467ffffffffffffffff1667ffffffffffffffff1667ffffffffffffffff1681525050908060060160009054906101000a900467ffffffffffffffff16908060060160089054906101000a900467ffffffffffffffff16908060060160109054906101000a900467ffffffffffffffff16908060060160189054906101000a900460ff16908060080160009054906101000a900461ffff1690508c565b61214d600260008361ffff1661ffff16815260200190815260200160002060020160009054906101000a900461ffff1633612bf3565b61218c576040517f08c379a000000000000000000000000000000000000000000000000000000000815260040161218390613cb2565b60405180910390fd5b6000600260008361ffff1661ffff16815260200190815260200160002060060160186101000a81548160ff0219169083151502179055506121cc81612ca6565b600260008261ffff1661ffff16815260200190815260200160002060020160029054906101000a900473ffffffffffffffffffffffffffffffffffffffff1673ffffffffffffffffffffffffffffffffffffffff16600260008361ffff1661ffff1681526020019081526020016000205050600015158161ffff167f6d0bd97d07eb61a190d38333c6e99f378ac8fd474d475050319e2c02869849f360405160405180910390a350565b6122808282612f61565b6122bf576040517f08c379a00000000000000000000000000000000000000000000000000000000081526004016122b690614624565b60405180910390fd5b600060048111156122d3576122d2613988565b5b600560008461ffff1661ffff16815260200190815260200160002060009054906101000a900460ff16600481111561230e5761230d613988565b5b0361234e576040517f08c379a0000000000000000000000000000000000000000000000000000000008152600401612345906146b6565b60405180910390fd5b60008060009054906101000a900473ffffffffffffffffffffffffffffffffffffffff1673ffffffffffffffffffffffffffffffffffffffff1663ec1b2d81836040518263ffffffff1660e01b81526004016123aa9190613abe565b600060405180830381865afa1580156123c7573d6000803e3d6000fd5b505050506040513d6000823e3d601f19601f820116820180604052508101906123f09190613df9565b905050809150506001600481111561240b5761240a613988565b5b600560008561ffff1661ffff16815260200190815260200160002060009054906101000a900460ff16600481111561244657612445613988565b5b03612536576000600181111561245f5761245e613988565b5b81600181111561247257612471613988565b5b036124c0576002600560008561ffff1661ffff16815260200190815260200160002060006101000a81548160ff021916908360048111156124b6576124b5613988565b5b0217905550612531565b6001808111156124d3576124d2613988565b5b8160018111156124e6576124e5613988565b5b03612530576003600560008561ffff1661ffff16815260200190815260200160002060006101000a81548160ff0219169083600481111561252a57612529613988565b5b02179055505b5b6127c3565b6002600481111561254a57612549613988565b5b600560008561ffff1661ffff16815260200190815260200160002060009054906101000a900460ff16600481111561258557612584613988565b5b036126495760018081111561259d5761259c613988565b5b8160018111156125b0576125af613988565b5b03612607576004600560008561ffff1661ffff16815260200190815260200160002060006101000a81548160ff021916908360048111156125f4576125f3613988565b5b02179055506126028361303b565b612644565b6000600181111561261b5761261a613988565b5b81600181111561262e5761262d613988565b5b03612643576000612642576126416146d6565b5b5b5b6127c2565b6003600481111561265d5761265c613988565b5b600560008561ffff1661ffff16815260200190815260200160002060009054906101000a900460ff16600481111561269857612697613988565b5b0361275c57600060018111156126b1576126b0613988565b5b8160018111156126c4576126c3613988565b5b0361271b576004600560008561ffff1661ffff16815260200190815260200160002060006101000a81548160ff0219169083600481111561270857612707613988565b5b02179055506127168361303b565b612757565b60018081111561272e5761272d613988565b5b81600181111561274157612740613988565b5b03612756576000612755576127546146d6565b5b5b5b6127c1565b600360048111156127705761276f613988565b5b600560008561ffff1661ffff16815260200190815260200160002060009054906101000a900460ff1660048111156127ab576127aa613988565b5b036127c05760006127bf576127be6146d6565b5b5b5b5b5b600560008461ffff1661ffff16815260200190815260200160002060009054906101000a900460ff1660048111156127fe576127fd613988565b5b8361ffff167f5ce3ac421a0bdf2e262549c1d24776c81b7379f66ca3a670af65d222a39cb1c860405160405180910390a3505050565b60008061283f61326b565b600260008561ffff1661ffff1681526020019081526020016000206005016040518060400160405290816000820160009054906101000a900467ffffffffffffffff1667ffffffffffffffff1667ffffffffffffffff1681526020016000820160089054906101000a900467ffffffffffffffff1667ffffffffffffffff1667ffffffffffffffff16815250509050806000015181602001519250925050915091565b612918600260008461ffff1661ffff16815260200190815260200160002060020160009054906101000a900461ffff1633612bf3565b612957576040517f08c379a000000000000000000000000000000000000000000000000000000000815260040161294e90613cb2565b60405180910390fd5b80600260008461ffff1661ffff16815260200190815260200160002060060160006101000a81548167ffffffffffffffff021916908367ffffffffffffffff1602179055506129a582612ca6565b60026000600160149054906101000a900461ffff1661ffff1661ffff16815260200190815260200160002060060160189054906101000a900460ff1615158261ffff167f6d0bd97d07eb61a190d38333c6e99f378ac8fd474d475050319e2c02869849f360405160405180910390a35050565b612a4e600260008461ffff1661ffff16815260200190815260200160002060020160009054906101000a900461ffff1633612bf3565b612a8d576040517f08c379a0000000000000000000000000000000000000000000000000000000008152600401612a8490613cb2565b60405180910390fd5b612a968261303e565b612ad5576040517f08c379a0000000000000000000000000000000000000000000000000000000008152600401612acc90614751565b60405180910390fd5b612ade82612117565b6001600360008461ffff1661ffff16815260200190815260200160002060008361ffff1661ffff16815260200190815260200160002060020160006101000a81548160ff0219169083151502179055506000600560008461ffff1661ffff16815260200190815260200160002060006101000a81548160ff02191690836004811115612b6d57612b6c613988565b5b021790555080600260008461ffff1661ffff16815260200190815260200160002060080160006101000a81548161ffff021916908361ffff160217905550612bb58282613086565b600115158161ffff168361ffff167feede45e9c1e239f8a870054f11df3daf31f6062499de917694f038f5704bc66360405160405180910390a45050565b60008060009054906101000a900473ffffffffffffffffffffffffffffffffffffffff1673ffffffffffffffffffffffffffffffffffffffff1663d17264f084846040518363ffffffff1660e01b8152600401612c51929190614771565b602060405180830381865afa158015612c6e573d6000803e3d6000fd5b505050506040513d601f19601f82011682018060405250810190612c9291906147c6565b905092915050565b60006001905092915050565b60005b600460008361ffff1661ffff16815260200190815260200160002080549050811015612f0557600360008361ffff1661ffff1681526020019081526020016000206000600460008561ffff1661ffff1681526020019081526020016000208381548110612d1957612d1861443b565b5b90600052602060002090601091828204019190066002029054906101000a900461ffff1661ffff1661ffff16815260200190815260200160002060000160029054906101000a900473ffffffffffffffffffffffffffffffffffffffff1673ffffffffffffffffffffffffffffffffffffffff16600360008461ffff1661ffff1681526020019081526020016000206000600460008661ffff1661ffff1681526020019081526020016000208481548110612dd757612dd661443b565b5b90600052602060002090601091828204019190066002029054906101000a900461ffff1661ffff1661ffff1681526020019081526020016000205050600360008361ffff1661ffff1681526020019081526020016000206000600460008561ffff1661ffff1681526020019081526020016000208381548110612e5d57612e5c61443b565b5b90600052602060002090601091828204019190066002029054906101000a900461ffff1661ffff1661ffff168152602001908152602001600020600080820160006101000a81549061ffff02191690556000820160026101000a81549073ffffffffffffffffffffffffffffffffffffffff021916905560018201600090556002820160006101000a81549060ff021916905550508080612efd9061446a565b915050612ca9565b50600460008261ffff1661ffff1681526020019081526020016000206000612f2d9190613299565b8061ffff167f372e3aa608ee95995abbce35189c94770e047df9a345e82c46cfd79918d0951860405160405180910390a250565b60008161ffff16600260008561ffff1661ffff16815260200190815260200160002060020160009054906101000a900461ffff1661ffff1603612fa75760019050613035565b8161ffff16600360008561ffff1661ffff1681526020019081526020016000206000600260008761ffff1661ffff16815260200190815260200160002060080160009054906101000a900461ffff1661ffff1661ffff16815260200190815260200160002060000160009054906101000a900461ffff1661ffff16036130305760019050613035565b600090505b92915050565b50565b6000600260008361ffff1661ffff16815260200190815260200160002060060160109054906101000a900467ffffffffffffffff1667ffffffffffffffff1642109050919050565b60005b600460008461ffff1661ffff16815260200190815260200160002080549050811015613266578161ffff16600460008561ffff1661ffff16815260200190815260200160002082815481106130e1576130e061443b565b5b90600052602060002090601091828204019190066002029054906101000a900461ffff1661ffff161461325357600360008461ffff1661ffff1681526020019081526020016000206000600460008661ffff1661ffff16815260200190815260200160002083815481106131585761315761443b565b5b90600052602060002090601091828204019190066002029054906101000a900461ffff1661ffff1661ffff16815260200190815260200160002060000160029054906101000a900473ffffffffffffffffffffffffffffffffffffffff1673ffffffffffffffffffffffffffffffffffffffff16600360008561ffff1661ffff1681526020019081526020016000206000600460008761ffff1661ffff16815260200190815260200160002084815481106132165761321561443b565b5b90600052602060002090601091828204019190066002029054906101000a900461ffff1661ffff1661ffff16815260200190815260200160002050505b808061325e9061446a565b915050613089565b505050565b6040518060400160405280600067ffffffffffffffff168152602001600067ffffffffffffffff1681525090565b50805460008255600f0160109004906000526020600020908101906132be91906132c1565b50565b5b808211156132da5760008160009055506001016132c2565b5090565b6000604051905090565b600080fd5b600080fd5b600061ffff82169050919050565b613309816132f2565b811461331457600080fd5b50565b60008135905061332681613300565b92915050565b60008060408385031215613343576133426132e8565b5b600061335185828601613317565b925050602061336285828601613317565b9150509250929050565b613375816132f2565b82525050565b600073ffffffffffffffffffffffffffffffffffffffff82169050919050565b60006133a68261337b565b9050919050565b6133b68161339b565b82525050565b6000819050919050565b6133cf816133bc565b82525050565b60008115159050919050565b6133ea816133d5565b82525050565b6000608082019050613405600083018761336c565b61341260208301866133ad565b61341f60408301856133c6565b61342c60608301846133e1565b95945050505050565b61343e8161339b565b811461344957600080fd5b50565b60008135905061345b81613435565b92915050565b600060208284031215613477576134766132e8565b5b60006134858482850161344c565b91505092915050565b600067ffffffffffffffff82169050919050565b6134ab8161348e565b81146134b657600080fd5b50565b6000813590506134c8816134a2565b92915050565b6000806000606084860312156134e7576134e66132e8565b5b60006134f586828701613317565b9350506020613506868287016134b9565b9250506040613517868287016134b9565b9150509250925092565b600080fd5b600080fd5b600080fd5b60008083601f84011261354657613545613521565b5b8235905067ffffffffffffffff81111561356357613562613526565b5b60208301915083600182028301111561357f5761357e61352b565b5b9250929050565b6000806000806000606086880312156135a2576135a16132e8565b5b60006135b088828901613317565b955050602086013567ffffffffffffffff8111156135d1576135d06132ed565b5b6135dd88828901613530565b9450945050604086013567ffffffffffffffff811115613600576135ff6132ed565b5b61360c88828901613530565b92509250509295509295909350565b60008060008060008060008060e0898b03121561363b5761363a6132e8565b5b600089013567ffffffffffffffff811115613659576136586132ed565b5b6136658b828c01613530565b985098505060206136788b828c01613317565b96505060406136898b828c016134b9565b955050606061369a8b828c016134b9565b94505060806136ab8b828c016134b9565b93505060a06136bc8b828c016134b9565b92505060c06136cd8b828c016134b9565b9150509295985092959890939650565b6000602082840312156136f3576136f26132e8565b5b600061370184828501613317565b91505092915050565b60008060408385031215613721576137206132e8565b5b600061372f85828601613317565b9250506020613740858286016134b9565b9150509250929050565b600080fd5b6000601f19601f8301169050919050565b7f4e487b7100000000000000000000000000000000000000000000000000000000600052604160045260246000fd5b6137988261374f565b810181811067ffffffffffffffff821117156137b7576137b6613760565b5b80604052505050565b60006137ca6132de565b90506137d6828261378f565b919050565b600067ffffffffffffffff8211156137f6576137f5613760565b5b6137ff8261374f565b9050602081019050919050565b82818337600083830152505050565b600061382e613829846137db565b6137c0565b90508281526020810184848401111561384a5761384961374a565b5b61385584828561380c565b509392505050565b600082601f83011261387257613871613521565b5b813561388284826020860161381b565b91505092915050565b600080604083850312156138a2576138a16132e8565b5b60006138b085828601613317565b925050602083013567ffffffffffffffff8111156138d1576138d06132ed565b5b6138dd8582860161385d565b9150509250929050565b600081519050919050565b600082825260208201905092915050565b60005b83811015613921578082015181840152602081019050613906565b60008484015250505050565b6000613938826138e7565b61394281856138f2565b9350613952818560208601613903565b61395b8161374f565b840191505092915050565b60006020820190508181036000830152613980818461392d565b905092915050565b7f4e487b7100000000000000000000000000000000000000000000000000000000600052602160045260246000fd5b600581106139c8576139c7613988565b5b50565b60008190506139d9826139b7565b919050565b60006139e9826139cb565b9050919050565b6139f9816139de565b82525050565b6000602082019050613a1460008301846139f0565b92915050565b613a238161348e565b82525050565b6000604082019050613a3e6000830185613a1a565b613a4b6020830184613a1a565b9392505050565b613a5b816133bc565b8114613a6657600080fd5b50565b600081359050613a7881613a52565b92915050565b60008060408385031215613a9557613a946132e8565b5b6000613aa385828601613317565b9250506020613ab485828601613a69565b9150509250929050565b6000602082019050613ad3600083018461336c565b92915050565b600080600060408486031215613af257613af16132e8565b5b6000613b0086828701613317565b935050602084013567ffffffffffffffff811115613b2157613b206132ed565b5b613b2d86828701613530565b92509250509250925092565b613b428161348e565b82525050565b604082016000820151613b5e6000850182613b39565b506020820151613b716020850182613b39565b50505050565b60006101c0820190508181036000830152613b92818f61392d565b90508181036020830152613ba6818e61392d565b9050613bb5604083018d61336c565b613bc2606083018c6133ad565b613bcf608083018b6133c6565b613bdc60a083018a613b48565b613be960e0830189613b48565b613bf7610120830188613a1a565b613c05610140830187613a1a565b613c13610160830186613a1a565b613c216101808301856133e1565b613c2f6101a083018461336c565b9d9c50505050505050505050505050565b7f4572726f723a20454f41206973206e6f74206173736f6369617465642077697460008201527f6820746869732075736572000000000000000000000000000000000000000000602082015250565b6000613c9c602b836138f2565b9150613ca782613c40565b604082019050919050565b60006020820190508181036000830152613ccb81613c8f565b9050919050565b7f446f6573206e6f74206d65657420637269746572696120666f7220647574636860008201527f2f656e676c697368206269640000000000000000000000000000000000000000602082015250565b6000613d2e602c836138f2565b9150613d3982613cd2565b604082019050919050565b60006020820190508181036000830152613d5d81613d21565b9050919050565b60028110613d7157600080fd5b50565b600081519050613d8381613d64565b92915050565b6000613d9c613d97846137db565b6137c0565b905082815260208101848484011115613db857613db761374a565b5b613dc3848285613903565b509392505050565b600082601f830112613de057613ddf613521565b5b8151613df0848260208601613d89565b91505092915050565b600080600060608486031215613e1257613e116132e8565b5b6000613e2086828701613d74565b935050602084015167ffffffffffffffff811115613e4157613e406132ed565b5b613e4d86828701613dcb565b925050604084015167ffffffffffffffff811115613e6e57613e6d6132ed565b5b613e7a86828701613dcb565b9150509250925092565b7f4572726f723a206e6f7420616c6c6f77656420746f20626964206f6e20706f7360008201527f74206f662073616d652077617465722074797065000000000000000000000000602082015250565b6000613ee06034836138f2565b9150613eeb82613e84565b604082019050919050565b60006020820190508181036000830152613f0f81613ed3565b9050919050565b7f4e487b7100000000000000000000000000000000000000000000000000000000600052601160045260246000fd5b6000613f50826132f2565b9150613f5b836132f2565b9250828201905061ffff811115613f7557613f74613f16565b5b92915050565b600081905092915050565b6000613f928385613f7b565b9350613f9f83858461380c565b82840190509392505050565b6000613fb8828486613f86565b91508190509392505050565b600082905092915050565b7f4e487b7100000000000000000000000000000000000000000000000000000000600052602260045260246000fd5b6000600282049050600182168061401657607f821691505b60208210810361402957614028613fcf565b5b50919050565b60008190508160005260206000209050919050565b60006020601f8301049050919050565b600082821b905092915050565b6000600883026140917fffffffffffffffffffffffffffffffffffffffffffffffffffffffffffffffff82614054565b61409b8683614054565b95508019841693508086168417925050509392505050565b6000819050919050565b60006140d86140d36140ce846133bc565b6140b3565b6133bc565b9050919050565b6000819050919050565b6140f2836140bd565b6141066140fe826140df565b848454614061565b825550505050565b600090565b61411b61410e565b6141268184846140e9565b505050565b5b8181101561414a5761413f600082614113565b60018101905061412c565b5050565b601f82111561418f576141608161402f565b61416984614044565b81016020851015614178578190505b61418c61418485614044565b83018261412b565b50505b505050565b600082821c905092915050565b60006141b260001984600802614194565b1980831691505092915050565b60006141cb83836141a1565b9150826002028217905092915050565b6141e58383613fc4565b67ffffffffffffffff8111156141fe576141fd613760565b5b6142088254613ffe565b61421382828561414e565b6000601f8311600181146142425760008415614230578287013590505b61423a85826141bf565b8655506142a2565b601f1984166142508661402f565b60005b8281101561427857848901358255600182019150602085019450602081019050614253565b868310156142955784890135614291601f8916826141a1565b8355505b6001600288020188555050505b50505050505050565b7f4572726f723a206578706972792074696d6520697320696e207468652070617360008201527f7400000000000000000000000000000000000000000000000000000000000000602082015250565b60006143076021836138f2565b9150614312826142ab565b604082019050919050565b60006020820190508181036000830152614336816142fa565b9050919050565b7f536d61727420436f6e7472616374204572726f723a206e6f7420617574686f7260008201527f6973656420746f20726566756e642066726f6d207468697320706f7374000000602082015250565b6000614399603d836138f2565b91506143a48261433d565b604082019050919050565b600060208201905081810360008301526143c88161438c565b9050919050565b7f54686520706f737420686173206e6f7420657870697265640000000000000000600082015250565b60006144056018836138f2565b9150614410826143cf565b602082019050919050565b60006020820190508181036000830152614434816143f8565b9050919050565b7f4e487b7100000000000000000000000000000000000000000000000000000000600052603260045260246000fd5b6000614475826133bc565b91507fffffffffffffffffffffffffffffffffffffffffffffffffffffffffffffffff82036144a7576144a6613f16565b5b600182019050919050565b7f4572726f723a20746869732066756e6374696f6e2063616e206f6e6c7920626560008201527f207472696767657265642062792074686520766572696679696e6720636f6e7460208201527f7261637400000000000000000000000000000000000000000000000000000000604082015250565b60006145346044836138f2565b915061453f826144b2565b606082019050919050565b6000602082019050818103600083015261456381614527565b9050919050565b6000614575826138e7565b61457f8185613f7b565b935061458f818560208601613903565b80840191505092915050565b60006145a7828461456a565b915081905092915050565b7f4572726f723a2070726f66696c654964206e6f74206173736f6369617465642060008201527f776974682074686973206465616c000000000000000000000000000000000000602082015250565b600061460e602e836138f2565b9150614619826145b2565b604082019050919050565b6000602082019050818103600083015261463d81614601565b9050919050565b7f4572726f723a206465616c206e6565647320746f20626520766572696669656460008201527f206265666f72652069742063616e20626520636c6f7365640000000000000000602082015250565b60006146a06038836138f2565b91506146ab82614644565b604082019050919050565b600060208201905081810360008301526146cf81614693565b9050919050565b7f4e487b7100000000000000000000000000000000000000000000000000000000600052600160045260246000fd5b7f4572726f723a20706f7374206861732065787069726564000000000000000000600082015250565b600061473b6017836138f2565b915061474682614705565b602082019050919050565b6000602082019050818103600083015261476a8161472e565b9050919050565b6000604082019050614786600083018561336c565b61479360208301846133ad565b9392505050565b6147a3816133d5565b81146147ae57600080fd5b50565b6000815190506147c08161479a565b92915050565b6000602082840312156147dc576147db6132e8565b5b60006147ea848285016147b1565b9150509291505056fea26469706673582212205cdb77ac2ad4bbcec03e5dd22b4b0f6799ea1490f0b61bac35ce0912db8d473e64736f6c63430008120033",
  "linkReferences": {},
  "deployedLinkReferences": {}
}