{
  "contractName": "river",
  "abi": [
    {
      "inputs": [
        {
          "internalType": "address",
          "name": "_profileContractAddress",
          "type": "address"
        }
      ],
      "stateMutability": "nonpayable",
      "type": "constructor"
    },
    {
      "anonymous": false,
      "inputs": [
        {
          "indexed": true,
          "internalType": "uint32",
          "name": "_postId",
          "type": "uint32"
        },
        {
          "indexed": true,
          "internalType": "uint32",
          "name": "_bidId",
          "type": "uint32"
        },
        {
          "indexed": true,
          "internalType": "bool",
          "name": "_accepted",
          "type": "bool"
        }
      ],
      "name": "bidEvent",
      "type": "event"
    },
    {
      "anonymous": false,
      "inputs": [
        {
          "indexed": true,
          "internalType": "uint32",
          "name": "_postId",
          "type": "uint32"
        },
        {
          "indexed": true,
          "internalType": "string",
          "name": "_category",
          "type": "string"
        },
        {
          "indexed": true,
          "internalType": "enum waterSource.whichBucketValue",
          "name": "_bucketValType",
          "type": "uint8"
        }
      ],
      "name": "bucketEvent",
      "type": "event"
    },
    {
      "anonymous": false,
      "inputs": [
        {
          "indexed": true,
          "internalType": "uint32",
          "name": "_postId",
          "type": "uint32"
        },
        {
          "indexed": true,
          "internalType": "bool",
          "name": "_live",
          "type": "bool"
        }
      ],
      "name": "postEvent",
      "type": "event"
    },
    {
      "inputs": [
        {
          "internalType": "uint32",
          "name": "_postId",
          "type": "uint32"
        },
        {
          "internalType": "uint32",
          "name": "_bidId",
          "type": "uint32"
        }
      ],
      "name": "acceptBid",
      "outputs": [],
      "stateMutability": "nonpayable",
      "type": "function"
    },
    {
      "inputs": [
        {
          "internalType": "uint32",
          "name": "_postId",
          "type": "uint32"
        },
        {
          "internalType": "uint32",
          "name": "_iT",
          "type": "uint32"
        },
        {
          "internalType": "uint32",
          "name": "_fT",
          "type": "uint32"
        }
      ],
      "name": "addTimes",
      "outputs": [],
      "stateMutability": "nonpayable",
      "type": "function"
    },
    {
      "inputs": [
        {
          "internalType": "uint32",
          "name": "_postId",
          "type": "uint32"
        },
        {
          "internalType": "string",
          "name": "_category",
          "type": "string"
        },
        {
          "internalType": "enum waterSource.whichBucketValue",
          "name": "_valType",
          "type": "uint8"
        },
        {
          "internalType": "uint32",
          "name": "_intVal",
          "type": "uint32"
        },
        {
          "internalType": "bool",
          "name": "_boolVal",
          "type": "bool"
        },
        {
          "internalType": "string",
          "name": "_strVal",
          "type": "string"
        }
      ],
      "name": "addToBucket",
      "outputs": [],
      "stateMutability": "nonpayable",
      "type": "function"
    },
    {
      "inputs": [
        {
          "internalType": "uint32",
          "name": "_postId",
          "type": "uint32"
        },
        {
          "internalType": "uint32",
          "name": "_bidderId",
          "type": "uint32"
        }
      ],
      "name": "bid",
      "outputs": [],
      "stateMutability": "payable",
      "type": "function",
      "payable": true
    },
    {
      "inputs": [
        {
          "internalType": "uint32",
          "name": "",
          "type": "uint32"
        },
        {
          "internalType": "uint32",
          "name": "",
          "type": "uint32"
        }
      ],
      "name": "bids",
      "outputs": [
        {
          "internalType": "uint32",
          "name": "bidderId",
          "type": "uint32"
        },
        {
          "internalType": "address",
          "name": "bidderEOA",
          "type": "address"
        },
        {
          "internalType": "uint256",
          "name": "bidAmount",
          "type": "uint256"
        },
        {
          "internalType": "bool",
          "name": "accepted",
          "type": "bool"
        }
      ],
      "stateMutability": "view",
      "type": "function",
      "constant": true
    },
    {
      "inputs": [
        {
          "internalType": "uint32",
          "name": "_postId",
          "type": "uint32"
        },
        {
          "internalType": "string",
          "name": "_category",
          "type": "string"
        }
      ],
      "name": "checkBucket",
      "outputs": [
        {
          "internalType": "uint32",
          "name": "",
          "type": "uint32"
        },
        {
          "internalType": "bool",
          "name": "",
          "type": "bool"
        },
        {
          "internalType": "string",
          "name": "",
          "type": "string"
        }
      ],
      "stateMutability": "view",
      "type": "function",
      "constant": true
    },
    {
      "inputs": [
        {
          "internalType": "uint32",
          "name": "_postId",
          "type": "uint32"
        },
        {
          "internalType": "uint32",
          "name": "_userId",
          "type": "uint32"
        }
      ],
      "name": "closeDeal",
      "outputs": [],
      "stateMutability": "nonpayable",
      "type": "function"
    },
    {
      "inputs": [
        {
          "internalType": "uint32",
          "name": "",
          "type": "uint32"
        }
      ],
      "name": "collection",
      "outputs": [
        {
          "internalType": "string",
          "name": "postName",
          "type": "string"
        },
        {
          "internalType": "uint32",
          "name": "userId",
          "type": "uint32"
        },
        {
          "internalType": "address",
          "name": "EOA",
          "type": "address"
        },
        {
          "internalType": "uint256",
          "name": "price",
          "type": "uint256"
        },
        {
          "components": [
            {
              "internalType": "uint32",
              "name": "x",
              "type": "uint32"
            },
            {
              "internalType": "uint32",
              "name": "y",
              "type": "uint32"
            }
          ],
          "internalType": "struct waterSource.Location",
          "name": "iX",
          "type": "tuple"
        },
        {
          "components": [
            {
              "internalType": "uint32",
              "name": "x",
              "type": "uint32"
            },
            {
              "internalType": "uint32",
              "name": "y",
              "type": "uint32"
            }
          ],
          "internalType": "struct waterSource.Location",
          "name": "fX",
          "type": "tuple"
        },
        {
          "internalType": "uint32",
          "name": "iT",
          "type": "uint32"
        },
        {
          "internalType": "uint32",
          "name": "fT",
          "type": "uint32"
        },
        {
          "internalType": "uint32",
          "name": "exp",
          "type": "uint32"
        },
        {
          "internalType": "bool",
          "name": "live",
          "type": "bool"
        },
        {
          "internalType": "uint32",
          "name": "winningBidId",
          "type": "uint32"
        }
      ],
      "stateMutability": "view",
      "type": "function",
      "constant": true
    },
    {
      "inputs": [
        {
          "internalType": "string",
          "name": "_postName",
          "type": "string"
        },
        {
          "internalType": "uint32",
          "name": "_userId",
          "type": "uint32"
        },
        {
          "internalType": "uint32",
          "name": "_iXx",
          "type": "uint32"
        },
        {
          "internalType": "uint32",
          "name": "_iXy",
          "type": "uint32"
        },
        {
          "internalType": "uint32",
          "name": "_fXx",
          "type": "uint32"
        },
        {
          "internalType": "uint32",
          "name": "_fXy",
          "type": "uint32"
        },
        {
          "internalType": "uint32",
          "name": "_exp",
          "type": "uint32"
        }
      ],
      "name": "initPost",
      "outputs": [],
      "stateMutability": "payable",
      "type": "function",
      "payable": true
    },
    {
      "inputs": [
        {
          "internalType": "uint32",
          "name": "",
          "type": "uint32"
        }
      ],
      "name": "pendingDeals",
      "outputs": [
        {
          "internalType": "enum waterSource.dealStates",
          "name": "",
          "type": "uint8"
        }
      ],
      "stateMutability": "view",
      "type": "function",
      "constant": true
    },
    {
      "inputs": [
        {
          "internalType": "uint32",
          "name": "_postId",
          "type": "uint32"
        }
      ],
      "name": "takeDownPost",
      "outputs": [],
      "stateMutability": "nonpayable",
      "type": "function"
    }
  ],
  "bytecode": "0x608060405260008060146101000a81548163ffffffff021916908363ffffffff16021790555060008060186101000a81548163ffffffff021916908363ffffffff1602179055503480156200005357600080fd5b5060405162002d5b38038062002d5b83398181016040528101906200007991906200012c565b80806000806101000a81548173ffffffffffffffffffffffffffffffffffffffff021916908373ffffffffffffffffffffffffffffffffffffffff16021790555050506200015e565b600080fd5b600073ffffffffffffffffffffffffffffffffffffffff82169050919050565b6000620000f482620000c7565b9050919050565b6200010681620000e7565b81146200011257600080fd5b50565b6000815190506200012681620000fb565b92915050565b600060208284031215620001455762000144620000c2565b5b6000620001558482850162000115565b91505092915050565b612bed806200016e6000396000f3fe60806040526004361061009c5760003560e01c80638eecdc75116100645780638eecdc751461016b578063a0cf8464146101b2578063a861f6c9146101f1578063b0c08ad71461021a578063d7ddaa9814610243578063fd156ebf1461026c5761009c565b8063141819ea146100a1578063186ffaf2146100ca5780631bff35f0146100e6578063220966c31461010f5780636e814b781461012b575b600080fd5b3480156100ad57600080fd5b506100c860048036038101906100c39190611c33565b6102a9565b005b6100e460048036038101906100df9190611cc5565b610399565b005b3480156100f257600080fd5b5061010d60048036038101906101089190611de4565b61079b565b005b61012960048036038101906101249190611eb3565b610b61565b005b34801561013757600080fd5b50610152600480360381019061014d9190611eb3565b610dfa565b6040516101629493929190611f6b565b60405180910390f35b34801561017757600080fd5b50610192600480360381019061018d9190611c33565b610e74565b6040516101a99b9a9998979695949392919061207e565b60405180910390f35b3480156101be57600080fd5b506101d960048036038101906101d49190612262565b61107f565b6040516101e8939291906122be565b60405180910390f35b3480156101fd57600080fd5b50610218600480360381019061021391906122fc565b6111ff565b005b34801561022657600080fd5b50610241600480360381019061023c9190611eb3565b611301565b005b34801561024f57600080fd5b5061026a60048036038101906102659190611eb3565b6114f0565b005b34801561027857600080fd5b50610293600480360381019061028e9190611c33565b6119d1565b6040516102a091906123c6565b60405180910390f35b6102e5600160008363ffffffff1663ffffffff16815260200190815260200160002060010160009054906101000a900463ffffffff16336119f1565b610324576040517f08c379a000000000000000000000000000000000000000000000000000000000815260040161031b90612453565b60405180910390fd5b6000600160008363ffffffff1663ffffffff168152602001908152602001600020600501600c6101000a81548160ff021916908315150217905550600015158163ffffffff167f3fc0065bf3d13d6cd2c70738dca45a61ed3c374be64e53741aa2733edd0515b360405160405180910390a350565b6103a386336119f1565b6103e2576040517f08c379a00000000000000000000000000000000000000000000000000000000081526004016103d990612453565b60405180910390fd5b60011515600060149054906101000a900463ffffffff1663ffffffff167f3fc0065bf3d13d6cd2c70738dca45a61ed3c374be64e53741aa2733edd0515b360405160405180910390a36001600060148282829054906101000a900463ffffffff1661044d91906124a2565b92506101000a81548163ffffffff021916908363ffffffff16021790555033600160008060149054906101000a900463ffffffff1663ffffffff1663ffffffff16815260200190815260200160002060010160046101000a81548173ffffffffffffffffffffffffffffffffffffffff021916908373ffffffffffffffffffffffffffffffffffffffff16021790555034600160008060149054906101000a900463ffffffff1663ffffffff1663ffffffff168152602001908152602001600020600201819055508787600160008060149054906101000a900463ffffffff1663ffffffff1663ffffffff16815260200190815260200160002060000191826105579291906126f1565b5085600160008060149054906101000a900463ffffffff1663ffffffff1663ffffffff16815260200190815260200160002060010160006101000a81548163ffffffff021916908363ffffffff16021790555060405180604001604052808663ffffffff1681526020018563ffffffff16815250600160008060149054906101000a900463ffffffff1663ffffffff1663ffffffff16815260200190815260200160002060030160008201518160000160006101000a81548163ffffffff021916908363ffffffff16021790555060208201518160000160046101000a81548163ffffffff021916908363ffffffff16021790555090505060405180604001604052808463ffffffff1681526020018363ffffffff16815250600160008060149054906101000a900463ffffffff1663ffffffff1663ffffffff16815260200190815260200160002060040160008201518160000160006101000a81548163ffffffff021916908363ffffffff16021790555060208201518160000160046101000a81548163ffffffff021916908363ffffffff16021790555090505080600160008060149054906101000a900463ffffffff1663ffffffff1663ffffffff16815260200190815260200160002060050160086101000a81548163ffffffff021916908363ffffffff16021790555060018060008060149054906101000a900463ffffffff1663ffffffff1663ffffffff168152602001908152602001600020600501600c6101000a81548160ff0219169083151502179055505050505050505050565b6107d7600160008a63ffffffff1663ffffffff16815260200190815260200160002060010160009054906101000a900463ffffffff16336119f1565b610816576040517f08c379a000000000000000000000000000000000000000000000000000000000815260040161080d90612453565b60405180910390fd5b6000600281111561082a5761082961234f565b5b85600281111561083d5761083c61234f565b5b03610915576000600160008a63ffffffff1663ffffffff16815260200190815260200160002060060188886040516108769291906127f1565b908152602001604051809103902060000160006101000a81548160ff021916908360028111156108a9576108a861234f565b5b021790555083600160008a63ffffffff1663ffffffff16815260200190815260200160002060060188886040516108e19291906127f1565b908152602001604051809103902060000160016101000a81548163ffffffff021916908363ffffffff160217905550610af9565b600160028111156109295761092861234f565b5b85600281111561093c5761093b61234f565b5b03610a0c5760018060008a63ffffffff1663ffffffff16815260200190815260200160002060060188886040516109749291906127f1565b908152602001604051809103902060000160006101000a81548160ff021916908360028111156109a7576109a661234f565b5b021790555082600160008a63ffffffff1663ffffffff16815260200190815260200160002060060188886040516109df9291906127f1565b908152602001604051809103902060000160056101000a81548160ff021916908315150217905550610af8565b600280811115610a1f57610a1e61234f565b5b856002811115610a3257610a3161234f565b5b03610af7576002600160008a63ffffffff1663ffffffff1681526020019081526020016000206006018888604051610a6b9291906127f1565b908152602001604051809103902060000160006101000a81548160ff02191690836002811115610a9e57610a9d61234f565b5b02179055508181600160008b63ffffffff1663ffffffff1681526020019081526020016000206006018989604051610ad79291906127f1565b90815260200160405180910390206001019182610af59291906126f1565b505b5b5b846002811115610b0c57610b0b61234f565b5b8787604051610b1c9291906127f1565b60405180910390208963ffffffff167f4c0cf6d2dc84f4d0fe18964e3b0c35ba4eb9295a386c2a41c125fe360fe6217160405160405180910390a45050505050505050565b610b6b8234611a98565b610baa576040517f08c379a0000000000000000000000000000000000000000000000000000000008152600401610ba19061287c565b60405180910390fd5b6001600060188282829054906101000a900463ffffffff16610bcc91906124a2565b92506101000a81548163ffffffff021916908363ffffffff16021790555080600260008463ffffffff1663ffffffff16815260200190815260200160002060008060189054906101000a900463ffffffff1663ffffffff1663ffffffff16815260200190815260200160002060000160006101000a81548163ffffffff021916908363ffffffff16021790555033600260008463ffffffff1663ffffffff16815260200190815260200160002060008060189054906101000a900463ffffffff1663ffffffff1663ffffffff16815260200190815260200160002060000160046101000a81548173ffffffffffffffffffffffffffffffffffffffff021916908373ffffffffffffffffffffffffffffffffffffffff16021790555034600260008463ffffffff1663ffffffff16815260200190815260200160002060008060189054906101000a900463ffffffff1663ffffffff1663ffffffff168152602001908152602001600020600101819055506000600260008463ffffffff1663ffffffff16815260200190815260200160002060008060189054906101000a900463ffffffff1663ffffffff1663ffffffff16815260200190815260200160002060020160006101000a81548160ff02191690831515021790555060001515600060189054906101000a900463ffffffff1663ffffffff168363ffffffff167f1a176c88c7afc717bb5be6f00eb6725f7a84272b6e1eea7740bf22a54b0c4da860405160405180910390a45050565b6002602052816000526040600020602052806000526040600020600091509150508060000160009054906101000a900463ffffffff16908060000160049054906101000a900473ffffffffffffffffffffffffffffffffffffffff16908060010154908060020160009054906101000a900460ff16905084565b6001602052806000526040600020600091509050806000018054610e9790612514565b80601f0160208091040260200160405190810160405280929190818152602001828054610ec390612514565b8015610f105780601f10610ee557610100808354040283529160200191610f10565b820191906000526020600020905b815481529060010190602001808311610ef357829003601f168201915b5050505050908060010160009054906101000a900463ffffffff16908060010160049054906101000a900473ffffffffffffffffffffffffffffffffffffffff1690806002015490806003016040518060400160405290816000820160009054906101000a900463ffffffff1663ffffffff1663ffffffff1681526020016000820160049054906101000a900463ffffffff1663ffffffff1663ffffffff168152505090806004016040518060400160405290816000820160009054906101000a900463ffffffff1663ffffffff1663ffffffff1681526020016000820160049054906101000a900463ffffffff1663ffffffff1663ffffffff1681525050908060050160009054906101000a900463ffffffff16908060050160049054906101000a900463ffffffff16908060050160089054906101000a900463ffffffff169080600501600c9054906101000a900460ff16908060070160009054906101000a900463ffffffff1690508b565b6000806060600160008663ffffffff1663ffffffff168152602001908152602001600020600601846040516110b491906128cd565b908152602001604051809103902060000160019054906101000a900463ffffffff16600160008763ffffffff1663ffffffff1681526020019081526020016000206006018560405161110691906128cd565b908152602001604051809103902060000160059054906101000a900460ff16600160008863ffffffff1663ffffffff1681526020019081526020016000206006018660405161115591906128cd565b908152602001604051809103902060010180805461117290612514565b80601f016020809104026020016040519081016040528092919081815260200182805461119e90612514565b80156111eb5780601f106111c0576101008083540402835291602001916111eb565b820191906000526020600020905b8154815290600101906020018083116111ce57829003601f168201915b505050505090509250925092509250925092565b61123b600160008563ffffffff1663ffffffff16815260200190815260200160002060010160009054906101000a900463ffffffff16336119f1565b61127a576040517f08c379a000000000000000000000000000000000000000000000000000000000815260040161127190612453565b60405180910390fd5b81600160008563ffffffff1663ffffffff16815260200190815260200160002060050160006101000a81548163ffffffff021916908363ffffffff16021790555080600160008563ffffffff1663ffffffff16815260200190815260200160002060050160046101000a81548163ffffffff021916908363ffffffff160217905550505050565b61133d600160008463ffffffff1663ffffffff16815260200190815260200160002060010160009054906101000a900463ffffffff16336119f1565b61137c576040517f08c379a000000000000000000000000000000000000000000000000000000000815260040161137390612453565b60405180910390fd5b61138582611aa4565b6113c4576040517f08c379a00000000000000000000000000000000000000000000000000000000081526004016113bb90612930565b60405180910390fd5b6113cd826102a9565b6001600260008463ffffffff1663ffffffff16815260200190815260200160002060008363ffffffff1663ffffffff16815260200190815260200160002060020160006101000a81548160ff0219169083151502179055506000600360008463ffffffff1663ffffffff16815260200190815260200160002060006101000a81548160ff021916908360038111156114685761146761234f565b5b021790555080600160008463ffffffff1663ffffffff16815260200190815260200160002060070160006101000a81548163ffffffff021916908363ffffffff160217905550600115158163ffffffff168363ffffffff167f1a176c88c7afc717bb5be6f00eb6725f7a84272b6e1eea7740bf22a54b0c4da860405160405180910390a45050565b6114fa8282611ae8565b611539576040517f08c379a0000000000000000000000000000000000000000000000000000000008152600401611530906129c2565b60405180910390fd5b60008060009054906101000a900473ffffffffffffffffffffffffffffffffffffffff1673ffffffffffffffffffffffffffffffffffffffff16638e0d76e2836040518263ffffffff1660e01b815260040161159591906129e2565b600060405180830381865afa1580156115b2573d6000803e3d6000fd5b505050506040513d6000823e3d601f19601f820116820180604052508101906115db9190612a92565b90505080915050600060038111156115f6576115f561234f565b5b600360008563ffffffff1663ffffffff16815260200190815260200160002060009054906101000a900460ff1660038111156116355761163461234f565b5b0361172d576000600181111561164e5761164d61234f565b5b8160018111156116615761166061234f565b5b036116b3576001600360008563ffffffff1663ffffffff16815260200190815260200160002060006101000a81548160ff021916908360038111156116a9576116a861234f565b5b0217905550611728565b6001808111156116c6576116c561234f565b5b8160018111156116d9576116d861234f565b5b03611727576002600360008563ffffffff1663ffffffff16815260200190815260200160002060006101000a81548160ff021916908360038111156117215761172061234f565b5b02179055505b5b6119cc565b600160038111156117415761174061234f565b5b600360008563ffffffff1663ffffffff16815260200190815260200160002060009054906101000a900460ff1660038111156117805761177f61234f565b5b03611847576001808111156117985761179761234f565b5b8160018111156117ab576117aa61234f565b5b036118055760038060008563ffffffff1663ffffffff16815260200190815260200160002060006101000a81548160ff021916908360038111156117f2576117f161234f565b5b021790555061180083611be0565b611842565b600060018111156118195761181861234f565b5b81600181111561182c5761182b61234f565b5b036118415760006118405761183f612b1d565b5b5b5b6119cb565b6002600381111561185b5761185a61234f565b5b600360008563ffffffff1663ffffffff16815260200190815260200160002060009054906101000a900460ff16600381111561189a5761189961234f565b5b0361196157600060018111156118b3576118b261234f565b5b8160018111156118c6576118c561234f565b5b036119205760038060008563ffffffff1663ffffffff16815260200190815260200160002060006101000a81548160ff0219169083600381111561190d5761190c61234f565b5b021790555061191b83611be0565b61195c565b6001808111156119335761193261234f565b5b8160018111156119465761194561234f565b5b0361195b57600061195a57611959612b1d565b5b5b5b6119ca565b600260038111156119755761197461234f565b5b600360008563ffffffff1663ffffffff16815260200190815260200160002060009054906101000a900460ff1660038111156119b4576119b361234f565b5b036119c95760006119c8576119c7612b1d565b5b5b5b5b5b505050565b60036020528060005260406000206000915054906101000a900460ff1681565b60008060009054906101000a900473ffffffffffffffffffffffffffffffffffffffff1673ffffffffffffffffffffffffffffffffffffffff166354b7c0b084846040518363ffffffff1660e01b8152600401611a4f929190612b4c565b602060405180830381865afa158015611a6c573d6000803e3d6000fd5b505050506040513d601f19601f82011682018060405250810190611a909190612b8a565b905092915050565b60006001905092915050565b6000600160008363ffffffff1663ffffffff16815260200190815260200160002060050160089054906101000a900463ffffffff1663ffffffff1642109050919050565b60008163ffffffff16600160008563ffffffff1663ffffffff16815260200190815260200160002060010160009054906101000a900463ffffffff1663ffffffff1603611b385760019050611bda565b8163ffffffff16600260008563ffffffff1663ffffffff1681526020019081526020016000206000600160008763ffffffff1663ffffffff16815260200190815260200160002060070160009054906101000a900463ffffffff1663ffffffff1663ffffffff16815260200190815260200160002060000160009054906101000a900463ffffffff1663ffffffff1603611bd55760019050611bda565b600090505b92915050565b50565b6000604051905090565b600080fd5b600080fd5b600063ffffffff82169050919050565b611c1081611bf7565b8114611c1b57600080fd5b50565b600081359050611c2d81611c07565b92915050565b600060208284031215611c4957611c48611bed565b5b6000611c5784828501611c1e565b91505092915050565b600080fd5b600080fd5b600080fd5b60008083601f840112611c8557611c84611c60565b5b8235905067ffffffffffffffff811115611ca257611ca1611c65565b5b602083019150836001820283011115611cbe57611cbd611c6a565b5b9250929050565b60008060008060008060008060e0898b031215611ce557611ce4611bed565b5b600089013567ffffffffffffffff811115611d0357611d02611bf2565b5b611d0f8b828c01611c6f565b98509850506020611d228b828c01611c1e565b9650506040611d338b828c01611c1e565b9550506060611d448b828c01611c1e565b9450506080611d558b828c01611c1e565b93505060a0611d668b828c01611c1e565b92505060c0611d778b828c01611c1e565b9150509295985092959890939650565b60038110611d9457600080fd5b50565b600081359050611da681611d87565b92915050565b60008115159050919050565b611dc181611dac565b8114611dcc57600080fd5b50565b600081359050611dde81611db8565b92915050565b60008060008060008060008060c0898b031215611e0457611e03611bed565b5b6000611e128b828c01611c1e565b985050602089013567ffffffffffffffff811115611e3357611e32611bf2565b5b611e3f8b828c01611c6f565b97509750506040611e528b828c01611d97565b9550506060611e638b828c01611c1e565b9450506080611e748b828c01611dcf565b93505060a089013567ffffffffffffffff811115611e9557611e94611bf2565b5b611ea18b828c01611c6f565b92509250509295985092959890939650565b60008060408385031215611eca57611ec9611bed565b5b6000611ed885828601611c1e565b9250506020611ee985828601611c1e565b9150509250929050565b611efc81611bf7565b82525050565b600073ffffffffffffffffffffffffffffffffffffffff82169050919050565b6000611f2d82611f02565b9050919050565b611f3d81611f22565b82525050565b6000819050919050565b611f5681611f43565b82525050565b611f6581611dac565b82525050565b6000608082019050611f806000830187611ef3565b611f8d6020830186611f34565b611f9a6040830185611f4d565b611fa76060830184611f5c565b95945050505050565b600081519050919050565b600082825260208201905092915050565b60005b83811015611fea578082015181840152602081019050611fcf565b60008484015250505050565b6000601f19601f8301169050919050565b600061201282611fb0565b61201c8185611fbb565b935061202c818560208601611fcc565b61203581611ff6565b840191505092915050565b61204981611bf7565b82525050565b6040820160008201516120656000850182612040565b5060208201516120786020850182612040565b50505050565b60006101a0820190508181036000830152612099818e612007565b90506120a8602083018d611ef3565b6120b5604083018c611f34565b6120c2606083018b611f4d565b6120cf608083018a61204f565b6120dc60c083018961204f565b6120ea610100830188611ef3565b6120f8610120830187611ef3565b612106610140830186611ef3565b612114610160830185611f5c565b612122610180830184611ef3565b9c9b505050505050505050505050565b600080fd5b7f4e487b7100000000000000000000000000000000000000000000000000000000600052604160045260246000fd5b61216f82611ff6565b810181811067ffffffffffffffff8211171561218e5761218d612137565b5b80604052505050565b60006121a1611be3565b90506121ad8282612166565b919050565b600067ffffffffffffffff8211156121cd576121cc612137565b5b6121d682611ff6565b9050602081019050919050565b82818337600083830152505050565b6000612205612200846121b2565b612197565b90508281526020810184848401111561222157612220612132565b5b61222c8482856121e3565b509392505050565b600082601f83011261224957612248611c60565b5b81356122598482602086016121f2565b91505092915050565b6000806040838503121561227957612278611bed565b5b600061228785828601611c1e565b925050602083013567ffffffffffffffff8111156122a8576122a7611bf2565b5b6122b485828601612234565b9150509250929050565b60006060820190506122d36000830186611ef3565b6122e06020830185611f5c565b81810360408301526122f28184612007565b9050949350505050565b60008060006060848603121561231557612314611bed565b5b600061232386828701611c1e565b935050602061233486828701611c1e565b925050604061234586828701611c1e565b9150509250925092565b7f4e487b7100000000000000000000000000000000000000000000000000000000600052602160045260246000fd5b6004811061238f5761238e61234f565b5b50565b60008190506123a08261237e565b919050565b60006123b082612392565b9050919050565b6123c0816123a5565b82525050565b60006020820190506123db60008301846123b7565b92915050565b7f4572726f723a20454f41206973206e6f74206173736f6369617465642077697460008201527f6820746869732075736572000000000000000000000000000000000000000000602082015250565b600061243d602b83611fbb565b9150612448826123e1565b604082019050919050565b6000602082019050818103600083015261246c81612430565b9050919050565b7f4e487b7100000000000000000000000000000000000000000000000000000000600052601160045260246000fd5b60006124ad82611bf7565b91506124b883611bf7565b9250828201905063ffffffff8111156124d4576124d3612473565b5b92915050565b600082905092915050565b7f4e487b7100000000000000000000000000000000000000000000000000000000600052602260045260246000fd5b6000600282049050600182168061252c57607f821691505b60208210810361253f5761253e6124e5565b5b50919050565b60008190508160005260206000209050919050565b60006020601f8301049050919050565b600082821b905092915050565b6000600883026125a77fffffffffffffffffffffffffffffffffffffffffffffffffffffffffffffffff8261256a565b6125b1868361256a565b95508019841693508086168417925050509392505050565b6000819050919050565b60006125ee6125e96125e484611f43565b6125c9565b611f43565b9050919050565b6000819050919050565b612608836125d3565b61261c612614826125f5565b848454612577565b825550505050565b600090565b612631612624565b61263c8184846125ff565b505050565b5b8181101561266057612655600082612629565b600181019050612642565b5050565b601f8211156126a55761267681612545565b61267f8461255a565b8101602085101561268e578190505b6126a261269a8561255a565b830182612641565b50505b505050565b600082821c905092915050565b60006126c8600019846008026126aa565b1980831691505092915050565b60006126e183836126b7565b9150826002028217905092915050565b6126fb83836124da565b67ffffffffffffffff81111561271457612713612137565b5b61271e8254612514565b612729828285612664565b6000601f8311600181146127585760008415612746578287013590505b61275085826126d5565b8655506127b8565b601f19841661276686612545565b60005b8281101561278e57848901358255600182019150602085019450602081019050612769565b868310156127ab57848901356127a7601f8916826126b7565b8355505b6001600288020188555050505b50505050505050565b600081905092915050565b60006127d883856127c1565b93506127e58385846121e3565b82840190509392505050565b60006127fe8284866127cc565b91508190509392505050565b7f446f6573206e6f74206d65657420637269746572696120666f7220647574636860008201527f2f656e676c697368206269640000000000000000000000000000000000000000602082015250565b6000612866602c83611fbb565b91506128718261280a565b604082019050919050565b6000602082019050818103600083015261289581612859565b9050919050565b60006128a782611fb0565b6128b181856127c1565b93506128c1818560208601611fcc565b80840191505092915050565b60006128d9828461289c565b915081905092915050565b7f4572726f723a20706f7374206861732065787069726564000000000000000000600082015250565b600061291a601783611fbb565b9150612925826128e4565b602082019050919050565b600060208201905081810360008301526129498161290d565b9050919050565b7f4572726f723a20757365724964206e6f74206173736f6369617465642077697460008201527f682074686973206465616c000000000000000000000000000000000000000000602082015250565b60006129ac602b83611fbb565b91506129b782612950565b604082019050919050565b600060208201905081810360008301526129db8161299f565b9050919050565b60006020820190506129f76000830184611ef3565b92915050565b60028110612a0a57600080fd5b50565b600081519050612a1c816129fd565b92915050565b6000612a35612a30846121b2565b612197565b905082815260208101848484011115612a5157612a50612132565b5b612a5c848285611fcc565b509392505050565b600082601f830112612a7957612a78611c60565b5b8151612a89848260208601612a22565b91505092915050565b600080600060608486031215612aab57612aaa611bed565b5b6000612ab986828701612a0d565b935050602084015167ffffffffffffffff811115612ada57612ad9611bf2565b5b612ae686828701612a64565b925050604084015167ffffffffffffffff811115612b0757612b06611bf2565b5b612b1386828701612a64565b9150509250925092565b7f4e487b7100000000000000000000000000000000000000000000000000000000600052600160045260246000fd5b6000604082019050612b616000830185611ef3565b612b6e6020830184611f34565b9392505050565b600081519050612b8481611db8565b92915050565b600060208284031215612ba057612b9f611bed565b5b6000612bae84828501612b75565b9150509291505056fea2646970667358221220ee04bcb61ecee0f072f816193c0d90ea016a5576918fcab50138581ee009d62f64736f6c63430008120033",
  "immutableReferences": {},
  "source": "pragma solidity ^0.8.18;\r\n\r\nimport \"./waterSource.sol\";\r\n// import \"./profile.sol\";\r\n\r\n\r\ncontract river is waterSource{\r\n\r\n    constructor(address _profileContractAddress) waterSource(_profileContractAddress) public {}\r\n\r\n    function bidReqs(uint32 _postId,uint _bidAmount) internal view override returns(bool){\r\n        return (_bidAmount > collection[_postId].price);\r\n    }\r\n\r\n    function payout(uint32 _postId) internal override {\r\n        (bool sentRiver,bytes memory dataRiver) = collection[_postId].EOA.call{value:collection[_postId].price}(\"\");\r\n        (bool sentLake, bytes memory dataLake) = bids[_postId][collection[_postId].winningBidId].bidderEOA.call{value:bids[_postId][collection[_postId].winningBidId].bidAmount}(\"\");\r\n    }\r\n\r\n}",
  "sourcePath": "C:\\Users\\rishi\\Documents\\RaedaLogistics\\RaedaPlatform\\raeda\\core\\smart_contracts\\contracts\\polygon\\river.sol",
  "compiler": {
    "name": "solc",
    "version": "0.8.18+commit.87f61d96.Emscripten.clang"
  },
  "schemaVersion": "3.4.12",
  "updatedAt": "2023-02-27T18:54:28.794Z",
  "networkType": "ethereum",
  "devdoc": {
    "kind": "dev",
    "methods": {},
    "version": 1
  },
  "userdoc": {
    "kind": "user",
    "methods": {},
    "version": 1
  },
  "db": {
    "callBytecode": {
      "id": "0x04536daf25e46a4c3b3f133783795006b46e52035d20dbe95507a90d54ade5fe"
    },
    "createBytecode": {
      "id": "0xb2760c36e0fd0f1fc5fc39aad59c45fa3b63eedf2c46aafaf60d54380f478abb"
    },
    "contract": {
      "id": "0x9faf9ccf70714a3280603d1c954b71a60cc52dfe8a546ed9b1c21548d14e912d"
    }
  }
}