{
  "_format": "hh-sol-artifact-1",
  "contractName": "river",
  "sourceName": "contracts/river.sol",
  "abi": [
    {
      "inputs": [
        {
          "internalType": "address",
          "name": "_profileContractAddress",
          "type": "address"
        },
        {
          "internalType": "uint16",
          "name": "_initialPostId",
          "type": "uint16"
        },
        {
          "internalType": "uint16",
          "name": "_initialBidId",
          "type": "uint16"
        }
      ],
      "stateMutability": "nonpayable",
      "type": "constructor"
    },
    {
      "anonymous": false,
      "inputs": [
        {
          "indexed": true,
          "internalType": "uint16",
          "name": "_postId",
          "type": "uint16"
        },
        {
          "indexed": true,
          "internalType": "uint16",
          "name": "_bidId",
          "type": "uint16"
        }
      ],
      "name": "bidEvent",
      "type": "event"
    },
    {
      "anonymous": false,
      "inputs": [
        {
          "indexed": true,
          "internalType": "uint16",
          "name": "_postId",
          "type": "uint16"
        },
        {
          "indexed": true,
          "internalType": "string",
          "name": "_category",
          "type": "string"
        }
      ],
      "name": "bucketEvent",
      "type": "event"
    },
    {
      "anonymous": false,
      "inputs": [
        {
          "indexed": true,
          "internalType": "uint16",
          "name": "_postId",
          "type": "uint16"
        },
        {
          "indexed": true,
          "internalType": "enum waterSource.post_states",
          "name": "_postState",
          "type": "uint8"
        }
      ],
      "name": "postEvent",
      "type": "event"
    },
    {
      "anonymous": false,
      "inputs": [
        {
          "indexed": true,
          "internalType": "uint16",
          "name": "_postId",
          "type": "uint16"
        }
      ],
      "name": "resetEvent",
      "type": "event"
    },
    {
      "inputs": [
        {
          "internalType": "uint16",
          "name": "_postId",
          "type": "uint16"
        },
        {
          "internalType": "uint16",
          "name": "_bidId",
          "type": "uint16"
        }
      ],
      "name": "acceptBid",
      "outputs": [],
      "stateMutability": "nonpayable",
      "type": "function"
    },
    {
      "inputs": [
        {
          "internalType": "uint16",
          "name": "_postId",
          "type": "uint16"
        },
        {
          "internalType": "string",
          "name": "_category",
          "type": "string"
        },
        {
          "internalType": "string",
          "name": "_value",
          "type": "string"
        }
      ],
      "name": "addToBucket",
      "outputs": [],
      "stateMutability": "nonpayable",
      "type": "function"
    },
    {
      "inputs": [
        {
          "internalType": "uint16",
          "name": "_postId",
          "type": "uint16"
        },
        {
          "internalType": "uint16",
          "name": "_bidderId",
          "type": "uint16"
        }
      ],
      "name": "bid",
      "outputs": [],
      "stateMutability": "payable",
      "type": "function"
    },
    {
      "inputs": [
        {
          "internalType": "uint16",
          "name": "",
          "type": "uint16"
        },
        {
          "internalType": "uint16",
          "name": "",
          "type": "uint16"
        }
      ],
      "name": "bids",
      "outputs": [
        {
          "internalType": "uint16",
          "name": "bidderId",
          "type": "uint16"
        },
        {
          "internalType": "address",
          "name": "bidderEOA",
          "type": "address"
        },
        {
          "internalType": "uint256",
          "name": "bidAmount",
          "type": "uint256"
        }
      ],
      "stateMutability": "view",
      "type": "function"
    },
    {
      "inputs": [
        {
          "internalType": "uint16",
          "name": "",
          "type": "uint16"
        },
        {
          "internalType": "uint256",
          "name": "",
          "type": "uint256"
        }
      ],
      "name": "bidsArray",
      "outputs": [
        {
          "internalType": "uint16",
          "name": "",
          "type": "uint16"
        }
      ],
      "stateMutability": "view",
      "type": "function"
    },
    {
      "inputs": [
        {
          "internalType": "uint16",
          "name": "_postId",
          "type": "uint16"
        },
        {
          "internalType": "string",
          "name": "_category",
          "type": "string"
        }
      ],
      "name": "checkBucket",
      "outputs": [
        {
          "internalType": "string",
          "name": "",
          "type": "string"
        }
      ],
      "stateMutability": "view",
      "type": "function"
    },
    {
      "inputs": [
        {
          "internalType": "uint16",
          "name": "_postId",
          "type": "uint16"
        },
        {
          "internalType": "uint16",
          "name": "_profileId",
          "type": "uint16"
        }
      ],
      "name": "closeDeal",
      "outputs": [],
      "stateMutability": "nonpayable",
      "type": "function"
    },
    {
      "inputs": [
        {
          "internalType": "uint16",
          "name": "",
          "type": "uint16"
        }
      ],
      "name": "collection",
      "outputs": [
        {
          "internalType": "string",
          "name": "postName",
          "type": "string"
        },
        {
          "internalType": "string",
          "name": "description",
          "type": "string"
        },
        {
          "internalType": "uint16",
          "name": "profileId",
          "type": "uint16"
        },
        {
          "internalType": "address",
          "name": "EOA",
          "type": "address"
        },
        {
          "internalType": "uint256",
          "name": "price",
          "type": "uint256"
        },
        {
          "components": [
            {
              "internalType": "uint64",
              "name": "x",
              "type": "uint64"
            },
            {
              "internalType": "uint64",
              "name": "y",
              "type": "uint64"
            }
          ],
          "internalType": "struct waterSource.Location",
          "name": "iX",
          "type": "tuple"
        },
        {
          "components": [
            {
              "internalType": "uint64",
              "name": "x",
              "type": "uint64"
            },
            {
              "internalType": "uint64",
              "name": "y",
              "type": "uint64"
            }
          ],
          "internalType": "struct waterSource.Location",
          "name": "fX",
          "type": "tuple"
        },
        {
          "internalType": "uint64",
          "name": "iT",
          "type": "uint64"
        },
        {
          "internalType": "uint64",
          "name": "fT",
          "type": "uint64"
        },
        {
          "internalType": "uint64",
          "name": "exp",
          "type": "uint64"
        },
        {
          "internalType": "uint16",
          "name": "winningBidId",
          "type": "uint16"
        },
        {
          "internalType": "enum waterSource.post_states",
          "name": "postState",
          "type": "uint8"
        }
      ],
      "stateMutability": "view",
      "type": "function"
    },
    {
      "inputs": [
        {
          "internalType": "uint16",
          "name": "_postId",
          "type": "uint16"
        },
        {
          "internalType": "string",
          "name": "_description",
          "type": "string"
        }
      ],
      "name": "editDescription",
      "outputs": [],
      "stateMutability": "nonpayable",
      "type": "function"
    },
    {
      "inputs": [
        {
          "internalType": "uint16",
          "name": "_postId",
          "type": "uint16"
        },
        {
          "internalType": "uint64",
          "name": "_exp",
          "type": "uint64"
        }
      ],
      "name": "editExpiryTime",
      "outputs": [],
      "stateMutability": "nonpayable",
      "type": "function"
    },
    {
      "inputs": [
        {
          "internalType": "uint16",
          "name": "_postId",
          "type": "uint16"
        },
        {
          "internalType": "uint64",
          "name": "_x",
          "type": "uint64"
        },
        {
          "internalType": "uint64",
          "name": "_y",
          "type": "uint64"
        }
      ],
      "name": "editFinalLocation",
      "outputs": [],
      "stateMutability": "nonpayable",
      "type": "function"
    },
    {
      "inputs": [
        {
          "internalType": "uint16",
          "name": "_postId",
          "type": "uint16"
        },
        {
          "internalType": "uint64",
          "name": "_fT",
          "type": "uint64"
        }
      ],
      "name": "editFinalTime",
      "outputs": [],
      "stateMutability": "nonpayable",
      "type": "function"
    },
    {
      "inputs": [
        {
          "internalType": "uint16",
          "name": "_postId",
          "type": "uint16"
        },
        {
          "internalType": "uint64",
          "name": "_x",
          "type": "uint64"
        },
        {
          "internalType": "uint64",
          "name": "_y",
          "type": "uint64"
        }
      ],
      "name": "editInitialLocation",
      "outputs": [],
      "stateMutability": "nonpayable",
      "type": "function"
    },
    {
      "inputs": [
        {
          "internalType": "uint16",
          "name": "_postId",
          "type": "uint16"
        },
        {
          "internalType": "uint64",
          "name": "_iT",
          "type": "uint64"
        }
      ],
      "name": "editInitialTime",
      "outputs": [],
      "stateMutability": "nonpayable",
      "type": "function"
    },
    {
      "inputs": [
        {
          "internalType": "uint16",
          "name": "_postId",
          "type": "uint16"
        }
      ],
      "name": "getFinalLocation",
      "outputs": [
        {
          "internalType": "uint64",
          "name": "",
          "type": "uint64"
        },
        {
          "internalType": "uint64",
          "name": "",
          "type": "uint64"
        }
      ],
      "stateMutability": "view",
      "type": "function"
    },
    {
      "inputs": [
        {
          "internalType": "uint16",
          "name": "_postId",
          "type": "uint16"
        }
      ],
      "name": "getInitialLocation",
      "outputs": [
        {
          "internalType": "uint64",
          "name": "",
          "type": "uint64"
        },
        {
          "internalType": "uint64",
          "name": "",
          "type": "uint64"
        }
      ],
      "stateMutability": "view",
      "type": "function"
    },
    {
      "inputs": [
        {
          "internalType": "string",
          "name": "_postName",
          "type": "string"
        },
        {
          "internalType": "uint16",
          "name": "_profileId",
          "type": "uint16"
        },
        {
          "internalType": "uint64",
          "name": "_iXx",
          "type": "uint64"
        },
        {
          "internalType": "uint64",
          "name": "_iXy",
          "type": "uint64"
        },
        {
          "internalType": "uint64",
          "name": "_fXx",
          "type": "uint64"
        },
        {
          "internalType": "uint64",
          "name": "_fXy",
          "type": "uint64"
        },
        {
          "internalType": "uint64",
          "name": "_exp",
          "type": "uint64"
        }
      ],
      "name": "initPost",
      "outputs": [],
      "stateMutability": "payable",
      "type": "function"
    },
    {
      "inputs": [
        {
          "internalType": "uint16",
          "name": "_postId",
          "type": "uint16"
        }
      ],
      "name": "refundExpiredPost",
      "outputs": [],
      "stateMutability": "nonpayable",
      "type": "function"
    },
    {
      "inputs": [
        {
          "internalType": "uint16",
          "name": "_postId",
          "type": "uint16"
        }
      ],
      "name": "takeDownPost",
      "outputs": [],
      "stateMutability": "nonpayable",
      "type": "function"
    }
  ],
  "bytecode": "0x60806040523480156200001157600080fd5b5060405162004a5338038062004a538339818101604052810190620000379190620001aa565b828282826000806101000a81548173ffffffffffffffffffffffffffffffffffffffff021916908373ffffffffffffffffffffffffffffffffffffffff16021790555033600460006101000a81548173ffffffffffffffffffffffffffffffffffffffff021916908373ffffffffffffffffffffffffffffffffffffffff16021790555081600060146101000a81548161ffff021916908361ffff16021790555080600060166101000a81548161ffff021916908361ffff16021790555050505050505062000206565b600080fd5b600073ffffffffffffffffffffffffffffffffffffffff82169050919050565b6000620001338262000106565b9050919050565b620001458162000126565b81146200015157600080fd5b50565b60008151905062000165816200013a565b92915050565b600061ffff82169050919050565b62000184816200016b565b81146200019057600080fd5b50565b600081519050620001a48162000179565b92915050565b600080600060608486031215620001c657620001c562000101565b5b6000620001d68682870162000154565b9350506020620001e98682870162000193565b9250506040620001fc8682870162000193565b9150509250925092565b61483d80620002166000396000f3fe6080604052600436106101145760003560e01c806383072fec116100a0578063e643c44a11610064578063e643c44a146103af578063e784698d146103d8578063f0dcd9f514610401578063f4cebfdb1461043f578063fe6304b51461046857610114565b806383072fec1461029a578063a516f3dd146102c3578063b4ec476114610301578063c4c9280f1461033e578063d72e5a0a1461036757610114565b80633e3fd876116100e75780633e3fd876146101c657806353e964c3146101e25780635c99a40a1461020b5780635cb675301461023457806369c81d6e1461025d57610114565b8063105098d4146101195780631fb9ce5e146101585780632020e9ea14610181578063355f02011461019d575b600080fd5b34801561012557600080fd5b50610140600480360381019061013b91906133c0565b610491565b60405161014f93929190613469565b60405180910390f35b34801561016457600080fd5b5061017f600480360381019061017a91906134e0565b6104f6565b005b61019b600480360381019061019691906133c0565b610678565b005b3480156101a957600080fd5b506101c460048036038101906101bf9190613598565b610b73565b005b6101e060048036038101906101db919061362d565b610c8d565b005b3480156101ee57600080fd5b50610209600480360381019061020491906136ef565b6110f6565b005b34801561021757600080fd5b50610232600480360381019061022d919061371c565b6115c1565b005b34801561024057600080fd5b5061025b6004803603810190610256919061371c565b611743565b005b34801561026957600080fd5b50610284600480360381019061027f919061389d565b611879565b6040516102919190613978565b60405180910390f35b3480156102a657600080fd5b506102c160048036038101906102bc91906134e0565b611946565b005b3480156102cf57600080fd5b506102ea60048036038101906102e591906136ef565b611ac8565b6040516102f89291906139a9565b60405180910390f35b34801561030d57600080fd5b50610328600480360381019061032391906139fe565b611b76565b6040516103359190613a3e565b60405180910390f35b34801561034a57600080fd5b5061036560048036038101906103609190613a59565b611bbd565b005b34801561037357600080fd5b5061038e600480360381019061038991906136ef565b611cdd565b6040516103a69c9b9a99989796959493929190613b6e565b60405180910390f35b3480156103bb57600080fd5b506103d660048036038101906103d191906136ef565b611fae565b005b3480156103e457600080fd5b506103ff60048036038101906103fa91906133c0565b61221f565b005b34801561040d57600080fd5b50610428600480360381019061042391906136ef565b61267c565b6040516104369291906139a9565b60405180910390f35b34801561044b57600080fd5b506104666004803603810190610461919061371c565b61272a565b005b34801561047457600080fd5b5061048f600480360381019061048a91906133c0565b612860565b005b6002602052816000526040600020602052806000526040600020600091509150508060000160009054906101000a900461ffff16908060000160029054906101000a900473ffffffffffffffffffffffffffffffffffffffff16908060010154905083565b61052c600160008561ffff1661ffff16815260200190815260200160002060020160009054906101000a900461ffff1633612a4e565b61056b576040517f08c379a000000000000000000000000000000000000000000000000000000000815260040161056290613ca9565b60405180910390fd5b81600160008561ffff1661ffff16815260200190815260200160002060050160000160006101000a81548167ffffffffffffffff021916908367ffffffffffffffff16021790555080600160008561ffff1661ffff16815260200190815260200160002060050160000160086101000a81548167ffffffffffffffff021916908367ffffffffffffffff16021790555061060483612af5565b600160008461ffff1661ffff16815260200190815260200160002060080160029054906101000a900460ff16600581111561064257610641613af7565b5b8361ffff167f4cba5211a468d81edeacff737c5acf48620b406d7eeb30e8b24aacd05c4688c960405160405180910390a3505050565b6106828234612d9c565b6106c1576040517f08c379a00000000000000000000000000000000000000000000000000000000081526004016106b890613d3b565b60405180910390fd5b600060058111156106d5576106d4613af7565b5b600160008461ffff1661ffff16815260200190815260200160002060080160029054906101000a900460ff16600581111561071357610712613af7565b5b14610753576040517f08c379a000000000000000000000000000000000000000000000000000000000815260040161074a90613da7565b60405180910390fd5b60008060008054906101000a900473ffffffffffffffffffffffffffffffffffffffff1673ffffffffffffffffffffffffffffffffffffffff1663ec1b2d81846040518263ffffffff1660e01b81526004016107af9190613a3e565b600060405180830381865afa1580156107cc573d6000803e3d6000fd5b505050506040513d6000823e3d601f19601f820116820180604052508101906107f59190613e5c565b9050508092505060008054906101000a900473ffffffffffffffffffffffffffffffffffffffff1673ffffffffffffffffffffffffffffffffffffffff1663ec1b2d81600160008761ffff1661ffff16815260200190815260200160002060020160009054906101000a900461ffff166040518263ffffffff1660e01b81526004016108819190613a3e565b600060405180830381865afa15801561089e573d6000803e3d6000fd5b505050506040513d6000823e3d601f19601f820116820180604052508101906108c79190613e5c565b905050809150508060018111156108e1576108e0613af7565b5b8260018111156108f4576108f3613af7565b5b03610934576040517f08c379a000000000000000000000000000000000000000000000000000000000815260040161092b90613f59565b60405180910390fd5b600061093f85612dc7565b90508015610b6c576002600060168282829054906101000a900461ffff166109679190613fa8565b92506101000a81548161ffff021916908361ffff16021790555083600260008761ffff1661ffff16815260200190815260200160002060008060169054906101000a900461ffff1661ffff1661ffff16815260200190815260200160002060000160006101000a81548161ffff021916908361ffff16021790555033600260008761ffff1661ffff16815260200190815260200160002060008060169054906101000a900461ffff1661ffff1661ffff16815260200190815260200160002060000160026101000a81548173ffffffffffffffffffffffffffffffffffffffff021916908373ffffffffffffffffffffffffffffffffffffffff16021790555034600260008761ffff1661ffff16815260200190815260200160002060008060169054906101000a900461ffff1661ffff1661ffff16815260200190815260200160002060010181905550600360008661ffff1661ffff168152602001908152602001600020600060169054906101000a900461ffff1690806001815401808255809150506001900390600052602060002090601091828204019190066002029091909190916101000a81548161ffff021916908361ffff160217905550600060169054906101000a900461ffff1661ffff168561ffff167f5dba469212af68dbc77876e2e9197950b8cca4fe13cc3ef7cc1b420f47d8c37c60405160405180910390a35b5050505050565b610ba9600160008761ffff1661ffff16815260200190815260200160002060020160009054906101000a900461ffff1633612a4e565b610be8576040517f08c379a0000000000000000000000000000000000000000000000000000000008152600401610bdf90613ca9565b60405180910390fd5b8181600160008861ffff1661ffff1681526020019081526020016000206007018686604051610c1892919061400e565b90815260200160405180910390209182610c3392919061423e565b50610c3d85612af5565b8383604051610c4d92919061400e565b60405180910390208561ffff167fbaf97478c80f25341499beee1b0593dd5c3d1590210255e24f231e3226fb22f860405160405180910390a35050505050565b610c978633612a4e565b610cd6576040517f08c379a0000000000000000000000000000000000000000000000000000000008152600401610ccd90613ca9565b60405180910390fd5b428167ffffffffffffffff1611610d22576040517f08c379a0000000000000000000000000000000000000000000000000000000008152600401610d1990614380565b60405180910390fd5b6002600060148282829054906101000a900461ffff16610d429190613fa8565b92506101000a81548161ffff021916908361ffff16021790555033600160008060149054906101000a900461ffff1661ffff1661ffff16815260200190815260200160002060020160026101000a81548173ffffffffffffffffffffffffffffffffffffffff021916908373ffffffffffffffffffffffffffffffffffffffff16021790555034600160008060149054906101000a900461ffff1661ffff1661ffff168152602001908152602001600020600301819055508787600160008060149054906101000a900461ffff1661ffff1661ffff1681526020019081526020016000206000019182610e3692919061423e565b5085600160008060149054906101000a900461ffff1661ffff1661ffff16815260200190815260200160002060020160006101000a81548161ffff021916908361ffff16021790555060405180604001604052808667ffffffffffffffff1681526020018567ffffffffffffffff16815250600160008060149054906101000a900461ffff1661ffff1661ffff16815260200190815260200160002060040160008201518160000160006101000a81548167ffffffffffffffff021916908367ffffffffffffffff16021790555060208201518160000160086101000a81548167ffffffffffffffff021916908367ffffffffffffffff16021790555090505060405180604001604052808467ffffffffffffffff1681526020018367ffffffffffffffff16815250600160008060149054906101000a900461ffff1661ffff1661ffff16815260200190815260200160002060050160008201518160000160006101000a81548167ffffffffffffffff021916908367ffffffffffffffff16021790555060208201518160000160086101000a81548167ffffffffffffffff021916908367ffffffffffffffff16021790555090505080600160008060149054906101000a900461ffff1661ffff1661ffff16815260200190815260200160002060060160106101000a81548167ffffffffffffffff021916908367ffffffffffffffff1602179055506000600160008060149054906101000a900461ffff1661ffff1661ffff16815260200190815260200160002060080160026101000a81548160ff0219169083600581111561109257611091613af7565b5b0217905550600060058111156110ab576110aa613af7565b5b600060149054906101000a900461ffff1661ffff167f4cba5211a468d81edeacff737c5acf48620b406d7eeb30e8b24aacd05c4688c960405160405180910390a35050505050505050565b600460009054906101000a900473ffffffffffffffffffffffffffffffffffffffff1673ffffffffffffffffffffffffffffffffffffffff163373ffffffffffffffffffffffffffffffffffffffff1614806111bb5750600160008261ffff1661ffff16815260200190815260200160002060020160029054906101000a900473ffffffffffffffffffffffffffffffffffffffff1673ffffffffffffffffffffffffffffffffffffffff163373ffffffffffffffffffffffffffffffffffffffff16145b806111f157503073ffffffffffffffffffffffffffffffffffffffff163373ffffffffffffffffffffffffffffffffffffffff16145b611230576040517f08c379a000000000000000000000000000000000000000000000000000000000815260040161122790614412565b60405180910390fd5b42600160008361ffff1661ffff16815260200190815260200160002060060160109054906101000a900467ffffffffffffffff1667ffffffffffffffff16116112ae576040517f08c379a00000000000000000000000000000000000000000000000000000000081526004016112a59061447e565b60405180910390fd5b600060058111156112c2576112c1613af7565b5b600160008361ffff1661ffff16815260200190815260200160002060080160029054906101000a900460ff166005811115611300576112ff613af7565b5b14611340576040517f08c379a0000000000000000000000000000000000000000000000000000000008152600401611337906144ea565b60405180910390fd5b600160008261ffff1661ffff16815260200190815260200160002060020160029054906101000a900473ffffffffffffffffffffffffffffffffffffffff1673ffffffffffffffffffffffffffffffffffffffff16600160008361ffff1661ffff168152602001908152602001600020505060005b600360008361ffff1661ffff1681526020019081526020016000208054905081101561153257600260008361ffff1661ffff1681526020019081526020016000206000600360008561ffff1661ffff16815260200190815260200160002083815481106114255761142461450a565b5b90600052602060002090601091828204019190066002029054906101000a900461ffff1661ffff1661ffff16815260200190815260200160002060000160029054906101000a900473ffffffffffffffffffffffffffffffffffffffff1673ffffffffffffffffffffffffffffffffffffffff16600260008461ffff1661ffff1681526020019081526020016000206000600360008661ffff1661ffff16815260200190815260200160002084815481106114e3576114e261450a565b5b90600052602060002090601091828204019190066002029054906101000a900461ffff1661ffff1661ffff1681526020019081526020016000205050808061152a90614539565b9150506113b5565b506005600160008361ffff1661ffff16815260200190815260200160002060080160026101000a81548160ff0219169083600581111561157557611574613af7565b5b021790555060058081111561158d5761158c613af7565b5b8161ffff167f4cba5211a468d81edeacff737c5acf48620b406d7eeb30e8b24aacd05c4688c960405160405180910390a350565b6115f7600160008461ffff1661ffff16815260200190815260200160002060020160009054906101000a900461ffff1633612a4e565b611636576040517f08c379a000000000000000000000000000000000000000000000000000000000815260040161162d90613ca9565b60405180910390fd5b428167ffffffffffffffff1611611682576040517f08c379a000000000000000000000000000000000000000000000000000000000815260040161167990614380565b60405180910390fd5b80600160008461ffff1661ffff16815260200190815260200160002060060160106101000a81548167ffffffffffffffff021916908367ffffffffffffffff1602179055506116d082612af5565b600160008361ffff1661ffff16815260200190815260200160002060080160029054906101000a900460ff16600581111561170e5761170d613af7565b5b8261ffff167f4cba5211a468d81edeacff737c5acf48620b406d7eeb30e8b24aacd05c4688c960405160405180910390a35050565b611779600160008461ffff1661ffff16815260200190815260200160002060020160009054906101000a900461ffff1633612a4e565b6117b8576040517f08c379a00000000000000000000000000000000000000000000000000000000081526004016117af90613ca9565b60405180910390fd5b80600160008461ffff1661ffff16815260200190815260200160002060060160086101000a81548167ffffffffffffffff021916908367ffffffffffffffff16021790555061180682612af5565b600160008361ffff1661ffff16815260200190815260200160002060080160029054906101000a900460ff16600581111561184457611843613af7565b5b8261ffff167f4cba5211a468d81edeacff737c5acf48620b406d7eeb30e8b24aacd05c4688c960405160405180910390a35050565b6060600160008461ffff1661ffff168152602001908152602001600020600701826040516118a791906145b2565b908152602001604051809103902080546118c090614061565b80601f01602080910402602001604051908101604052809291908181526020018280546118ec90614061565b80156119395780601f1061190e57610100808354040283529160200191611939565b820191906000526020600020905b81548152906001019060200180831161191c57829003601f168201915b5050505050905092915050565b61197c600160008561ffff1661ffff16815260200190815260200160002060020160009054906101000a900461ffff1633612a4e565b6119bb576040517f08c379a00000000000000000000000000000000000000000000000000000000081526004016119b290613ca9565b60405180910390fd5b81600160008561ffff1661ffff16815260200190815260200160002060040160000160006101000a81548167ffffffffffffffff021916908367ffffffffffffffff16021790555080600160008561ffff1661ffff16815260200190815260200160002060040160000160086101000a81548167ffffffffffffffff021916908367ffffffffffffffff160217905550611a5483612af5565b600160008461ffff1661ffff16815260200190815260200160002060080160029054906101000a900460ff166005811115611a9257611a91613af7565b5b8361ffff167f4cba5211a468d81edeacff737c5acf48620b406d7eeb30e8b24aacd05c4688c960405160405180910390a3505050565b600080611ad36132ff565b600160008561ffff1661ffff1681526020019081526020016000206004016040518060400160405290816000820160009054906101000a900467ffffffffffffffff1667ffffffffffffffff1667ffffffffffffffff1681526020016000820160089054906101000a900467ffffffffffffffff1667ffffffffffffffff1667ffffffffffffffff16815250509050806000015181602001519250925050915091565b60036020528160005260406000208181548110611b9257600080fd5b9060005260206000209060109182820401919006600202915091509054906101000a900461ffff1681565b611bf3600160008561ffff1661ffff16815260200190815260200160002060020160009054906101000a900461ffff1633612a4e565b611c32576040517f08c379a0000000000000000000000000000000000000000000000000000000008152600401611c2990613ca9565b60405180910390fd5b8181600160008661ffff1661ffff1681526020019081526020016000206001019182611c5f92919061423e565b50611c6983612af5565b600160008461ffff1661ffff16815260200190815260200160002060080160029054906101000a900460ff166005811115611ca757611ca6613af7565b5b8361ffff167f4cba5211a468d81edeacff737c5acf48620b406d7eeb30e8b24aacd05c4688c960405160405180910390a3505050565b6001602052806000526040600020600091509050806000018054611d0090614061565b80601f0160208091040260200160405190810160405280929190818152602001828054611d2c90614061565b8015611d795780601f10611d4e57610100808354040283529160200191611d79565b820191906000526020600020905b815481529060010190602001808311611d5c57829003601f168201915b505050505090806001018054611d8e90614061565b80601f0160208091040260200160405190810160405280929190818152602001828054611dba90614061565b8015611e075780601f10611ddc57610100808354040283529160200191611e07565b820191906000526020600020905b815481529060010190602001808311611dea57829003601f168201915b5050505050908060020160009054906101000a900461ffff16908060020160029054906101000a900473ffffffffffffffffffffffffffffffffffffffff1690806003015490806004016040518060400160405290816000820160009054906101000a900467ffffffffffffffff1667ffffffffffffffff1667ffffffffffffffff1681526020016000820160089054906101000a900467ffffffffffffffff1667ffffffffffffffff1667ffffffffffffffff168152505090806005016040518060400160405290816000820160009054906101000a900467ffffffffffffffff1667ffffffffffffffff1667ffffffffffffffff1681526020016000820160089054906101000a900467ffffffffffffffff1667ffffffffffffffff1667ffffffffffffffff1681525050908060060160009054906101000a900467ffffffffffffffff16908060060160089054906101000a900467ffffffffffffffff16908060060160109054906101000a900467ffffffffffffffff16908060080160009054906101000a900461ffff16908060080160029054906101000a900460ff1690508c565b611fe4600160008361ffff1661ffff16815260200190815260200160002060020160009054906101000a900461ffff1633612a4e565b8061201a57503073ffffffffffffffffffffffffffffffffffffffff163373ffffffffffffffffffffffffffffffffffffffff16145b612059576040517f08c379a000000000000000000000000000000000000000000000000000000000815260040161205090613ca9565b60405180910390fd5b6000600581111561206d5761206c613af7565b5b600160008361ffff1661ffff16815260200190815260200160002060080160029054906101000a900460ff1660058111156120ab576120aa613af7565b5b146120eb576040517f08c379a00000000000000000000000000000000000000000000000000000000081526004016120e290614615565b60405180910390fd5b6005600160008361ffff1661ffff16815260200190815260200160002060080160026101000a81548160ff0219169083600581111561212d5761212c613af7565b5b021790555061213b81612af5565b600160008261ffff1661ffff16815260200190815260200160002060020160029054906101000a900473ffffffffffffffffffffffffffffffffffffffff1673ffffffffffffffffffffffffffffffffffffffff16600160008361ffff1661ffff1681526020019081526020016000205050600160008261ffff1661ffff16815260200190815260200160002060080160029054906101000a900460ff1660058111156121eb576121ea613af7565b5b8161ffff167f4cba5211a468d81edeacff737c5acf48620b406d7eeb30e8b24aacd05c4688c960405160405180910390a350565b6122298282612e29565b612268576040517f08c379a000000000000000000000000000000000000000000000000000000000815260040161225f906146a7565b60405180910390fd5b60008060009054906101000a900473ffffffffffffffffffffffffffffffffffffffff1673ffffffffffffffffffffffffffffffffffffffff1663ec1b2d81836040518263ffffffff1660e01b81526004016122c49190613a3e565b600060405180830381865afa1580156122e1573d6000803e3d6000fd5b505050506040513d6000823e3d601f19601f8201168201806040525081019061230a9190613e5c565b905050809150506001600581111561232557612324613af7565b5b600160008561ffff1661ffff16815260200190815260200160002060080160029054906101000a900460ff16600581111561236357612362613af7565b5b03612459576000600181111561237c5761237b613af7565b5b81600181111561238f5761238e613af7565b5b036123e0576003600160008561ffff1661ffff16815260200190815260200160002060080160026101000a81548160ff021916908360058111156123d6576123d5613af7565b5b0217905550612454565b6001808111156123f3576123f2613af7565b5b81600181111561240657612405613af7565b5b03612453576004600160008561ffff1661ffff16815260200190815260200160002060080160026101000a81548160ff0219169083600581111561244d5761244c613af7565b5b02179055505b5b612608565b6003600581111561246d5761246c613af7565b5b600160008561ffff1661ffff16815260200190815260200160002060080160029054906101000a900460ff1660058111156124ab576124aa613af7565b5b03612531576001808111156124c3576124c2613af7565b5b8160018111156124d6576124d5613af7565b5b0361252c576005600160008561ffff1661ffff16815260200190815260200160002060080160026101000a81548160ff0219169083600581111561251d5761251c613af7565b5b021790555061252b83612f03565b5b612607565b6004600581111561254557612544613af7565b5b600160008561ffff1661ffff16815260200190815260200160002060080160029054906101000a900460ff16600581111561258357612582613af7565b5b03612606576000600181111561259c5761259b613af7565b5b8160018111156125af576125ae613af7565b5b03612605576005600160008561ffff1661ffff16815260200190815260200160002060080160026101000a81548160ff021916908360058111156125f6576125f5613af7565b5b021790555061260483612f03565b5b5b5b5b600160008461ffff1661ffff16815260200190815260200160002060080160029054906101000a900460ff16600581111561264657612645613af7565b5b8361ffff167f4cba5211a468d81edeacff737c5acf48620b406d7eeb30e8b24aacd05c4688c960405160405180910390a3505050565b6000806126876132ff565b600160008561ffff1661ffff1681526020019081526020016000206005016040518060400160405290816000820160009054906101000a900467ffffffffffffffff1667ffffffffffffffff1667ffffffffffffffff1681526020016000820160089054906101000a900467ffffffffffffffff1667ffffffffffffffff1667ffffffffffffffff16815250509050806000015181602001519250925050915091565b612760600160008461ffff1661ffff16815260200190815260200160002060020160009054906101000a900461ffff1633612a4e565b61279f576040517f08c379a000000000000000000000000000000000000000000000000000000000815260040161279690613ca9565b60405180910390fd5b80600160008461ffff1661ffff16815260200190815260200160002060060160006101000a81548167ffffffffffffffff021916908367ffffffffffffffff1602179055506127ed82612af5565b600160008361ffff1661ffff16815260200190815260200160002060080160029054906101000a900460ff16600581111561282b5761282a613af7565b5b8261ffff167f4cba5211a468d81edeacff737c5acf48620b406d7eeb30e8b24aacd05c4688c960405160405180910390a35050565b6000600581111561287457612873613af7565b5b600160008461ffff1661ffff16815260200190815260200160002060080160029054906101000a900460ff1660058111156128b2576128b1613af7565b5b146128f2576040517f08c379a00000000000000000000000000000000000000000000000000000000081526004016128e990614713565b60405180910390fd5b612928600160008461ffff1661ffff16815260200190815260200160002060020160009054906101000a900461ffff1633612a4e565b612967576040517f08c379a000000000000000000000000000000000000000000000000000000000815260040161295e90613ca9565b60405180910390fd5b600061297283612dc7565b90508015612a045781600160008561ffff1661ffff16815260200190815260200160002060080160006101000a81548161ffff021916908361ffff16021790555060018060008561ffff1661ffff16815260200190815260200160002060080160026101000a81548160ff021916908360058111156129f4576129f3613af7565b5b0217905550612a03838361311a565b5b60016005811115612a1857612a17613af7565b5b8361ffff167f4cba5211a468d81edeacff737c5acf48620b406d7eeb30e8b24aacd05c4688c960405160405180910390a3505050565b60008060009054906101000a900473ffffffffffffffffffffffffffffffffffffffff1673ffffffffffffffffffffffffffffffffffffffff1663d17264f084846040518363ffffffff1660e01b8152600401612aac929190614733565b602060405180830381865afa158015612ac9573d6000803e3d6000fd5b505050506040513d601f19601f82011682018060405250810190612aed9190614794565b905092915050565b60005b600360008361ffff1661ffff16815260200190815260200160002080549050811015612d4057600260008361ffff1661ffff1681526020019081526020016000206000600360008561ffff1661ffff1681526020019081526020016000208381548110612b6857612b6761450a565b5b90600052602060002090601091828204019190066002029054906101000a900461ffff1661ffff1661ffff16815260200190815260200160002060000160029054906101000a900473ffffffffffffffffffffffffffffffffffffffff1673ffffffffffffffffffffffffffffffffffffffff16600260008461ffff1661ffff1681526020019081526020016000206000600360008661ffff1661ffff1681526020019081526020016000208481548110612c2657612c2561450a565b5b90600052602060002090601091828204019190066002029054906101000a900461ffff1661ffff1661ffff1681526020019081526020016000205050600260008361ffff1661ffff1681526020019081526020016000206000600360008561ffff1661ffff1681526020019081526020016000208381548110612cac57612cab61450a565b5b90600052602060002090601091828204019190066002029054906101000a900461ffff1661ffff1661ffff168152602001908152602001600020600080820160006101000a81549061ffff02191690556000820160026101000a81549073ffffffffffffffffffffffffffffffffffffffff0219169055600182016000905550508080612d3890614539565b915050612af8565b50600360008261ffff1661ffff1681526020019081526020016000206000612d68919061332d565b8061ffff167f372e3aa608ee95995abbce35189c94770e047df9a345e82c46cfd79918d0951860405160405180910390a250565b6000600160008461ffff1661ffff168152602001908152602001600020600301548211905092915050565b6000600160008361ffff1661ffff16815260200190815260200160002060060160109054906101000a900467ffffffffffffffff1667ffffffffffffffff16421015612e165760019050612e24565b612e1f826110f6565b600090505b919050565b60008161ffff16600160008561ffff1661ffff16815260200190815260200160002060020160009054906101000a900461ffff1661ffff1603612e6f5760019050612efd565b8161ffff16600260008561ffff1661ffff1681526020019081526020016000206000600160008761ffff1661ffff16815260200190815260200160002060080160009054906101000a900461ffff1661ffff1661ffff16815260200190815260200160002060000160009054906101000a900461ffff1661ffff1603612ef85760019050612efd565b600090505b92915050565b600160008261ffff1661ffff16815260200190815260200160002060020160029054906101000a900473ffffffffffffffffffffffffffffffffffffffff1673ffffffffffffffffffffffffffffffffffffffff16600160008361ffff1661ffff16815260200190815260200160002060030154604051612f83906147f2565b60006040518083038185875af1925050503d8060008114612fc0576040519150601f19603f3d011682016040523d82523d6000602084013e612fc5565b606091505b505050600260008261ffff1661ffff1681526020019081526020016000206000600160008461ffff1661ffff16815260200190815260200160002060080160009054906101000a900461ffff1661ffff1661ffff16815260200190815260200160002060000160029054906101000a900473ffffffffffffffffffffffffffffffffffffffff1673ffffffffffffffffffffffffffffffffffffffff16600260008361ffff1661ffff1681526020019081526020016000206000600160008561ffff1661ffff16815260200190815260200160002060080160009054906101000a900461ffff1661ffff1661ffff168152602001908152602001600020600101546040516130d2906147f2565b60006040518083038185875af1925050503d806000811461310f576040519150601f19603f3d011682016040523d82523d6000602084013e613114565b606091505b50505050565b60005b600360008461ffff1661ffff168152602001908152602001600020805490508110156132fa578161ffff16600360008561ffff1661ffff16815260200190815260200160002082815481106131755761317461450a565b5b90600052602060002090601091828204019190066002029054906101000a900461ffff1661ffff16146132e757600260008461ffff1661ffff1681526020019081526020016000206000600360008661ffff1661ffff16815260200190815260200160002083815481106131ec576131eb61450a565b5b90600052602060002090601091828204019190066002029054906101000a900461ffff1661ffff1661ffff16815260200190815260200160002060000160029054906101000a900473ffffffffffffffffffffffffffffffffffffffff1673ffffffffffffffffffffffffffffffffffffffff16600260008561ffff1661ffff1681526020019081526020016000206000600360008761ffff1661ffff16815260200190815260200160002084815481106132aa576132a961450a565b5b90600052602060002090601091828204019190066002029054906101000a900461ffff1661ffff1661ffff16815260200190815260200160002050505b80806132f290614539565b91505061311d565b505050565b6040518060400160405280600067ffffffffffffffff168152602001600067ffffffffffffffff1681525090565b50805460008255600f0160109004906000526020600020908101906133529190613355565b50565b5b8082111561336e576000816000905550600101613356565b5090565b6000604051905090565b600080fd5b600080fd5b600061ffff82169050919050565b61339d81613386565b81146133a857600080fd5b50565b6000813590506133ba81613394565b92915050565b600080604083850312156133d7576133d661337c565b5b60006133e5858286016133ab565b92505060206133f6858286016133ab565b9150509250929050565b61340981613386565b82525050565b600073ffffffffffffffffffffffffffffffffffffffff82169050919050565b600061343a8261340f565b9050919050565b61344a8161342f565b82525050565b6000819050919050565b61346381613450565b82525050565b600060608201905061347e6000830186613400565b61348b6020830185613441565b613498604083018461345a565b949350505050565b600067ffffffffffffffff82169050919050565b6134bd816134a0565b81146134c857600080fd5b50565b6000813590506134da816134b4565b92915050565b6000806000606084860312156134f9576134f861337c565b5b6000613507868287016133ab565b9350506020613518868287016134cb565b9250506040613529868287016134cb565b9150509250925092565b600080fd5b600080fd5b600080fd5b60008083601f84011261355857613557613533565b5b8235905067ffffffffffffffff81111561357557613574613538565b5b6020830191508360018202830111156135915761359061353d565b5b9250929050565b6000806000806000606086880312156135b4576135b361337c565b5b60006135c2888289016133ab565b955050602086013567ffffffffffffffff8111156135e3576135e2613381565b5b6135ef88828901613542565b9450945050604086013567ffffffffffffffff81111561361257613611613381565b5b61361e88828901613542565b92509250509295509295909350565b60008060008060008060008060e0898b03121561364d5761364c61337c565b5b600089013567ffffffffffffffff81111561366b5761366a613381565b5b6136778b828c01613542565b9850985050602061368a8b828c016133ab565b965050604061369b8b828c016134cb565b95505060606136ac8b828c016134cb565b94505060806136bd8b828c016134cb565b93505060a06136ce8b828c016134cb565b92505060c06136df8b828c016134cb565b9150509295985092959890939650565b6000602082840312156137055761370461337c565b5b6000613713848285016133ab565b91505092915050565b600080604083850312156137335761373261337c565b5b6000613741858286016133ab565b9250506020613752858286016134cb565b9150509250929050565b600080fd5b6000601f19601f8301169050919050565b7f4e487b7100000000000000000000000000000000000000000000000000000000600052604160045260246000fd5b6137aa82613761565b810181811067ffffffffffffffff821117156137c9576137c8613772565b5b80604052505050565b60006137dc613372565b90506137e882826137a1565b919050565b600067ffffffffffffffff82111561380857613807613772565b5b61381182613761565b9050602081019050919050565b82818337600083830152505050565b600061384061383b846137ed565b6137d2565b90508281526020810184848401111561385c5761385b61375c565b5b61386784828561381e565b509392505050565b600082601f83011261388457613883613533565b5b813561389484826020860161382d565b91505092915050565b600080604083850312156138b4576138b361337c565b5b60006138c2858286016133ab565b925050602083013567ffffffffffffffff8111156138e3576138e2613381565b5b6138ef8582860161386f565b9150509250929050565b600081519050919050565b600082825260208201905092915050565b60005b83811015613933578082015181840152602081019050613918565b60008484015250505050565b600061394a826138f9565b6139548185613904565b9350613964818560208601613915565b61396d81613761565b840191505092915050565b60006020820190508181036000830152613992818461393f565b905092915050565b6139a3816134a0565b82525050565b60006040820190506139be600083018561399a565b6139cb602083018461399a565b9392505050565b6139db81613450565b81146139e657600080fd5b50565b6000813590506139f8816139d2565b92915050565b60008060408385031215613a1557613a1461337c565b5b6000613a23858286016133ab565b9250506020613a34858286016139e9565b9150509250929050565b6000602082019050613a536000830184613400565b92915050565b600080600060408486031215613a7257613a7161337c565b5b6000613a80868287016133ab565b935050602084013567ffffffffffffffff811115613aa157613aa0613381565b5b613aad86828701613542565b92509250509250925092565b613ac2816134a0565b82525050565b604082016000820151613ade6000850182613ab9565b506020820151613af16020850182613ab9565b50505050565b7f4e487b7100000000000000000000000000000000000000000000000000000000600052602160045260246000fd5b60068110613b3757613b36613af7565b5b50565b6000819050613b4882613b26565b919050565b6000613b5882613b3a565b9050919050565b613b6881613b4d565b82525050565b60006101c0820190508181036000830152613b89818f61393f565b90508181036020830152613b9d818e61393f565b9050613bac604083018d613400565b613bb9606083018c613441565b613bc6608083018b61345a565b613bd360a083018a613ac8565b613be060e0830189613ac8565b613bee61012083018861399a565b613bfc61014083018761399a565b613c0a61016083018661399a565b613c18610180830185613400565b613c266101a0830184613b5f565b9d9c50505050505050505050505050565b7f4572726f723a20454f41206973206e6f74206173736f6369617465642077697460008201527f6820746869732075736572000000000000000000000000000000000000000000602082015250565b6000613c93602b83613904565b9150613c9e82613c37565b604082019050919050565b60006020820190508181036000830152613cc281613c86565b9050919050565b7f446f6573206e6f74206d65657420637269746572696120666f7220647574636860008201527f2f656e676c697368206269640000000000000000000000000000000000000000602082015250565b6000613d25602c83613904565b9150613d3082613cc9565b604082019050919050565b60006020820190508181036000830152613d5481613d18565b9050919050565b7f4572726f723a20706f7374206973206e6f74206c697665000000000000000000600082015250565b6000613d91601783613904565b9150613d9c82613d5b565b602082019050919050565b60006020820190508181036000830152613dc081613d84565b9050919050565b60028110613dd457600080fd5b50565b600081519050613de681613dc7565b92915050565b6000613dff613dfa846137ed565b6137d2565b905082815260208101848484011115613e1b57613e1a61375c565b5b613e26848285613915565b509392505050565b600082601f830112613e4357613e42613533565b5b8151613e53848260208601613dec565b91505092915050565b600080600060608486031215613e7557613e7461337c565b5b6000613e8386828701613dd7565b935050602084015167ffffffffffffffff811115613ea457613ea3613381565b5b613eb086828701613e2e565b925050604084015167ffffffffffffffff811115613ed157613ed0613381565b5b613edd86828701613e2e565b9150509250925092565b7f4572726f723a206e6f7420616c6c6f77656420746f20626964206f6e20706f7360008201527f74206f662073616d652077617465722074797065000000000000000000000000602082015250565b6000613f43603483613904565b9150613f4e82613ee7565b604082019050919050565b60006020820190508181036000830152613f7281613f36565b9050919050565b7f4e487b7100000000000000000000000000000000000000000000000000000000600052601160045260246000fd5b6000613fb382613386565b9150613fbe83613386565b9250828201905061ffff811115613fd857613fd7613f79565b5b92915050565b600081905092915050565b6000613ff58385613fde565b935061400283858461381e565b82840190509392505050565b600061401b828486613fe9565b91508190509392505050565b600082905092915050565b7f4e487b7100000000000000000000000000000000000000000000000000000000600052602260045260246000fd5b6000600282049050600182168061407957607f821691505b60208210810361408c5761408b614032565b5b50919050565b60008190508160005260206000209050919050565b60006020601f8301049050919050565b600082821b905092915050565b6000600883026140f47fffffffffffffffffffffffffffffffffffffffffffffffffffffffffffffffff826140b7565b6140fe86836140b7565b95508019841693508086168417925050509392505050565b6000819050919050565b600061413b61413661413184613450565b614116565b613450565b9050919050565b6000819050919050565b61415583614120565b61416961416182614142565b8484546140c4565b825550505050565b600090565b61417e614171565b61418981848461414c565b505050565b5b818110156141ad576141a2600082614176565b60018101905061418f565b5050565b601f8211156141f2576141c381614092565b6141cc846140a7565b810160208510156141db578190505b6141ef6141e7856140a7565b83018261418e565b50505b505050565b600082821c905092915050565b6000614215600019846008026141f7565b1980831691505092915050565b600061422e8383614204565b9150826002028217905092915050565b6142488383614027565b67ffffffffffffffff81111561426157614260613772565b5b61426b8254614061565b6142768282856141b1565b6000601f8311600181146142a55760008415614293578287013590505b61429d8582614222565b865550614305565b601f1984166142b386614092565b60005b828110156142db578489013582556001820191506020850194506020810190506142b6565b868310156142f857848901356142f4601f891682614204565b8355505b6001600288020188555050505b50505050505050565b7f4572726f723a206578706972792074696d6520697320696e207468652070617360008201527f7400000000000000000000000000000000000000000000000000000000000000602082015250565b600061436a602183613904565b91506143758261430e565b604082019050919050565b600060208201905081810360008301526143998161435d565b9050919050565b7f536d61727420436f6e7472616374204572726f723a206e6f7420617574686f7260008201527f6973656420746f20726566756e642066726f6d207468697320706f7374000000602082015250565b60006143fc603d83613904565b9150614407826143a0565b604082019050919050565b6000602082019050818103600083015261442b816143ef565b9050919050565b7f54686520706f737420686173206e6f7420657870697265640000000000000000600082015250565b6000614468601883613904565b915061447382614432565b602082019050919050565b600060208201905081810360008301526144978161445b565b9050919050565b7f5468697320706f7374206973206e6f206c6f6e676572206c6976650000000000600082015250565b60006144d4601b83613904565b91506144df8261449e565b602082019050919050565b60006020820190508181036000830152614503816144c7565b9050919050565b7f4e487b7100000000000000000000000000000000000000000000000000000000600052603260045260246000fd5b600061454482613450565b91507fffffffffffffffffffffffffffffffffffffffffffffffffffffffffffffffff820361457657614575613f79565b5b600182019050919050565b600061458c826138f9565b6145968185613fde565b93506145a6818560208601613915565b80840191505092915050565b60006145be8284614581565b915081905092915050565b7f4572726f723a2063616e6e6f742074616b6520646f776e20706f737400000000600082015250565b60006145ff601c83613904565b915061460a826145c9565b602082019050919050565b6000602082019050818103600083015261462e816145f2565b9050919050565b7f4572726f723a2070726f66696c654964206e6f74206173736f6369617465642060008201527f776974682074686973206465616c000000000000000000000000000000000000602082015250565b6000614691602e83613904565b915061469c82614635565b604082019050919050565b600060208201905081810360008301526146c081614684565b9050919050565b7f4572726f723a20706f7374206973206e6f206c6f6e676572206c697665000000600082015250565b60006146fd601d83613904565b9150614708826146c7565b602082019050919050565b6000602082019050818103600083015261472c816146f0565b9050919050565b60006040820190506147486000830185613400565b6147556020830184613441565b9392505050565b60008115159050919050565b6147718161475c565b811461477c57600080fd5b50565b60008151905061478e81614768565b92915050565b6000602082840312156147aa576147a961337c565b5b60006147b88482850161477f565b91505092915050565b600081905092915050565b50565b60006147dc6000836147c1565b91506147e7826147cc565b600082019050919050565b60006147fd826147cf565b915081905091905056fea26469706673582212207a9451e42414f5fc804290cc7fecc423cf0ca9f01011b2019d3a9ab3ce64d45964736f6c63430008120033",
  "linkReferences": {},
  "deployedLinkReferences": {}
}