{
  "_format": "hh-sol-artifact-1",
  "contractName": "river",
  "sourceName": "contracts/river.sol",
  "abi": [
    {
      "inputs": [
        {
          "internalType": "address",
          "name": "_profileContractAddress",
          "type": "address"
        }
      ],
      "stateMutability": "nonpayable",
      "type": "constructor"
    },
    {
      "anonymous": false,
      "inputs": [
        {
          "indexed": true,
          "internalType": "uint16",
          "name": "_postId",
          "type": "uint16"
        },
        {
          "indexed": true,
          "internalType": "uint16",
          "name": "_bidId",
          "type": "uint16"
        },
        {
          "indexed": true,
          "internalType": "bool",
          "name": "_accepted",
          "type": "bool"
        }
      ],
      "name": "bidEvent",
      "type": "event"
    },
    {
      "anonymous": false,
      "inputs": [
        {
          "indexed": true,
          "internalType": "uint16",
          "name": "_postId",
          "type": "uint16"
        },
        {
          "indexed": true,
          "internalType": "string",
          "name": "_category",
          "type": "string"
        }
      ],
      "name": "bucketEvent",
      "type": "event"
    },
    {
      "anonymous": false,
      "inputs": [
        {
          "indexed": true,
          "internalType": "uint16",
          "name": "_postId",
          "type": "uint16"
        },
        {
          "indexed": true,
          "internalType": "enum waterSource.dealStates",
          "name": "_dealState",
          "type": "uint8"
        }
      ],
      "name": "pendingEvent",
      "type": "event"
    },
    {
      "anonymous": false,
      "inputs": [
        {
          "indexed": true,
          "internalType": "uint16",
          "name": "_postId",
          "type": "uint16"
        },
        {
          "indexed": true,
          "internalType": "bool",
          "name": "_live",
          "type": "bool"
        }
      ],
      "name": "postEvent",
      "type": "event"
    },
    {
      "anonymous": false,
      "inputs": [
        {
          "indexed": true,
          "internalType": "uint16",
          "name": "_postId",
          "type": "uint16"
        }
      ],
      "name": "resetEvent",
      "type": "event"
    },
    {
      "inputs": [
        {
          "internalType": "uint16",
          "name": "_postId",
          "type": "uint16"
        },
        {
          "internalType": "uint16",
          "name": "_bidId",
          "type": "uint16"
        }
      ],
      "name": "acceptBid",
      "outputs": [],
      "stateMutability": "nonpayable",
      "type": "function"
    },
    {
      "inputs": [
        {
          "internalType": "uint16",
          "name": "_postId",
          "type": "uint16"
        },
        {
          "internalType": "string",
          "name": "_category",
          "type": "string"
        },
        {
          "internalType": "string",
          "name": "_value",
          "type": "string"
        }
      ],
      "name": "addToBucket",
      "outputs": [],
      "stateMutability": "nonpayable",
      "type": "function"
    },
    {
      "inputs": [
        {
          "internalType": "uint16",
          "name": "_postId",
          "type": "uint16"
        },
        {
          "internalType": "uint16",
          "name": "_bidderId",
          "type": "uint16"
        }
      ],
      "name": "bid",
      "outputs": [],
      "stateMutability": "payable",
      "type": "function"
    },
    {
      "inputs": [
        {
          "internalType": "uint16",
          "name": "",
          "type": "uint16"
        },
        {
          "internalType": "uint16",
          "name": "",
          "type": "uint16"
        }
      ],
      "name": "bids",
      "outputs": [
        {
          "internalType": "uint16",
          "name": "bidderId",
          "type": "uint16"
        },
        {
          "internalType": "address",
          "name": "bidderEOA",
          "type": "address"
        },
        {
          "internalType": "uint256",
          "name": "bidAmount",
          "type": "uint256"
        },
        {
          "internalType": "bool",
          "name": "accepted",
          "type": "bool"
        }
      ],
      "stateMutability": "view",
      "type": "function"
    },
    {
      "inputs": [
        {
          "internalType": "uint16",
          "name": "",
          "type": "uint16"
        },
        {
          "internalType": "uint256",
          "name": "",
          "type": "uint256"
        }
      ],
      "name": "bidsArray",
      "outputs": [
        {
          "internalType": "uint16",
          "name": "",
          "type": "uint16"
        }
      ],
      "stateMutability": "view",
      "type": "function"
    },
    {
      "inputs": [
        {
          "internalType": "uint16",
          "name": "_postId",
          "type": "uint16"
        },
        {
          "internalType": "string",
          "name": "_category",
          "type": "string"
        }
      ],
      "name": "checkBucket",
      "outputs": [
        {
          "internalType": "string",
          "name": "",
          "type": "string"
        }
      ],
      "stateMutability": "view",
      "type": "function"
    },
    {
      "inputs": [
        {
          "internalType": "uint16",
          "name": "_postId",
          "type": "uint16"
        },
        {
          "internalType": "uint16",
          "name": "_profileId",
          "type": "uint16"
        }
      ],
      "name": "closeDeal",
      "outputs": [],
      "stateMutability": "nonpayable",
      "type": "function"
    },
    {
      "inputs": [
        {
          "internalType": "uint16",
          "name": "",
          "type": "uint16"
        }
      ],
      "name": "collection",
      "outputs": [
        {
          "internalType": "string",
          "name": "postName",
          "type": "string"
        },
        {
          "internalType": "string",
          "name": "description",
          "type": "string"
        },
        {
          "internalType": "uint16",
          "name": "profileId",
          "type": "uint16"
        },
        {
          "internalType": "address",
          "name": "EOA",
          "type": "address"
        },
        {
          "internalType": "uint256",
          "name": "price",
          "type": "uint256"
        },
        {
          "components": [
            {
              "internalType": "uint64",
              "name": "x",
              "type": "uint64"
            },
            {
              "internalType": "uint64",
              "name": "y",
              "type": "uint64"
            }
          ],
          "internalType": "struct waterSource.Location",
          "name": "iX",
          "type": "tuple"
        },
        {
          "components": [
            {
              "internalType": "uint64",
              "name": "x",
              "type": "uint64"
            },
            {
              "internalType": "uint64",
              "name": "y",
              "type": "uint64"
            }
          ],
          "internalType": "struct waterSource.Location",
          "name": "fX",
          "type": "tuple"
        },
        {
          "internalType": "uint64",
          "name": "iT",
          "type": "uint64"
        },
        {
          "internalType": "uint64",
          "name": "fT",
          "type": "uint64"
        },
        {
          "internalType": "uint64",
          "name": "exp",
          "type": "uint64"
        },
        {
          "internalType": "bool",
          "name": "live",
          "type": "bool"
        },
        {
          "internalType": "uint16",
          "name": "winningBidId",
          "type": "uint16"
        }
      ],
      "stateMutability": "view",
      "type": "function"
    },
    {
      "inputs": [
        {
          "internalType": "uint16",
          "name": "_postId",
          "type": "uint16"
        },
        {
          "internalType": "string",
          "name": "_description",
          "type": "string"
        }
      ],
      "name": "editDescription",
      "outputs": [],
      "stateMutability": "nonpayable",
      "type": "function"
    },
    {
      "inputs": [
        {
          "internalType": "uint16",
          "name": "_postId",
          "type": "uint16"
        },
        {
          "internalType": "uint64",
          "name": "_exp",
          "type": "uint64"
        }
      ],
      "name": "editExpiryTime",
      "outputs": [],
      "stateMutability": "nonpayable",
      "type": "function"
    },
    {
      "inputs": [
        {
          "internalType": "uint16",
          "name": "_postId",
          "type": "uint16"
        },
        {
          "internalType": "uint64",
          "name": "_x",
          "type": "uint64"
        },
        {
          "internalType": "uint64",
          "name": "_y",
          "type": "uint64"
        }
      ],
      "name": "editFinalLocation",
      "outputs": [],
      "stateMutability": "nonpayable",
      "type": "function"
    },
    {
      "inputs": [
        {
          "internalType": "uint16",
          "name": "_postId",
          "type": "uint16"
        },
        {
          "internalType": "uint64",
          "name": "_fT",
          "type": "uint64"
        }
      ],
      "name": "editFinalTime",
      "outputs": [],
      "stateMutability": "nonpayable",
      "type": "function"
    },
    {
      "inputs": [
        {
          "internalType": "uint16",
          "name": "_postId",
          "type": "uint16"
        },
        {
          "internalType": "uint64",
          "name": "_x",
          "type": "uint64"
        },
        {
          "internalType": "uint64",
          "name": "_y",
          "type": "uint64"
        }
      ],
      "name": "editInitialLocation",
      "outputs": [],
      "stateMutability": "nonpayable",
      "type": "function"
    },
    {
      "inputs": [
        {
          "internalType": "uint16",
          "name": "_postId",
          "type": "uint16"
        },
        {
          "internalType": "uint64",
          "name": "_iT",
          "type": "uint64"
        }
      ],
      "name": "editInitialTime",
      "outputs": [],
      "stateMutability": "nonpayable",
      "type": "function"
    },
    {
      "inputs": [
        {
          "internalType": "uint16",
          "name": "_postId",
          "type": "uint16"
        }
      ],
      "name": "getFinalLocation",
      "outputs": [
        {
          "internalType": "uint64",
          "name": "",
          "type": "uint64"
        },
        {
          "internalType": "uint64",
          "name": "",
          "type": "uint64"
        }
      ],
      "stateMutability": "view",
      "type": "function"
    },
    {
      "inputs": [
        {
          "internalType": "uint16",
          "name": "_postId",
          "type": "uint16"
        }
      ],
      "name": "getInitialLocation",
      "outputs": [
        {
          "internalType": "uint64",
          "name": "",
          "type": "uint64"
        },
        {
          "internalType": "uint64",
          "name": "",
          "type": "uint64"
        }
      ],
      "stateMutability": "view",
      "type": "function"
    },
    {
      "inputs": [
        {
          "internalType": "string",
          "name": "_postName",
          "type": "string"
        },
        {
          "internalType": "uint16",
          "name": "_profileId",
          "type": "uint16"
        },
        {
          "internalType": "uint64",
          "name": "_iXx",
          "type": "uint64"
        },
        {
          "internalType": "uint64",
          "name": "_iXy",
          "type": "uint64"
        },
        {
          "internalType": "uint64",
          "name": "_fXx",
          "type": "uint64"
        },
        {
          "internalType": "uint64",
          "name": "_fXy",
          "type": "uint64"
        },
        {
          "internalType": "uint64",
          "name": "_exp",
          "type": "uint64"
        }
      ],
      "name": "initPost",
      "outputs": [],
      "stateMutability": "payable",
      "type": "function"
    },
    {
      "inputs": [
        {
          "internalType": "uint16",
          "name": "",
          "type": "uint16"
        }
      ],
      "name": "pendingDeals",
      "outputs": [
        {
          "internalType": "enum waterSource.dealStates",
          "name": "",
          "type": "uint8"
        }
      ],
      "stateMutability": "view",
      "type": "function"
    },
    {
      "inputs": [
        {
          "internalType": "uint16",
          "name": "_postId",
          "type": "uint16"
        }
      ],
      "name": "refundExpiredPost",
      "outputs": [],
      "stateMutability": "nonpayable",
      "type": "function"
    },
    {
      "inputs": [
        {
          "internalType": "address",
          "name": "_verifyTributaryAddress",
          "type": "address"
        }
      ],
      "name": "setVerifyTributaryAddress",
      "outputs": [],
      "stateMutability": "nonpayable",
      "type": "function"
    },
    {
      "inputs": [
        {
          "internalType": "uint16",
          "name": "_postId",
          "type": "uint16"
        }
      ],
      "name": "takeDownPost",
      "outputs": [],
      "stateMutability": "nonpayable",
      "type": "function"
    },
    {
      "inputs": [
        {
          "internalType": "uint16",
          "name": "_postId",
          "type": "uint16"
        }
      ],
      "name": "verifyOnRiverPost",
      "outputs": [],
      "stateMutability": "nonpayable",
      "type": "function"
    }
  ],
  "bytecode": "0x60806040523480156200001157600080fd5b5060405162004a8f38038062004a8f833981810160405281019062000037919062000223565b80806000806101000a81548173ffffffffffffffffffffffffffffffffffffffff021916908373ffffffffffffffffffffffffffffffffffffffff16021790555033600660006101000a81548173ffffffffffffffffffffffffffffffffffffffff021916908373ffffffffffffffffffffffffffffffffffffffff1602179055506000600160146101000a81548161ffff021916908361ffff16021790555060018060166101000a81548161ffff021916908361ffff16021790555050806000806101000a81548173ffffffffffffffffffffffffffffffffffffffff021916908373ffffffffffffffffffffffffffffffffffffffff16021790555033600660006101000a81548173ffffffffffffffffffffffffffffffffffffffff021916908373ffffffffffffffffffffffffffffffffffffffff1602179055506001600660146101000a81548161ffff021916908361ffff1602179055506000600660166101000a81548161ffff021916908361ffff1602179055505062000255565b600080fd5b600073ffffffffffffffffffffffffffffffffffffffff82169050919050565b6000620001eb82620001be565b9050919050565b620001fd81620001de565b81146200020957600080fd5b50565b6000815190506200021d81620001f2565b92915050565b6000602082840312156200023c576200023b620001b9565b5b60006200024c848285016200020c565b91505092915050565b61482a80620002656000396000f3fe6080604052600436106101355760003560e01c806383072fec116100ab578063d72e5a0a1161006f578063d72e5a0a14610418578063e643c44a14610460578063e784698d14610489578063f0dcd9f5146104b2578063f4cebfdb146104f0578063fe6304b51461051957610135565b806383072fec1461030e5780638882aad114610337578063a516f3dd14610374578063b4ec4761146103b2578063c4c9280f146103ef57610135565b80633e3fd876116100fd5780633e3fd8761461021157806353e964c31461022d5780635b31ec2e146102565780635c99a40a1461027f5780635cb67530146102a857806369c81d6e146102d157610135565b8063105098d41461013a5780631ab742421461017a5780631fb9ce5e146101a35780632020e9ea146101cc578063355f0201146101e8575b600080fd5b34801561014657600080fd5b50610161600480360381019061015c919061332d565b610542565b60405161017194939291906133f1565b60405180910390f35b34801561018657600080fd5b506101a1600480360381019061019c9190613462565b6105ba565b005b3480156101af57600080fd5b506101ca60048036038101906101c591906134cf565b610658565b005b6101e660048036038101906101e1919061332d565b6107d1565b005b3480156101f457600080fd5b5061020f600480360381019061020a9190613587565b610cdf565b005b61022b6004803603810190610226919061361c565b610df9565b005b34801561023957600080fd5b50610254600480360381019061024f91906136de565b61124a565b005b34801561026257600080fd5b5061027d600480360381019061027891906136de565b611601565b005b34801561028b57600080fd5b506102a660048036038101906102a1919061370b565b61171d565b005b3480156102b457600080fd5b506102cf60048036038101906102ca919061370b565b611896565b005b3480156102dd57600080fd5b506102f860048036038101906102f3919061388c565b6119cc565b6040516103059190613967565b60405180910390f35b34801561031a57600080fd5b50610335600480360381019061033091906134cf565b611a99565b005b34801561034357600080fd5b5061035e600480360381019061035991906136de565b611c12565b60405161036b9190613a00565b60405180910390f35b34801561038057600080fd5b5061039b600480360381019061039691906136de565b611c32565b6040516103a9929190613a2a565b60405180910390f35b3480156103be57600080fd5b506103d960048036038101906103d49190613a7f565b611ce0565b6040516103e69190613abf565b60405180910390f35b3480156103fb57600080fd5b5061041660048036038101906104119190613ada565b611d27565b005b34801561042457600080fd5b5061043f600480360381019061043a91906136de565b611e47565b6040516104579c9b9a99989796959493929190613b78565b60405180910390f35b34801561046c57600080fd5b50610487600480360381019061048291906136de565b612118565b005b34801561049557600080fd5b506104b060048036038101906104ab919061332d565b612277565b005b3480156104be57600080fd5b506104d960048036038101906104d491906136de565b612835565b6040516104e7929190613a2a565b60405180910390f35b3480156104fc57600080fd5b506105176004803603810190610512919061370b565b6128e3565b005b34801561052557600080fd5b50610540600480360381019061053b919061332d565b612a19565b005b6003602052816000526040600020602052806000526040600020600091509150508060000160009054906101000a900461ffff16908060000160029054906101000a900473ffffffffffffffffffffffffffffffffffffffff16908060010154908060020160009054906101000a900460ff16905084565b600660009054906101000a900473ffffffffffffffffffffffffffffffffffffffff1673ffffffffffffffffffffffffffffffffffffffff163373ffffffffffffffffffffffffffffffffffffffff161461061457600080fd5b80600160006101000a81548173ffffffffffffffffffffffffffffffffffffffff021916908373ffffffffffffffffffffffffffffffffffffffff16021790555050565b61068e600260008561ffff1661ffff16815260200190815260200160002060020160009054906101000a900461ffff1633612bf4565b6106cd576040517f08c379a00000000000000000000000000000000000000000000000000000000081526004016106c490613cb3565b60405180910390fd5b81600260008561ffff1661ffff16815260200190815260200160002060050160000160006101000a81548167ffffffffffffffff021916908367ffffffffffffffff16021790555080600260008561ffff1661ffff16815260200190815260200160002060050160000160086101000a81548167ffffffffffffffff021916908367ffffffffffffffff16021790555060026000600160149054906101000a900461ffff1661ffff1661ffff16815260200190815260200160002060060160189054906101000a900460ff1615158361ffff167f6d0bd97d07eb61a190d38333c6e99f378ac8fd474d475050319e2c02869849f360405160405180910390a3505050565b6107db8234612c9b565b61081a576040517f08c379a000000000000000000000000000000000000000000000000000000000815260040161081190613d45565b60405180910390fd5b42600260008461ffff1661ffff16815260200190815260200160002060060160109054906101000a900467ffffffffffffffff1667ffffffffffffffff16101561086c576108678261124a565b610cdb565b60008060008054906101000a900473ffffffffffffffffffffffffffffffffffffffff1673ffffffffffffffffffffffffffffffffffffffff1663ec1b2d81846040518263ffffffff1660e01b81526004016108c89190613abf565b600060405180830381865afa1580156108e5573d6000803e3d6000fd5b505050506040513d6000823e3d601f19601f8201168201806040525081019061090e9190613dfa565b9050508092505060008054906101000a900473ffffffffffffffffffffffffffffffffffffffff1673ffffffffffffffffffffffffffffffffffffffff1663ec1b2d81600260008761ffff1661ffff16815260200190815260200160002060020160009054906101000a900461ffff166040518263ffffffff1660e01b815260040161099a9190613abf565b600060405180830381865afa1580156109b7573d6000803e3d6000fd5b505050506040513d6000823e3d601f19601f820116820180604052508101906109e09190613dfa565b905050809150508060018111156109fa576109f9613989565b5b826001811115610a0d57610a0c613989565b5b03610a4d576040517f08c379a0000000000000000000000000000000000000000000000000000000008152600401610a4490613ef7565b60405180910390fd5b6002600160168282829054906101000a900461ffff16610a6d9190613f46565b92506101000a81548161ffff021916908361ffff16021790555082600360008661ffff1661ffff1681526020019081526020016000206000600160169054906101000a900461ffff1661ffff1661ffff16815260200190815260200160002060000160006101000a81548161ffff021916908361ffff16021790555033600360008661ffff1661ffff1681526020019081526020016000206000600160169054906101000a900461ffff1661ffff1661ffff16815260200190815260200160002060000160026101000a81548173ffffffffffffffffffffffffffffffffffffffff021916908373ffffffffffffffffffffffffffffffffffffffff16021790555034600360008661ffff1661ffff1681526020019081526020016000206000600160169054906101000a900461ffff1661ffff1661ffff168152602001908152602001600020600101819055506000600360008661ffff1661ffff1681526020019081526020016000206000600160169054906101000a900461ffff1661ffff1661ffff16815260200190815260200160002060020160006101000a81548160ff021916908315150217905550600460008561ffff1661ffff168152602001908152602001600020600160169054906101000a900461ffff1690806001815401808255809150506001900390600052602060002090601091828204019190066002029091909190916101000a81548161ffff021916908361ffff16021790555060001515600160169054906101000a900461ffff1661ffff168561ffff167feede45e9c1e239f8a870054f11df3daf31f6062499de917694f038f5704bc66360405160405180910390a450505b5050565b610d15600260008761ffff1661ffff16815260200190815260200160002060020160009054906101000a900461ffff1633612bf4565b610d54576040517f08c379a0000000000000000000000000000000000000000000000000000000008152600401610d4b90613cb3565b60405180910390fd5b8181600260008861ffff1661ffff1681526020019081526020016000206007018686604051610d84929190613fac565b90815260200160405180910390209182610d9f9291906141dc565b50610da985612ca7565b8383604051610db9929190613fac565b60405180910390208561ffff167fbaf97478c80f25341499beee1b0593dd5c3d1590210255e24f231e3226fb22f860405160405180910390a35050505050565b610e038633612bf4565b610e42576040517f08c379a0000000000000000000000000000000000000000000000000000000008152600401610e3990613cb3565b60405180910390fd5b428167ffffffffffffffff1611610e8e576040517f08c379a0000000000000000000000000000000000000000000000000000000008152600401610e859061431e565b60405180910390fd5b6002600160148282829054906101000a900461ffff16610eae9190613f46565b92506101000a81548161ffff021916908361ffff1602179055503360026000600160149054906101000a900461ffff1661ffff1661ffff16815260200190815260200160002060020160026101000a81548173ffffffffffffffffffffffffffffffffffffffff021916908373ffffffffffffffffffffffffffffffffffffffff1602179055503460026000600160149054906101000a900461ffff1661ffff1661ffff16815260200190815260200160002060030181905550878760026000600160149054906101000a900461ffff1661ffff1661ffff1681526020019081526020016000206000019182610fa59291906141dc565b508560026000600160149054906101000a900461ffff1661ffff1661ffff16815260200190815260200160002060020160006101000a81548161ffff021916908361ffff16021790555060405180604001604052808667ffffffffffffffff1681526020018567ffffffffffffffff1681525060026000600160149054906101000a900461ffff1661ffff1661ffff16815260200190815260200160002060040160008201518160000160006101000a81548167ffffffffffffffff021916908367ffffffffffffffff16021790555060208201518160000160086101000a81548167ffffffffffffffff021916908367ffffffffffffffff16021790555090505060405180604001604052808467ffffffffffffffff1681526020018367ffffffffffffffff1681525060026000600160149054906101000a900461ffff1661ffff1661ffff16815260200190815260200160002060050160008201518160000160006101000a81548167ffffffffffffffff021916908367ffffffffffffffff16021790555060208201518160000160086101000a81548167ffffffffffffffff021916908367ffffffffffffffff1602179055509050508060026000600160149054906101000a900461ffff1661ffff1661ffff16815260200190815260200160002060060160106101000a81548167ffffffffffffffff021916908367ffffffffffffffff160217905550600160026000600160149054906101000a900461ffff1661ffff1661ffff16815260200190815260200160002060060160186101000a81548160ff02191690831515021790555060011515600160149054906101000a900461ffff1661ffff167f6d0bd97d07eb61a190d38333c6e99f378ac8fd474d475050319e2c02869849f360405160405180910390a35050505050505050565b600660009054906101000a900473ffffffffffffffffffffffffffffffffffffffff1673ffffffffffffffffffffffffffffffffffffffff163373ffffffffffffffffffffffffffffffffffffffff16148061130f5750600260008261ffff1661ffff16815260200190815260200160002060020160029054906101000a900473ffffffffffffffffffffffffffffffffffffffff1673ffffffffffffffffffffffffffffffffffffffff163373ffffffffffffffffffffffffffffffffffffffff16145b8061134557503073ffffffffffffffffffffffffffffffffffffffff163373ffffffffffffffffffffffffffffffffffffffff16145b611384576040517f08c379a000000000000000000000000000000000000000000000000000000000815260040161137b906143b0565b60405180910390fd5b42600260008361ffff1661ffff16815260200190815260200160002060060160109054906101000a900467ffffffffffffffff1667ffffffffffffffff1611611402576040517f08c379a00000000000000000000000000000000000000000000000000000000081526004016113f99061441c565b60405180910390fd5b61140b81612118565b600260008261ffff1661ffff16815260200190815260200160002060020160029054906101000a900473ffffffffffffffffffffffffffffffffffffffff1673ffffffffffffffffffffffffffffffffffffffff16600260008361ffff1661ffff168152602001908152602001600020505060005b600460008361ffff1661ffff168152602001908152602001600020805490508110156115fd57600360008361ffff1661ffff1681526020019081526020016000206000600460008561ffff1661ffff16815260200190815260200160002083815481106114f0576114ef61443c565b5b90600052602060002090601091828204019190066002029054906101000a900461ffff1661ffff1661ffff16815260200190815260200160002060000160029054906101000a900473ffffffffffffffffffffffffffffffffffffffff1673ffffffffffffffffffffffffffffffffffffffff16600360008461ffff1661ffff1681526020019081526020016000206000600460008661ffff1661ffff16815260200190815260200160002084815481106115ae576115ad61443c565b5b90600052602060002090601091828204019190066002029054906101000a900461ffff1661ffff1661ffff168152602001908152602001600020505080806115f59061446b565b915050611480565b5050565b600160009054906101000a900473ffffffffffffffffffffffffffffffffffffffff1673ffffffffffffffffffffffffffffffffffffffff163373ffffffffffffffffffffffffffffffffffffffff1614611691576040517f08c379a00000000000000000000000000000000000000000000000000000000081526004016116889061454b565b60405180910390fd5b6001600560008361ffff1661ffff16815260200190815260200160002060006101000a81548160ff021916908360048111156116d0576116cf613989565b5b0217905550600160048111156116e9576116e8613989565b5b8161ffff167f5ce3ac421a0bdf2e262549c1d24776c81b7379f66ca3a670af65d222a39cb1c860405160405180910390a350565b611753600260008461ffff1661ffff16815260200190815260200160002060020160009054906101000a900461ffff1633612bf4565b611792576040517f08c379a000000000000000000000000000000000000000000000000000000000815260040161178990613cb3565b60405180910390fd5b428167ffffffffffffffff16116117de576040517f08c379a00000000000000000000000000000000000000000000000000000000081526004016117d59061431e565b60405180910390fd5b80600260008461ffff1661ffff16815260200190815260200160002060060160106101000a81548167ffffffffffffffff021916908367ffffffffffffffff16021790555060026000600160149054906101000a900461ffff1661ffff1661ffff16815260200190815260200160002060060160189054906101000a900460ff1615158261ffff167f6d0bd97d07eb61a190d38333c6e99f378ac8fd474d475050319e2c02869849f360405160405180910390a35050565b6118cc600260008461ffff1661ffff16815260200190815260200160002060020160009054906101000a900461ffff1633612bf4565b61190b576040517f08c379a000000000000000000000000000000000000000000000000000000000815260040161190290613cb3565b60405180910390fd5b80600260008461ffff1661ffff16815260200190815260200160002060060160086101000a81548167ffffffffffffffff021916908367ffffffffffffffff16021790555061195982612ca7565b60026000600160149054906101000a900461ffff1661ffff1661ffff16815260200190815260200160002060060160189054906101000a900460ff1615158261ffff167f6d0bd97d07eb61a190d38333c6e99f378ac8fd474d475050319e2c02869849f360405160405180910390a35050565b6060600260008461ffff1661ffff168152602001908152602001600020600701826040516119fa919061459c565b90815260200160405180910390208054611a1390613fff565b80601f0160208091040260200160405190810160405280929190818152602001828054611a3f90613fff565b8015611a8c5780601f10611a6157610100808354040283529160200191611a8c565b820191906000526020600020905b815481529060010190602001808311611a6f57829003601f168201915b5050505050905092915050565b611acf600260008561ffff1661ffff16815260200190815260200160002060020160009054906101000a900461ffff1633612bf4565b611b0e576040517f08c379a0000000000000000000000000000000000000000000000000000000008152600401611b0590613cb3565b60405180910390fd5b81600260008561ffff1661ffff16815260200190815260200160002060040160000160006101000a81548167ffffffffffffffff021916908367ffffffffffffffff16021790555080600260008561ffff1661ffff16815260200190815260200160002060040160000160086101000a81548167ffffffffffffffff021916908367ffffffffffffffff16021790555060026000600160149054906101000a900461ffff1661ffff1661ffff16815260200190815260200160002060060160189054906101000a900460ff1615158361ffff167f6d0bd97d07eb61a190d38333c6e99f378ac8fd474d475050319e2c02869849f360405160405180910390a3505050565b60056020528060005260406000206000915054906101000a900460ff1681565b600080611c3d61326c565b600260008561ffff1661ffff1681526020019081526020016000206004016040518060400160405290816000820160009054906101000a900467ffffffffffffffff1667ffffffffffffffff1667ffffffffffffffff1681526020016000820160089054906101000a900467ffffffffffffffff1667ffffffffffffffff1667ffffffffffffffff16815250509050806000015181602001519250925050915091565b60046020528160005260406000208181548110611cfc57600080fd5b9060005260206000209060109182820401919006600202915091509054906101000a900461ffff1681565b611d5d600260008561ffff1661ffff16815260200190815260200160002060020160009054906101000a900461ffff1633612bf4565b611d9c576040517f08c379a0000000000000000000000000000000000000000000000000000000008152600401611d9390613cb3565b60405180910390fd5b8181600260008661ffff1661ffff1681526020019081526020016000206001019182611dc99291906141dc565b50611dd383612ca7565b60026000600160149054906101000a900461ffff1661ffff1661ffff16815260200190815260200160002060060160189054906101000a900460ff1615158361ffff167f6d0bd97d07eb61a190d38333c6e99f378ac8fd474d475050319e2c02869849f360405160405180910390a3505050565b6002602052806000526040600020600091509050806000018054611e6a90613fff565b80601f0160208091040260200160405190810160405280929190818152602001828054611e9690613fff565b8015611ee35780601f10611eb857610100808354040283529160200191611ee3565b820191906000526020600020905b815481529060010190602001808311611ec657829003601f168201915b505050505090806001018054611ef890613fff565b80601f0160208091040260200160405190810160405280929190818152602001828054611f2490613fff565b8015611f715780601f10611f4657610100808354040283529160200191611f71565b820191906000526020600020905b815481529060010190602001808311611f5457829003601f168201915b5050505050908060020160009054906101000a900461ffff16908060020160029054906101000a900473ffffffffffffffffffffffffffffffffffffffff1690806003015490806004016040518060400160405290816000820160009054906101000a900467ffffffffffffffff1667ffffffffffffffff1667ffffffffffffffff1681526020016000820160089054906101000a900467ffffffffffffffff1667ffffffffffffffff1667ffffffffffffffff168152505090806005016040518060400160405290816000820160009054906101000a900467ffffffffffffffff1667ffffffffffffffff1667ffffffffffffffff1681526020016000820160089054906101000a900467ffffffffffffffff1667ffffffffffffffff1667ffffffffffffffff1681525050908060060160009054906101000a900467ffffffffffffffff16908060060160089054906101000a900467ffffffffffffffff16908060060160109054906101000a900467ffffffffffffffff16908060060160189054906101000a900460ff16908060080160009054906101000a900461ffff1690508c565b61214e600260008361ffff1661ffff16815260200190815260200160002060020160009054906101000a900461ffff1633612bf4565b61218d576040517f08c379a000000000000000000000000000000000000000000000000000000000815260040161218490613cb3565b60405180910390fd5b6000600260008361ffff1661ffff16815260200190815260200160002060060160186101000a81548160ff0219169083151502179055506121cd81612ca7565b600260008261ffff1661ffff16815260200190815260200160002060020160029054906101000a900473ffffffffffffffffffffffffffffffffffffffff1673ffffffffffffffffffffffffffffffffffffffff16600260008361ffff1661ffff1681526020019081526020016000205050600015158161ffff167f6d0bd97d07eb61a190d38333c6e99f378ac8fd474d475050319e2c02869849f360405160405180910390a350565b6122818282612f62565b6122c0576040517f08c379a00000000000000000000000000000000000000000000000000000000081526004016122b790614625565b60405180910390fd5b600060048111156122d4576122d3613989565b5b600560008461ffff1661ffff16815260200190815260200160002060009054906101000a900460ff16600481111561230f5761230e613989565b5b0361234f576040517f08c379a0000000000000000000000000000000000000000000000000000000008152600401612346906146b7565b60405180910390fd5b60008060009054906101000a900473ffffffffffffffffffffffffffffffffffffffff1673ffffffffffffffffffffffffffffffffffffffff1663ec1b2d81836040518263ffffffff1660e01b81526004016123ab9190613abf565b600060405180830381865afa1580156123c8573d6000803e3d6000fd5b505050506040513d6000823e3d601f19601f820116820180604052508101906123f19190613dfa565b905050809150506001600481111561240c5761240b613989565b5b600560008561ffff1661ffff16815260200190815260200160002060009054906101000a900460ff16600481111561244757612446613989565b5b0361253757600060018111156124605761245f613989565b5b81600181111561247357612472613989565b5b036124c1576002600560008561ffff1661ffff16815260200190815260200160002060006101000a81548160ff021916908360048111156124b7576124b6613989565b5b0217905550612532565b6001808111156124d4576124d3613989565b5b8160018111156124e7576124e6613989565b5b03612531576003600560008561ffff1661ffff16815260200190815260200160002060006101000a81548160ff0219169083600481111561252b5761252a613989565b5b02179055505b5b6127c4565b6002600481111561254b5761254a613989565b5b600560008561ffff1661ffff16815260200190815260200160002060009054906101000a900460ff16600481111561258657612585613989565b5b0361264a5760018081111561259e5761259d613989565b5b8160018111156125b1576125b0613989565b5b03612608576004600560008561ffff1661ffff16815260200190815260200160002060006101000a81548160ff021916908360048111156125f5576125f4613989565b5b02179055506126038361303c565b612645565b6000600181111561261c5761261b613989565b5b81600181111561262f5761262e613989565b5b03612644576000612643576126426146d7565b5b5b5b6127c3565b6003600481111561265e5761265d613989565b5b600560008561ffff1661ffff16815260200190815260200160002060009054906101000a900460ff16600481111561269957612698613989565b5b0361275d57600060018111156126b2576126b1613989565b5b8160018111156126c5576126c4613989565b5b0361271c576004600560008561ffff1661ffff16815260200190815260200160002060006101000a81548160ff0219169083600481111561270957612708613989565b5b02179055506127178361303c565b612758565b60018081111561272f5761272e613989565b5b81600181111561274257612741613989565b5b03612757576000612756576127556146d7565b5b5b5b6127c2565b6003600481111561277157612770613989565b5b600560008561ffff1661ffff16815260200190815260200160002060009054906101000a900460ff1660048111156127ac576127ab613989565b5b036127c15760006127c0576127bf6146d7565b5b5b5b5b5b600560008461ffff1661ffff16815260200190815260200160002060009054906101000a900460ff1660048111156127ff576127fe613989565b5b8361ffff167f5ce3ac421a0bdf2e262549c1d24776c81b7379f66ca3a670af65d222a39cb1c860405160405180910390a3505050565b60008061284061326c565b600260008561ffff1661ffff1681526020019081526020016000206005016040518060400160405290816000820160009054906101000a900467ffffffffffffffff1667ffffffffffffffff1667ffffffffffffffff1681526020016000820160089054906101000a900467ffffffffffffffff1667ffffffffffffffff1667ffffffffffffffff16815250509050806000015181602001519250925050915091565b612919600260008461ffff1661ffff16815260200190815260200160002060020160009054906101000a900461ffff1633612bf4565b612958576040517f08c379a000000000000000000000000000000000000000000000000000000000815260040161294f90613cb3565b60405180910390fd5b80600260008461ffff1661ffff16815260200190815260200160002060060160006101000a81548167ffffffffffffffff021916908367ffffffffffffffff1602179055506129a682612ca7565b60026000600160149054906101000a900461ffff1661ffff1661ffff16815260200190815260200160002060060160189054906101000a900460ff1615158261ffff167f6d0bd97d07eb61a190d38333c6e99f378ac8fd474d475050319e2c02869849f360405160405180910390a35050565b612a4f600260008461ffff1661ffff16815260200190815260200160002060020160009054906101000a900461ffff1633612bf4565b612a8e576040517f08c379a0000000000000000000000000000000000000000000000000000000008152600401612a8590613cb3565b60405180910390fd5b612a978261303f565b612ad6576040517f08c379a0000000000000000000000000000000000000000000000000000000008152600401612acd90614752565b60405180910390fd5b612adf82612118565b6001600360008461ffff1661ffff16815260200190815260200160002060008361ffff1661ffff16815260200190815260200160002060020160006101000a81548160ff0219169083151502179055506000600560008461ffff1661ffff16815260200190815260200160002060006101000a81548160ff02191690836004811115612b6e57612b6d613989565b5b021790555080600260008461ffff1661ffff16815260200190815260200160002060080160006101000a81548161ffff021916908361ffff160217905550612bb68282613087565b600115158161ffff168361ffff167feede45e9c1e239f8a870054f11df3daf31f6062499de917694f038f5704bc66360405160405180910390a45050565b60008060009054906101000a900473ffffffffffffffffffffffffffffffffffffffff1673ffffffffffffffffffffffffffffffffffffffff1663d17264f084846040518363ffffffff1660e01b8152600401612c52929190614772565b602060405180830381865afa158015612c6f573d6000803e3d6000fd5b505050506040513d601f19601f82011682018060405250810190612c9391906147c7565b905092915050565b60006001905092915050565b60005b600460008361ffff1661ffff16815260200190815260200160002080549050811015612f0657600360008361ffff1661ffff1681526020019081526020016000206000600460008561ffff1661ffff1681526020019081526020016000208381548110612d1a57612d1961443c565b5b90600052602060002090601091828204019190066002029054906101000a900461ffff1661ffff1661ffff16815260200190815260200160002060000160029054906101000a900473ffffffffffffffffffffffffffffffffffffffff1673ffffffffffffffffffffffffffffffffffffffff16600360008461ffff1661ffff1681526020019081526020016000206000600460008661ffff1661ffff1681526020019081526020016000208481548110612dd857612dd761443c565b5b90600052602060002090601091828204019190066002029054906101000a900461ffff1661ffff1661ffff1681526020019081526020016000205050600360008361ffff1661ffff1681526020019081526020016000206000600460008561ffff1661ffff1681526020019081526020016000208381548110612e5e57612e5d61443c565b5b90600052602060002090601091828204019190066002029054906101000a900461ffff1661ffff1661ffff168152602001908152602001600020600080820160006101000a81549061ffff02191690556000820160026101000a81549073ffffffffffffffffffffffffffffffffffffffff021916905560018201600090556002820160006101000a81549060ff021916905550508080612efe9061446b565b915050612caa565b50600460008261ffff1661ffff1681526020019081526020016000206000612f2e919061329a565b8061ffff167f372e3aa608ee95995abbce35189c94770e047df9a345e82c46cfd79918d0951860405160405180910390a250565b60008161ffff16600260008561ffff1661ffff16815260200190815260200160002060020160009054906101000a900461ffff1661ffff1603612fa85760019050613036565b8161ffff16600360008561ffff1661ffff1681526020019081526020016000206000600260008761ffff1661ffff16815260200190815260200160002060080160009054906101000a900461ffff1661ffff1661ffff16815260200190815260200160002060000160009054906101000a900461ffff1661ffff16036130315760019050613036565b600090505b92915050565b50565b6000600260008361ffff1661ffff16815260200190815260200160002060060160109054906101000a900467ffffffffffffffff1667ffffffffffffffff1642109050919050565b60005b600460008461ffff1661ffff16815260200190815260200160002080549050811015613267578161ffff16600460008561ffff1661ffff16815260200190815260200160002082815481106130e2576130e161443c565b5b90600052602060002090601091828204019190066002029054906101000a900461ffff1661ffff161461325457600360008461ffff1661ffff1681526020019081526020016000206000600460008661ffff1661ffff16815260200190815260200160002083815481106131595761315861443c565b5b90600052602060002090601091828204019190066002029054906101000a900461ffff1661ffff1661ffff16815260200190815260200160002060000160029054906101000a900473ffffffffffffffffffffffffffffffffffffffff1673ffffffffffffffffffffffffffffffffffffffff16600360008561ffff1661ffff1681526020019081526020016000206000600460008761ffff1661ffff16815260200190815260200160002084815481106132175761321661443c565b5b90600052602060002090601091828204019190066002029054906101000a900461ffff1661ffff1661ffff16815260200190815260200160002050505b808061325f9061446b565b91505061308a565b505050565b6040518060400160405280600067ffffffffffffffff168152602001600067ffffffffffffffff1681525090565b50805460008255600f0160109004906000526020600020908101906132bf91906132c2565b50565b5b808211156132db5760008160009055506001016132c3565b5090565b6000604051905090565b600080fd5b600080fd5b600061ffff82169050919050565b61330a816132f3565b811461331557600080fd5b50565b60008135905061332781613301565b92915050565b60008060408385031215613344576133436132e9565b5b600061335285828601613318565b925050602061336385828601613318565b9150509250929050565b613376816132f3565b82525050565b600073ffffffffffffffffffffffffffffffffffffffff82169050919050565b60006133a78261337c565b9050919050565b6133b78161339c565b82525050565b6000819050919050565b6133d0816133bd565b82525050565b60008115159050919050565b6133eb816133d6565b82525050565b6000608082019050613406600083018761336d565b61341360208301866133ae565b61342060408301856133c7565b61342d60608301846133e2565b95945050505050565b61343f8161339c565b811461344a57600080fd5b50565b60008135905061345c81613436565b92915050565b600060208284031215613478576134776132e9565b5b60006134868482850161344d565b91505092915050565b600067ffffffffffffffff82169050919050565b6134ac8161348f565b81146134b757600080fd5b50565b6000813590506134c9816134a3565b92915050565b6000806000606084860312156134e8576134e76132e9565b5b60006134f686828701613318565b9350506020613507868287016134ba565b9250506040613518868287016134ba565b9150509250925092565b600080fd5b600080fd5b600080fd5b60008083601f84011261354757613546613522565b5b8235905067ffffffffffffffff81111561356457613563613527565b5b6020830191508360018202830111156135805761357f61352c565b5b9250929050565b6000806000806000606086880312156135a3576135a26132e9565b5b60006135b188828901613318565b955050602086013567ffffffffffffffff8111156135d2576135d16132ee565b5b6135de88828901613531565b9450945050604086013567ffffffffffffffff811115613601576136006132ee565b5b61360d88828901613531565b92509250509295509295909350565b60008060008060008060008060e0898b03121561363c5761363b6132e9565b5b600089013567ffffffffffffffff81111561365a576136596132ee565b5b6136668b828c01613531565b985098505060206136798b828c01613318565b965050604061368a8b828c016134ba565b955050606061369b8b828c016134ba565b94505060806136ac8b828c016134ba565b93505060a06136bd8b828c016134ba565b92505060c06136ce8b828c016134ba565b9150509295985092959890939650565b6000602082840312156136f4576136f36132e9565b5b600061370284828501613318565b91505092915050565b60008060408385031215613722576137216132e9565b5b600061373085828601613318565b9250506020613741858286016134ba565b9150509250929050565b600080fd5b6000601f19601f8301169050919050565b7f4e487b7100000000000000000000000000000000000000000000000000000000600052604160045260246000fd5b61379982613750565b810181811067ffffffffffffffff821117156137b8576137b7613761565b5b80604052505050565b60006137cb6132df565b90506137d78282613790565b919050565b600067ffffffffffffffff8211156137f7576137f6613761565b5b61380082613750565b9050602081019050919050565b82818337600083830152505050565b600061382f61382a846137dc565b6137c1565b90508281526020810184848401111561384b5761384a61374b565b5b61385684828561380d565b509392505050565b600082601f83011261387357613872613522565b5b813561388384826020860161381c565b91505092915050565b600080604083850312156138a3576138a26132e9565b5b60006138b185828601613318565b925050602083013567ffffffffffffffff8111156138d2576138d16132ee565b5b6138de8582860161385e565b9150509250929050565b600081519050919050565b600082825260208201905092915050565b60005b83811015613922578082015181840152602081019050613907565b60008484015250505050565b6000613939826138e8565b61394381856138f3565b9350613953818560208601613904565b61395c81613750565b840191505092915050565b60006020820190508181036000830152613981818461392e565b905092915050565b7f4e487b7100000000000000000000000000000000000000000000000000000000600052602160045260246000fd5b600581106139c9576139c8613989565b5b50565b60008190506139da826139b8565b919050565b60006139ea826139cc565b9050919050565b6139fa816139df565b82525050565b6000602082019050613a1560008301846139f1565b92915050565b613a248161348f565b82525050565b6000604082019050613a3f6000830185613a1b565b613a4c6020830184613a1b565b9392505050565b613a5c816133bd565b8114613a6757600080fd5b50565b600081359050613a7981613a53565b92915050565b60008060408385031215613a9657613a956132e9565b5b6000613aa485828601613318565b9250506020613ab585828601613a6a565b9150509250929050565b6000602082019050613ad4600083018461336d565b92915050565b600080600060408486031215613af357613af26132e9565b5b6000613b0186828701613318565b935050602084013567ffffffffffffffff811115613b2257613b216132ee565b5b613b2e86828701613531565b92509250509250925092565b613b438161348f565b82525050565b604082016000820151613b5f6000850182613b3a565b506020820151613b726020850182613b3a565b50505050565b60006101c0820190508181036000830152613b93818f61392e565b90508181036020830152613ba7818e61392e565b9050613bb6604083018d61336d565b613bc3606083018c6133ae565b613bd0608083018b6133c7565b613bdd60a083018a613b49565b613bea60e0830189613b49565b613bf8610120830188613a1b565b613c06610140830187613a1b565b613c14610160830186613a1b565b613c226101808301856133e2565b613c306101a083018461336d565b9d9c50505050505050505050505050565b7f4572726f723a20454f41206973206e6f74206173736f6369617465642077697460008201527f6820746869732075736572000000000000000000000000000000000000000000602082015250565b6000613c9d602b836138f3565b9150613ca882613c41565b604082019050919050565b60006020820190508181036000830152613ccc81613c90565b9050919050565b7f446f6573206e6f74206d65657420637269746572696120666f7220647574636860008201527f2f656e676c697368206269640000000000000000000000000000000000000000602082015250565b6000613d2f602c836138f3565b9150613d3a82613cd3565b604082019050919050565b60006020820190508181036000830152613d5e81613d22565b9050919050565b60028110613d7257600080fd5b50565b600081519050613d8481613d65565b92915050565b6000613d9d613d98846137dc565b6137c1565b905082815260208101848484011115613db957613db861374b565b5b613dc4848285613904565b509392505050565b600082601f830112613de157613de0613522565b5b8151613df1848260208601613d8a565b91505092915050565b600080600060608486031215613e1357613e126132e9565b5b6000613e2186828701613d75565b935050602084015167ffffffffffffffff811115613e4257613e416132ee565b5b613e4e86828701613dcc565b925050604084015167ffffffffffffffff811115613e6f57613e6e6132ee565b5b613e7b86828701613dcc565b9150509250925092565b7f4572726f723a206e6f7420616c6c6f77656420746f20626964206f6e20706f7360008201527f74206f662073616d652077617465722074797065000000000000000000000000602082015250565b6000613ee16034836138f3565b9150613eec82613e85565b604082019050919050565b60006020820190508181036000830152613f1081613ed4565b9050919050565b7f4e487b7100000000000000000000000000000000000000000000000000000000600052601160045260246000fd5b6000613f51826132f3565b9150613f5c836132f3565b9250828201905061ffff811115613f7657613f75613f17565b5b92915050565b600081905092915050565b6000613f938385613f7c565b9350613fa083858461380d565b82840190509392505050565b6000613fb9828486613f87565b91508190509392505050565b600082905092915050565b7f4e487b7100000000000000000000000000000000000000000000000000000000600052602260045260246000fd5b6000600282049050600182168061401757607f821691505b60208210810361402a57614029613fd0565b5b50919050565b60008190508160005260206000209050919050565b60006020601f8301049050919050565b600082821b905092915050565b6000600883026140927fffffffffffffffffffffffffffffffffffffffffffffffffffffffffffffffff82614055565b61409c8683614055565b95508019841693508086168417925050509392505050565b6000819050919050565b60006140d96140d46140cf846133bd565b6140b4565b6133bd565b9050919050565b6000819050919050565b6140f3836140be565b6141076140ff826140e0565b848454614062565b825550505050565b600090565b61411c61410f565b6141278184846140ea565b505050565b5b8181101561414b57614140600082614114565b60018101905061412d565b5050565b601f8211156141905761416181614030565b61416a84614045565b81016020851015614179578190505b61418d61418585614045565b83018261412c565b50505b505050565b600082821c905092915050565b60006141b360001984600802614195565b1980831691505092915050565b60006141cc83836141a2565b9150826002028217905092915050565b6141e68383613fc5565b67ffffffffffffffff8111156141ff576141fe613761565b5b6142098254613fff565b61421482828561414f565b6000601f8311600181146142435760008415614231578287013590505b61423b85826141c0565b8655506142a3565b601f19841661425186614030565b60005b8281101561427957848901358255600182019150602085019450602081019050614254565b868310156142965784890135614292601f8916826141a2565b8355505b6001600288020188555050505b50505050505050565b7f4572726f723a206578706972792074696d6520697320696e207468652070617360008201527f7400000000000000000000000000000000000000000000000000000000000000602082015250565b60006143086021836138f3565b9150614313826142ac565b604082019050919050565b60006020820190508181036000830152614337816142fb565b9050919050565b7f536d61727420436f6e7472616374204572726f723a206e6f7420617574686f7260008201527f6973656420746f20726566756e642066726f6d207468697320706f7374000000602082015250565b600061439a603d836138f3565b91506143a58261433e565b604082019050919050565b600060208201905081810360008301526143c98161438d565b9050919050565b7f54686520706f737420686173206e6f7420657870697265640000000000000000600082015250565b60006144066018836138f3565b9150614411826143d0565b602082019050919050565b60006020820190508181036000830152614435816143f9565b9050919050565b7f4e487b7100000000000000000000000000000000000000000000000000000000600052603260045260246000fd5b6000614476826133bd565b91507fffffffffffffffffffffffffffffffffffffffffffffffffffffffffffffffff82036144a8576144a7613f17565b5b600182019050919050565b7f4572726f723a20746869732066756e6374696f6e2063616e206f6e6c7920626560008201527f207472696767657265642062792074686520766572696679696e6720636f6e7460208201527f7261637400000000000000000000000000000000000000000000000000000000604082015250565b60006145356044836138f3565b9150614540826144b3565b606082019050919050565b6000602082019050818103600083015261456481614528565b9050919050565b6000614576826138e8565b6145808185613f7c565b9350614590818560208601613904565b80840191505092915050565b60006145a8828461456b565b915081905092915050565b7f4572726f723a2070726f66696c654964206e6f74206173736f6369617465642060008201527f776974682074686973206465616c000000000000000000000000000000000000602082015250565b600061460f602e836138f3565b915061461a826145b3565b604082019050919050565b6000602082019050818103600083015261463e81614602565b9050919050565b7f4572726f723a206465616c206e6565647320746f20626520766572696669656460008201527f206265666f72652069742063616e20626520636c6f7365640000000000000000602082015250565b60006146a16038836138f3565b91506146ac82614645565b604082019050919050565b600060208201905081810360008301526146d081614694565b9050919050565b7f4e487b7100000000000000000000000000000000000000000000000000000000600052600160045260246000fd5b7f4572726f723a20706f7374206861732065787069726564000000000000000000600082015250565b600061473c6017836138f3565b915061474782614706565b602082019050919050565b6000602082019050818103600083015261476b8161472f565b9050919050565b6000604082019050614787600083018561336d565b61479460208301846133ae565b9392505050565b6147a4816133d6565b81146147af57600080fd5b50565b6000815190506147c18161479b565b92915050565b6000602082840312156147dd576147dc6132e9565b5b60006147eb848285016147b2565b9150509291505056fea2646970667358221220bc102c1adc09ae97c578893231961c24a989cd9df13bf4afd06d1ccf11f2afe764736f6c63430008120033",
  "linkReferences": {},
  "deployedLinkReferences": {}
}