{
  "_format": "hh-sol-artifact-1",
  "contractName": "verifyTributary",
  "sourceName": "contracts/verifyTributary.sol",
  "abi": [
    {
      "inputs": [
        {
          "internalType": "address",
          "name": "_lakeAddress",
          "type": "address"
        },
        {
          "internalType": "address",
          "name": "_riverAddress",
          "type": "address"
        }
      ],
      "stateMutability": "nonpayable",
      "type": "constructor"
    },
    {
      "anonymous": false,
      "inputs": [
        {
          "indexed": true,
          "internalType": "address",
          "name": "previousOwner",
          "type": "address"
        },
        {
          "indexed": true,
          "internalType": "address",
          "name": "newOwner",
          "type": "address"
        }
      ],
      "name": "OwnershipTransferred",
      "type": "event"
    },
    {
      "inputs": [],
      "name": "getSupportedRequests",
      "outputs": [
        {
          "internalType": "uint64[]",
          "name": "arr",
          "type": "uint64[]"
        }
      ],
      "stateMutability": "view",
      "type": "function"
    },
    {
      "inputs": [
        {
          "internalType": "uint64",
          "name": "requestId",
          "type": "uint64"
        }
      ],
      "name": "getZKPRequest",
      "outputs": [
        {
          "components": [
            {
              "internalType": "uint256",
              "name": "schema",
              "type": "uint256"
            },
            {
              "internalType": "uint256",
              "name": "claimPathKey",
              "type": "uint256"
            },
            {
              "internalType": "uint256",
              "name": "operator",
              "type": "uint256"
            },
            {
              "internalType": "uint256[]",
              "name": "value",
              "type": "uint256[]"
            },
            {
              "internalType": "uint256",
              "name": "queryHash",
              "type": "uint256"
            },
            {
              "internalType": "string",
              "name": "circuitId",
              "type": "string"
            }
          ],
          "internalType": "struct ICircuitValidator.CircuitQuery",
          "name": "",
          "type": "tuple"
        }
      ],
      "stateMutability": "view",
      "type": "function"
    },
    {
      "inputs": [],
      "name": "owner",
      "outputs": [
        {
          "internalType": "address",
          "name": "",
          "type": "address"
        }
      ],
      "stateMutability": "view",
      "type": "function"
    },
    {
      "inputs": [
        {
          "internalType": "address",
          "name": "",
          "type": "address"
        },
        {
          "internalType": "uint64",
          "name": "",
          "type": "uint64"
        }
      ],
      "name": "proofs",
      "outputs": [
        {
          "internalType": "bool",
          "name": "",
          "type": "bool"
        }
      ],
      "stateMutability": "view",
      "type": "function"
    },
    {
      "inputs": [],
      "name": "renounceOwnership",
      "outputs": [],
      "stateMutability": "nonpayable",
      "type": "function"
    },
    {
      "inputs": [
        {
          "internalType": "uint64",
          "name": "",
          "type": "uint64"
        }
      ],
      "name": "requestQueries",
      "outputs": [
        {
          "internalType": "uint256",
          "name": "schema",
          "type": "uint256"
        },
        {
          "internalType": "uint256",
          "name": "claimPathKey",
          "type": "uint256"
        },
        {
          "internalType": "uint256",
          "name": "operator",
          "type": "uint256"
        },
        {
          "internalType": "uint256",
          "name": "queryHash",
          "type": "uint256"
        },
        {
          "internalType": "string",
          "name": "circuitId",
          "type": "string"
        }
      ],
      "stateMutability": "view",
      "type": "function"
    },
    {
      "inputs": [
        {
          "internalType": "uint64",
          "name": "",
          "type": "uint64"
        }
      ],
      "name": "requestValidators",
      "outputs": [
        {
          "internalType": "contract ICircuitValidator",
          "name": "",
          "type": "address"
        }
      ],
      "stateMutability": "view",
      "type": "function"
    },
    {
      "inputs": [
        {
          "internalType": "uint64",
          "name": "requestId",
          "type": "uint64"
        },
        {
          "internalType": "contract ICircuitValidator",
          "name": "validator",
          "type": "address"
        },
        {
          "internalType": "uint256",
          "name": "schema",
          "type": "uint256"
        },
        {
          "internalType": "uint256",
          "name": "claimPathKey",
          "type": "uint256"
        },
        {
          "internalType": "uint256",
          "name": "operator",
          "type": "uint256"
        },
        {
          "internalType": "uint256[]",
          "name": "value",
          "type": "uint256[]"
        }
      ],
      "name": "setZKPRequest",
      "outputs": [
        {
          "internalType": "bool",
          "name": "",
          "type": "bool"
        }
      ],
      "stateMutability": "nonpayable",
      "type": "function"
    },
    {
      "inputs": [
        {
          "internalType": "uint64",
          "name": "requestId",
          "type": "uint64"
        },
        {
          "internalType": "contract ICircuitValidator",
          "name": "validator",
          "type": "address"
        },
        {
          "internalType": "uint256",
          "name": "schema",
          "type": "uint256"
        },
        {
          "internalType": "uint256",
          "name": "claimPathKey",
          "type": "uint256"
        },
        {
          "internalType": "uint256",
          "name": "operator",
          "type": "uint256"
        },
        {
          "internalType": "uint256[]",
          "name": "value",
          "type": "uint256[]"
        },
        {
          "internalType": "uint256",
          "name": "queryHash",
          "type": "uint256"
        }
      ],
      "name": "setZKPRequestRaw",
      "outputs": [
        {
          "internalType": "bool",
          "name": "",
          "type": "bool"
        }
      ],
      "stateMutability": "nonpayable",
      "type": "function"
    },
    {
      "inputs": [
        {
          "internalType": "uint64",
          "name": "requestId",
          "type": "uint64"
        },
        {
          "internalType": "uint256[]",
          "name": "inputs",
          "type": "uint256[]"
        },
        {
          "internalType": "uint256[2]",
          "name": "a",
          "type": "uint256[2]"
        },
        {
          "internalType": "uint256[2][2]",
          "name": "b",
          "type": "uint256[2][2]"
        },
        {
          "internalType": "uint256[2]",
          "name": "c",
          "type": "uint256[2]"
        }
      ],
      "name": "submitZKPResponse",
      "outputs": [
        {
          "internalType": "bool",
          "name": "",
          "type": "bool"
        }
      ],
      "stateMutability": "nonpayable",
      "type": "function"
    },
    {
      "inputs": [
        {
          "internalType": "address",
          "name": "newOwner",
          "type": "address"
        }
      ],
      "name": "transferOwnership",
      "outputs": [],
      "stateMutability": "nonpayable",
      "type": "function"
    }
  ],
  "bytecode": "0x60806040523480156200001157600080fd5b5060405162002bcb38038062002bcb833981810160405281019062000037919062000217565b620000576200004b620000e160201b60201c565b620000e960201b60201c565b81600560006101000a81548173ffffffffffffffffffffffffffffffffffffffff021916908373ffffffffffffffffffffffffffffffffffffffff16021790555080600660006101000a81548173ffffffffffffffffffffffffffffffffffffffff021916908373ffffffffffffffffffffffffffffffffffffffff16021790555050506200025e565b600033905090565b60008060009054906101000a900473ffffffffffffffffffffffffffffffffffffffff169050816000806101000a81548173ffffffffffffffffffffffffffffffffffffffff021916908373ffffffffffffffffffffffffffffffffffffffff1602179055508173ffffffffffffffffffffffffffffffffffffffff168173ffffffffffffffffffffffffffffffffffffffff167f8be0079c531659141344cd1fd0a4f28419497f9722a3daafe3b4186f6b6457e060405160405180910390a35050565b600080fd5b600073ffffffffffffffffffffffffffffffffffffffff82169050919050565b6000620001df82620001b2565b9050919050565b620001f181620001d2565b8114620001fd57600080fd5b50565b6000815190506200021181620001e6565b92915050565b60008060408385031215620002315762000230620001ad565b5b6000620002418582860162000200565b9250506020620002548582860162000200565b9150509250929050565b61295d806200026e6000396000f3fe608060405234801561001057600080fd5b50600436106100a95760003560e01c80639e621bcf116100715780639e621bcf14610158578063a872311414610188578063b45c0fdf146101b8578063b68967e2146101e8578063c76d084514610218578063f2fde38b14610248576100a9565b806337ba9523146100ae578063715018a6146100cc5780638da5cb5b146100d657806396bf4741146100f45780639abdc64514610128575b600080fd5b6100b6610264565b6040516100c39190611557565b60405180910390f35b6100d46102f0565b005b6100de610304565b6040516100eb91906115ba565b60405180910390f35b61010e60048036038101906101099190611615565b61032d565b60405161011f9594939291906116eb565b60405180910390f35b610142600480360381019061013d9190611814565b6103eb565b60405161014f91906118de565b60405180910390f35b610172600480360381019061016d91906118f9565b61053c565b60405161017f91906118de565b60405180910390f35b6101a2600480360381019061019d9190611615565b61082f565b6040516101af9190611a1a565b60405180910390f35b6101d260048036038101906101cd9190611a61565b610862565b6040516101df91906118de565b60405180910390f35b61020260048036038101906101fd9190611ae5565b610891565b60405161020f91906118de565b60405180910390f35b610232600480360381019061022d9190611615565b610c99565b60405161023f9190611d19565b60405180910390f35b610262600480360381019061025d9190611d3b565b610dec565b005b606060048054806020026020016040519081016040528092919081815260200182805480156102e657602002820191906000526020600020906000905b82829054906101000a900467ffffffffffffffff1667ffffffffffffffff16815260200190600801906020826007010492830192600103820291508084116102a15790505b5050505050905090565b6102f8610e6f565b6103026000610eed565b565b60008060009054906101000a900473ffffffffffffffffffffffffffffffffffffffff16905090565b600260205280600052604060002060009150905080600001549080600101549080600201549080600401549080600501805461036890611d97565b80601f016020809104026020016040519081016040528092919081815260200182805461039490611d97565b80156103e15780601f106103b6576101008083540402835291602001916103e1565b820191906000526020600020905b8154815290600101906020018083116103c457829003601f168201915b5050505050905085565b60006103f5610e6f565b600073__$933e38ee1bac859086d8d4e5388b6d5e5f$__6340ec6e4985856040518363ffffffff1660e01b8152600401610430929190611e43565b602060405180830381865af415801561044d573d6000803e3d6000fd5b505050506040513d601f19601f820116820180604052508101906104719190611e7c565b9050600073__$149ddb96bf5d692e763ea65f305faba249$__63f5b4a7886040518060c001604052808b8152602001600081526020018981526020018a815260200160008152602001858152506040518263ffffffff1660e01b81526004016104da9190611f54565b602060405180830381865af41580156104f7573d6000803e3d6000fd5b505050506040513d601f19601f8201168201806040525081019061051b9190611e7c565b905061052d8a8a8a8a8a8a8a8861053c565b92505050979650505050505050565b6000610546610e6f565b600073ffffffffffffffffffffffffffffffffffffffff16600360008b67ffffffffffffffff1667ffffffffffffffff16815260200190815260200160002060009054906101000a900473ffffffffffffffffffffffffffffffffffffffff1673ffffffffffffffffffffffffffffffffffffffff16036106185760048990806001815401808255809150506001900390600052602060002090600491828204019190066008029091909190916101000a81548167ffffffffffffffff021916908367ffffffffffffffff1602179055505b81600260008b67ffffffffffffffff1667ffffffffffffffff1681526020019081526020016000206004018190555084600260008b67ffffffffffffffff1667ffffffffffffffff168152602001908152602001600020600201819055508773ffffffffffffffffffffffffffffffffffffffff166359a2aeaa6040518163ffffffff1660e01b8152600401600060405180830381865afa1580156106c1573d6000803e3d6000fd5b505050506040513d6000823e3d601f19601f820116820180604052508101906106ea9190612090565b600260008b67ffffffffffffffff1667ffffffffffffffff1681526020019081526020016000206005019081610720919061227b565b5085600260008b67ffffffffffffffff1667ffffffffffffffff1681526020019081526020016000206001018190555086600260008b67ffffffffffffffff1667ffffffffffffffff168152602001908152602001600020600001819055508383600260008c67ffffffffffffffff1667ffffffffffffffff16815260200190815260200160002060030191906107b89291906113e5565b5087600360008b67ffffffffffffffff1667ffffffffffffffff16815260200190815260200160002060006101000a81548173ffffffffffffffffffffffffffffffffffffffff021916908373ffffffffffffffffffffffffffffffffffffffff1602179055506001905098975050505050505050565b60036020528060005260406000206000915054906101000a900473ffffffffffffffffffffffffffffffffffffffff1681565b60016020528160005260406000206020528060005260406000206000915091509054906101000a900460ff1681565b60008073ffffffffffffffffffffffffffffffffffffffff16600360008967ffffffffffffffff1667ffffffffffffffff16815260200190815260200160002060009054906101000a900473ffffffffffffffffffffffffffffffffffffffff1673ffffffffffffffffffffffffffffffffffffffff1603610948576040517f08c379a000000000000000000000000000000000000000000000000000000000815260040161093f906123bf565b60405180910390fd5b6000600260008967ffffffffffffffff1667ffffffffffffffff16815260200190815260200160002060040154036109b5576040517f08c379a00000000000000000000000000000000000000000000000000000000081526004016109ac90612451565b60405180910390fd5b610a4887878780806020026020016040519081016040528093929190818152602001838360200280828437600081840152601f19601f82011690508083019250505050505050600360008b67ffffffffffffffff1667ffffffffffffffff16815260200190815260200160002060009054906101000a900473ffffffffffffffffffffffffffffffffffffffff16610fb1565b600360008867ffffffffffffffff1667ffffffffffffffff16815260200190815260200160002060009054906101000a900473ffffffffffffffffffffffffffffffffffffffff1673ffffffffffffffffffffffffffffffffffffffff1663434661ef8787878787600260008f67ffffffffffffffff1667ffffffffffffffff168152602001908152602001600020600401546040518763ffffffff1660e01b8152600401610afc969594939291906125ad565b602060405180830381865afa158015610b19573d6000803e3d6000fd5b505050506040513d601f19601f82011682018060405250810190610b3d9190612637565b610b7c576040517f08c379a0000000000000000000000000000000000000000000000000000000008152600401610b73906126b0565b60405180910390fd5b60018060003373ffffffffffffffffffffffffffffffffffffffff1673ffffffffffffffffffffffffffffffffffffffff16815260200190815260200160002060008967ffffffffffffffff1667ffffffffffffffff16815260200190815260200160002060006101000a81548160ff021916908315150217905550610c8b87878780806020026020016040519081016040528093929190818152602001838360200280828437600081840152601f19601f82011690508083019250505050505050600360008b67ffffffffffffffff1667ffffffffffffffff16815260200190815260200160002060009054906101000a900473ffffffffffffffffffffffffffffffffffffffff166110c1565b600190509695505050505050565b610ca1611432565b600260008367ffffffffffffffff1667ffffffffffffffff1681526020019081526020016000206040518060c001604052908160008201548152602001600182015481526020016002820154815260200160038201805480602002602001604051908101604052809291908181526020018280548015610d4057602002820191906000526020600020905b815481526020019060010190808311610d2c575b5050505050815260200160048201548152602001600582018054610d6390611d97565b80601f0160208091040260200160405190810160405280929190818152602001828054610d8f90611d97565b8015610ddc5780601f10610db157610100808354040283529160200191610ddc565b820191906000526020600020905b815481529060010190602001808311610dbf57829003601f168201915b5050505050815250509050919050565b610df4610e6f565b600073ffffffffffffffffffffffffffffffffffffffff168173ffffffffffffffffffffffffffffffffffffffff1603610e63576040517f08c379a0000000000000000000000000000000000000000000000000000000008152600401610e5a90612742565b60405180910390fd5b610e6c81610eed565b50565b610e77611204565b73ffffffffffffffffffffffffffffffffffffffff16610e95610304565b73ffffffffffffffffffffffffffffffffffffffff1614610eeb576040517f08c379a0000000000000000000000000000000000000000000000000000000008152600401610ee2906127ae565b60405180910390fd5b565b60008060009054906101000a900473ffffffffffffffffffffffffffffffffffffffff169050816000806101000a81548173ffffffffffffffffffffffffffffffffffffffff021916908373ffffffffffffffffffffffffffffffffffffffff1602179055508173ffffffffffffffffffffffffffffffffffffffff168173ffffffffffffffffffffffffffffffffffffffff167f8be0079c531659141344cd1fd0a4f28419497f9722a3daafe3b4186f6b6457e060405160405180910390a35050565b6000611044838373ffffffffffffffffffffffffffffffffffffffff16639f442afa6040518163ffffffff1660e01b8152600401602060405180830381865afa158015611002573d6000803e3d6000fd5b505050506040513d601f19601f820116820180604052508101906110269190611e7c565b81518110611037576110366127ce565b5b602002602001015161120c565b90508073ffffffffffffffffffffffffffffffffffffffff16611065611204565b73ffffffffffffffffffffffffffffffffffffffff16146110bb576040517f08c379a00000000000000000000000000000000000000000000000000000000081526004016110b29061286f565b60405180910390fd5b50505050565b60006002846110d091906128be565b67ffffffffffffffff160361117157600560009054906101000a900473ffffffffffffffffffffffffffffffffffffffff1673ffffffffffffffffffffffffffffffffffffffff1663aece6ac0846040518263ffffffff1660e01b815260040161113a919061290c565b600060405180830381600087803b15801561115457600080fd5b505af1158015611168573d6000803e3d6000fd5b505050506111ff565b600660009054906101000a900473ffffffffffffffffffffffffffffffffffffffff1673ffffffffffffffffffffffffffffffffffffffff16635b31ec2e846040518263ffffffff1660e01b81526004016111cc919061290c565b600060405180830381600087803b1580156111e657600080fd5b505af11580156111fa573d6000803e3d6000fd5b505050505b505050565b600033905090565b600061122761122261121d8461122e565b61137a565b6113d7565b9050919050565b600081905060087eff00ff00ff00ff00ff00ff00ff00ff00ff00ff00ff00ff00ff00ff00ff00ff8216901b60087fff00ff00ff00ff00ff00ff00ff00ff00ff00ff00ff00ff00ff00ff00ff00ff008316901c17905060107dffff0000ffff0000ffff0000ffff0000ffff0000ffff0000ffff0000ffff8216901b60107fffff0000ffff0000ffff0000ffff0000ffff0000ffff0000ffff0000ffff00008316901c17905060207bffffffff00000000ffffffff00000000ffffffff00000000ffffffff8216901b60207fffffffff00000000ffffffff00000000ffffffff00000000ffffffff000000008316901c179050604077ffffffffffffffff0000000000000000ffffffffffffffff8216901b60407fffffffffffffffff0000000000000000ffffffffffffffff00000000000000008316901c179050608081901b608082901c179050919050565b6060602067ffffffffffffffff81111561139757611396611f74565b5b6040519080825280601f01601f1916602001820160405280156113c95781602001600182028036833780820191505090505b509050816020820152919050565b600060148201519050919050565b828054828255906000526020600020908101928215611421579160200282015b82811115611420578235825591602001919060010190611405565b5b50905061142e9190611468565b5090565b6040518060c001604052806000815260200160008152602001600081526020016060815260200160008152602001606081525090565b5b80821115611481576000816000905550600101611469565b5090565b600081519050919050565b600082825260208201905092915050565b6000819050602082019050919050565b600067ffffffffffffffff82169050919050565b6114ce816114b1565b82525050565b60006114e083836114c5565b60208301905092915050565b6000602082019050919050565b600061150482611485565b61150e8185611490565b9350611519836114a1565b8060005b8381101561154a57815161153188826114d4565b975061153c836114ec565b92505060018101905061151d565b5085935050505092915050565b6000602082019050818103600083015261157181846114f9565b905092915050565b600073ffffffffffffffffffffffffffffffffffffffff82169050919050565b60006115a482611579565b9050919050565b6115b481611599565b82525050565b60006020820190506115cf60008301846115ab565b92915050565b6000604051905090565b600080fd5b600080fd5b6115f2816114b1565b81146115fd57600080fd5b50565b60008135905061160f816115e9565b92915050565b60006020828403121561162b5761162a6115df565b5b600061163984828501611600565b91505092915050565b6000819050919050565b61165581611642565b82525050565b600081519050919050565b600082825260208201905092915050565b60005b8381101561169557808201518184015260208101905061167a565b60008484015250505050565b6000601f19601f8301169050919050565b60006116bd8261165b565b6116c78185611666565b93506116d7818560208601611677565b6116e0816116a1565b840191505092915050565b600060a082019050611700600083018861164c565b61170d602083018761164c565b61171a604083018661164c565b611727606083018561164c565b818103608083015261173981846116b2565b90509695505050505050565b600061175082611599565b9050919050565b61176081611745565b811461176b57600080fd5b50565b60008135905061177d81611757565b92915050565b61178c81611642565b811461179757600080fd5b50565b6000813590506117a981611783565b92915050565b600080fd5b600080fd5b600080fd5b60008083601f8401126117d4576117d36117af565b5b8235905067ffffffffffffffff8111156117f1576117f06117b4565b5b60208301915083602082028301111561180d5761180c6117b9565b5b9250929050565b600080600080600080600060c0888a031215611833576118326115df565b5b60006118418a828b01611600565b97505060206118528a828b0161176e565b96505060406118638a828b0161179a565b95505060606118748a828b0161179a565b94505060806118858a828b0161179a565b93505060a088013567ffffffffffffffff8111156118a6576118a56115e4565b5b6118b28a828b016117be565b925092505092959891949750929550565b60008115159050919050565b6118d8816118c3565b82525050565b60006020820190506118f360008301846118cf565b92915050565b60008060008060008060008060e0898b031215611919576119186115df565b5b60006119278b828c01611600565b98505060206119388b828c0161176e565b97505060406119498b828c0161179a565b965050606061195a8b828c0161179a565b955050608061196b8b828c0161179a565b94505060a089013567ffffffffffffffff81111561198c5761198b6115e4565b5b6119988b828c016117be565b935093505060c06119ab8b828c0161179a565b9150509295985092959890939650565b6000819050919050565b60006119e06119db6119d684611579565b6119bb565b611579565b9050919050565b60006119f2826119c5565b9050919050565b6000611a04826119e7565b9050919050565b611a14816119f9565b82525050565b6000602082019050611a2f6000830184611a0b565b92915050565b611a3e81611599565b8114611a4957600080fd5b50565b600081359050611a5b81611a35565b92915050565b60008060408385031215611a7857611a776115df565b5b6000611a8685828601611a4c565b9250506020611a9785828601611600565b9150509250929050565b600081905082602060020282011115611abd57611abc6117b9565b5b92915050565b600081905082604060020282011115611adf57611ade6117b9565b5b92915050565b6000806000806000806101408789031215611b0357611b026115df565b5b6000611b1189828a01611600565b965050602087013567ffffffffffffffff811115611b3257611b316115e4565b5b611b3e89828a016117be565b95509550506040611b5189828a01611aa1565b9350506080611b6289828a01611ac3565b925050610100611b7489828a01611aa1565b9150509295509295509295565b611b8a81611642565b82525050565b600081519050919050565b600082825260208201905092915050565b6000819050602082019050919050565b6000611bc88383611b81565b60208301905092915050565b6000602082019050919050565b6000611bec82611b90565b611bf68185611b9b565b9350611c0183611bac565b8060005b83811015611c32578151611c198882611bbc565b9750611c2483611bd4565b925050600181019050611c05565b5085935050505092915050565b600082825260208201905092915050565b6000611c5b8261165b565b611c658185611c3f565b9350611c75818560208601611677565b611c7e816116a1565b840191505092915050565b600060c083016000830151611ca16000860182611b81565b506020830151611cb46020860182611b81565b506040830151611cc76040860182611b81565b5060608301518482036060860152611cdf8282611be1565b9150506080830151611cf46080860182611b81565b5060a083015184820360a0860152611d0c8282611c50565b9150508091505092915050565b60006020820190508181036000830152611d338184611c89565b905092915050565b600060208284031215611d5157611d506115df565b5b6000611d5f84828501611a4c565b91505092915050565b7f4e487b7100000000000000000000000000000000000000000000000000000000600052602260045260246000fd5b60006002820490506001821680611daf57607f821691505b602082108103611dc257611dc1611d68565b5b50919050565b600082825260208201905092915050565b600080fd5b82818337505050565b6000611df38385611dc8565b93507f07ffffffffffffffffffffffffffffffffffffffffffffffffffffffffffffff831115611e2657611e25611dd9565b5b602083029250611e37838584611dde565b82840190509392505050565b60006020820190508181036000830152611e5e818486611de7565b90509392505050565b600081519050611e7681611783565b92915050565b600060208284031215611e9257611e916115df565b5b6000611ea084828501611e67565b91505092915050565b600060069050919050565b600081905092915050565b6000819050919050565b611ed281611642565b82525050565b6000611ee48383611ec9565b60208301905092915050565b6000602082019050919050565b611f0681611ea9565b611f108184611eb4565b9250611f1b82611ebf565b8060005b83811015611f4c578151611f338782611ed8565b9650611f3e83611ef0565b925050600181019050611f1f565b505050505050565b600060c082019050611f696000830184611efd565b92915050565b600080fd5b7f4e487b7100000000000000000000000000000000000000000000000000000000600052604160045260246000fd5b611fac826116a1565b810181811067ffffffffffffffff82111715611fcb57611fca611f74565b5b80604052505050565b6000611fde6115d5565b9050611fea8282611fa3565b919050565b600067ffffffffffffffff82111561200a57612009611f74565b5b612013826116a1565b9050602081019050919050565b600061203361202e84611fef565b611fd4565b90508281526020810184848401111561204f5761204e611f6f565b5b61205a848285611677565b509392505050565b600082601f830112612077576120766117af565b5b8151612087848260208601612020565b91505092915050565b6000602082840312156120a6576120a56115df565b5b600082015167ffffffffffffffff8111156120c4576120c36115e4565b5b6120d084828501612062565b91505092915050565b60008190508160005260206000209050919050565b60006020601f8301049050919050565b600082821b905092915050565b60006008830261213b7fffffffffffffffffffffffffffffffffffffffffffffffffffffffffffffffff826120fe565b61214586836120fe565b95508019841693508086168417925050509392505050565b600061217861217361216e84611642565b6119bb565b611642565b9050919050565b6000819050919050565b6121928361215d565b6121a661219e8261217f565b84845461210b565b825550505050565b600090565b6121bb6121ae565b6121c6818484612189565b505050565b5b818110156121ea576121df6000826121b3565b6001810190506121cc565b5050565b601f82111561222f57612200816120d9565b612209846120ee565b81016020851015612218578190505b61222c612224856120ee565b8301826121cb565b50505b505050565b600082821c905092915050565b600061225260001984600802612234565b1980831691505092915050565b600061226b8383612241565b9150826002028217905092915050565b6122848261165b565b67ffffffffffffffff81111561229d5761229c611f74565b5b6122a78254611d97565b6122b28282856121ee565b600060209050601f8311600181146122e557600084156122d3578287015190505b6122dd858261225f565b865550612345565b601f1984166122f3866120d9565b60005b8281101561231b578489015182556001820191506020850194506020810190506122f6565b868310156123385784890151612334601f891682612241565b8355505b6001600288020188555050505b505050505050565b7f76616c696461746f72206973206e6f742073657420666f72207468697320726560008201527f7175657374206964000000000000000000000000000000000000000000000000602082015250565b60006123a9602883611666565b91506123b48261234d565b604082019050919050565b600060208201905081810360008301526123d88161239c565b9050919050565b7f7175657279206973206e6f742073657420666f7220746869732072657175657360008201527f7420696400000000000000000000000000000000000000000000000000000000602082015250565b600061243b602483611666565b9150612446826123df565b604082019050919050565b6000602082019050818103600083015261246a8161242e565b9050919050565b600082825260208201905092915050565b600061248e8385612471565b93507f07ffffffffffffffffffffffffffffffffffffffffffffffffffffffffffffff8311156124c1576124c0611dd9565b5b6020830292506124d2838584611dde565b82840190509392505050565b6124ea60408383611dde565b5050565b600060029050919050565b600081905092915050565b6000819050919050565b61251a60408383611dde565b5050565b600061252a838361250e565b60408301905092915050565b600082905092915050565b6000604082019050919050565b612557816124ee565b61256181846124f9565b925061256c82612504565b8060005b838110156125a5576125828284612536565b61258c878261251e565b965061259783612541565b925050600181019050612570565b505050505050565b60006101408201905081810360008301526125c981888a612482565b90506125d860208301876124de565b6125e5606083018661254e565b6125f260e08301856124de565b61260061012083018461164c565b979650505050505050565b612614816118c3565b811461261f57600080fd5b50565b6000815190506126318161260b565b92915050565b60006020828403121561264d5761264c6115df565b5b600061265b84828501612622565b91505092915050565b7f70726f6f6620726573706f6e7365206973206e6f742076616c69640000000000600082015250565b600061269a601b83611666565b91506126a582612664565b602082019050919050565b600060208201905081810360008301526126c98161268d565b9050919050565b7f4f776e61626c653a206e6577206f776e657220697320746865207a65726f206160008201527f6464726573730000000000000000000000000000000000000000000000000000602082015250565b600061272c602683611666565b9150612737826126d0565b604082019050919050565b6000602082019050818103600083015261275b8161271f565b9050919050565b7f4f776e61626c653a2063616c6c6572206973206e6f7420746865206f776e6572600082015250565b6000612798602083611666565b91506127a382612762565b602082019050919050565b600060208201905081810360008301526127c78161278b565b9050919050565b7f4e487b7100000000000000000000000000000000000000000000000000000000600052603260045260246000fd5b7f6164647265737320696e207468652070726f6f66206973206e6f74206120736560008201527f6e64657220616464726573730000000000000000000000000000000000000000602082015250565b6000612859602c83611666565b9150612864826127fd565b604082019050919050565b600060208201905081810360008301526128888161284c565b9050919050565b7f4e487b7100000000000000000000000000000000000000000000000000000000600052601260045260246000fd5b60006128c9826114b1565b91506128d4836114b1565b9250826128e4576128e361288f565b5b828206905092915050565b600061ffff82169050919050565b612906816128ef565b82525050565b600060208201905061292160008301846128fd565b9291505056fea26469706673582212200bc9dc41d1cc5f054068e43048143aceaee6e651f995cb5807563388b246544764736f6c63430008120033",
  "linkReferences": {
    "contracts/lib/Poseidon.sol": {
      "PoseidonUnit6L": [
        {
          "length": 20,
          "start": 1765
        }
      ]
    },
    "contracts/lib/SpongePoseidon.sol": {
      "SpongePoseidon": [
        {
          "length": 20,
          "start": 1639
        }
      ]
    }
  },
  "deployedLinkReferences": {
    "contracts/lib/Poseidon.sol": {
      "PoseidonUnit6L": [
        {
          "length": 20,
          "start": 1143
        }
      ]
    },
    "contracts/lib/SpongePoseidon.sol": {
      "SpongePoseidon": [
        {
          "length": 20,
          "start": 1017
        }
      ]
    }
  }
}